:020000040001F9
:10B00000904B0020F5B001000FB1010011B101001B
:10B010000000000000000000000000000000000030
:10B0200000000000000000000000000013B101005B
:10B03000000000000000000015B1010017B1010080
:10B0400019B1010019B1010005BA010019B10100DF
:10B0500019B101000000000085B7010019B101001D
:10B0600019B1010019B1010019B1010019B10100B4
:10B0700019B1010019B1010019B1010019B10100A4
:10B0800019B101001DB9010019B1010019B1010088
:10B090003DB9010019B1010045B9010019B1010024
:10B0A00019B1010019B1010000000000000000000A
:10B0B0000000000000000000000000000000000090
:10B0C0000348854600F08EFA00480047410102001F
:10B0D000904B0020401E00BF00BF00BF00BF00BF5C
:10B0E00000BF00BF00BF00BF00BF00BF00BFF1D165
:10B0F000704700000321094802680A4302600848BB
:10B1000002680A4302600748804707480047FEE795
:10B11000FEE7FEE7FEE7FEE7FEE70000240500404D
:10B120005405004065B90100C1B0010030B50B46BF
:10B13000014600202022012409E00D46D5409D4211
:10B1400005D31D469540491B254695404019154697
:10B15000521E002DF1DC30BD10B5431A934209D2C6
:10B160008318881803E0401E01785B1E1970521E78
:10B17000F9D210BD03460B439B0703D009E008C971
:10B18000121F08C0042AFAD203E00B780370401C97
:10B19000491C521EF9D210BDD2B201E00270401C0F
:10B1A000491EFBD270470022F6E710B513460A4647
:10B1B00004461946FFF7F0FF204610BD421C0178F7
:10B1C000401C0029FBD1801A704730B5044600208E
:10B1D000034600E05B1C934203D2E05CCD5C401B65
:10B1E000F8D030BD0321001D401E037812021A431F
:10B1F000491EF9D510467047F0B51FB40646002029
:10B2000082B005464024019100901BE0019922463E
:10B210000F46304600F008FA049A059B801A9941BF
:10B2200010D310461946224600F0EEF9361A8F4127
:10B230000197224601200021009F00F0E5F938180F
:10B240004D4100902046641E0028DFDC019B0098E1
:10B250002946324607B0F0BDF0B5074608465840CB
:10B2600087B0C00F049048000E46590040084908B6
:10B27000BC1A884105D2384631461E4617460B4651
:10B2800002465800400810434CD0300D0390400552
:10B290005900400D490D0590401A0290402872DA7D
:10B2A00018030121000B090508430190049800923E
:10B2B000002805D001995242002088410092019057
:10B2C000029840210A1A0199009800F09DF905465C
:10B2D0000C466B4607CB00F0B8F9C0197141039AD0
:10B2E0000E0D0023D71756401A467A40164344D015
:10B2F000049A002A2DD0029A012A039A15DC12051D
:10B30000C01A914101263605001C7141D20F059EDD
:10B31000D2070093019202962A46234600F0B5F91F
:10B3200007B0F0BD38463146FAE71605224A0F4607
:10B33000B218C01AB74101210905001C4F4100187D
:10B340007F41114618187941E20F10436D1964418D
:10B3500013E0E2076D0815436408C2071443039A1B
:10B3600001261205C01A91413605001C7141CE0715
:10B37000400830434908C01851412A46234600F08E
:10B3800077F9CDE7FFE7049801224000C117121AB0
:10B3900000238B4104983146C417381AA141EEE7C7
:10B3A00030B40124E407634030BC55E730B40124D5
:10B3B000E407614030BC4FE70000E0FFF0B51FB488
:10B3C00088B00B990998002448400999C00F49009A
:10B3D00049080991C0070B990090490049080B9151
:10B3E00009990898A64608431CD00B990A98084367
:10B3F00018D0099801244000420D4800410D0998D9
:10B4000024050003000B204309900B980003000B58
:10B4100020430B9050181C494018002201901446FC
:10B42000104605E0002001460DB0F0BD032801DA0A
:10B43000034600E003239C46C11A0AAE0AE05F00FF
:10B4400008ADED5B4F00F75B7D430027AA187C41F8
:10B45000491C5B1E6145F2DD410004AB5A522104D8
:10B46000120C0A43240C401C0828DFDB01980290D0
:10B470000099704601910090059B049A07990698DF
:10B4800000F003F9D0E700000DFCFFFFF0B50C461B
:10B490005C4085B0E40FE40703944C000026640888
:10B4A00059009446490802460296224321D062463A
:10B4B0000A431ED06200570D4A000E032303550DA8
:10B4C000012402462C492405781B1B0B360B40181F
:10B4D00023432643614600901C46501AB44103D3CF
:10B4E0000098401C009002E0921800985B410028F0
:10B4F00003DA0020014605B0F0BD00200121090556
:10B500000746864611E064461D46141BB54106D326
:10B510006546521BB341744607430C43A646CD070C
:10B5200040084908284392185B4105460D43EAD17B
:10B530001046184313D060461946504071400843E6
:10B5400006D06046101AB34106D20122002306E05D
:10B5500000220123DB0702E00122D24353100098AE
:10B5600074460105381C6141029C039D0019694124
:10B5700000F07EF8BFE70000FD0300004A00090369
:10B580000123090B1B0519430A4B10B5520D9A42B2
:10B5900002DA0020014610BD064B34339A4203DC28
:10B5A0009A1A00F041F810BD034BD21800F02CF8A5
:10B5B00010BD0000FF030000CDFBFFFF10B5002908
:10B5C00004DB0124E40740428C412146002B04DBCC
:10B5D0001C460123DB075242A341994200D190420D
:10B5E00010BD0000064C0125064E05E0E36807CCBF
:10B5F0002B430C3C98471034B442F7D3FFF764FD5B
:10B60000F44702001448020010B5202A04DB01466A
:10B61000203A9140002010BD914020239C1A0346FF
:10B62000E3401943904010BD10B5202A04DB0846C2
:10B63000203AD040002110BD0B46D340D0402024FA
:10B64000A21A91400843194610BD10B5202A06DB06
:10B65000CB170846203A1041C1170B4306E00B46B2
:10B660001341D0402024A21A91400843194610BD2E
:10B6700010B5002B08DA0024401C614192185B4190
:10B680001A4301D14008400010BDF0B51FB482B08C
:10B6900005460C0003D0084600F0C2F902E000F0B5
:10B6A000BFF920300246009021462846FFF7ACFF44
:10B6B000049B059A04460F4618431143084314D0CF
:10B6C000184610431BD0009840210A1A18460599C5
:10B6D000FFF7AAFF05460E46009A05990498FFF762
:10B6E00093FF084305D0012004E02046394607B007
:10B6F000F0BD0020C11705430E432C43374300998A
:10B700000E986305401A7905E40A00220C43FD0AED
:10B710000A3002D500200146E9E701051019694108
:10B720000C9C0D9D00196941FFF7A2FFDFE770B582
:10B730008C180578401C6B075B0F01D10378401C07
:10B740002A1106D10278401C03E006780E70401CD6
:10B75000491C5B1EF9D12B0705D40023521E0DD4C2
:10B760000B70491CFAE70378401CCB1A921C03E0CB
:10B770001D780D70491C5B1C521EF9D5A142D8D30F
:10B78000002070BDF0B50025FF248BB001340126E8
:10B790002F460195204605F011F9002808D04748AA
:10B7A0004068304204D046480021201835430160EB
:10B7B000241D76007F1CA4B2042FEBD3FF207D3024
:10B7C00005F0FCF8002807D03E4800210160400742
:10B7D00005433D48006901903C4C280712D00127E1
:10B7E00000262F420AD03A48B200111808690969A8
:10B7F000C004C00E8903A258890F90477F00761CB1
:10B80000042EEED3002D57DA00200590401E4DE0A7
:10B81000A119403108788506AD0E42B2521C39D0CC
:10B820000121A940089A0091114233D08009039068
:10B83000284602F019FB800020580490002802D10D
:10B840000398032826D103980099032802D105986C
:10B85000084305901F4AA80080180068019A8003D9
:10B86000800F114202D0022802D013E0032811D128
:10B870000399032907D102281CD00221284605F08C
:10B880008DF87F1CFFB20498002803D0049A284644
:10B8900003999047761C042EBAD3002F0CD00A4887
:10B8A00000690199884207D00190059800273E461B
:10B8B0000890ADE70321E1E70BB0F0BD0063004065
:10B8C000006000407C61004000050050C43E002044
:10B8D00000650040000700508307FF22DB0E9A40FE
:10B8E0008907090E994000280BDA0007000F083875
:10B8F000830808489B001818C36993430B43C3612E
:10B900007047830804489B001B181868904308433D
:10B910001860704700ED00E000E400E010B5064953
:10B920000020086048608860C860034940390860AA
:10B93000486008F0EBF910BD4011014010B508F067
:10B940007BF910BD10B506484068002805D0804737
:10B95000002801D000F0DEFE10BD03F0EBFF10BDAB
:10B96000702D002010B504F06DF8002805D01F4997
:10B970001D484860C8131E4988611E48018CC9B221
:10B9800001290BD1828C120708D1028D1206120FE9
:10B99000042A03D1828D1206120F0AD0012921D167
:10B9A000818C09071ED1018D0906090F0A2904D0CF
:10B9B00007E0114A01219160F5E7828D1206120F0E
:10B9C00005D00D290ED1808D0006000F0AD10B483D
:10B9D0000168012904D00A49016001680129FCD1EC
:10B9E000C021416110BD0000DFFF07C0000500401D
:10B9F000006C0040C00F00F00006004000EC064064
:10BA00007593000010B508F081FA10BD10B5024B17
:10BA1000024A00F0E5F810BDB1E901006C2D0020EC
:10BA20002021020C01D010211046020A01D010463C
:10BA30000839020901D01046091F820801D01046BA
:10BA4000891E420801D0881E7047081A704730B41A
:10BA50007446641E2578641CAB4200D21D46635DAB
:10BA60005B00E31830BC184702E008C8121F08C189
:10BA7000002AFAD170477047002001E001C1121F6F
:10BA8000002AFBD170470000F0B51FB484B00798BE
:10BA90000699020D014314D04A484B4910184843F7
:10BAA00005140F9801280E981CD0281A401C002459
:10BAB000464E4749009401910290002814DA47420B
:10BAC00027E00F98012443A3012808D000210498FF
:10BAD0000F9A84600360C260416009B0F0BD0E98A7
:10BAE000C143F4E74042E2E7074612E0F80707D017
:10BAF0002246334601990098FFF760FC01910090BF
:10BB00002246334610461946FFF758FC04460E46B7
:10BB10007F10002FEAD10298019B0028009A079914
:10BB2000069802DAFFF74AFC01E0FFF7AFFC044693
:10BB30000E460022284BFFF741FD03D80020C043EA
:10BB4000014607E00022254B20463146FFF784FBE3
:10BB5000FFF714FD102409E0002C0ADB0A22002361
:10BB6000FFF74AFB059B30321A55641E02460A4312
:10BB7000F2D11122641C059B121B1C190F9B012B77
:10BB800003D0012308430ED10AE0084304D011205A
:10BB90000E9000200F9084E70E98151A6D1E0BE092
:10BBA0000E98824202DD00236D1C03E0824201DA1E
:10BBB00000236D1E002BEED004980F998260C160A7
:10BBC00030C08AE701FCFFFF104D00000000244058
:10BBD0000000F03F300000000000F0430000E03FB4
:10BBE000FFB597B00646002518E2252877D1002436
:10BBF0002746FD49049400E00443761C3278012076
:10BC0000203A90400842F7D130782A280ED00222FC
:10BC1000307801463039092916D804990A23594346
:10BC2000303940181443761C0490F1E7189802C884
:10BC300004911890002904DA01204003044348428B
:10BC4000049002200443761C30782E2814D104205E
:10BC500004437078761C2A2809D11898761C80C86D
:10BC6000189009E00A214F43303FC719761C3078FD
:10BC7000014630390929F5D930786C2810D006DC16
:10BC80004C281AD068280ED06A2817D104E07428EE
:10BC900013D07A2812D110E00120400504430CE0B3
:10BCA0000121090501E0032109050C437178814256
:10BCB00003D1012000052418761C761C30781190E1
:10BCC00066280BD013DC58287DD009DC00287BD0F7
:10BCD0004528F6D04628F4D047281AD1A5E118E027
:10BCE000632835D0642870D0652812D19DE1702872
:10BCF0006CD008DC6728F1D069287BD06E280DD085
:10BD00006F2806D1BAE073282ED0752871D0782814
:10BD100059D01A9A199990476D1C7EE16002400F24
:10BD2000022809D003280DD00428189801680DD0E6
:10BD30000D60001D189070E11898EA1701680D60F9
:10BD40004A60F6E7189801680D80F2E70D70F0E799
:10BD500018986A4601781172001D189000205072E0
:10BD600002A80090012005E0189802C81890002051
:10BD70000091C04361070DD5002101E00199491CE4
:10BD80000191B94212DA8142F8DB009A515C002934
:10BD9000F4D10BE0002101E00199491C019181429D
:10BDA000FADB019A0099895C0029F5D10199049880
:10BDB0001A9B471A21463846199A00F097FA0199BA
:10BDC000401945180BE04FE02CE113E04EE00098DD
:10BDD00000990078491C00911A9A19999047019886
:10BDE000401E0190401CF2D1214638461A9B199AF8
:10BDF00010E137E00A200021009001916002410F1C
:10BE0000022907D0189A01CA1892C217944603292A
:10BE100008D00AE01898C01DC108C90005C91891CA
:10BE2000944607E000B2C2179446042902D140B2FA
:10BE3000C1178C4600226146944506DA0A46002165
:10BE4000404291418C462D2102E0210504D52B2151
:10BE50006A461173012103E0E10701D02021F7E7D1
:10BE6000029155E00A200AE0102008E0102000901E
:10BE70000021042004430191082703E00820002149
:10BE8000019100906002410F022907D0189A01CA5F
:10BE9000189200229446032908D008E01898C01D83
:10BEA000C108C90005C91891944603E080B204296D
:10BEB00000D1C0B200210291210729D51199702922
:10BEC00006D0009A1021019B4A401A4305D00EE08B
:10BED00040216A461173012108E06146014306D002
:10BEE00030216A4611731199517302210291009A0F
:10BEF0000821019B4A401A430AD16146014301D1FE
:10BF0000610705D530216A46117301217F1E029118
:10BF10001199582904D035A10E910DA90D910DE06C
:10BF200037A1F9E76146019B009AFFF765F90E9B7F
:10BF30008C469B5C0D9A521E0D9213706146014314
:10BF4000F0D10D9805A9081A20300190600703D59B
:10BF500001200004844300E001270198874201DDAD
:10BF6000381A00E000200199009041180298091841
:10BF70000498401A0490E00306D421461A9B199AAB
:10BF8000049800F0B3F94519002706E003A81A9AAF
:10BF9000C05D199990476D1C7F1C02988742F5DBA4
:10BFA000E0030CD521461A9B199A049800F09EF9DB
:10BFB000451904E01A9A3020199990476D1C009990
:10BFC000481E00900029F5DC08E00D980D990078D6
:10BFD000491C0D911A9A199990476D1C0199481E98
:10BFE00001900029F1DC63E109280100303132338E
:10BFF00034353637383961626364656600000000A5
:10C00000303132333435363738394142434445468E
:10C010000000000000F05AF94519761C307800281D
:10C0200000D0E2E528461BB0F0BD600700D406272B
:10C030001898C01DC108C90048680A680831C30FB4
:10C04000DB071891190001D09CA108E0210501D55A
:10C050009BA104E0E10701D09AA100E09AA143006E
:10C0600011985B08109165280CD006DC452809D092
:10C0700046281DD0472841D141E0662818D06728BE
:10C080003CD13CE00021112F01DB112000E0781CA5
:10C090000191009008A911A8FFF7F6FC13990591EA
:10C0A0000021119A15927F1C12980197009150E07F
:10C0B0000120C00703900120019008A9009711A852
:10C0C000FFF7E2FC139A149905920022119B00924B
:10C0D00012981593059A0192002901D0104602E0AA
:10C0E000791C40180190381A01D5019804E04042AB
:10C0F000401E0090781C0190C01B029043E0012F6D
:10C1000000DA01270021112F01DD112000E038465F
:10C110000191009008A911A8FFF7B6FC13990591A9
:10C12000119A0021129815920091019721070CD4C1
:10C130000599B94201DB019900E00191012904DD73
:10C14000159A491E515C302906D0B84201DA011D0A
:10C1500005DA0121029115E00199491EEDE7002859
:10C1600005DC0099411800910199091A03E0019A30
:10C17000411C914200DD01910099401A401C02903F
:10C180000120C0070390200706D40299019881423C
:10C1900002DB0020C043029000206946C87707AF49
:10C1A000012103980337C907884224D00220119047
:10C1B0002B201290039800280CDA404203902D2087
:10C1C000129007E00A210398FEF7B0FF30317F1E7E
:10C1D000039039701199481E11900029F2DC0398E0
:10C1E0000028EFD1791E129808703078202108407D
:10C1F0004530BF1E387006A8C01BC01D03901098A4
:10C200000078002800D00120019941180298C01739
:10C210000918039809180498401A401E0490E00376
:10C2200006D421461A9B199A049800F05FF8451924
:10C2300010980078002803D01A9A199990476D1C1D
:10C24000E00324D521461A9B199A049800F04EF871
:10C2500045191CE00098002807DB009905988842E2
:10C2600003DD1598405C199901E0199930201A9A5C
:10C27000904700986D1C401C00900298401E029050
:10C28000002804D11A9A2E20199990476D1C019903
:10C29000481E01900029DDDC05E038781A9A7F1CE1
:10C2A000199990476D1C0399481E03900029F4DCEE
:10C2B00021461A9B199A0498ACE600002D00000054
:10C2C0002B0000002000000000000000F8B504462C
:10C2D00000251E461746880404D405E03946202070
:10C2E000B0476D1C641EF9D52846F8BDFFB504465D
:10C2F000002581B01E46C80301D5302700E0202765
:10C30000880404D505E038460399B0476D1C641EC7
:10C31000F9D5284605B0F0BD10B500280CD000298D
:10C320000AD002780B789A4206D10622401C491C9A
:10C33000FEF74BFF002801D0002010BD012010BDEA
:10C34000F7B584B00025168807461580406B144663
:10C35000002813D003780598032E51D302210170D1
:10C3600021881122491C89B2218042542188491C0C
:10C3700089B2218043542088401C2080386B0028DB
:10C380001DD005462088059902461232B24237D8A0
:10C3900011220A5420881022401C80B220800A54A6
:10C3A0002088401C20800F202A5C2388401ECA540D
:10C3B000228840B2521C22800028F5DA0025384637
:10C3C00020300290807B002806D033462246059913
:10C3D00003F06DFB050014D10298407B002806D0C5
:10C3E00032462146059800F067FF050009D1B8786C
:10C3F000002823D0059886462088001DB04202D927
:10C400000C2007B0F0BD684679DF0028F9D12188FB
:10C4100003207246505420881921401C80B220808D
:10C42000115420887146401C80B220804118684613
:10C43000008807F0FFFD218840182080F878002848
:10C4400017D0218803230A46FB56C91C0598B14220
:10C45000D6D80221815421880122491C89B2218029
:10C4600042542188491C89B2218043542088401CB1
:10C4700020807868002817D021880023C3560A46F8
:10C48000C91C0598B142BBD80221815421880A22D7
:10C49000491C89B2218042542188491C89B22180DB
:10C4A00043542088401C2080388900280AD00094FA
:10C4B00038460196062202210830059B07F03BFE14
:10C4C00005009ED1388A00280AD00094384601968B
:10C4D000072203211030059B07F02DFE050090D1A7
:10C4E000388B00280AD00094384601961522142172
:10C4F0001830059B07F01FFE050082D1386A00281E
:10C5000006D033462246059901F064FD0500D8D1D6
:10C51000786A002806D033462246059903F0F4FED7
:10C520000500CED10298007B002807D03346224672
:10C530003846059906F06AFF0500C2D13878002810
:10C5400007D0334622463846059903F011FF05000F
:10C55000B7D1284655E770B500238D880C680DE0EB
:10C56000E6187678E15C864206D1E018801C491E08
:10C5700010609180002070BD5B185B1C9D42EFD85D
:10C58000052070BD08B5684602F09EFA002801D06B
:10C5900000F0C0F8009800280ED106F0C1FC01217F
:10C5A00006484905C16000218160032000F080FB3E
:10C5B000002801D000F0AEF808BD000000050050D2
:10C5C00010B501220221002001F07CFA002801D0E0
:10C5D000072812D107220221012001F073FA002856
:10C5E00001D0072809D100210A22084601F06AFA81
:10C5F000002801D0072800D1002010BDF0B50F465B
:10C600008DB0002116466D460F24621A825C6A5472
:10C61000491C1029F9D328460D211030FEF7C3FD1F
:10C620000020221A395C5219401C11740328F8D3D7
:10C6300068464DDF0020211A49192031097831540C
:10C64000401C0328F7D30DB0F0BD00000448426839
:10C650000121C9050B46934383600A40C2607047BD
:10C660000005005070B50024064D06E06968E00042
:10C67000085C012103F044FF641C28788442F5D350
:10C68000002070BD142D0020F8B515460C46064656
:10C69000052A01D20720F8BD04F008F8002803D1CC
:10C6A00003F0DAFF0028F6D1104900204E600C702C
:10C6B000C8608D6008610E4D0DE0E000696880196A
:10C6C000009181786A46517000780A4A694603F001
:10C6D00067FF0028DFD12046641EE4B20028ECD1B9
:10C6E000054A0021024800F021F8F8BD142D002071
:10C6F000A046020069F0010011E20100BFF34F8F74
:10C7000003490248C860BFF34F8FFEE70400FA05F3
:10C7100000ED00E00EB50021029000916A46019103
:10C720000148FFF7EBFF0EBD01400000094B9B687D
:10C73000002B07D0002A07D0002805D00068037C12
:10C74000002B03D0082070470720704741744261D6
:10C7500000207047282D0020FFB59007002581B0EC
:10C7600014460E46002832D11B4F002C31D006F063
:10C770007DFB0498786103203870334618212246E7
:10C7800000204B43BC601834C10089180D704D70F7
:10C790008E704C601C19401C0328F5DBFD607D7019
:10C7A00001240E48BD702405046003211420FFF706
:10C7B00093F80B4804600B4C0198A06003211120F2
:10C7C000FFF78AF860683861002005B0F0BD0720E7
:10C7D000FBE7BD60FBE70000282D002080E200E0C1
:10C7E00000E100E000150140FEB50D461B4917466B
:10C7F0008968044600292AD0002C28D0052D01D2B2
:10C800000720FEBD6069002821D0607C012820D06F
:10C81000002607F053FCC0001049019089684018B9
:10C82000694607F075FC002815D0012101700C49FC
:10C83000446049680830E2C0084901988968411895
:10C8400068460078487007F039FA0020FEBD0820DD
:10C85000FEBD2E46DDE70420FEBD0000282D002091
:10C8600000150140F8B5134D0446A96800291CD0F5
:10C87000002C1AD06069002817D00026267407F013
:10C880001DFCC700A8686946381807F041FC00285D
:10C890000DD0022101704460A868391868460078FC
:10C8A000487007F00BFA3046F8BD0820F8BD0420A8
:10C8B000F8BD0000282D002070B588B0154604464C
:10C8C0001E4620221A496846FEF746FCA0680690DC
:10C8D0002079002801D0012100E00021684601757F
:10C8E00006776079002800D00E2069464875E07808
:10C8F0000290A078039020780190607800900D4815
:10C90000002145608170207902280ED00A496846CE
:10C9100003F0D4FE002806D103F05AFF0548012198
:10C92000401C03F02FFF08B070BD0620FBE700009D
:10C9300060460200E82C0020B53E020010B5074911
:10C9400008700121054803F09DFF112803D000283D
:10C9500000D0032010BD042010BD0000E82C0020F2
:10C9600030B5EFF3108172B6094A54680123002CE8
:10C9700004D00370002900D162B630BD5360054B6E
:10C980001D68054C254015601C6000220270F1E70F
:10C99000842D002080E100E0FC06FFBC08494A68C5
:10C9A000002A0CD000280AD1EFF3108072B60A6872
:10C9B000044B1A6000224A60002800D162B670471A
:10C9C000842D002000E100E0F0B504468BB0008823
:10C9D00000F07AFB0690208802F0D8FE0646A06898
:10C9E0000090657A684605741E4F2088797B002286
:10C9F00000F0BAFB0698002831D06079400710D5C6
:10CA00000721304604F01EFF002813D00822694693
:10CA10000A7422884A828E82069004A801F03EFDA4
:10CA200008E0F97B208800F08DFB002802D030461A
:10CA300002F08CFE0321684601712188C180607973
:10CA40004007C10F68460172A0794007C10F6846D0
:10CA5000417201788172C57201A801F01FFD0BB00F
:10CA6000F0BD0000782C0020F0B50C4693B01F21DB
:10CA70006A461180072600279180002809D0C178D6
:10CA800049070DD502A9FFF75BFC002809D102ADCB
:10CA900001E000251780002C0ED0E078002802D09D
:10CAA000304613B0F0BD01AA0AA92046FFF748FCA2
:10CAB0000028F6D10AAA02E068460022878068466C
:10CAC0008088C3B268460088C1B2284672DFE8E7B2
:10CAD00070B50D4604991646040042D0002E40D091
:10CAE000424800224271C36001612422314640481D
:10CAF000FEF732FB00F0D4F83D49343108461038D7
:10CB000001602031816038215C38FEF74CFB3848E9
:10CB1000217838380170A1788170E178C17061782E
:10CB200041706269216942610161E268A168C26085
:10CB300081600146E369A269CB618A61616A00296B
:10CB400019D00146AC310246B83241628A60636A4C
:10CB50001B880B80616A436A898899800021436A37
:10CB600006E00E2070BD666AB668765C5654491CB5
:10CB70009E888E42F7D8A16A00291CD01C4AAC328C
:10CB800011460C398A608162A36A9B888B80A16AF6
:10CB9000836A098819800021836A04E0A66AB6685E
:10CBA000765C5654491C9E888E42F7D82C210A5D2B
:10CBB0000F4918390A73216A002909D00B49143129
:10CBC0000162226A52884A80216A026A09881180B9
:10CBD0006168002904D00549891D41606168416090
:10CBE000034829463838FFF73FFF70BD082C002066
:10CBF0004835002010B502881C4C102A17D000219F
:10CC0000112A1AD01B2A11D1007A00280ED160797E
:10CC100001281ED0022822D0032822D0042805D1C2
:10CC20002171E2680846002A00D0904710BD817D3E
:10CC30000129FBD18088208110BD61708088218905
:10CC40008842F9D1012005E021690029F4D0884704
:10CC500010BD022000F02CF80028F5D110BD0320F3
:10CC6000F8E7032020710420F4E70000082C0020DE
:10CC700010B5022801D003280ED1084C20780028D6
:10CC80000AD000202070607900F012F8002803D04C
:10CC90002169002900D0884710BD0000082C002021
:10CCA00010B507210148FEF77EFA10BD202C0020A8
:10CCB000F0B5784C87B06071002606A8069605F09E
:10CCC00087FD0127082802D0002808D104E006A823
:10CCD00001F0FAFE002804D10698002801D0277040
:10CCE000D4E0FFF7DDFF6C4D6878002802D0607952
:10CCF000012807D0A87800280CD06079012801D03D
:10CD0000022824D1E168002903D0E7700820884771
:10CD100000E0E6706079012808D16878002809D021
:10CD20005C48193005F02CF9002803D060790228FE
:10CD300002D00CE002206071A878002805D0554888
:10CD4000193005F01DF9002801D103206071287BFE
:10CD5000002804D16079032801D104206071287E65
:10CD6000002804D16079042801D166712671E16838
:10CD700000290AD06079032801D0042805D1287839
:10CD8000002802D06078002817D0A67018216846C5
:10CD9000FEF709FA684606700196067203966079F6
:10CDA00001280ED0022815D03B4E243637465C3F72
:10CDB00003281BD004285DD13AE0A77007208847DC
:10CDC000E4E73448183001906846077046820682CE
:10CDD000277152E02F481830019068460770298962
:10CDE0004182A98801820220207146E0A88A694612
:10CDF0004882288A08822848243007F00BFA002845
:10CE000005D02878002802D06078002801D00320BF
:10CE10002FE002206946087204200396F8701E482D
:10CE200000213838FFF720FE002830D1052020E00F
:10CE3000A88B69460882288C48821748243007F05E
:10CE4000E9F9002805D02878002802D06078002869
:10CE500001D004200DE002206946087204200396E8
:10CE6000F8700D4800213838FFF7FEFD00280ED17C
:10CE7000062020716079002803D0684673DF0028FF
:10CE800005D1E168002901D020798847002007B04A
:10CE9000F0BD0000082C00204835002070B5054684
:10CEA00001461C220E48FEF757F90E4C002626704C
:10CEB0002968002906D00822201DFEF74DF9201D03
:10CEC0007ADF02E00748001D7BDF002807D1401E03
:10CED00060806670044A00210448FFF727FC70BD9B
:10CEE00034360020282C002041400200F845020082
:10CEF000F8B5214C028800271E4DE689102A15D06E
:10CF00001E49112A21D0122A2DD0502A1CD1C288A4
:10CF1000801DB24218D14289022A15D1427B037B7F
:10CF200010021843C007C00F0CD112E0818869803D
:10CF300001461048082218310C30FEF70DF96F70C9
:10CF4000002E01D101F08EF8F8BD0020C0436880AA
:10CF50006F700868FFF786FC0028F5D0A1690029EA
:10CF6000F2D08847F8BD0822811802480C30FEF73D
:10CF7000F3F8E7E7282C002034360020F8450200BB
:10CF800010B503490A7D091D06F079F810BD0000AF
:10CF900050360020034B10B50246D97D181D06F00F
:10CFA0005BF810BD50360020034B10B50246197EC9
:10CFB000181D06F051F810BD5036002010B5034979
:10CFC000887D497D084006F07DF810BD5036002070
:10CFD000F0B5044602883A488DB0014615310191FA
:10CFE000102A09D0112A50D01A2A4AD1217A0909C7
:10CFF00001294ED901234DE0027D417D05468A433A
:10D00000011D07A806F03BF8142207A902A8FEF7A5
:10D01000A3F800262A483746143008900AE0710029
:10D0200002A8081883881D220097281D089905F07A
:10D03000D3FF761C0298B042F1D8287DA688C04361
:10D04000C0B205F0EDFF1F49884217D040004019DB
:10D05000868001233246281D019906F043F80123FA
:10D060003246281D089906F03DF8A07D02280AD016
:10D0700000231349A2881631281D1DE00420FFF764
:10D0800049FB0DB0F0BD0123F3E70023A288001D8A
:10D0900012E000230A490546A2881731001D06F058
:10D0A00021F8207A0009022801D9012300E0002399
:10D0B0000349A2881831281D06F014F8E1E70000A2
:10D0C00050360020FFFF000070B50B4E05460024CF
:10D0D000317D2A46301D05F0BFFF002809D0B17D03
:10D0E0002A46301D05F0B8FF002801D0022400E0D8
:10D0F0000124204670BD00005036002010B50024E9
:10D10000204606F0CFFF002805D0641CE4B2182C9E
:10D11000F6D3182010BD044801220168A240114333
:10D120000160204610BD00005036002010B50446B6
:10D1300006F0B8FF002802D001480019407E10BD5B
:10D140005036002070B505460C46084606F0AAFF8A
:10D15000002806D003482A460119497E001D05F023
:10D160007BFF70BD5036002070B5064615460C4654
:10D17000084606F097FF002807D004482B460119FF
:10D180003246001D193105F0ADFF70BD503600204C
:10D1900070B500280AD00F4D2978002908D0044620
:10D1A00005F008FD002805D0002070BD0E2070BDE0
:10D1B000082070BDE868062809D2074A810089184E
:10D1C00022880A8062884A80401CE860ECE70420DC
:10D1D00070BD00003C2C002084360020002808D0C0
:10D1E000002205490123CA600B708A60486010461E
:10D1F00070470E20704700003C2C002010B500281E
:10D2000011D000290FD0124A1278002A0BD00A88B8
:10D21000112A11D0302A07D0322A09D0332A02D15C
:10D22000091D03F0D5FD10BD091D03F09FFE10BDC3
:10D23000091D03F055FD10BD8A88FF21AB31095A45
:10D240008A42F8D10021FF30A130C17110BD000029
:10D250003C2C002010B50B4600280ED0144A117843
:10D2600000290CD0D168002909D00446FF34A1342C
:10D27000E179002905D0112010BD0E2010BD082035
:10D2800010BDFF21AB310B5200219160024621728B
:10D290000848A171018811804088508001211846FA
:10D2A00090DF0028ECD10120E071002010BD0000CB
:10D2B0003C2C0020843600207CB5054608880C46AE
:10D2C0000930904201D90C207CBD684671DF0028EE
:10D2D000FAD121880820685420881B21401C80B284
:10D2E00020802954208800A9401C80B22080401949
:10D2F00006220131FDF730FF20886946801D80B28B
:10D3000020800978002900D0012129542088401C60
:10D31000208000207CBD000070B50446FFF758FE59
:10D32000204605F039F9A5882846FFF7CDFE0128EB
:10D3300005D00228208815D01D2815D070BD2046A4
:10D3400003F074FC2046FFF755FC2046FFF7D0FDA4
:10D350002146144800F00EF912482146503000F0E2
:10D3600027FA70BD112802D0204603F055FB032D8B
:10D3700007D2FF20AD3045430B4821462818FFF760
:10D380003DFF09482146183800F05EF8064821465E
:10D390000C3800F07FF920881128E2D1204603F0F4
:10D3A0003BFB70BD38340020342F0020002808D00B
:10D3B0000180002A03D0118841805188818000209B
:10D3C00070470E207047000070B500281CD00F4B2E
:10D3D00002884488186814214143401C40070C4DC2
:10D3E000400F186049194C810220C881081D08614E
:10D3F00000248C810120087208714C710A808870A9
:10D4000006F0C4FC204670BD0E2070BD4C2C0020E0
:10D410007C38002008B5002812D0002910D0012344
:10D420006A469370074B1380096881600021C943E5
:10D4300001800021418081806846FFF7A9FE08BD78
:10D440000E2008BD0D1800001CB5002823D00029AF
:10D4500021D00A88112A28D0382A1FD0392A1AD177
:10D4600002888B889A4216D18A8983889A4212D17F
:10D4700002236A461370038853808A7CD3074A1CB0
:10D48000002B09D0D17C927C090211436A4691801D
:10D490008268694690471CBDC97CF7E70088898887
:10D4A0008842F8D106F072FC1CBD028889888A4245
:10D4B000FAD10021C94301800021418081801CBD37
:10D4C00030B50446008C134A8BB090421FD006AA98
:10D4D000204601F073FF6946054608800020019050
:10D4E00002900390049022898A8001228A71088127
:10D4F00006A803910490208C01A9A6DF002804D17E
:10D5000069460988A94200D00C200BB030BD082024
:10D51000FBE70000FFFF000038B504460868206004
:10D52000087960710020C0430D462084002022212C
:10D5300008554C2108530121684681700C4901802F
:10D54000A21D69460120A0DF00280FD129462046F0
:10D5500001F0DCFE002809D1A868002805D0294682
:10D56000204600F0DBF9002800D1002038BD000083
:10D570000D18000038B50A88102A17D0112A17D0C4
:10D58000502A18D1CA888389891D9A4213D14A89A1
:10D59000022A10D10268002A0DD04B7B0C7B1902A5
:10D5A0002143C907C90F07D0002106E0898801E09F
:10D5B0000021C943018438BD01216B4619706946B9
:10D5C000904738BD7CB50A78002A34D18A881A4B36
:10D5D0009A4230D18A79012A2DD101236A461370EB
:10D5E0004B8853800022154C0B7A0FE00C255543D5
:10D5F0006D18ED89A54208D10C235A4351180B8BA5
:10D600006A469380C98AD18002E0521C9342EDD8C9
:10D6100001880B4A91420BD04188002908D18188AA
:10D62000002905D16946898841806946C988818079
:10D630008268694690477CBD0D180000372A0000BB
:10D64000FFFF0000002808D00180002A03D01188C5
:10D65000418051888180002070470E207047000073
:10D6600008B5002812D0002910D001236A46937013
:10D67000074B1380096881600021C94301800021A4
:10D68000418081806846FFF783FD08BD0E2008BDFC
:10D690001418000010B500280AD0002908D00A8804
:10D6A000112A0DD0382A04D0392A01D103F0F0FB19
:10D6B00010BD008889888842FAD106F089FB10BD28
:10D6C000028889888A42FAD10021C9430180002159
:10D6D0004180818010BD000010B5002805D003886E
:10D6E00006498B4203D1082010BD0E2010BD418891
:10D6F0000122184600F05CFB10BD0000FFFF000097
:10D7000038B50D4604001ED0002D1CD028682060BE
:10D710000020C043E082688920830121684681702F
:10D720000A490180221D69460120A0DF002809D195
:10D730002946204605F0AAFA002803D129462046AA
:10D7400005F05EFA38BD0E2038BD00001418000048
:10D7500030B58BB0040025D0002923D0E08A134ACD
:10D76000904221D006AA204605F0E8FA694605460F
:10D77000088000200190029003900490E2888A8043
:10D7800001228A71088106A803910490E08A01A908
:10D79000A6DF002804D169460988A94200D00C20E0
:10D7A0000BB030BD0E20FBE70820F9E7FFFF0000BB
:10D7B00038B5002821D000291FD00A88102A17D098
:10D7C000112A17D0502A18D1CA884389891D9A4234
:10D7D00013D14A89022A10D10268002A0DD04B7B4E
:10D7E0000C7B19022143C907C90F07D0002106E0AD
:10D7F000898801E00021C943C18238BD01216B46FF
:10D8000019706946904738BD30B50446087885B030
:10D81000002838D188881D4A904234D1887901285F
:10D8200031D148886A4650800022194B087A0FE0AF
:10D830000C2555436D18ED899D4208D10C204243BB
:10D840005018028B69468A80C08AC88002E0521C48
:10D850009042EDD80F4802F069FC20880E498842BA
:10D860000BD06088002808D1A088002805D1684620
:10D87000808860806846C088A08001206946087062
:10D88000A2682046904705B030BD00001418000083
:10D89000532A000068470200FFFF000000B51A4845
:10D8A00087B04068059000234822184905A806F073
:10D8B00097F9002801D0FEF72DFF6A4601210220CA
:10D8C00006F076F9002801D0FEF724FF104805F095
:10D8D00035FB002801D0FEF71DFF684606F05EF913
:10D8E000002801D0FEF716FF0A4806F04DF900287F
:10D8F00001D0FEF70FFF084806F08CF9002801D090
:10D90000FEF708FF07B000BD9C4502009C2D0020DB
:10D910004028002019D30100293C0200F0B58FB047
:10D920000D4606461C216846FDF73DFC6846017819
:10D93000022001436846017000240194039404947A
:10D940000594012708A80694877015496846018444
:10D950000794E97B0177297C4177807FF921084092
:10D96000F721801C0840EF21084041084900684623
:10D970008177142109A8FDF716FC08A8099007A8CB
:10D980000A9068468785C4850786A8680D90334647
:10D99000F088103309AA6946A2DF0FB0F0BD00007D
:10D9A000382A00007CB5134E00250C463060002953
:10D9B00018D06946002000F06FF8002819D101A99D
:10D9C000012000F069F8002813D168460179002091
:10D9D000002901D0022004E069460978002900D01E
:10D9E0000B2020707068002802D1FEF7E9FD054683
:10D9F00028467CBDFC2B0020F8B5074600242348B0
:10DA000002E0641C042C1AD2A2008258BA42F8D157
:10DA1000042C14D21D481E4E0C38002929D001298F
:10DA20000ED002290BD16000201880194578002DF6
:10DA300005D018480169002901D028468847F8BD5B
:10DA400061006118755C8E19717800290CD011493C
:10DA50000A224968806851430E4A521CFEF7C4FEF0
:10DA6000002801D10B4847700A48B178143001559D
:10DA7000DDE78068FEF7F6FE0648610061181430A5
:10DA80008919005D8D78A842D1D0F8BDC845020043
:10DA9000E4340020E42B002004280CD2074A126949
:10DAA000074B80001B5C01209840904300D0012070
:10DAB0000870002070470020FAE7000000050050C1
:10DAC000C845020070B50023042811D2440004198F
:10DAD0000D4D012A02D101290DD0002246008019E6
:10DAE000094E801900290CD0012906D0022906D040
:10DAF0000723184670BD0D30C2B22A55F9E74270AF
:10DB0000F7E78270F5E70000E434002070B50E46B8
:10DB1000204905464E608D6000200A61A9071ED588
:10DB20000024012211462046FFF7CCFF641C042C80
:10DB300002D20028F5D012E0002810D1720804218A
:10DB40001548FEF7A1FD002809D1FEF78BFD00283E
:10DB500005D11148114A00211438FEF7E7FDE90705
:10DB600006D00F220E4952058A600023CB608A61DD
:10DB700000280DD108480B4A00211C38FEF7D6FDBD
:10DB8000002805D10448084A01211838FEF7CEFDC7
:10DB900070BD0000E42B0020D8450200A5DD010087
:10DBA0000005005005FB01004DC60100FEB57A4D91
:10DBB0000722EB6892059A4302936B6800939C00DE
:10DBC00006461B1900200121019349050746734CA5
:10DBD0003300FDF73CFF180D1515374755677C8856
:10DBE0007F8891DE9E9E9E9E9EC8CED1D8DEDE149A
:10DBF0000F21029A49059143A160E7602F70FEBD95
:10DC0000A260E76060680F2252055040800209D58B
:10DC1000A160E760022E02D1E120C0000AE07D2071
:10DC2000400107E0E160A760022E01D1C82001E0B9
:10DC3000FF2091302E706421FDF778FA009941435E
:10DC400000223FE0A260E76060680F22520550406A
:10DC5000800204D5A160E76019204001EAE7E16095
:10DC6000A760E3E7A260E76060680F2252055040BA
:10DC7000800202D5A160E760D1E7E160A760D7E745
:10DC8000A260E76060680F2252055040800202D512
:10DC9000A160E76001E0E160A7602E70009841009C
:10DCA00000220FE0A260E76060680F22520550403A
:10DCB000800202D5A160E76001E0E160A7602E70FC
:10DCC0000099002236480068FEF78EFDFEBDA26076
:10DCD000E7601BE061680120800502468A43A2607C
:10DCE0000140E16010E06068012189050A46824335
:10DCF000A2600840E060E3E76068012189050A4608
:10DD00008243A2600840E0600199C9E7E160A76032
:10DD10002DE023484068FEF7A5FD11218A1B01D0A4
:10DD2000002807D00F22E96852051140A160E76082
:10DD3000EF60FEBD0121C905E960012A0CD910463A
:10DD4000C82148436421FDF7F1F969680022414385
:10DD500013484068FEF748FD0F22E968520511405C
:10DD6000E160A760FEBD0F214905A160E7602E704C
:10DD7000FEBD07229205AAE70D214905A160E760D3
:10DD800001218905C2E70321C905A160E760891067
:10DD9000BCE70F214905B9E7E42B0020000500503E
:10DDA000BC45020010B500780221FFF725FE10BD2A
:10DDB00070B51446054602460E460F4802F0B6F905
:10DDC0000E49142208680E4B4243401C4007400F86
:10DDD0000860D21856810220D081101D10610020E9
:10DDE0009081012010721471210A51711580907078
:10DDF00005F0EEFF002070BDAC470200542C00205F
:10DE00001C3900200022D243830004490428CA5050
:10DE100002D308182030027770470000C43E00206B
:10DE2000F0B50025ED43002A02D00023042601E0CE
:10DE3000042308260B4C04E09F00E7597F1C04D004
:10DE40005B1CB342F8D32846F0BD26185DB22036DD
:10DE500035709E00A151002AF5D1E11820310877D4
:10DE6000F1E70000C43E00200249091820200856AE
:10DE700070470000C43E002038B50B460146FF3114
:10DE80000246A13188794624604380184A79002AE5
:10DE900008D0521ED2B20C214A431118498A6A4650
:10DEA000491C01E0C1886A461180008950801146F2
:10DEB000184692DF38BD0000002807D0044981428F
:10DEC00004D80449814201D90120704700207047DD
:10DED0008C2D00209C2D0020044A0168914201D025
:10DEE000083101E00149383901607047E8400020FD
:10DEF00070B50D4D04460A462846AC4208D1FF24B1
:10DF000001342146104604F005FBA0420AD070BD42
:10DF1000FF2CFCD82146104604F0EEFA002801D070
:10DF2000204670BD284670BDFFFF0000F8B52348AD
:10DF3000C16800293ED00E6821494C680769C07845
:10DF4000E11B0D022D0AED1C002814D101201D4AF1
:10DF5000000450601B4A403A50601B494000086072
:10DF60001A4908601A49012008602F20FDF7B2F80D
:10DF700012490120C870B54200D23546E8190002A6
:10DF80000F4B000A403318600D4A5168001B091BF3
:10DF90000902090A0002000AC91C814209D9506815
:10DFA00018602F20FDF796F80120074940048039BA
:10DFB0000860F8BD04F05AFFF8BD0000282D0020CD
:10DFC000001501404013014080E200E000E100E064
:10DFD00000100140F8B50646108814468446801D9E
:10DFE0000D46984201D90C20F8BD32880720062A38
:10DFF000FAD31927FF01184BBA4201D99A42F3D13B
:10E0000071880629F0D3B94201D99942ECD19A42DC
:10E0100003D0994201D08A42E6D8052160462954AE
:10E0200020881221401C80B2208029542088401C66
:10E0300080B220804119308805F0FCFF218840180B
:10E0400080B220804119708805F0F4FF21884018C3
:10E0500020800020F8BD0000FFFF000010B5FEF793
:10E0600059FB10BDF8B5164801F0A0FC144D002670
:10E070000C3D144C002807D0616900291CD00120F8
:10E080006A461070684616E02878002805D0616955
:10E09000002911D0684606700DE0687800280DD080
:10E0A000A168094800220068FEF79EFB002803D003
:10E0B000A169002900D088472E70F8BD6168F0E79B
:10E0C000342C002034360020F845020010B50446F8
:10E0D00001460448FFF798FB024821460C38FFF739
:10E0E00071FA10BD282F0020F0B585B00C4600282D
:10E0F00002D0012005B0F0BD2079002701260028BC
:10E1000006D01F4D012820D002282CD00F20F1E787
:10E1100002970397E0680190694601A804F08EFC1D
:10E1200000280ED002988188E18000882081029822
:10E1300004F0FEFC694609880A01124951188E73E1
:10E1400000E00A2002212171D4E70F4B6A4600212A
:10E15000A01D04F031FC002807D00B4908398F605E
:10E16000CF600A28C6D12846C4E7019804F0E0FC35
:10E17000054989880A01034951188E73F1E70000A7
:10E180001D1D0000F8400020502D0020F7B5054669
:10E19000FF350646A135A8794621484387196C7991
:10E1A0000C206043C1193A79601C0A3182B0904258
:10E1B00026D101AB0022304601F006FC002822D017
:10E1C00010E0401EA04201D1002003E00C2060437B
:10E1D000C01916300246009001AB304601F0F4FB46
:10E1E000002807D003980021017001A9049893DF4B
:10E1F00005B0F0BD68790099401C641C6871E4B2F8
:10E200003879A042DDD80398012101700020EFE7A2
:10E21000F8B500260124154D23E06968F000471881
:10E22000387821462A698140114218D08A432A61F0
:10E2300002F008FA3A782146EB689140194003460B
:10E24000934099420BD17978012901D0012100E056
:10E2500000217B684140002B01D010469847761C76
:10E26000F6B228788642D8D3F8BD0000142D0020DD
:10E27000F7B5FF21A7311446095C462251430F1818
:10E28000384604F097FC060033D01A4A90680628F6
:10E290002FD22146144650225043174D4622401992
:10E2A00041803946001DFCF757FF019800270028E0
:10E2B00004D0A068502148432F5404E0A0680221F4
:10E2C000502250432954A068502141434919401C11
:10E2D000CE64A060E16888420BD1002605E05020A2
:10E2E00070434019C16C8847761CE0688642F6D3BB
:10E2F000A760FEBD3C2C00209C36002030B50D46AA
:10E30000FF21A7311446095C4622514393B00818F7
:10E3100004F050FC030005D06846448001210170E0
:10E320000195984713B030BD10B50E4900234A78C7
:10E330008C78A24212D0521CD2B24A70022A00D16A
:10E340004B704A78074B920018339A58026008695C
:10E3500010180002000A0861012010BD03600020AF
:10E3600010BD0000282D00203EB5094D38CD00938A
:10E37000029501946B46588099809A710549002254
:10E38000497BFEF7F1FE684600F088F83EBD0000CC
:10E3900054460200782C002010B504780022230097
:10E3A000FDF755FB070605070D1D262C06000A7014
:10E3B00010BD01220A7002898A81828814E002223B
:10E3C0000A7002898A818288CA81C2688A60007C58
:10E3D000062802D00020087410BD0120FBE70322AC
:10E3E0000A70C2888A810289CA81C068886010BDAB
:10E3F00004230B70C0888881CA8110BD0520087075
:10E4000010BD000070B5064D06460024A000295836
:10E41000002901D030468847641C032CF6D370BD18
:10E420002C4000200EB5002910D011290ED000225A
:10E43000009202926A46508001910D2907D004296A
:10E4400007D009201070104600F038F80EBD0B20E0
:10E45000F8E70A20F6E7000070B506460024054DEF
:10E4600004E0A000295830468847641C287BA0425D
:10E47000F7D870BDBC39002070B506460024064DA3
:10E4800005E0A0004019016930468847641C287FD8
:10E49000A042F6DC70BD0000A43E002070B5064628
:10E4A0000024054D04E0A000295830468847641C2C
:10E4B000287BA042F7DC70BD782C002070B50646A2
:10E4C0000024054D04E0A000295830468847641C0C
:10E4D000287BA042F7D870BDC82C0020002805D0AA
:10E4E000002242608260016010467047052070473C
:10E4F0007FB50446406800280BD0002003902078A8
:10E500000026374D0300FDF7A2FA0663061D243BE3
:10E510005D630120F2E76068002811D0032168469E
:10E520000170A08900F0BEF9014668464180E0898B
:10E5300004F00EFB014668460171606803901AE022
:10E540000021ECE76068002801D00421E7E7012101
:10E55000E5E76068002811D0052168460170A089B0
:10E5600000F0A0F9014668464180E08904F0F0FA25
:10E57000014668460171A068029026E00221ECE79E
:10E58000E089002821D1A089164988421DD000F0D9
:10E5900089F969464880E08904F0DAFAFF20694683
:10E5A00008716068002806D0072008706E77AE7783
:10E5B00003F0F2FC09E0062168460170408803F090
:10E5C00085FDF3E7082069460870684603F07AFA8B
:10E5D000A87F002802D0AE7703F0DEFC7FBD0000EC
:10E5E000F43A0020FFFF000000B5104987B0097819
:10E5F000890702D4022007B000BD0D49884201D12D
:10E600000420F8E7052269460A7001220A71C880D1
:10E6100000221146684602F017FD002803D004F0DE
:10E62000AFF90020E7E70820E5E70000482D0020CB
:10E63000FFFF000000B50F4887B00078800702D4C4
:10E64000022007B000BD062069460870002211466E
:10E65000684602F0F9FC002809D007480178002933
:10E6600001D00121017304F08BF90020E9E70820B3
:10E67000E7E70000482D00201841002000B58DB0CC
:10E6800014216846FCF78FFD1E480078810703D5EA
:10E690006846FFF7B7FE32E0C00730D1012000F036
:10E6A0004FF900F0CFF902F05DFD00280ED00628EA
:10E6B0000FD001216A4611750300FDF7C8F90C1946
:10E6C0001119111918191819131613190B200DB057
:10E6D00000BD022000F034F9012000F017F9D7E75F
:10E6E000002000E00320107602E00220FBE7117614
:10E6F0000022114605A802F0A7FC04F041F9002011
:10E70000E5E70000482D002038B5040014D0694624
:10E7100004F094F9002813D06846008801010948E4
:10E7200009188889002809D0A27A002A06D0401E3C
:10E7300088810020A07238BD052038BD062038BD74
:10E740000A2038BDF84000201FB501A9684604F032
:10E7500033F904B010BD07B513460A4669460020D8
:10E7600004F02AF90EBD07B513460A460021684693
:10E7700004F022F90EBD002805D0002903D000685E
:10E7800008600020704705207047000038B50D462E
:10E79000040017D0002D15D0694604F04FF9002869
:10E7A00012D06846008861680201084812189089F2
:10E7B000401C9081296060680C3068600120A07264
:10E7C000002038BD052038BD0A2038BDF8400020A3
:10E7D00010B5002804D00323002205F085FD10BDEC
:10E7E000052010BD10B50223002205F07DFD10BDEF
:10E7F00010B5002A03D0022305F076FD10BD0520D8
:10E8000010BD000010B5064A5178032906D08B00D0
:10E81000044C491CE0505170002010BD0C2010BD6C
:10E82000482D00202C40002038B504460A480D46EB
:10E830000078800701D4022038BD002C0AD0694638
:10E84000284605F085FE0028F6D169460988218012
:10E85000658038BD052038BD482D002010B5044620
:10E860000E480078800701D4022010BD002C10D083
:10E87000218802290FD80A4A080180184289608835
:10E88000121A032A07D405F059FE00202080608068
:10E8900010BD052010BD042010BD0000482D002033
:10E8A000F840002003218903401A80B270477FB5E9
:10E8B0000C46014609310291007A6946C0088881F8
:10E8C0006A4602A90220FDF746FE002806D06A46E5
:10E8D00002A90320FDF73FFE002814D1694689886C
:10E8E00000204D080DE04200009B511C595C0B02BA
:10E8F0000099895C1943A14202D1012004B070BD86
:10E90000401C8542EFD80020F8E7000002490A7851
:10E9100082430A7070470000482D002010B504465D
:10E920000078182802D1FEF7E9FB207010BD10B561
:10E9300004460078182802D1FEF7E0FB207010BDD5
:10E9400002490A7802430A7070470000482D0020EF
:10E9500070B5064600200546042906D0112902D0CC
:10E96000002903D070BD012500E001200F4C002AD2
:10E9700011D00246A17C3046FEF7F6FB617C2A46A8
:10E980003046FEF7F1FBA17B00223046FEF7ECFBA0
:10E99000617B002206E00246A17B3046FEF7E4FBE5
:10E9A000617B2A463046FEF7DFFB70BDC82C002095
:10E9B00010B50446C0B2FDF7C1FF204610BD0000EF
:10E9C000F8B506461B48154600780C46C0070AD025
:10E9D0003046FFF771FA002807D0002C07D0A005B9
:10E9E00007D00620F8BD0120F8BD0220F8BD0320A5
:10E9F000F8BD3068A04204D8A802716800198842A6
:10EA000001D90520F8BD002D10D0684603F00AFF9B
:10EA100000280DD00098022106600171A101090CA7
:10EA20000181858103F0BAFF0020F8BD0420F8BD04
:10EA30000720F8BD602D002010B5084603F00EFF3A
:10EA400010BD0000F0B51C491C48081A05091C48F7
:10EA50004169481C03D1012000074069810219481F
:10EA600000220078541E8646C00701D00020F0BD69
:10EA7000002319E0002084460AE0104E0701BE1969
:10EA8000A04204D0767B664501D3B4460246401CC2
:10EA9000A842F2D30948140120184160047BA40263
:10EAA000091B14465B1C0160AB42E3D30548714669
:10EAB000012211430170D9E79C2D00208C2D0020EC
:10EAC00000100010602D0020002804D00349496D7B
:10EAD000016000207047032070470000284100209B
:10EAE000F8B507461D481E46007815460C46C00777
:10EAF0000ED03846FFF7E0F900280BD0002D0BD0E0
:10EB0000002C09D028462043800707D00620F8BDF6
:10EB10000120F8BD0220F8BD0320F8BD3868A042EE
:10EB200004D8B10078680919884201D20520F8BDDF
:10EB3000002E0FD0684603F075FE00280CD0009818
:10EB40000121076001718560C460068203F026FF21
:10EB50000020F8BD0420F8BD0720F8BD602D00207E
:10EB600070B5174B0446186D142148431549C01859
:10EB70000A78950715D5022C02D0032C1CD102E08F
:10EB800002F0CAF918E04A78521CD2B24A70032A3D
:10EB900012D900224A70082104F078FB03F02CFE01
:10EBA0000AE0500708D5FB2002400A70586D002883
:10EBB00002D0022002430A7003F0ACFE70BD0000D8
:10EBC00028410020602D002070B5002801D00120D0
:10EBD00070BD164C0025207B002801D0257301E074
:10EBE00000F098F820780300FCF731FF081E0508B4
:10EBF0000B0E1E111A1E00F01BF870BD00F07AF803
:10EC000070BD00F05FF870BD00F038F870BD60882E
:10EC10000649000120394018406802F087FA70BDAB
:10EC2000656002F08FFA70BD0F2070BD18410020A2
:10EC300070B5104900208A1C0D460346203D0C1873
:10EC4000A67A002E08D0A37204016419A689002EAA
:10EC500002D1A47B012C08D0401C80B20228EED344
:10EC60000B704B8004484B6070BD108000F042F880
:10EC700070BD0000184100201D1D000010B50E4C95
:10EC800060880101204620380818818900290AD0AF
:10EC9000052020700948022181800168012208486E
:10ECA000FFF78EFE10BD416801220548FFF788FE80
:10ECB0000421217010BD000018410020582D0020B3
:10ECC0008C2D002010B5094907480B6889884268D7
:10ECD0008900591853880324DB1C04709BB2044834
:10ECE000FFF7FEFE10BD000018410020582D002047
:10ECF0008C2D002010B506494888091D03F0EEFE52
:10ED0000002802D0FFF7DEFF10BDFFF7B7FF10BDF0
:10ED100018410020F0B51D481D490778024601251D
:10ED200002268C88203A3B00FCF791FE0805171755
:10ED30001A212C2C16170189491C018100214180C0
:10ED400001730B01D35C002B08D000234418491C2D
:10ED500089B2A3720229F4D30570F0BD0123F5E74F
:10ED600042685288D21CA2188A800670F0BD45887D
:10ED70000B682D01AA1855680D60536014818E80B0
:10ED8000062100E007210170F0BD000018410020BD
:10ED9000582D00207047000010B5040007D005482A
:10EDA00002F060FC002801D103490C6010BD0E2068
:10EDB00010BD0000D1120200642C0020F0B5054601
:10EDC0000088384C8DB050281DD0522802D05428CD
:10EDD00026D103E0A88801F0F1F821E00620694679
:10EDE0000870A88800F0D2FC69464880AA888A800A
:10EDF00000F062F9A179A8880022FEF7B5F9216830
:10EE0000684688470CE0287B012809D1A87A0128A8
:10EE100006D128892449884202D1A88801F00AF93C
:10EE20006079FEF783F9002819D008A8FEF7A8F842
:10EE3000142208A903A8FCF78FF9002503AE0BE004
:10EE4000680087196179B888FEF77CF9002802D03C
:10EE5000B88801F0B3F86D1C0398A842F0D8207967
:10EE6000FEF764F9002819D008A8FEF789F81422E3
:10EE700008A903A8FCF770F9002503AE0BE06800B1
:10EE800087192179B888FEF75DF9002802D0B88883
:10EE900001F0D0F86D1C0398A842F0D804F018FADD
:10EEA0000DB0F0BD5C2C00200229000070B586B0CA
:10EEB000044614216846FCF776F960886946888024
:10EEC00000F0C8FB69464880267800200822072108
:10EED00005253300FCF7BBFD0A06060B0D0F1416C3
:10EEE000281A1D256B46197058721A7219E00D20E8
:10EEF00009E00E2007E06A4611705072157210E0AA
:10EF00000F2000E01020694608700AE0684605708E
:10EF100007E0062168460170A0680290A188684653
:10EF200041806846FFF7A8FA06B070BD70B50500CD
:10EF300030D01B4800F008F900282CD11948FFF701
:10EF40002BFF002827D118480021044641601748AC
:10EF5000256000F055FC00281DD1154804F0E2FDA5
:10EF6000050018D1FEF7CAF82071FEF7C7F86071E6
:10EF7000FEF7C4F8A071FEF7C1F8E07121791829F5
:10EF80000AD06179182907D0A179182904D0182846
:10EF900002D002E00E2070BD0325284670BD00009F
:10EFA000E1F0010095ED01005C2C002081F60100EC
:10EFB000AD380200F0B585B000F0DCF86846FDF72A
:10EFC000DFFF00246D460C4F0EE060004619B0884C
:10EFD00000F0DCFBB84205D1084801228179B088F5
:10EFE000FEF7C2F8641CA4B20098A042EDD804F069
:10EFF0006FF905B0F0BD0000FFFF00005C2C0020A1
:10F0000010B504460A48C17D2046FEF79BF800284B
:10F010000CD0084800210C224A431218128AA2423E
:10F0200001D1C8B210BD491C0829F4D3FF2010BD7E
:10F03000DC3A0020BC39002070B50A4D00242E4671
:10F04000FF3621360C2060434019F17D008AFEF71F
:10F0500079F8002804D0641C082CF3D3FF2070BD7D
:10F06000E0B270BDBC390020F8B50746104E01254E
:10F07000BD403068FDF7F6FB00280DD10D4C20692E
:10F08000284207D1384601F0DDFA0028E06804D0B4
:10F09000284303E0A8432061F8BDA843E06020694D
:10F0A000002228432061A1683068FDF79DFBF8BD70
:10F0B000A0460200142D00201CB50749096800294C
:10F0C00008D0064A9168D2680192009100226946F0
:10F0D00002F0AAFA1CBD00006C2C002000460200C1
:10F0E0003EB50446408869464880154D2078296819
:10F0F000002813D001281CD002280ED12079002826
:10F100000BD0608800F0A6FA0E49884205D0A97994
:10F110000122FEF729F804F0DBF83EBD00206A4624
:10F12000107068468847608800F094FA00F046FF47
:10F130003EBD012268460270A288828088473EBD9B
:10F140005C2C0020FFFF000010B504000BD0074826
:10F1500002F088FA002805D1054900224A60421EC3
:10F160008A800C6010BD0E2010BD0000ED12020060
:10F170006C2C002010B5054C2068002805D00448F0
:10F1800002F0FAF9A08004F0CFF810BD6C2C00203A
:10F19000FFFF0000F1B51D4882B00068002811D0C3
:10F1A000029800F0F3FA00241949032501272646A6
:10F1B00088420DD000236A46082102F047FA002851
:10F1C00002D005E00820FEBD019886880568841DF0
:10F1D0002B46324621460298A9DF042804D008288D
:10F1E00004D00B2807D002E0112000E00020002FFF
:10F1F000E9D10B20FEBD0027A80701D50125E7E7CF
:10F200003443F6D0002426460325E1E76C2C002089
:10F21000FFFF0000F1B5214882B00068002808D047
:10F22000029800F0B3FA07461D48874203D11D48F3
:10F23000FEBD0820FEBD01252A466D1C0026ADB28C
:10F240006B460821384602F04FFA040002D0072C22
:10F2500021D021E0019903230B600A1D891D02982A
:10F26000AADF040004D00C2C08D0052C08D008E03C
:10F270000821384602F0E6FA04460DE0012600E0D7
:10F2800000240821384602F0BFFA002800D00324E9
:10F29000002ED1D100E00C242046FEBD6C2C0020B5
:10F2A000FFFF0000023000001CB500F06FFA0023E1
:10F2B0006A46012102F0CAF9002801D000201CBDD5
:10F2C00001201CBDF8B5074E074C084D07463246D5
:10F2D00021883846A7DFA84203D12088401C20801F
:10F2E000F5E7F8BDFFFF0000682C002003300000A8
:10F2F0008188054A914204D00088002801D001206D
:10F300007047002070470000FFFF0000F0B50024A8
:10F3100006460D46601C010795B0090F08A810317C
:10F320000C940174297B4174817CF9273940891C34
:10F3300081741C2105A8FBF736FF6846017D10206B
:10F340000143684601750CA806940A900894099434
:10F3500001220B9408A882761749684601870D940C
:10F36000697B08A80175A97B4175817DF72039402B
:10F37000891C0140EF200140114308A88175142128
:10F380006846FBF710FF0EA800900DA801900FAA89
:10F390000021304600F012F8014668460181142130
:10F3A000448181810FA804903346F08808336A466F
:10F3B00005A9A2DF15B0F0BD372A0000F7B54279E4
:10F3C0000025002A00D004252222135C0222002BF3
:10F3D00000D01543CBB2FF2907D901221543029A69
:10F3E000090A53709170032602E0029902264B70BD
:10F3F00004464034A189002901D010210D43002783
:10F4000016E0B11C142909D9A189C91B4A00790049
:10F41000091824302431FBF79FFE0CE0029B7A0090
:10F4200012189B19928C1A70120A5A70CEB27F1C55
:10F43000A189B942E5DCA089C01BA08102980570B2
:10F440003046FEBD70B5064608780C46012814D03B
:10F45000022811D1A1881BA000F068FEA1881E48D7
:10F46000FEF72EF8002807D0082805D01B4988424F
:10F4700002D01B49884222D170BD1A4D1A492888F2
:10F480008842F9D16188298018A000F04FFE221D22
:10F4900029883046FDF78AFF002801D0FDF73AF9A8
:10F4A0000021288802F062FF082803D0002801D03C
:10F4B000FDF730F93046FDF787FF0028DCD0FDF777
:10F4C00029F970BD48656172742052617465203DF0
:10F4D0002025640D0A0000003834002004300000AC
:10F4E00001340000D82B0020FFFF000048525320B9
:10F4F000646973636F7665726564206F6E20636FF5
:10F500006E6E5F68616E646C6520307825780D0AD8
:10F51000000000003EB5044600780D46022815D1D3
:10F520000322611C6846FBF717FE0322211D02A877
:10F53000FBF712FE01AA02A92846FDF75FF8032295
:10F5400001A96846FBF741FE002801D000203EBD1E
:10F5500001203EBD70B50D4D0C46297B00290FD012
:10F56000002C0FD0FFF74CFDFF280DD00C21484395
:10F570004119072220461231FBF7EEFD002070BD35
:10F58000082070BD0E2070BD052070BDBC39002064
:10F59000F0B50546008887B0102854D1E97D28468B
:10F5A0002A4E0830CA0734460090002A06D0480880
:10F5B0002749400040184030C48D32E0287A0328A3
:10F5C0002FD0204626E0287A002804D0012802D037
:10F5D00002281ED10DE0002302AA0721384602F0BE
:10F5E00035F8002815D1039900981131FCF794FEE5
:10F5F0000CE0002302AA0721384602F027F8002871
:10F6000007D103990098491CFFF784FF002800D018
:10F610003C46384601F0B0FF0746B04201D0B44244
:10F62000D1D0A888009900F0F3FEB4420BD0A8888E
:10F63000214600F087F8A8886946488101200872B1
:10F6400002A8FEF709FF07B0F0BD0000FFFF0000B1
:10F65000BC390020084A00210C234B439B18DB894E
:10F66000834204D10C2041438818008A7047491C0A
:10F670000829F1D301487047BC390020FFFF000082
:10F6800010B50446007801280DD1608800F096FC82
:10F690006088FFF709FE002805D003480122817920
:10F6A0006088FDF761FD10BD5C2C002010B504469C
:10F6B000007886B000281AD0012816D10E48012201
:10F6C000817F6088FDF750FD14216846FBF76BFDD4
:10F6D000608869464880608800F058F869468880EC
:10F6E000002008706846FEF7C7FE06B010BDE0882F
:10F6F00002F064FFF9E70000A43E00200188002921
:10F7000003D142189278002A01D001207047491C89
:10F710000829F6D30020704710B50C460346FFF7C2
:10F72000EDFF00280BD018882188884206D10822D6
:10F73000A11C981CFBF749FD002801D0002010BD3A
:10F74000012010BD10B502F0FFFC10BD70B50446DD
:10F750000C48007B00280DD02046FFF77BFF0546B4
:10F76000204601F025FF084904468D4207D0002CB1
:10F7700002D004E0082070BD284602F0E5FC2046D7
:10F7800070BD0000BC390020FFFF000010B5FFF77E
:10F7900037FC06490A7B002A06D0FF2804D00C2239
:10F7A00050434018C08910BD014810BDBC3900202D
:10F7B000FFFF00007CB5114D0646284617E00023E8
:10F7C0006A46072101F042FF00280FD10199304617
:10F7D0004631FFF7A1FF002806D1019930462A31B2
:10F7E000FFF79AFF002801D020467CBD204601F09B
:10F7F000C3FE0446A842E2D128467CBDFFFF0000BC
:10F8000070B5050005D0184C0020217B002902D0DE
:10F810001FE00E2070BDFF2139311348FBF7C3FCF8
:10F820000020124E2073B0751820F075104900208A
:10F830000C2242431219401C11820828F8D3FDF70C
:10F840005DFCF07518280DD00A4801F00BFF002868
:10F85000E0D1217B032905D289006550217B491C19
:10F86000217370BD042070BDBC390020DC3A00203B
:10F87000FFFF000039130200F8B50F46002804D03E
:10F880000120FFF743F80120F8BD397900290AD09B
:10F890000026244D01290BD0234C022920681FD0BB
:10F8A00003293AD124E001F04DFC0121397132E005
:10F8B00000200101695C02290BD0401C80B20228A3
:10F8C000F7D30220FFF73CF80120FFF71FF8174895
:10F8D000F8BD04016019406801F028FC2E551AE0BB
:10F8E000014601221248FFF76BF80221A18011E0C6
:10F8F00001F01CFC0B492368203149880A010949A1
:10F9000051184D6825604B60A3880B810221A180AE
:10F9100004498E543E710028DAD00120FEF7F6FF2C
:10F920000E20F8BDF8400020582D00201D1D0000BD
:10F930008C2D0020F8B51C4C2078002833D020698D
:10F94000002807D00026E068002805D00025002EFA
:10F9500004D011E00126F6E70125F8E7684652DFFA
:10F96000052804D0002804D0FCF7D4FE04E00126CA
:10F9700002E0216900988847002D10D1608869460F
:10F980000880A06861DF052804D0002804D0FCF7B7
:10F99000C1FE04E0012502E0E168A0688847002E6E
:10F9A000DCD0002DD3D0F8BD702D00204188054853
:10F9B0000288914204D34088814201D801207047D7
:10F9C000002070472C2C002030B50989002A05D072
:10F9D000D088491C814213D1002030BD0246FF323D
:10F9E000A132947946256C4324182489A142F3D08E
:10F9F000491C19809179462251430818008902E078
:10FA00001980D088401E5880012030BD70B5044652
:10FA10000D46401C00F03AF8002806D01022691C60
:10FA2000601CFBF7D2FB00280AD00026294620469E
:10FA300011311130FCF770FC01463046084370BDAF
:10FA40000126F3E71048018CC9B2012917D1818C36
:10FA5000090714D1018D09060A0F03D1828D120600
:10FA6000120F0ED0090F012903D1828D1206120F39
:10FA700007D0032903D1808D0006000F01D000209C
:10FA80007047012070470000C00F00F00021425C69
:10FA9000002A01D001207047491C1029F7D300200B
:10FAA0007047800701D0002070470120704730B5B3
:10FAB0001588EC1C9C4201D90C2030BD02244C5509
:10FAC00013881C255B1C9BB21380CD5413885B1CD0
:10FAD0009BB21380012807D0022807D0032807D043
:10FAE000042807D0072030BD002004E0012002E0F8
:10FAF000CC5401E00320C8541088401C1080002022
:10FB000030BD000010B50448017AC90702D0007862
:10FB1000FEF74CF810BD0000E42B0020FFB5254D8A
:10FB200081B01F460E0003D00021039A019806E021
:10FB3000687D00281BD01F49039A1631019803F0F5
:10FB4000F9FE0446014600220198FEF701FF002F4E
:10FB500003D021460198FEF765FC0D2C10D009DC7E
:10FB6000002C0DD0042C19D0082C08D108E0052059
:10FB700005B0F0BD112C05D00F48C44200D00324BD
:10FB80002046F5E7297C32460198FDF7EDFAE97B3E
:10FB9000039A0198FDF7E8FA0024F1E7297C324640
:10FBA0000198FDF7E1FAE97B039A0198FDF7DCFA89
:10FBB000E6E70000C82C0020FECFFFFFFEB5174689
:10FBC0000C00064604D02078C00704D0012003E0D2
:10FBD00000217EDFFEBD0220694608713046FFF736
:10FBE000D5FD17490546884208D001A800902B464C
:10FBF0003A462146304600F025F806E020782146B6
:10FC0000C007304603D000F081F804460BE07EDFE9
:10FC1000044600200090002C08D000220123294631
:10FC2000304603F0FFFA002C02D006E00122F5E78F
:10FC300068460179304603F01BFB2046FEBD0000FC
:10FC4000FFFF0000FFB585B000252E462B4601AA18
:10FC500007210E9F089801F0F9FC040008D1029DCD
:10FC60004420405D1835C607F60F01D0029D34359B
:10FC70000798204312D1002D10D0002E05D1284620
:10FC80001230FFF73BFD002808D029462A461231E2
:10FC9000059885DF04460020387023E0002C01D051
:10FCA000052C1FD106980078C0070DD003AB0122A8
:10FCB0000721089801F018FD04000AD107210898CF
:10FCC00001F02CFE040004D1069905987EDF0400A3
:10FCD00008D00721089801F097FD002802D00528D8
:10FCE00000D00324002000903878002801D00123A0
:10FCF00000E00023002C07D000220899059803F0AB
:10FD000091FA204609B0F0BD0122F6E7FEB50F4694
:10FD1000064601F03FFC05461848854220D001AB5D
:10FD200001220721284601F0DFFC04000AD1072147
:10FD3000284601F0F3FD040004D1394630467EDF49
:10FD4000040008D00721284601F05EFD002802D0FB
:10FD5000052800D0032401200090002C0BD002E0E5
:10FD6000032400200090002201232946304603F09E
:10FD700059FA2046FEBD0122F6E70000FFFF000011
:10FD8000F7B5114D0F461646697B0098FDF7DAF975
:10FD9000002812D00098FFF7F9FC04460B48844273
:10FDA0000BD0A97B0098FDF7CDF9002806D033468B
:10FDB0003A462146009801F037FAFEBD32463946F0
:10FDC0000098FEF7D1FAFEBD782C0020FFFF00005E
:10FDD000F1B586B00698FDF7A9F9002821D068464C
:10FDE000FDF7CEF800246E4618E060008519A8885B
:10FDF0000699FDF7A7F900280FD00B4FA888F97BCB
:10FE0000FDF7A0F90590397CA888FDF79BF901461C
:10FE1000A8880123059AFFF781FE641C0098A04280
:10FE2000E3D807B0F0BD0000C82C0020F8B52C497D
:10FE3000C8680A690C780F798968864694460091EB
:10FE40003EE00099E20055182A7836E01823534323
:10FE50006968521CC918AB78D2B2934200D1002213
:10FE60000B78022B02D0032B27D123E04E680346E8
:10FE7000014603E0B14204D00B46C96900291CD0F9
:10FE8000F8E7002919D08B4208D1C069002805D1B4
:10FE9000144F0126BE600026B44601270E68C969CA
:10FEA000D961002909D00B689B190B6005E001742A
:10FEB000C06900E000210028F9D169789142C5D1DC
:10FEC0002146641EE4B20029BBD1054962460A619D
:10FED000C8600F71704501D00120F8BD0020F8BD49
:10FEE000282D002000100140F8B5044631480026B6
:10FEF000C168009107784EE02E48F90080680D181F
:10FF000043E0002C02D02046E4691FE02878182145
:10FF100041436A68401CC0B251182870AA789042C8
:10FF200000D12E700A784868012A30D1027C002A5C
:10FF30002DD18A684260CA6882600A69C2604969D4
:10FF400081611C490979002900D04660194943683C
:10FF50000A699C46991A0902174B090A994202D26A
:10FF60008268891807E06146511A09028268090A05
:10FF70008A4202D9511A016000E006604660012100
:10FF800086600174C66103F0A1FE002CB9D1287807
:10FF900069788842BAD138467F1EFFB20028ABD1BB
:10FFA0000448C1680098814201D00120F8BD0020BA
:10FFB000F8BD0000282D0020FFFF7F00FEB504469D
:10FFC0001948002784422DD02046FFF7E3F8174E4A
:10FFD000050012D00B2D14D0112D10D01448C5429D
:10FFE0001BD00921684601702046FFF7CFFB014670
:10FFF00068464180848002950DE0022102E00127DD
:020000040002F8
:100000000BE00321684601702046FFF7BFFB014665
:100010006846418084803168884771793A46204635
:10002000FDF7A2F8FEBD0000FFFF00005C2C0020E1
:10003000FECFFFFFFEB504460027FFF7EBF8194D92
:1000400006460C281AD004DC002E13D0042E05D14D
:1000500026E0112E10D01448C6421BD00921684654
:1000600001702046FFF792FB01466846418084807C
:1000700002960DE0012102E001270BE0072168460E
:10008000017084802046FFF781FB0146684641806D
:100090002968884729793A462046FDF765F8FEBD6C
:1000A0000821ECE75C2C0020FECFFFFFF8B50546E9
:1000B00000780C46002620420FD1002069460870C7
:1000C0006846FCF74DFC2878204202D12043287076
:1000D000012668460078FCF761FC3046F8BD000058
:1000E00030B50E4C87B02078002802D0002007B031
:1000F00030BD0B4A04AB07CA07C308480125401CA2
:100100000090084802906802039001950323064A74
:10011000694604A8FCF7D0FB2570E8E7622D0020B3
:10012000BC46020080410020A13E02000FB410B581
:1001300003A90298FBF76AFC10BC08BC04B018477E
:1001400098B0FFF7CDFF002801D0FCF7E3FA5AA0E2
:10015000FFF7ECFF00235C4A03211846FCF7FCFA8A
:10016000002801D0FCF7D6FA002258490320FDF7F9
:10017000CDFC002801D0FCF7CDFA01A90020FDF745
:1001800011FC002801D0FCF7C5FA68460079022866
:100190007ED0002069460870002802D04CA0FFF7EE
:1001A000C5FFFDF77BFB6846007802F00BF84C4872
:1001B000FDF714F8002801D0FCF7ACFA494800908C
:1001C00069464948FDF726F9002801D0FCF7A2FA54
:1001D00046480090444869460C30FDF741FA002833
:1001E00001D0FCF797FA1120694608720B2240A152
:1001F00002A87CDF002801D0FCF78CFA00240094D0
:10020000062668460194068018214180FF218480DB
:100210009131C1807ADF002801D0FCF77BFA1C21E4
:100220006846FAF7C0FF0520C00301900F200004C4
:1002300002900094032168460173091FC1810125C2
:1002400005742E48069005946846FCF727FE0028A2
:1002500001D0FCF75FFA03F021F9382101A8FAF781
:10026000A2FF0221684601718571C671818224480E
:10027000069024210FA8FAF796FF10A80572FF2018
:100280002D301390B4201F4B0FAA0021009400E0E2
:100290000FE0149001A8FCF71BFC002801D0FCF72C
:1002A00039FAFCF76FF948DF0028FCD0FCF732FA86
:1002B000F9E701206EE7000052656C61792045780E
:1002C000616D706C650D0A00E42D0020CD0C0000FE
:1002D000426F6E647320657261736564210D0A005C
:1002E000CDE0010045F401001C2F0020A12D0200EB
:1002F00052656C61794E6F72646963005DE0010064
:10030000DC2B0020ED09020070B5144682880E46F1
:1003100005462088111D4118921C994201D8FE2AD9
:1003200001D90C2070BD521C32542088FF21401C82
:1003300080B2208031542088401C80B220808119F6
:10034000288803F077FE2188401880B22080AA8890
:10035000002A09D0A968002908D08019FAF7FCFE04
:100360002088A98840182080002070BD072070BD1B
:10037000F8B50F46017814460546012902D1687880
:10038000002806D02088821C9A422DD8012902D04C
:1003900006E00720F8BD69784118891C994223D8E6
:1003A000181A801E86B2684606802188B81C081874
:1003B00069467DDF0028EDD12878022805D16946FD
:1003C0000988B14201D809210AE00821012805D194
:1003D0006878B04202D86A46108001E0684606801C
:1003E00068460088FE2801D90C20F8BD2288401CF0
:1003F000B8542088401C80B2208039542088694637
:10040000401C20800988401820800020F8BD000092
:10041000F8B5FF240F46054600291ED0104EB54200
:100420001BD010480122C17D2846FCF79DFE2846BE
:10043000FEF7E6FD0446FF2804D1FEF7FDFD044665
:10044000FF280AD00C200849604340180582C68165
:10045000072239461230FAF77FFE2046F8BD000029
:10046000FFFF0000DC3A0020BC39002070B50B4DC6
:100470000E46A84201D1002000E0401C84B209E0F1
:100480002146304602F060F8002801D0204670BDB9
:10049000641CA4B2FF2CF3D9284670BDFFFF0000F6
:1004A0008207D30EFF229A408907090E10B59940A2
:1004B00000280BDA03071B0F083B9C080C4BA40019
:1004C000E318DC6994430C43DC6107E08408094BC2
:1004D000A400E418236893430B432360C106C90EAC
:1004E00001208840044908600449086010BD0000EC
:1004F00000ED00E000E400E080E200E000E100E068
:10050000F3B581B00F46019801F098FE0124002850
:100510001E4E019817D0FDF7A7FC80192030007FF0
:100520008009032802D0012806D007E01848006996
:1005300001998C40204201D1022100E00321019861
:1005400000F02CFAFEBD01F085FE0028FAD00198DB
:10055000FDF78AFC05468100C81D0E4AF93089184E
:100560000A6980B222430A610B49401800210160E8
:10057000002FE7D00198FDF777FC80003058002865
:10058000E0D00648AC404460FEBD0000C43E002000
:10059000000500500065004000600040006300401E
:1005A000FEB5044623480E46001920214156002777
:1005B000C8171346401C01D0082738E0F2781946C6
:1005C0002046FDF72DFC0546401C2FD0B0780028B2
:1005D00007D01948A1000918086802229043086052
:1005E00007E000217378204600910A46019100F04F
:1005F0009DF9F078002810D01048AA001018317822
:1006000002690F4B1A400261E206D20C8907890B7E
:100610000A4301690A43026109E006483278401939
:100620002030017F92011143017700E00427384612
:10063000FEBD0000C43E00200007005000650040E1
:10064000FFE0FCFF03490969C140C807C00F00D0A3
:10065000012070470005005070B5124D2879002820
:1006600001D0082070BD0F4900204039421E0B18F0
:100670002033401CC0B21A702028F8D30024204632
:10068000FDF7C0FB641CE4B2082CF8D3032106205C
:10069000FFF706FF01200449C007486001202871C8
:1006A000002070BD043F0020006300400248007934
:1006B000002800D001207047043F0020F3B52A4CE9
:1006C0000746E07E81B0002801D00820FEBD002F43
:1006D00000D1264F01263878314681402448816078
:1006E000386800F050F90021786800F043F9214D96
:1006F000B8696862787D397D0843E86603CFE860B1
:100700006961387B083F01280FD10021B86800F0EB
:1007100031F9387B3146814015488160F86800F036
:1007200032F9F968B868A96028610298606039698F
:10073000216000280ED0FF230F481D33397F00228F
:10074000C250FF234533C2500D4A0C48506002206E
:10075000FFF7A6FE042028600020E0752076A07533
:10076000E676A076FEBD00000C3F00208046020029
:1007700000050050002500400020004080000200DD
:1007800000230040F8B5104B81245E680022A400CD
:100790000E4D002E00D0AC60DF7D002F0BD01A7EF6
:1007A000002A04D0002E00D06C601120F8BD186122
:1007B0000122197604E0D9750024D8605C761C7695
:1007C00000F012F8F8BD00000C3F002000230040AC
:1007D00010B5044CA07E002803D102F093FB012049
:1007E000A07610BD0C3F0020F8B5234DA87E104325
:1007F00001D102F087FB6868204C002805D08120D9
:100800001F49800048600020F8BDFF2045300021CE
:100810002150FF212531204600F0DAF80546FF215E
:100820000931204600F0D4F80746FF214531204623
:1008300000F0CEF80646394631432943E9D0284630
:10084000304306D102F034FB0B48C17D407E81422B
:10085000DFD800210848002DC17501D00320F8BD64
:10086000002E01D00F20F8BD817E0120002901D08B
:100870002060C8E76060C6E70C3F00200020004011
:100880000023004010B5034600F048F8002801D0CE
:10089000112010BD034A002091759360908200F0F2
:1008A00003F810BD0C3F0020F8B50026194FFF25B6
:1008B0001D357E510120B86003F0CCFA164C6168FA
:1008C000002910D022E0FF2701372946114800F007
:1008D0007FF8002802D1A08AB842F6D1A08AB84297
:1008E00001D003F0B7FAA08AA17D8842EBD3A18A98
:1008F000C81FF9380CD0074F2946384600F068F871
:100900000028F9D00120F8600020A0753046F8BD1D
:100910000F26F9E7002000400C3F00200248807DB0
:10092000002800D0012070470C3F002030B5520055
:100930000A439900039C0A432102049D0A432904A7
:100940000A43024980004018026030BD0007005091
:1009500030B552000A439900039C0A432102049DCA
:100960000A4329040A43024980004018026030BD4E
:10097000000700501CB500220B4600921146019260
:10098000FFF7E6FF1CBD1CB5002100910B460122BC
:1009900001911146FFF7DCFF1CBD000082000648F4
:1009A0001018026803231B049A43026002680904BA
:1009B0000A430260704700000007005003494018D6
:1009C0000068012800D0002070470000006000404F
:1009D0004058002800D001207047032212028018DE
:1009E0004068084000D001207047000010B5002882
:1009F00008D0032805D101210648C905C16000219E
:100A0000816010BD0320FCF753F90028F9D0FBF7F3
:100A100081FE10BD00050050F0B50188041D5C4E3C
:100A20005C4F85B01B2924D018DC304600885A4D15
:100A3000102920D011291CD12188814204D121798B
:100A400056A0FFF773FB37802188708881423FD121
:100A500021795CA0FFF76AFB77803EE01D294DD02D
:100A60001F2906D12088211D75DF002801D0FBF742
:100A700051FE05B0F0BDB84202D07088B84215D121
:100A800021885AA0FFF752FB2088032802D30020B8
:100A9000FBF740FE2188FF20AD30604A48438018B4
:100AA000FCF7D8FB002801D0FBF734FE01208005BD
:100AB000E8600024AC60FCF781FA0228584804D0B2
:100AC000E860AC6002F02CFAD3E7A860EC60D0E7F5
