:020000040001F9
:10C00000F04B002039C5010041C5010043C50100C6
:10C0100045C5010047C5010049C5010000000000F9
:10C020000000000000000000000000004BC50100FF
:10C030004DC50100000000004FC5010051C50100C1
:10C0400053C5010053C50100A5CA010053C5010035
:10C0500053C5010053C5010049C6010053C5010085
:10C0600053C5010053C5010053C5010053C501006C
:10C0700053C5010053C5010053C5010053C501005C
:10C0800053C50100FDC7010053C5010053C50100A0
:10C0900015C8010053C5010019C8010053C50100AE
:10C0A00053C5010053C5010053C5010053C501002C
:10C0B00053C5010053C5010000000000000000004E
:10C0C00053C5010053C5010053C5010053C501000C
:10C0D00053C5010053C5010053C501000000000015
:10C0E0000000000000000000000000000000000050
:10C0F0000000000000000000000000000000000040
:10C10000000000000000000000000000000000002F
:10C11000000000000000000000000000000000001F
:10C40000DFF80CD000F0F0F8004800474D020200C1
:10C41000F04B0020401E00BF00BF00BF00BF00BFA8
:10C4200000BF00BF00BF00BF00BF00BF00BF00BF14
:10C4300000BF00BF00BF00BF00BF00BF00BF00BF04
:10C4400000BF00BF00BF00BF00BF00BF00BF00BFF4
:10C4500000BF00BF00BF00BF00BF00BF00BF00BFE4
:10C4600000BF00BF00BF00BF00BF00BF00BF00BFD4
:10C4700000BF00BF00BF00BF00BF00BF00BF00BFC4
:10C4800000BF00BF00BFC5D170470000401E00BF05
:10C4900000BF00BF00BF00BF00BF00BF00BF00BFA4
:10C4A00000BF00BF00BF00BF00BF00BF00BF00BF94
:10C4B00000BF00BF00BF00BF00BF00BF00BF00BF84
:10C4C00000BF00BF00BF00BF00BF00BF00BF00BF74
:10C4D00000BF00BF00BF00BF00BF00BF00BF00BF64
:10C4E00000BF00BF00BF00BF00BF00BF00BF00BF54
:10C4F00000BF00BF00BF00BF00BF00BF00BFC5D16D
:10C5000070470000056885F308884068FF2464B21E
:10C51000EFF30585002D01D1A646004725460646C6
:10C5200021273FBAF0B40024002500260027F0B4EC
:10C53000F92040B2004700000648804706480047FF
:10C54000FEE7FEE7FEE7FEE7FEE7FEE7FEE7FEE7C3
:10C55000FEE7FEE73DC8010001C4010010B5431A23
:10C56000934209D28318881803E010F8011D03F8DC
:10C57000011D521EF9D210BD40EA01039B0703D0F2
:10C5800009E008C9121F08C0042AFAD203E011F812
:10C59000013B00F8013B521EF9D210BDD2B201E0BE
:10C5A00000F8012B491EFBD270470022F6E710B5B8
:10C5B00013460A4604461946FFF7F0FF204610BD11
:10C5C000421C10F8011B0029FBD1801A704730B5BE
:10C5D00004460020034600E05B1C934203D2E05C6B
:10C5E000CD5C401BF8D030BD064C074D06E0E0683E
:10C5F00040F0010394E8070098471034AC42F6D3AA
:10C60000FFF702FFA01B0200C01B020030B58C1810
:10C6100010F8012B12F00F0301D110F8013B1209A1
:10C6200006D110F8012B03E010F8015B01F8015B63
:10C630005B1EF9D101E001F8013B521EFBD1A14282
:10C64000E6D3002030BD00002DE9FC5F0025DFF8B7
:10C650003091A8464FF4807601242F46304604F0EE
:10C6600043F838B1D9F80403204203D0304604F02F
:10C6700031F82543361D64007F1CB6B2082FEDD378
:10C680004FF4BE74204604F02FF838B1204604F071
:10C6900021F83C4845F00045D0F800803A4E15F0AE
:10C6A000FF0F13D0012700242F420BD0374800EB97
:10C6B000840108680968C0F3042056F82420C1F3F7
:10C6C000014190477F00641C082CEDD3002D54DA03
:10C6D0004FF0000A4FF0FF3900273D46701910F85F
:10C6E000501F90F9000021F0C004401C37D00120F9
:10C6F00000FA04FB1BEA090F31D08809009020469C
:10C7000001F0FCFE56F82000019020B10099584637
:10C71000032904D005E00098032820D158464AEAAE
:10C72000000A1B4951F824101BEA080FC1F301410C
:10C7300002D0022902D012E0032910D10098032868
:10C7400007D1022917D00221204603F0B5FF7F1C34
:10C75000FFB2019818B1DDE90012204690476D1C28
:10C76000042DBBD3002F08D006480068404504D0F4
:10C770008046D146B0E70321E6E7BDE8FC9F000014
:10C780000060004010050050402800201065004067
:10C790000007005000F01F020121914040094FF0B6
:10C7A000E02202EB8000C0F88012704700F01F0208
:10C7B0000121914040094FF0E02202EB8000C0F8D7
:10C7C0000011704700F01F020121914040094FF015
:10C7D000E02202EB8000C0F8001270474907090E02
:10C7E000002803DA00F00F00024A00E0024A8154F8
:10C7F0007047000014ED00E000E400E00448002170
:10C80000016441648164C1640160416004F0ECBE74
:10C810000011014004F084BE074810B5406830B1F3
:10C820008047002807D0BDE8104000F013BBBDE8EA
:10C83000104003F0A1BB10BDD821002070B58A487C
:10C840000023021D0178101D0124062907D1157847
:10C850002D0704D10578C5F30315032D02D0062951
:10C8600004D00FE0824E814D75670EE015782D07DC
:10C8700008D10578C5F30315032D06D0042D04D087
:10C88000052D02D0062907D00EE07A4D2D687A4E8C
:10C89000C5F34235356002E015782D0704D10578DF
:10C8A000C5F30315032D02D0062906D011E0734D00
:10C8B0002E6826F080762E600EE015782D0708D1C0
:10C8C0000578C5F30315032D06D0042D04D0052DDE
:10C8D00002D0062907D00EE0694D2B606B60664DD3
:10C8E0002D1F2B6002E015782D0704D10578C5F3C4
:10C8F0000315032D02D0062905D00CE05E4A032162
:10C90000643211600AE015782D0704D10578C5F36B
:10C910000315032D02D006290DD06AE0594A0521DE
:10C920001160584978310C60564908310B603F213D
:10C93000121D116002E0117809075AD10078C0F386
:10C940000310052855D150480068504908604E48EA
:10C95000001D0068091D08604B4808300068091D6B
:10C96000086049480C300068091D086046481030CE
:10C970000068091D0860444814300068091D0860FB
:10C980004148183000684149203108603E481C3059
:10C990000068091D08603C4820300068091D0860D7
:10C9A000394824300068091D08603748283000687D
:10C9B000091D086034482C300068091D08603248A1
:10C9C000303000683149403108602F483430006809
:10C9D000091D08602C4838300068091D08602A4885
:10C9E0003C300068091D0860274840300068091D78
:10C9F000086022487438016841F470010160BFF397
:10CA00004F8FBFF36F8F4FF01021D1F80002002835
:10CA100003DBD1F80402002821DA1D4A14601D4806
:10CA20000468002CFCD01524C1F800420568002DD4
:10CA3000FCD0C1F8044201680029FCD013600168F1
:10CA40000029FCD0BFF34F8F0C48F0380168124A20
:10CA500001F4E06111430160BFF34F8FFEE710491D
:10CA60000E48086070BD0000E00F00F00DF0ADBA98
:10CA700000C00740440200103C050040FCED00E00F
:10CA80000C010040105600400404001020C5004076
:10CA900004E5014000E401400400FA050090D003E1
:10CAA000D42000200348007F08B104F0C7BE04F082
:10CAB00041BE00009828002002E008C8121F08C1EB
:10CAC000002AFAD170477047002001E001C1121F0F
:10CAD000002AFBD170472DE9FC5F00251688074628
:10CAE0001580406B14468946A8464FF00C0A112366
:10CAF0004FF0020B98B101784846032E48D380F8D6
:10CB000000B02288521C92B2228083542288521C88
:10CB100092B2228009F802102088401C20803A6BD3
:10CB2000DAB12088494600F11205B54230D80B54DD
:10CB300020881023401C80B220800B542088401C89
:10CB400020800F202388155C401ECD54238840B2DE
:10CB50005B1C23800028F5DA454697F82E0030B19B
:10CB600033462246494603F075FA050011D197F87D
:10CB70002D0030B132462146484600F095FE0500B2
:10CB800007D1B87820B32088C846001DB04202D92A
:10CB90005046BDE8FC9F684679DF0028F9D121881E
:10CBA000032008F8010020881921401C80B2208051
:10CBB00008F800102088401C80B2208000EB08019B
:10CBC000BDF8000004F0A8FE01462088084420803B
:10CBD000F878B8B1228897F90310D31C4846B342BD
:10CBE000D6D800F802B022880123521C92B22280CB
:10CBF00083542288521C92B2228009F802102088A5
:10CC0000401C20807868B8B1218890F90020CB1CA6
:10CC10004846B342BCD800F801B021880A23491C19
:10CC200089B2218043542188491C89B2218009F8A6
:10CC300001202088401C2080388950B1CDE9004671
:10CC40004B460622022107F1080004F0D7FE05003A
:10CC50009FD1388A50B1CDE900464B4607220321C7
:10CC600007F1100004F0CAFE050092D1388B50B1D4
:10CC7000CDE900464B461522142107F1180004F0B7
:10CC8000BDFE050085D1386A30B13346224649469B
:10CC900001F0E0FD0500DBD1786A30B13346224671
:10CCA000494603F05FFB0500D2D197F82C0038B15C
:10CCB000334622464946384604F08EF90500C7D16E
:10CCC000387838B1334622464946384603F07CFB73
:10CCD0000500BDD128465CE710B5012202210020E5
:10CCE00001F020FA08B1072810D107220221012003
:10CCF00001F018FA08B1072808D100210A220846D5
:10CD000001F010FA08B1072800D1002010BD000082
:10CD1000064800684FF40021044A8143121D116047
:10CD2000111D00F400200860704700000405005049
:10CD300070B50024064D06E06868012110F8340043
:10CD400003F0C2FB641C28788442F5D3002070BD38
:10CD50009C210020F8B515460C460646052A01D24E
:10CD60000720F8BD03F08CFC18B903F05FFC002825
:10CD7000F7D1114900204E600C70C1E902500F4DEF
:10CD800008610DE006EBC4006968009181788DF8B8
:10CD9000011000780A4A694603F0E6FB0028E0D15A
:10CDA0002000A4F10104E4B2ECD1BDE8F840054A4A
:10CDB0000021024800F088B89C210020981B020046
:10CDC00001FD010005EA01003EB504460420019082
:10CDD000174802906946204602F0D0F838B1A0F515
:10CDE0000041403902D000BF00F034F83EBD104889
:10CDF0000C38017BC90715D04FF6FF720C218088D3
:10CE0000A7DF78B1A0F5405102390BD0082809D02E
:10CE1000891E07D0112805D043F20141884201D074
:10CE200000F018F8204602F05FF80028DCD13EBD83
:10CE30008C200020BFF34F8F04480168044A01F49E
:10CE4000E06111430160BFF34F8FFEE70CED00E09E
:10CE50000400FA050EB500210091CDE901106A46E3
:10CE600044F20100FFF7E6FF0EBD0000014B1B6816
:10CE7000184700001C28002038B50C46074BA26854
:10CE8000097802EB420253F82250054A126A0092D6
:10CE9000024604F108002369A84738BD142B00207E
:10CEA00078210020074910B50A7802EB820201EBD5
:10CEB0008201091DFFF7E0FFBDE81040042004F0E7
:10CEC0009FB90000B8280020074B9B6823B12AB106
:10CED00020B10068037C1BB1082070470720704711
:10CEE0004174426100207047B02100202DE9F047D5
:10CEF0008046994614460F4690074FF0000634D1FD
:10CF00001C4D8CB303F062FF0320C5F81490287009
:10CF100004F11800002107EB4703AC6004EBC102E9
:10CF2000491C167056709770506000EBC3000329BF
:10CF3000F4DBEE606E70AE701420FFF72BFC062160
:10CF40001420FFF74BFC1420FFF730FC0A49C1F80E
:10CF5000008006211120FFF741FC0748001F0068F0
:10CF600028610020BDE8F08701E00720FAE7AE6005
:10CF7000FBE70000B0210020081501402DE9F8432F
:10CF8000DFF86C900D461746D9F80810044649B3EF
:10CF900044B3052D02D20720BDE8F883606908B3C9
:10CFA000607C012820D0002604F0F6FCD9F8081097
:10CFB000804601EBC800694604F00CFDB0B10121C8
:10CFC00001700C49446009680830E2C0D9F80810C3
:10CFD00001EBC8009DF8001041701420FFF7F2FB30
:10CFE0000020D9E70820D7E72E46DDE70420D3E765
:10CFF000B021002004150140F8B5124E0446B16876
:10D00000E1B1DCB16069C8B10027277404F0C4FC49
:10D010000546B068694600EBC50004F0DBFC78B15A
:10D02000022101704460B0689DF8001000EBC5005B
:10D0300041701420FFF7C6FB3846F8BD0820F8BD44
:10D040000420F8BDB021002010B5144C00224FF48C
:10D0500080312068FFF792FF08B1FFF7FBFE002246
:10D060004FF400416068FFF789FF08B1FFF7F2FE57
:10D07000002242F26661A068FFF780FF08B1FFF767
:10D08000E9FE00224FF42031E068FFF777FF002827
:10D0900003D0BDE81040FFF7DDBE10BDD81A020076
:10D0A0002DE9F0430546007D93B00E460024A0B163
:10D0B00007949DF81C0020F00F00401C20F0F000A9
:10D0C00010308DF81C00707B8DF81D009DF81E003F
:10D0D00020F00600801C8DF81E001C216846FFF71A
:10D0E00064FA9DF8000040F002008DF80000297DF0
:10D0F00011B140F0100001E020F010008DF80000A8
:10D10000019403940494287D00B107A8CDE9050497
:10D1100001278DF8427042F61920ADF840000D94B9
:10D12000B07B8DF83400F07B8DF835009DF836002B
:10D13000142120F00600801C20F019008DF8360024
:10D14000307B8DF8440008A8FFF72FFA0DF1400856
:10D150000DF13409ADF8287011A8CDE90889ADF8B2
:10D160002A40ADF82C700C90A888AB1D08AA69461F
:10D17000A2DF002838D1B06898B38DF8427042F62B
:10D180000810ADF840000D94307C8DF834009DF807
:10D19000350020F0FF008DF835009DF8360020F0B6
:10D1A0000600801C20F019008DF836000EA8B1682A
:10D1B00000F0D6FD0646142108A8FFF7F6F9ADF8F1
:10D1C00028600EA8CDE90889ADF82A40ADF82C609A
:10D1D0000C90E88805F10E0208A9A3DF002803D10E
:10D1E00001E0FFE7EC81002013B0BDE8F083000010
:10D1F00010B50D490D4803F0E2FEC1B20A48683887
:10D2000000F052FA00280DD008280BD0A0F54051AC
:10D21000043907D043F20141884203D0BDE81040F1
:10D22000FFF718BE10BD0000E4240020902000206D
:10D23000F0B50C4693B01F210726ADF80010ADF8ED
:10D240000410002750B1C17849070DD56A4602A9DC
:10D25000FFF741FC002808D102AD02E00025ADF83F
:10D2600000706CB1E07810B1304613B0F0BD01AA87
:10D270000AA92046FFF72FFC0028F6D10AAA02E0EF
:10D280000022ADF80470BDF80400C3B2BDF8000080
:10D29000C1B2284672DFE8E770B50D46049916461C
:10D2A000040040D0F6B3414800224271C0E9033186
:10D2B000242231463E48FFF751F900F0D5F83C49A9
:10D2C0003431A1F1100001602031816038215C38D7
:10D2D000FFF76BF93648217838380170A1788170F2
:10D2E000E178C17061784170D4E90412C0E9041298
:10D2F000D4E90212C0E90212D4E90612C0E906120A
:10D30000616AD1B100F1AC0100F1B80241628A60FA
:10D31000636A1B880B80616A436A8988998000214F
:10D32000436A07E0FFE70E2070BD666AB668765C68
:10D330005654491C9E888E42F7D8A16AD9B11C4A1E
:10D34000AC32A2F10C018A608162A36A9B888B8057
:10D35000A16A836A098819800021836A04E0A66AA9
:10D36000B668765C5654491C9E888E42F7D894F86D
:10D370002C1080F82C10216A49B10C49143101623B
:10D38000226A52884A80216A026A0988118061688B
:10D3900021B10649891D4160616841602946BDE8A7
:10D3A000704003483838FFF743BF0000D820002002
:10D3B000E825002010B502881D4C102A18D0002145
:10D3C000112A1BD01B2A18D1007A002815D16079A8
:10D3D000012820D0022824D0032824D004280CD1EE
:10D3E0002171E2680846002A07D0BDE810401047C6
:10D3F000817D012901D18088208110BD61708088E4
:10D4000021898842F9D1012006E021690029F4D060
:10D41000BDE810400847022000F056F80028F4D17B
:10D4200010BD0320F8E7032020710420F4E700007A
:10D43000D820002010B5022801D0032810D1094CB3
:10D44000207800280CD000202070607900F03CF893
:10D45000002805D02169002902D0BDE81040084706
:10D4600010BD0000D8200020024800218161818386
:10D4700081777047D8200020114810B50078012826
:10D480001BD1104C6078C0B9607910B174DF0028EE
:10D4900014D10B490120607038390620C870084843
:10D4A00000213838FFF7C4FE002807D1607900F06A
:10D4B0000BF810B1216901B18847002010BD0000B0
:10D4C000E8250020D82000202DE9F04F744C87B0CB
:10D4D0000026607106A8069603F016FA01270828B0
:10D4E00001D030B903E006A802F0E6FA18B90698B0
:10D4F00008B12770C0E0FFF7B7FF6A4DDFF8A081E1
:10D500004FF0020A687808F118084FF0030B10B1C9
:10D510006079012806D0A87858B16079012801D037
:10D5200002281FD1E16819B1E7700820884700E0A0
:10D53000E6706079012806D1687840B108F10100F1
:10D5400003F086F918B16079022802D00AE084F865
:10D5500005A0A87820B108F1010003F079F908B915
:10D5600084F805B0287B4FF0040920B960790328BE
:10D5700001D184F80590287E20B96079042801D172
:10D5800066712671E16841B16079032801D00428F1
:10D5900003D1287808B16078C0B1A6701821684618
:10D5A000FFF703F88DF8006001968DF80860039688
:10D5B000607901280ED0022816D03A4E2436A6F102
:10D5C0005C0703281DD004284CD13AE0A77007203F
:10D5D0008847E3E7ADF81260CDF804808DF800705D
:10D5E000ADF8106027713FE0CDF804808DF8007031
:10D5F0002889ADF81200A888ADF8100084F804A0BE
:10D6000032E0A88AADF81200288AADF8100025484B
:10D61000243004F05AFA18B1287808B1607810B1B3
:10D6200084F804B01EE01F488DF808A0039687F820
:10D63000039000213838FFF7FBFD00281DD105209D
:10D640002BE0A88BADF81000288CADF8120015481F
:10D65000243004F03AFA18B1287808B1607878B12B
:10D6600084F80490607918B1684673DF002804D10B
:10D67000E16809B120798847002007B0BDE8F08F44
:10D6800008488DF808A0039687F8039000213838E1
:10D69000FFF7CEFD0028F0D106202071E2E7000060
:10D6A000D8200020E825002073B586B0040034D0CF
:10D6B000217C9DF81C20002091422CD000250126C1
:10D6C0000095ADF8006007A8ADF802500190E18820
:10D6D000608A6A46A4DF00281DD19DF81C002074D2
:10D6E000608AA0F57F41FF3919D0207DB8B102953D
:10D6F000039504950595E088ADF80800BDF8020093
:10D70000ADF80C0001988DF80A60CDF810D00590A6
:10D71000608A02A9A6DF08B070BD0E20FBE70820D2
:10D72000F9E738B50D4604001BD0D5B12868206054
:10D730004FF6FF70608228792075FF202074012049
:10D740008DF8020041F60F00ADF80000221D694679
:10D750000120A0DF002803D129462046FFF7A0FCC6
:10D7600038BD0E2038BD08B5002821D000291FD0B3
:10D770000A88102A17D0112A17D0502A18D1027DF2
:10D78000002A15D031F8062F43899A4210D14A89D0
:10D79000022A0DD10268002A0AD0097B11F0010F7C
:10D7A00007D0002106E0898801E04FF6FF71418231
:10D7B00008BD01218DF800106946904708BD0000A2
:10D7C00070B5054601461C220F48FEF7C7FE0F4CF8
:10D7D00000262670286830B1016861604068A0604A
:10D7E000201D7ADF02E00948001D7BDF00280AD1F6
:10D7F0004FF6FF7060806670BDE87040044A0021FB
:10D800000448FFF761BB70BDD4260020F82000203B
:10D8100039190200281B020070B51E4C068800252D
:10D820001B49E289102E15D01B4B112E1CD0122E35
:10D8300029D0502E17D130F8061F914213D14189BB
:10D84000022910D1007B10F0010F11D0BDE870400B
:10D8500001F046B883884B808369CB60C06908615A
:10D860004D70002AF2D070BD4FF6FF7048804D70A9
:10D870001868FFF7C1FB0028F5D0A1690029F2D094
:10D88000BDE8704008478268CA60C0680861DDE78B
:10D89000F8200020D4260020281B02000148006840
:10D8A000FFF7AABB281B02007CB5054608880C467A
:10D8B0000930904201D90C207CBD684671DF0028F8
:10D8C000FAD121880820685420881B21401C80B28E
:10D8D000208029542088401C80B220802844DDF814
:10D8E00001100160BDF8051081802088801D80B284
:10D8F00020809DF8001001B1012129542088401C8E
:10D90000208000207CBD000030B585B00D460400AD
:10D910003AD0C5B36868B0B31C4B4FF6FF70208097
:10D920000FCB0DF1040CACE80F0041F23050ADF814
:10D9300000000DF1020101A863DF002821D1221DA2
:10D9400069460120A0DF00281BD19DF80200A071CC
:10D95000204601F02BFA002813D1204601F0D8F917
:10D9600000280ED12946204601F06EFA002808D181
:10D970006868A062A86800B1E062054901200870EB
:10D98000002005B030BDFFE70E20FAE72C1B020097
:10D990000C2100203EB500283CD000293AD0826AF4
:10D9A000002A37D00A88102A23D0112A33D0502ACF
:10D9B00021D0512A2ED104460A4611F8060F02281A
:10D9C00028D14888238A984224D1907B042821D0EA
:10D9D00006281FD005281DD0891C204602F0BCFE59
:10D9E000002817D0E16A002914D003B0BDE8304008
:10D9F0000847898811E0CA8803899A420AD1082217
:10DA00008DF800200A7C12318DF808200191826A7D
:10DA1000694690473EBD4FF6FF7101803EBD000054
:10DA200030B585B028B30388A3F57F44FF3C22D0EE
:10DA3000124B1B78FBB1114B10255B1C00241D7091
:10DA400059709A7001250321ADF8101000940194CB
:10DA500002940394018AADF8001004A9CDE90213E1
:10DA60008DF80250ADF8044000886946A6DF05B085
:10DA700030BD0E20FBE70820F9E700000C21002054
:10DA80007FB5044601208DF8060041F60A00ADF886
:10DA90000400454A01A90120A0DF00287ED1228888
:10DAA00004F13C0552B140482B46801C009042F6E0
:10DAB0002920616800F02AFD002873D1228952B123
:10DAC00039482B460A30009042F62420E16800F0E5
:10DAD0001DFD002866D1228A52B133482B461230F0
:10DAE000009042F62520616900F010FD002859D110
:10DAF000228B52B12C482B461A30009042F6272038
:10DB0000E16900F003FD00284CD1228C52B1264877
:10DB10002B462230009042F62620616A00F0F6FC87
:10DB200000283FD1228D52B11F482B462A30009049
:10DB300042F62820E16A00F0E9FC002832D1216B8E
:10DB400071B102A803F0C1FC17482B463230009097
:10DB5000082202A942F6232000F0D8FC002821D197
:10DB6000606B58B110492B463A3100910279016837
:10DB700042F62A2000F0CAFC002813D1A16B81B123
:10DB800002A802F0A7FE08482B4642300090072268
:10DB900002A942F6502000F0B9FC00E002E00028A3
:10DBA00000D1002004B070BD1421002070B50446DF
:10DBB00001F0BAFA2146154800F086F813482146CC
:10DBC0001838FFF7D0FD2046FFF726FE204600F06C
:10DBD000DFF90E4821468030FFF7DCFE20880C4D2F
:10DBE000102802D011280BD107E0072000F0BCFA62
:10DBF00008B1FFF72FF9A08801E04FF6FF70A88069
:10DC00002046BDE87040FFF7D5BB000094240020FB
:10DC10008020002030B50446008C8BB0A0F57F42F8
:10DC2000FF3A23D005AA204602F05DF90546ADF87B
:10DC30000000002001900290039004902189ADF82B
:10DC400004100121ADF808008DF8061005A8CDF8E4
:10DC50000CD00490208C01A9A6DF002804D1BDF8C7
:10DC60000010A94200D00C200BB030BD0820FBE70B
:10DC700038B5044608682060087960714FF6FF7077
:10DC80002084002084F82200A4F84C0001208DF8A4
:10DC9000020041F60D000D46ADF80000A21D6946D8
:10DCA0000120A0DF00280ED12946204602F0BAF854
:10DCB000002808D1A86828B12946204600F094F829
:10DCC000002800D1002038BD08B50A88102A14D0D9
:10DCD000112A14D0502A15D131F8062F83899A427F
:10DCE00010D14A89022A0DD10268002A0AD0097B84
:10DCF00011F0010F07D0002106E0898801E04FF6FE
:10DD0000FF71018408BD01218DF80010694690471C
:10DD100008BD70B50446B0F84C000D4614280AD171
:10DD200004F126012622881EFEF718FCB4F84C00E8
:10DD3000401EA4F84C00B4F84C0004EB4001401C19
:10DD4000A4F84C008D8470BD80F82210704770B527
:10DD500004460D460846FEF733FC2080656070BD22
:10DD60000A780270497841700220704700B519485E
:10DD700087B00023006905904822174905A803F0E1
:10DD800087FA08B1FFF766F86A460121002003F020
:10DD900069FA08B1FFF75EF801208DF80C000F4812
:10DDA00003F05CF808B1FFF755F8684603F050FA45
:10DDB00008B1FFF74FF80A4803F040FA08B1FFF73F
:10DDC00049F8084803F07EFA002801D0FFF742F82E
:10DDD00007B000BDD81A020034240020E81F00203C
:10DDE000ADDB0100B9140200F0B58FB00D46064658
:10DDF0001C216846FEF7D9FB00249DF8000003941F
:10DE000040F002008DF80000012701948DF8367073
:10DE100042F63820049405940694ADF834000C942E
:10DE2000E87B8DF83000287C8DF831009DF83200B9
:10DE3000142120F00600801C20F019008DF832001B
:10DE400007A8FEF7B2FB0DA807900CA8ADF8247048
:10DE50000890ADF82640ADF82870A8680B90F088BF
:10DE600006F1100307AA6946A2DF0FB0F0BD00005B
:10DE70001CB5044681786A460C4802F057FD00281C
:10DE800013D160780A49C0EBC00001EB80001C236D
:10DE90001A46694602F006FE054806494C30807A6B
:10DEA00051F820202146684690471CBD7021002073
:10DEB000D0270020501B0200F8B505460820ADF819
:10DEC000000001236A461C492846AADF1B48006857
:10DED0008047B12044DF08B1FEF7BCFF11DF08B175
:10DEE000FEF7B8FF4FF01024606913DF08B1FEF7AA
:10DEF000B1FF284600F0B6FE01204FF0E022810578
:10DF0000C2F88012D2F800515FF0000100FA01F36C
:10DF10002B4209D04BB203F01F0700FA07F65B094A
:10DF200002EB8303C3F88061491C2029EED36069AA
:10DF300000F006F8F8BD0000802B0020D021002062
:10DF4000FEF7E0BA7CB5114E0C004FF000053060D2
:10DF500015D06946002000F0B1F8002815D101A9BC
:10DF6000012000F0ABF800280FD19DF8041009B192
:10DF7000022003E09DF8001001B10B2020707068B2
:10DF800010B9FEF7A9FE054628467CBDCC2000202E
:10DF900010B51A4C0188606810290ED011292BD1B8
:10DFA000401E606028D1FEF797FE002824D021682B
:10DFB000002921D0BDE810400847D0B90021012236
:10DFC000084600F0AFF808B107280FD10722022158
:10DFD000012000F0A7F808B1072807D10422022188
:10DFE000002000F09FF820B1072802D0216801B17D
:10DFF00088476068401C606010BD0000CC20002095
:10E0000010B5032000F024FA08B1062800D1002042
:10E0100010BD00002DE9F04707460024244802E027
:10E02000641C042C41D250F82420BA42F8D1042CAC
:10E030003BD21F48DFF87C901F4E0C38A9F1140822
:10E0400041B301290FD002292FD104EB4400304401
:10E050004578002D29D0D8F81010002925D0284661
:10E06000BDE8F047084704EB4401755C0E44717845
:10E0700061B1D8F804100F4A01EB81014900133A4D
:10E080008068FEF77BFF08B988F80170B17809F85D
:10E090000410DEE78068FEF7AFFF04EB4401314473
:10E0A00019F804008D78A842D3D0BDE8F0870000AD
:10E0B000F81A0200C82000208425002004280CD271
:10E0C000074A1268074B13F820300120984090430C
:10E0D00000D001200870002070470020FAE70000FF
:10E0E00010050050F81A020010B5042807D00728C0
:10E0F00010D00A2812D1BDE8104003F06DB80848CE
:10E100001321808876DF07E0002807D0BDE81040A3
:10E11000FEF7A0BEFFF7B0F90828F5D110BD00004A
:10E120008020002070B50023042810D20D4D00EB94
:10E130004004012A02D101290CD00022094E00EB33
:10E140004000304461B1012906D0022906D00723DE
:10E15000184670BD0D30C2B22A55F9E74270F7E794
:10E160008270F5E784250020044A01460020127AD7
:10E17000D20702D0084600F055B87047B4200020FE
:10E1800070B50E462149054600200A61C1E90165C6
:10E19000A9071BD50024012211462046FFF7C2FF24
:10E1A000641C042C02D20028F5D00FE070B972086C
:10E1B00004211748FEF7CEFD40B9FEF7B9FD28B996
:10E1C0001348144A00211438FEF77EFEE9070AD0EE
:10E1D000114A4FF4F01111600F4B00221B1D1A6001
:10E1E0000D4A1032116000280FD109480B4A002156
:10E1F0001C38FEF769FE002807D1BDE870400448CE
:10E200000121074A1838FEF75FBE70BDB420002018
:10E21000081B020091E4010008050050A90002005B
:10E2200011CD01002DE9F84F874FDFF818A24FF408
:10E23000E018F968064628EA01080091002079688C
:10E240000AF10404251DDFF804C24FF400324FF434
:10E25000802B01EB810E8146182E16D2DFE806F0E6
:10E260000C17173B4E5F738588918891EDA3A3A38C
:10E27000A3A3CDD4DBE4EDED009A4FF4F01191436C
:10E280002160C5F8009087F80090BDE8F88FC4F8C9
:10E2900000804846C5F80090DAF8003083F4F013A7
:10E2A0009B0309D522602860022E02D14FF4E16061
:10E2B0000AE04FF47A6007E02A602060022E01D164
:10E2C000C82001E04FF4C8706422B0FBF2F0414373
:10E2D0003E7000225FE0C4F800804846C5F8009018
:10E2E000DAF8003083F4F0139B0304D52260286031
:10E2F0004FF44870E8E72A602060E1E7C4F8008046
:10E300004846C5F80090DAF8003083F4F0139B0318
:10E3100002D522602860CCE72A602060D2E7C4F8EA
:10E3200000804846C5F80090DAF8003083F4F01316
:10E330009B0302D52260286001E02A6020603E70C5
:10E340004FEA410126E0C4F800804846C5F8009035
:10E35000DAF8003083F4F0139B0302D522602860C2
:10E3600001E02A6020603E7014E0C4F800804EE0B6
:10E37000DAF800002BEA0002226000F48020286016
:10E3800008E0DAF800002BEA0001216000F48020A8
:10E39000286071460022DCF80000BDE8F84FFEF767
:10E3A000EDBD21602EE0E046DCF80400FEF724FE1F
:10E3B000D6F1110100D040B1F96801F4F0112160EB
:10E3C000C5F80090C7F80C905FE74FF40022FA60A0
:10E3D00001290BD9C82041436420B1FBF0F17868D2
:10E3E00000224143D8F80400FEF7C8FDF96801F4A3
:10E3F000F0112960C4F8009047E74FF4F011216054
:10E40000C5F800903E7040E74FF4E01121604946A6
:10E41000C5F8009006E04FF4D01121604946C5F8D8
:10E4200000905A462A60BCE74FF4C011216049466B
:10E43000C5F800904FF4C022F4E74FF4F0112960C2
:10E440004946AEE704050050B4200020EC1A020053
:10E45000F0B50D4D0D4E00214FF0010C55F8212067
:10E4600006EB82031C680CFA01F2024201D003277A
:10E4700000E0002724F4403242EA07421A60491CB7
:10E480000429EBD30020F0BDF81A02000007005069
:10E4900000780221FFF7BEBD05494FF0FF32082882
:10E4A00041F8202002D3084480F84820704700003B
:10E4B00040280020F0B54FF0FF3512B100230826A8
:10E4C00001E008230C260C4C05E000BF54F8237033
:10E4D0007F1C04D05B1CB342F8D32846F0BD26183D
:10E4E0005DB286F8305044F82310002AF5D1E118C7
:10E4F00081F84800F1E70000402800200249084464
:10E5000090F9300070470000402800202DE9F043CA
:10E510008FB01E46DDF8589015460F00804602D198
:10E520000020FEF797FC15B90020FEF793FC1C2194
:10E530006846FEF73AF800249DF80000039440F086
:10E5400002008DF80000012001948DF8360004943B
:10E5500005940694ADF834800C9430788DF8300032
:10E5600070788DF831009DF83200142120F00600FB
:10E57000801C20F019008DF8320007A8FEF715F86E
:10E580000DA807900CA808900748ADF82450ADF8E6
:10E590002640ADF828500B974B4607AA69460088DD
:10E5A000A2DF0FB0BDE8F083142100202DE9F04177
:10E5B0003848017801EB810100EB8104241DD4E986
:10E5C000020600EB4001344800EB8100B0F80880FF
:10E5D0004589476802F031FAB6FBF0F100FB1160A3
:10E5E000D8B3002008FB05776188A288DFF8AC80EB
:10E5F00011448D190022C8F8102040B102F01DFA14
:10E60000618888422CD0BD4201D1A08840B3A06867
:10E61000032825D002F011FAA18844463144B1FB09
:10E62000F0F200FB12108008C8F80C0002F005FAA6
:10E63000B5FBF0F100FB115030B3BD4224D0ADB2B8
:10E64000BEB202F0FAF9B6FBF0F702F0F6F9B5FB4C
:10E65000F0F087420CD1701B14E0FFE70120C1E706
:10E6600002F0EBF9B6FBF0F10320C8F814100CE04F
:10E6700002F0E3F9064602F0E0F9B5FBF0F100FB29
:10E680001150301A800820610220BDE8F04102F0EC
:10E69000B7BD0000B8280020142B002078210020EE
:10E6A0000648017801EB810100EB81000079042824
:10E6B00001D000F059B8012002F0A2BDB828002016
:10E6C0000A480B4A017801EB810100EB8100C18807
:10E6D00011620079012805D0032801D0042804D153
:10E6E000FFF764BF012002F08BBD7047B8280020FF
:10E6F0007821002000EB80020548002100EB820019
:10E7000002220171C180C0E903214161018170478A
:10E71000B82800202DE9F041114D069E6C781E2C82
:10E720001BD02F783C441E2C00D31E3C04EB8404E9
:10E7300005EB840420716261D1E90001C4E90301A1
:10E74000E38026816878401C68700648007808B924
:10E75000FFF7B6FF0020BDE8F0810420FBE70000D2
:10E76000B82800207821002010B50E4C207800EB4E
:10E77000800004EB8001091D0020FEF77DFB20785E
:10E78000FFF7B8FF6078401E60702078401CC0B270
:10E7900020701E2801D100202070BDE8104000200C
:10E7A00002F02EBDB82800202DE9F05F2648C16890
:10E7B000F1B3DFF898B00E688146DBF800400769D6
:10E7C000C078E11B21F07F45ED1CB0B9DFF88080F7
:10E7D0004FF48030C8F84403C8F804031120FDF753
:10E7E000D9FF1120FDF7E2FF4FF0010AC8F800A0A1
:10E7F0002F20FDF74BFE89F803A0B54200D2354625
:10E80000124BE8193C3320F07F401860DBF8001011
:10E810005A46091B21F07F41001BC91C20F07F4094
:10E8200081420FD9106818602F20FDF72FFE00E0FD
:10E8300004E0BDE8F05F1120FDF7C4BFBDE8F05F64
:10E8400002F0C4BABDE8F09FB021002004150140D9
:10E85000001001402DE9F04117880646B81D144606
:10E860000D46984202D90C20BDE8F081318807227C
:10E8700006290AD34FF4486C4FF6FF73614501D95E
:10E88000994202D17088062801D21046ECE7604513
:10E8900001D99842F9D1994203D0984201D08142DE
:10E8A000F3D80520E85520881221401C80B2208032
:10E8B00029542088401C80B220804119308803F000
:10E8C0002BF82188084480B220804119708803F019
:10E8D00023F82188084420800020C5E7FEF7BABA53
:10E8E000F8B5134801F080FB114D0026114C0C3D8A
:10E8F00030B16169B9B101208DF80000684611E0BE
:10E90000287820B1616971B18DF80060F6E7687808
:10E9100058B1A168084800220068FEF72FFB10B12B
:10E92000A16901B188472E70F8BD6168F2E7000067
:10E9300004210020D4260020281B020070B5094BBA
:10E94000044608209E7A00250E4208D0A4F57F4098
:10E95000FF3802D01889A04202D10020156070BD96
:10E96000052070BD1028002000EB4002074801215F
:10E9700000EB820081724FF6FF710181FF21C172AD
:10E980000021016081808171704700001028002003
:10E9900010B5134C207900071ED46069401C6061DB
:10E9A000E06808B104200AE001F02CFB08B1022065
:10E9B00005E0206960B16068C10704D00320BDE8AC
:10E9C000104002F06FBD40F0010060600020F6E7EB
:10E9D000BDE81040FFF764BEBDE8104002F058BD2E
:10E9E0007821002006494868020707D4820702D52B
:10E9F00040F001004860022002F054BD02F048BD22
:10EA0000782100202DE9F04100260125144C22E058
:10EA10006068226900EBC607387805FA00F11142F8
:10EA200017D08A43226101F0F7FD02463878E36887
:10EA300005FA00F1194002FA00F3994209D17978F8
:10EA4000012901D0012100E0002151407A6802B182
:10EA50009047761CF6B220788642D9D3BDE8F08183
:10EA60009C2100202DE9FC410E46044681786A462F
:10EA7000254801F05BFF002828D16078234F00EB88
:10EA8000400007EB8000807A400621D4022E1FD080
:10EA9000012E1FD01E4DA0781E49C0EBC00001EB17
:10EAA000800100231C226846A847A8B1022E0DD081
:10EAB0002078164900EB40000C3101EB800016492C
:10EAC000807A51F82020214668469047BDE8FC81B5
:10EAD000124DE0E7124DDEE7022EF7D0607800EB32
:10EAE000400007EB8000817A21F0400181720749E4
:10EAF00060784039C0EBC00001EB80011C231A464E
:10EB00006846A847D4E700007021002010280020A4
:10EB1000191402000C270020401B0200D10C020037
:10EB2000010C02002DE9F04705250F4F904689465C
:10EB300006460024C4EBC40007EB800036B1103059
:10EB400007223146FDF743FD18B106E0018B414530
:10EB500003D10025C9F8004002E0641C072CE9D36A
:10EB60002846BDE8F08700000C2700207CB505464C
:10EB700081B26A46074801F0D9FE040008D1742129
:10EB8000684601F0FDFE040002D1284601F06AFE4D
:10EB900020467CBD7021002070B505460C46100053
:10EBA00001D0FEF757F92078152802D12846FEF744
:10EBB0000BF9002070BD00001FB58DF80C0001F0AE
:10EBC00041FF08B1FEF746F903A800F061FD08B166
:10EBD000FEF740F90020CDF805008DF809009DF8FA
:10EBE0000500694620F07E0040F00100303020F042
:10EBF00080008DF8050007208DF8060010208DF8A4
:10EC000007000648009001208DF80400044800F039
:10EC1000A5FE002801D0FEF71DF91FBD99EB0100EC
:10EC20008220002001B50449684600F063FA0028FC
:10EC300001D0FEF70FF908BDD421002010B50978E6
:10EC400049B103220121FEF7EBFE002808D0BDE800
:10EC50001040FEF7FFB80088BDE81040FFF72CB960
:10EC600010BD000030B58BB000242349009400F0A3
:10EC7000E3FC002811D101A91F4800F081FC70B10C
:10EC80001E491D4800F068FD08B1FEF7E3F81B4877
:10EC900000DF002801D0FEF7DDF80BB030BD05988D
:10ECA000164D102201692960818AA980807DA87192
:10ECB000E81D0599FDF752FC112205F11800019994
:10ECC000FDF74CFC019850F8121F45F82A1F4168C7
:10ECD000696000892881094800DF08B1FEF7BAF8A9
:10ECE0000120009004200890CDF824D007A9024804
:10ECF000079400F097F9CCE7D42100204C2B00209A
:10ED0000704700000149086070470000D0210020D2
:10ED100030B58FB005461C216846FDF746FC00243F
:10ED20009DF80000019440F018008DF80000039455
:10ED3000049405940694A8798DF8360041F2315078
:10ED4000ADF834000C949DF83000142120F0FF0041
:10ED50008DF830009DF8310020F00F00401C20F0AD
:10ED6000F00010308DF831009DF8320020F00600E0
:10ED7000801C20F0080040F011008DF8320007A838
:10ED8000FDF713FC0DA807900CA80890ADF82440DF
:10ED90001720ADF82640ADF828000B94A88805F19F
:10EDA000100307AA6946A2DF0FB030BD30B58FB09F
:10EDB00005461C216846FDF7F8FB00249DF800007D
:10EDC000019440F004008DF800000394049405942D
:10EDD0000694A8798DF8360041F23250ADF834002F
:10EDE0000C949DF83000142120F0FF008DF83000C5
:10EDF0009DF8310020F00F00401C20F0F000103092
:10EE00008DF831009DF8320020F00600801C20F0C3
:10EE1000180040F001008DF8320007A8FDF7C5FB8F
:10EE20000DA807900CA80890ADF824401420ADF868
:10EE30002640ADF828000B94A88805F1080307AA1E
:10EE40006946A2DF0FB030BD70B58EB00E460546E4
:10EE50001C216846FDF7A9FB00249DF800000194E1
:10EE600040F002008DF80000039404940594069489
:10EE7000A8798DF8360041F23450ADF834000C9486
:10EE80009DF83000142120F00F00401C20F0F0000D
:10EE900010308DF830009DF8310020F0FF008DF823
:10EEA00031009DF8320020F00600801C20F0180090
:10EEB00040F001008DF8320007A8FDF776FB0DA8A1
:10EEC00007900CA808900220ADF82400ADF8264069
:10EED000ADF828000B96A88805F1200307AA69461B
:10EEE000A2DF0EB070BD00003EB504461F48017899
:10EEF00048F20800002930D084B3217800292CD1B1
:10EF00001B4900250968002927D0A178072929D2A3
:10EF1000184AC1EBC10002EB8000807EFF2821D09F
:10EF200012486A46103001F001FD002815D1602317
:10EF30000422694602A801F0B5FD0299491C0CD0D3
:10EF4000602304220C49684601F0C2FE002804D167
:10EF5000084AA1781C3A42F821503EBDFFE748F22A
:10EF60000E00FAE748F21000F7E7000060210020E9
:10EF70001C2800200C2700203C1B02003EB50C463C
:10EF800025490A7848F208015AB38A1D18B114B10C
:10EF9000027832BB01E010463EBD204A126802B33F
:10EFA000817807291FD21E4BC1EBC10203EB8202FD
:10EFB000927EFF2A17D01A4AA3681C3AB3B142F8CE
:10EFC0002130817814486A46103001F0AFFC0028E7
:10EFD000E2D160230422694602A801F063FD48B132
:10EFE00016E008463EBD48F210003EBD52F8211022
:10EFF000A160E6E70298401C0AD06423102269460B
:10F00000A06801F04FFD0028EFD1029961603EBD7C
:10F0100048F240003EBD0000602100201C28002076
:10F020000C270020FEB505462D480C46017848F215
:10F030000800002924D0811D1DB314B3A26802B3B7
:10F04000297800291CD127490968002918D0A978F6
:10F05000072918D2244BC1EBC10203EB8202927E36
:10F06000FF2A10D06A7803F5827302EB420203EBA9
:10F070008202927A120703D56068042806D207201C
:10F08000FEBD0846FEBD48F21000FEBD1448174EF6
:10F090006A46103001F04AFC0028F6D160230422B1
:10F0A000694602A801F0FEFC18B90298401C00D085
:10F0B0000F4E60230422211D6846B0470028E4D18A
:10F0C000642310226846A16801F002FE0028DCD10A
:10F0D000054BAA781C3BA16843F82210FEBD000036
:10F0E000602100201C2800200C270020010C0200B9
:10F0F000D10C02000A4A137848F208026BB1931D42
:10F1000019B110B1007840B901E018467047054BBD
:10F110001B6813B10870002070471046704700004C
:10F12000602100201C2800202DE9F04F054693B0F7
:10F13000FA48FF24079400784FF0000A002853D0C3
:10F14000F74E306800284FD001A800F095FA08B1BA
:10F15000FDF780FE281D05902C20ADF81800002733
:10F16000FF208DF806008DF804700097EC4C28887D
:10F170000C3CBB4610280FD0A8886A460221FFF736
:10F18000DDFB48B9009800EB400104EB8101C97A2E
:10F190008DF806108DF80500DFF884932888A9F112
:10F1A0004C091321A9F1C408192874D010DC1028C7
:10F1B0001DD011285DD013286ED0142814D10098CA
:10F1C00000EB400004EB8000C07AFF287CD099E07F
:10F1D000D44A1A2876D01E2875D0522804D1B07A85
:10F1E00052F8201001A8884713B0BDE8F08F4FF601
:10F1F000FF766A4601213046FFF7A0FB0028F3D1D5
:10F200000099022201EB410004EB8000827211227E
:10F210008DF810208DF80510A9880181A96801607A
:10F22000A9898180A97B8171E87DC10708D0BB498C
:10F23000083101EB50000078FF2809D0079007E063
:10F24000324607A905F10800FFF76CFC00280FD132
:10F250000099079801EB410104EB8101C8728A7A99
:10F2600042F008028A728DF8060001A8FEF700FE3F
:10F270006FE1009800EB400004EB8001887A20F0F9
:10F2800002008872010708D500060FD5002101A8E9
:10F29000FFF7E8FB0AE0BDE043E09DF80600FF2829
:10F2A00004D001F0DFFAFF208DF80600009910204D
:10F2B00001EB410104EB8101887212208DF81000EE
:10F2C00047E101E0FEE042E12A8A07A90020FFF7BA
:10F2D00029FC78B90098079900EB400004EB800006
:10F2E000C172827A42F0080282728DF8061001A87B
:10F2F000FEF7BEFD009800EB400004EB8000C07AF2
:10F30000FF2804D00098C0EBC00109EB810A0098E7
:10F310000023C0EBC00108EB8102A888514686DFBC
:10F3200062E700988DF8101000EB400004EB8001BC
:10F33000887A40F004008872CA7AFF2A0BD040F025
:10F3400040008872162000238DF81000A8881A4605
:10F3500085217FDF33E00DF11C0C48F243030020D0
:10F360004FEA0802C0EBC00802EB880898F81A8040
:10F37000B8F1FF0F26D0401C0728F3D34FEA03074C
:10F380000099CDF830B001EB410304EB8303DB7A45
:10F39000C3EBC30302EB8302CDE90D2BC1EBC1022A
:10F3A00009EB8201CDE9081BCDF83CB0CDF828B0BF
:10F3B000CDF82CB0321DA88808AB00217FDF0028D3
:10F3C000AED1C6E00B78022B12D0C0EBC00302EB2B
:10F3D00083034FF0FD0883F81A80D1F80080C3F84A
:10F3E0001080B1F80480A3F814808979997505E03C
:10F3F000C0EBC00102EB8101FE238B768CF800008C
:10F400000099079801EB410104EB81018DF806009A
:10F41000C872B5E7707A20F001007072009E06EBAA
:10F42000460304EB8300817A21F0040282724FF0DC
:10F4300014018DF81010297A31B1510603D4C07A25
:10F44000FFF794FB2F7A84E0697A490739D59DF854
:10F450000610FF297DD042F0080282726A7B920773
:10F4600007D5C1EBC10508EB8502957E25F00105A6
:10F470009576C27AFF2A6CD014F82320022A0ED087
:10F48000C1EBC10208EB820102680A6182888A82AC
:10F4900080798875887E20F0020088760DE0C6EBC2
:10F4A000C60209EB8200C1EBC101428A08EB810070
:10F4B0000283817E21F001018176012101A8FFF7FD
:10F4C000D1FA46E0287A0121B1EB101F2CD100F0CF
:10F4D0000F00012828D1009800EB400104EB8101C6
:10F4E000897A090720D50E4900EBC000303901EBBD
:10F4F000800008301A21FDF758F816208DF810000A
:10F50000009800EB400004EB8000817A41F060013C
:10F510008172707A40F00200707216E06021002063
:10F520001C280020601B0200009800EB400004EB48
:10F530008000817A41F08001817215208DF81000E1
:10F54000B07A52F8201001A88847002701E08DF812
:10F5500010103A4604A901A8FDF788FC9DF8100098
:10F5600012287FF4DDAE009800EB400104EB81012E
:10F57000897A01293FF4D4AEFFF7F6F934E60000AA
:10F580002DE9F043064629480C4689B0017848F237
:10F590000800002942D0811DEEB3E4B33178002980
:10F5A0003CD1234900250968002937D0B0780728C5
:10F5B00039D2204FC0EBC00007EB8000807EFF28CF
:10F5C00031D0E560B07807F58E79C0EBC00007EB6D
:10F5D0008000C4E90405C4F800D0C4E901951348CB
:10F5E000E846B17807AA103001F0A0F9002815D13B
:10F5F0001C231A4607A9684601F054FA00280DD1C9
:10F60000E560B178C1EBC10107EB8101C4E90415E4
:10F61000C4F8008000E004E0C4E9019509B0BDE849
:10F62000F0830846FAE748F21000F7E7602100206F
:10F630001C2800200C27002030B5044611B10878A2
:10F64000A0B902E048F20E0030BD0A48002300686D
:10F6500060B1084AFF200C3A887015890520A54240
:10F66000F2D14B70D07A8870002030BD48F208008B
:10F6700030BD00001C28002030B1FF210170417016
:10F680008170C1700020704748F20E007047000082
:10F690002DE9FF4105003AD02B4800240460447254
:10F6A00084722046FFF760F9274824213038FCF7A0
:10F6B0007CFF0026DFF89480FF27304601F0D2F867
:10F6C00008F80670761C072EF7D37420ADF80400F6
:10F6D0000720ADF806001E481C4900900831684616
:10F6E00001F034FA00280FD1184E0120083E307086
:10F6F000287878B1BDF80400BDF80610484381B2FF
:10F7000006F1100001F03CF904B0BDE8F08148F2C8
:10F710000E00F9E70F4F00250C48A9B202AA0830E5
:10F7200001F004F948B9C5EBC50007EB80000023E0
:10F730001C2202A901F0B6F908B13470E4E76D1C8F
:10F74000072DE9D3E0E700001C28002068210020F5
:10F75000D9F701000C2700201C4A137848F2080250
:10F76000F3B1931D18B111B10378CBB901E018467C
:10F770007047174B1B689BB1837848F20502FF2B3B
:10F7800010D01448C3EBC30300EB8300837E9B07B8
:10F7900006D402690A60828A8A80807D887100228C
:10F7A000104670474078FF28FAD000EB4003084825
:10F7B000A0F10C0000EB8300837A9B07F0D5026870
:10F7C0000A6082888A808079E8E700006021002052
:10F7D0001C2800200C2700202DE9F04F80465B48B4
:10F7E00093B01D4600681C9F93468A46002870D03F
:10F7F000742F6ED803A8FFF73FFF08B1FDF72AFB6F
:10F800000024CDE906758DF80C408DF800402646A1
:10F81000B1B210AA4E4801F089F828B9082210A9FF
:10F820004046FCF7D4FEE0B1761C072EF0D300BFB3
:10F830009DF80E00FF287DD04FF020094FF0400CBE
:10F8400005AEBAF1030F0FD0424A1C21AB1AB3FB2D
:10F85000F1F70123072F1AD20196BBF1000F0BD04D
:10F8600010E08DF80E60E3E7742F02D08DF800C031
:10F8700063E08DF8009060E03549834010394968B5
:10F880000B4257D002F04EF88DF8009043E02F4F16
:10F890004C3FA5EB0708B8FBF1F1D9B107F11C0209
:10F8A000A91A2427B1FBF7F702F124012FB32A4A42
:10F8B0008DF800C0954240D0A1F5907252F82020FA
:10F8C000AA4237D10196C97A884224D18DF80D40D9
:10F8D00021E02FE0C0EBC0008DF80D4002EB80006E
:10F8E000CDE90870019608A8184BCDE906900C33B5
:10F8F000CDE90C438DF800900DE030208DF80D40DF
:10F900008DF800008DF80F30887A800703D41046F8
:10F910002421FCF74AFE9DF80000BAF1020F11D035
:10F9200040F002008DF800005A46694603A801968F
:10F93000FDF79CFA13B0BDE8F08F9DF8000040F091
:10F940000300EFE740F00100ECE700001C28002076
:10F95000702100200C2700203C1B0200174A10B524
:10F9600012785AB148F20E0258B151B10B6843B146
:10F97000134A14683CB148F2040010BD48F2080074
:10F9800010BD104610BD0E4C13602C3CD1F8053054
:10F9900023634B7A84F834300979917223F005019E
:10F9A00041F002011172D17921F0040141F003010B
:10F9B000D17100210170084610BD000060210020B7
:10F9C0001C2800200E4910B54A788C780023A242EA
:10F9D00012D0521CD2B24A70022A00D14B70084A8F
:10F9E0004B78183252F8232002600869104420F046
:10F9F0007F400861012010BD0360002010BD0000A1
:10FA0000B0210020002808D0112801D0FDF74ABA03
:10FA10000248416841F008014160704778210020A8
:10FA200010B51F4C204621784068012910D00229CA
:10FA30002DD0032932D1000725D46069401C6061B4
:10FA400000F0E0FAD8B12078BDE8104001F0D8BB52
:10FA5000000718D41348A28B017801EB810100EB59
:10FA60008100C188891A0904090CC18003D0BDE84E
:10FA7000104001F0D3BCBDE81040FEF775BEBDE8F4
:10FA80001040FEF70DBEBDE8104000F061BC064816
:10FA9000617850F82100BDE81040004710BD00001B
:10FAA00078210020B8280020841B020028DFFFF7FF
:10FAB000A9BF29DFFFF7A6BF20B10349496D016047
:10FAC0000020704703207047882B00200EB517A137
:10FAD0009DF8080020F00F00401C20F0F0001030CE
:10FAE0008DF808000A2202A87CDF08B1FDF7B2F900
:10FAF00040F2413078DF08B1FDF7ACF9002000900A
:10FB000001904FF4A071ADF80400ADF800104FF46F
:10FB1000C8704FF40271ADF80600ADF802106846E7
:10FB20007ADF002801D0FDF795F90EBD4E6F7264A3
:10FB300069635F48524D0000002070470020704705
:10FB4000002070472DE9F0474178DFF8A490054682
:10FB500001EBC10209EB8200002401EB410109F134
:10FB6000240A4368274626460AEB810163B191F8CF
:10FB70000AC05FEA0C6807D55FEA4C6C04D459F8F8
:10FB8000226000F108049FB20889D04633463A4605
:10FB90002146A9DF48F241090B281CD000B1484694
:10FBA000012E16D168784FF6FF7200EB400008EB8B
:10FBB00080000C210089A7DF00280AD0A0F5405161
:10FBC000023913D0082811D0891E0FD011280DD06A
:10FBD0000020BDE8F0876878012300EB400008EBC7
:10FBE00080003A4600892146A9DFDBE74846F0E776
:10FBF000EC27002070B50C46014660780A4D00EBFA
:10FC0000C00005EB80003823242200F04BFF0028C1
:10FC100008D1617801EBC10105EB81014A68521CF2
:10FC200000D14A6070BD0000EC2700202DE9F041B2
:10FC300088B0804603271A20ADF81C0048782A4E69
:10FC400000EB400006EB80000D4600893B4607AA0A
:10FC50006946AADF28BB6878A6F1240400EBC0003F
:10FC600004EB80000830BDF81C206946FCF7AFFCAF
:10FC70000028687807D000EBC00004EB80014968D9
:10FC800081B11A4E0FE000EB400106EB8101897A49
:10FC9000890724D400EBC00004EB80002421FCF78A
:10FCA00084FC1CE0124E44F820706878BDF81C20DB
:10FCB00000EBC00004EB800069464260687800EB0E
:10FCC000C00004EB80000830FCF748FC687838235B
:10FCD00000EBC00004EB800124224046B04708B08E
:10FCE0000020BDE8F081000010280020D10C0200A7
:10FCF000010C0200FFF726BFFFF77CBFFFF796BF9E
:10FD00002DE9F041124E07460125BD403068FDF750
:10FD100073F9002805D10F4C2069284203D0A8436D
:10FD20002061BDE8F081384600F076FC0028E068EC
:10FD300001D0284300E0A843E06020692843206107
:10FD4000A1683068BDE8F0410022FDF717B9000056
:10FD5000981B02009C21002070B51B4C20790007E5
:10FD60002DD41A48017801EB810100EB81052E6941
:10FD700000F063FEE9882A89761E11443144B1FB04
:10FD8000F0F02169002549B16169814206D1E56041
:10FD9000606840F001006060002008E000F032F987
:10FDA00010B10220E56002E0206920B10320BDE827
:10FDB000704001F077BBBDE87040FEF771BCBDE854
:10FDC000704001F065BB000078210020B8280020B9
:10FDD00010B51249124801F0F2F8114C81B2183CEA
:10FDE000A068401CA0600D486038FDF713FF58B1B3
:10FDF000082809D0A0F54051043905D043F201414B
:10FE0000884201D0FDF726F8A0680321B0FBF1F28B
:10FE100001FB120000B10120207010BDF42400206D
:10FE20009820002070B594B00024054607949DF8F2
:10FE30001C000E4620F00F00401C20F0F000103097
:10FE40008DF81C00087B8DF81D009DF81E001C21FC
:10FE500020F00600801C8DF81E006846FCF7A5FB0C
:10FE60009DF80000019440F010008DF8000007A8F4
:10FE7000CDE9044001208DF84E00039442F637206E
:10FE80000694ADF84C000D94707B8DF83400B07B77
:10FE90008DF835009DF83600142120F00600801CF6
:10FEA00020F0180040F001008DF8360008A8FCF79B
:10FEB0007CFB13A808900DA809900EAA00212846E3
:10FEC00000F011F8ADF828001420ADF82C000EA8B1
:10FED000ADF82A400C90E88805F1080308AA6946A5
:10FEE000A2DF14B070BD2DE9F04104464079904680
:10FEF000002500B1042594F8220008B145F0020560
:10FF0000CAB2FF2908D9090A88F8012045F001057D
:10FF100088F80210032602E088F801200226B4F8CF
:10FF20004C0008B145F01005002718E0B01C14285B
:10FF30000BD9B4F84C0004EB4701C01B420024313C
:10FF400004F12400FCF70AFB0DE004EB470108EB89
:10FF50000602898C1170090A5170C6B27F1CB4F870
:10FF60004C00B842E2DC34F84C0FC01B208088F80B
:10FF700000503046BDE8F081F8B51A4C20780028D2
:10FF80002ED0206928B10026E06820B1002526B1D6
:10FF900010E00126F8E70125F9E7684652DF052859
:10FFA00003D020B1FCF756FF04E0012602E02169EE
:10FFB0000098884785B96088ADF800006946A06858
:10FFC00061DF052803D020B1FCF744FF04E00125E0
:10FFD00002E0D4E902018847002EDED0002DD6D001
:10FFE000F8BD0000D8210020054940880A889042C9
:10FFF00004D34988884201D8012070470020704707
:020000040002F8
:10000000FC20002070B50E48017801EB810100EB67
:100010008104256900F011FDE18822896D1E1144DB
:100020002944B1FBF0F1074842698A4205D301D166
:10003000006910B14FF0000070BD4FF0010070BDBD
:10004000B828002078210020800701D000207047C8
:100050000120704730B51488E51C9D4201D90C2061
:1000600030BD02250D5513881C245B1C9BB21380E8
:10007000CC5413885B1C9BB21380012807D0022844
:1000800007D0032807D0042807D0072030BD002060
:1000900004E0012002E0CD5401E00320C8541088A0
:1000A000401C1080002030BD0348017AC90702D0EF
:1000B0000078FEF7B7B87047B42000202DE9F0476C
:1000C000DFF8B0A0DAF80C009AF8004080469AF801
:1000D0000460DAF80890DAF810703AE009EBC40529
:1000E0002A7833E002EB42016B68521C03EBC1013A
:1000F000AB78D2B2934200D100220B78022B02D00F
:10010000032B23D11FE0D1F804C00346014603E0CE
:10011000614503D00B46C969C1B1F9E7B1B18B4262
:1001200005D1C06918B9144F0126BE600027D1F867
:1001300000C0C969D96149B10B6863440B6005E02F
:100140000174C06900E000210028F9D1697891426A
:10015000C8D12100A4F10104E4B2BFD1CAE9030768
:100160008AF80460404502D00120BDE8F0870020F5
:10017000FBE70000B0210020001001402DE9F0470E
:1001800005463048002680460778D0F80C904BE0B2
:10019000D8F8080000EBC70440E002D02846ED691B
:1001A0001EE02078616800EB4002401CC0B201EB09
:1001B000C2012070A278904200D126700A78486867
:1001C000012A2DD1027C5ABB8A684260CA688260CB
:1001D0000A69C2604969816198F8041001B14660FA
:1001E0004268D8F81030DFF860C0D11A21F07F41A2
:1001F000614502D28268114406E0991A826821F0B2
:100200007F418A4202D9511A016000E006604660CF
:10021000012186600174C66101F0C8F9002DBCD1CE
:10022000207861788842BCD13800A7F10107FFB27D
:10023000AED1D8F80C10494502D00120BDE8F087B6
:100240000020FBE7B0210020FFFF7F0098B001F005
:100250000DFA394A40F6CD410320FDF791FF08B170
:10026000FCF7F8FD69460020FDF76CFE08B1FCF7CD
:10027000F1FD9DF80000022856D00024FDF776FD20
:100280002046FEF799FCFFF721FC382101A8FCF776
:100290008CF902208DF8040001248DF80640062018
:1002A0008DF80700254803250690ADF81450242149
:1002B0000FA8FCF77AF98DF848404FF496700024A7
:1002C0001390B420009414901D4B0FAA214601A84E
:1002D000FCF7E2FF08B1FCF7BDFD00F0C1FE00F045
:1002E00017FE1C216846FCF760F94FF42030CDE979
:1002F00000404FF47020029012488DF80C50808915
:10030000ADF80E0010480590104806908DF810408A
:100310006846FDF755FA08B1FCF79CFDFCF794FE22
:100320000320FDF7D1F802E00124A7E748DF002809
:10033000FCD0FCF78FFDF9E7E9E00100A8200020E0
:1003400019070200942400203D070200DDE80100A7
:100350000348416821F008014160007800F050BF77
:100360007821002070B51446828805460E46921CFE
:100370002088911C0144994201D8FE2A01D90C2001
:1003800070BD521C32542088FF21401C80B2208056
:1003900031542088401C80B220808119288801F0C7
:1003A000BBFA2188084480B22080AA8842B1A9689B
:1003B00041B13044FCF7D2F82088A9880844208055
:1003C000002070BD072070BDF8B50E4601781446B8
:1003D0000546012901D1687830B12088821C9A42F3
:1003E0002DD8012902D006E00720F8BD6978014424
:1003F000891C994223D8181A801E87B2ADF8007064
:100400002188B01C084469467DDF0028EDD128789A
:10041000022805D1BDF80010B94201D809210AE02F
:100420000821012805D16878B84202D8ADF800004B
:1004300001E0ADF80070BDF80000FE2801D90C20E5
:10044000F8BD2288401CB0542088401C80B2208017
:1004500031542088401C2080BDF8001008442080C2
:100460000020F8BD00207047002070470020704732
:1004700031B540F2E73404E0401E00902046FBF71F
:10048000C9FF00980028F7D138BD00004907090EC0
:10049000002804DA0A4B00F00F021A4401E0094B6D
:1004A000C218117000F01F020121914042094FF063
:1004B000E02000EB8200C0F88012C0F80011704705
:1004C00014ED00E000E400E02DE9F0410F46804625
:1004D00000F0E8F90125204E0028404618D0FEF72C
:1004E0000DF8304490F848008009032802D0012814
:1004F0000CD005E01948006805FA08F5284205D037
:1005000003214046BDE8F04100F0D6B80221F8E7EB
:1005100000F0D4F900281DD04046FDF7EFFF044657
:100520000F494FF4807001EB840100EB84000A68EE
:1005300080B242F001020A6000F0CCF8002F09D02E
:100540004046FDF7DBFF56F82000002802D00548A2
:10055000A5400560BDE8F08140280020100500504E
:1005600010650040046300402DE9FC41DFF89880ED
:10057000044608EB0400002790F930001346C0172A
:100580000E46401C01D008273AE0F2781946204672
:10059000FDF790FF0546401C31D0B07838B11B48BC
:1005A00000EB8400016821F00201016007E00021F6
:1005B0007378204600910A46019100F06BF8F078BC
:1005C000A0B11348317800EB85000268114B1A4046
:1005D00002604FF4F8524FF4403302EA042203EA77
:1005E00001410A4301680A43026009E008EB050083
:1005F000327810F8481F41EA8211017000E00427A8
:100600003846BDE8FC81000040280020000700506B
:1006100010650040FFE0FCFF03490968C14011F08C
:10062000010000D0012070471005005070B5124D38
:1006300095F8540008B1082070BD0020411E2A180A
:10064000401CC0B282F830102028F8D30024204685
:10065000FDF722FF641CE4B20C2CF8D306210846F7
:10066000FFF714FF05494FF000400860012085F8AE
:100670005400002070BD00004028002004630040AA
:10068000034890F85400002800D001207047000073
:100690004028002030B541EA4201DDE9034541EA46
:1006A0008301044A41EA042141EA054142F820104D
:1006B00030BD000000070050054A02EB80000268D0
:1006C00022F440320260026842EA01410160704750
:1006D00000070050034908B5084400210160006884
:1006E000009008BD0060004002494058012800D039
:1006F00000207047006000404058002800D00120D2
:100700007047D0F80403084000D0012070474058DB
:10071000002800D00120704710B550B103280CD13B
:100720000220FDF721FD002807D0BDE81040FCF7AE
:1007300091BBBDE8104000F04FBD10BD007800280F
:1007400007D104483B21808876DF002801D0FCF7E0
:1007500081BB704780200020F0B58BB001274FF09F
:10076000020E05468DF80CE08DF812700889ADF880
:1007700014004889ADF8160001F10C000026089617
:100780000690ADF820E007A8ADF8226009900C466D
:10079000A98A288808AAA5DF18B1E96AC9B18847DB
:1007A00017E09DF81C0010F0010F12D0ADF810609A
:1007B000288803A9A8DF002812D1217B04F10D00AD
:1007C000092943D2DFE801F0420E1D2326282A40E2
:1007D0002C0040F2FD10ADF81000288803A9A8DF16
:1007E0000BB0F0BD8DF800600DE006221DE000BFEB
:1007F0008DF808700190AA6A694628469047002043
:10080000EEE78DF800706289022AF1D2EDE78DF8EB
:1008100000E0F0E7032012E0042010E005200EE0E5
:100820006089032805D2032208212846FDF7F8F83D
:10083000D6E7B4F80D00ADF8040018B106208DF825
:100840000000D8E70720FAE70920F8E70322ECE7E1
:100850000021425C0AB101207047491C0629F8D3E7
:100860000020704770B50546C0EBC5010C48002656
:1008700000EB81042046C4F81160A4F81560102133
:10088000FBF793FEFF202074A0764FF6FF702083C5
:10089000284601F047F802481C3840F8256070BD32
:1008A0000C2700200449084490F93000082801DB97
:1008B0000120704700207047402800200449084468
:1008C00090F93000082801D20120704700207047BD
:1008D0004028002070B50D00044602D10020FCF72E
:1008E000B9FA14B90020FCF7B5FA287820706988A5
:1008F0006170090AA170A988E170090A2171E8886C
:100900006071000AA07170BD06490979490701D4D8
:100910000820704720B104494978016000207047E1
:100920000E20704778210020B828002070B5124BA7
:100930001B795B0701D4082070BDB8B1B2B1036860
:10094000022B11D20D4C03EB430554F825605EB128
:10095000466804EB850004894568408901FB046111
:1009600000FB0450884203D8072070BD0E2070BDE4
:10097000C2E90031002070BD78210020142B002036
:10098000F8B5044623480E460079400701D40820F4
:10099000F8BD24B32068022831D21F4D00EB40007F
:1009A00055F8201059B305EB800042894168008951
:1009B00002FB00116068814221D9FFF745FB80B13D
:1009C000D4E9000200EB400005EB80004368018998
:1009D000D51AB5FBF1F701FB175585B903E00E20D9
:1009E000F8BD1020F8BDB6FBF1F501FB156535B972
:1009F0002EB14089414390191944884201D90720FA
:100A0000F8BD002002460090334621460320FDF742
:100A100081FEF8BD78210020142B002010B54FF086
:100A200010204469601C04D000F007F8B4FBF0F01B
:100A300010BD4FF08050406910BD4FF080500069EC
:100A400080B2704770B51448002425460470447085
:100A50002846FDF74FFE6D1C1E2DF9D30F4D6C80FF
:100A6000FFF7DCFFC61EFFF7E8FF46430C49AE6008
:100A700000206C6100EB4002401C41F8224001EB79
:100A80008202022814815481F4D32C70AC610420BA
:100A9000EC616860002070BDB8280020782100203B
:100AA000142B00202DE9F843804626481F461646A1
:100AB00000790C46400702D40820BDE8F883ECB169
:100AC000B8F1000F1AD02068022815D21E4D00EB95
:100AD000400055F8201079B105EB8000428941684B
:100AE000008902FB00116268914205D926B1B0422B
:100AF00002D3F119814203D90720DEE70E20DCE79B
:100B00004046FFF7A1FAD0B13846FFF79DFAB0B1E1
:100B10006068FFF799FA90B160683246C1194046A3
:100B2000FBF71CFD00962068002200EB40004346C6
:100B300055F8205002212046A8470020BDE710208C
:100B4000BBE7000078210020142B00202DE9F041A4
:100B5000294D04460E462879400702D40820BDE8F6
:100B6000F081ECB1E6B12068D0B1FFF766FF014635
:100B7000A088814212D3102810D3E08870B1FFF70B
:100B80004DFF471EFFF759FF4743E288A188A86839
:100B900002FB0102974201D3890703D00720DEE759
:100BA0000E20DCE76988022924D0C6E90010134A28
:100BB00001EB410302EB83014860206842F8230007
:100BC000A0880881E0884881FFF737FFA188E28884
:100BD000401E01FB0204FFF730FF94FBF0F4FFF727
:100BE0002CFFA96804FB0010A8606888401C68807E
:100BF0000020B4E70420B2E778210020142B002065
:100C0000F8B504461E481E46154600790F464007B3
:100C100001D40820F8BDDFB1D4B12068022815D274
:100C2000184900EB400051F820207AB101EB800018
:100C300042894168008902FB00116268914205D92E
:100C400025B1A84202D3A919814203D90720F8BDD2
:100C50000E20F8BD3846FFF7F7F978B13046FFF7B8
:100C6000F3F958B16068FFF7EFF938B12B463A460F
:100C7000214601200096FDF74DFDF8BD1020F8BD7E
:100C800078210020142B0020104902460878002803
:100C90001AD0042818D0022A14D0032A14D10A79B1
:100CA00012070FD48A69521C8A61B2F57A7F06D086
:100CB000022801D000F0A4BA487800F0F3BB0D2060
:100CC000FCF7F0B8FEF7ACBE7047000078210020BA
:100CD000F8B504461E481E46154600790F464007E3
:100CE00001D40820F8BDDFB1D4B12068022815D2A4
:100CF000184900EB400051F820207AB101EB800048
:100D000042894168008902FB00116268914205D95D
:100D100025B1A84202D3A919814203D90720F8BD01
:100D20000E20F8BD3846FFF78FF978B13046FFF74F
:100D30008BF958B16068FFF787F938B12B463A460E
:100D4000214604200096FDF7E5FCF8BD1020F8BD13
:100D500078210020142B0020104810B58088A0F5C1
:100D60007F41FF3905D0132176DF03E0FCF772F8ED
:100D700002E074DF0028F9D10020FDF7F5F908B191
:100D8000FCF768F8FCF78AFD08B1FCF763F8BDE8EA
:100D900010404FF4FA70FFF76BBB0000802000207A
:100DA000084810B5007800280BD0064806492030C6
:100DB00000F005F981B20448BDE810407038FCF736
:100DC000A8BF10BD802000200425002070B501269A
:100DD0000A48710400250160094C4810C4F8480312
:100DE000C4F8080366602F20FBF750FBA660054C93
:100DF0002F202561FBF74AFBE57070BD80E100E024
:100E000000100140B0210020094810B50949C47DF7
:100E10000023094AC1F808313CB11168437EC26819
:100E2000D154417E491C417610BD106810BD0000B0
:100E30009828002000200040182500401FB50122FE
:100E40008DF8080004488DF800200191D0E90012C7
:100E5000684690471FBD00009828002008B5024949
:100E60000020009108BD00008020002010B5012165
:100E7000202803DA1C4A8140114004E0402803DAAC
:100E8000A0F12002914031B1002807DA174A00F0A2
:100E90000F01114404E042F2010010BD144A811810
:100EA00009784909082914D299B1012911D00429D6
:100EB0000FD005290DD00F498C6800F01F030122C7
:100EC0009A40400944B151F82030134341F8203092
:100ED00008E042F2020010BD4FF0E02101EB80007B
:100EE000C0F80021002010BDFC06FFBC14ED00E09E
:100EF00000E400E0E02B00200348417881F001018C
:100F000041700248FCF720BF80200020942400207C
:100F100070B515480124512164258460C0E900158D
:100F200004730146114800F03FF80F488C2110303F
:100F3000002601604FF4967141600A2181600673BA
:100F400001460A48083000F02FF807484FF4FA71BC
:100F500020300560C0E9011406730146BDE8704009
:100F60000248103000F020B8E42400209020002037
:100F700010B503680A6889689C1A8C4202D9591A0C
:100F8000016010BD01210260017110BD10B54B68F8
:100F9000026889689C1A8C4202D91144016010BD14
:100FA00000210360017110BD0A7B1AB1496801601C
:100FB000002102E00968016001210171704710B54C
:100FC000044600790028204602D0FFF7DFFF01E049
:100FD000FFF7CEFF206810BD2DE9F0410746806A7B
:100FE00014468846C8B3002531E000BFB96A05EB56
:100FF000450001EB8006B088801CFE2802D90C2039
:10100000BDE8F0812288401C08F8020020881622E2
:10101000401C80B2208008F800202088401C80B24C
:10102000208000EB0801308800F076FC218808441D
:1010300080B22080B28842B1B16871B14044FBF700
:101040008DFA2088B188084420806D1CEDB297F895
:101050002C00A842CAD80020D2E7FFE70720CFE73C
:1010600030B59FB003208DF8680014216846FBF767
:101070009CFA1AA802909DF80C00002420F00F00A2
:10108000401C20F0F00010308DF80C009DF80D0091
:10109000012520F0FF008DF80D009DF80E00009452
:1010A00020F0FF008DF80E009DF80F008DF8045021
:1010B00020F00F00401C20F0F00010308DF80F00E1
:1010C0009DF81000694620F0FF008DF810003948A7
:1010D000FCF7CEFD08B1FBF7BDFE142105A8FBF718
:1010E00064FA9DF82100059420F00F00401C20F0C8
:1010F000F00010308DF821009DF822008DF8185076
:1011000020F00F00401C20F0F00010308DF822007D
:101110009DF82300079420F0FF008DF823009DF830
:10112000240005A920F00F00401C20F0F000103032
:101130008DF8240064208DF820001E481838FCF734
:10114000F0FA08B1FBF786FE40210AA8FBF72DFA5A
:1011500019A10AA8FCF7FBFD9DF8640020F00F0020
:10116000401C20F0F00010308DF864009DF8650000
:1011700020F0FF008DF865000AA8FCF781FC08B19B
:10118000FBF768FE1148CDE91C040A481B94ADF832
:101190006C501BA98030FCF7B7FB08B1FBF75AFE77
:1011A0000B48FDF7AFFD0B488078FDF73BFD1FB006
:1011B00030BD0000942400204E6F72646963536553
:1011C0006D69636F6E647563746F72003DEC01004E
:1011D000590D02008020002010B50020FCF7C4FF4C
:1011E00008B1FBF737FEFCF70BFF08B1FBF732FE47
:1011F0003CDF002803D0BDE81040FBF72BBE10BD3C
:101200000C49087040B101280FD002280FD00328E4
:101210000FD14869FEF74ABC00208861C8610648C2
:101220004078002805D0FDF74BBA00F0F7B800F081
:1012300053B8704778210020B828002018B103491E
:10124000C860002070470E2070470000D8210020A1
:101250001CB5034901910091694660DF1CBD000087
:101260008020002070B50E46054614461421104615
:10127000FBF79BF901202080002121612173267258
:10128000657205B1A072002070BDFBF7D3BD0000F0
:1012900030B409B18C0702D0072030BC7047074C2E
:1012A0000125A16062800649636010DF0028F4D147
:1012B000257030BC1620FFF7D9BD0000D8210020D2
:1012C0008B12020018B103490861002070470E20FC
:1012D00070470000D82100202DE9F041164C6068CD
:1012E00020F0010060601548017801EB810100EBFE
:1012F00081063569FFF7A1FBB5FBF0F76761FFF7E2
:101300009CFBF1886D1E2944B1FBF0F087426068B8
:1013100002D140F0020001E020F00200606020797C
:10132000E16800F00200084304D00020BDE8F0416D
:1013300000F0B8B80220F9E778210020B828002092
:1013400001484069FEF7B2BB7821002010B5FFF7D5
:1013500065FB441EFFF771FB4443FFF76EFB054935
:101360004A69521E5043CA682146BDE81040FEF744
:10137000A0BB0000782100202DE9F0411048017841
:1013800001EB810100EB81042569FFF756FBE18841
:10139000228911442944B1FBF0F200FB1216FFF739
:1013A0003DFB471EFFF749FB07FB0061E0882289F0
:1013B0001044044A28441269BDE8F041FEF779BBA5
:1013C000B82800207821002010B5FFF727FB441E25
:1013D000FFF733FB4443FFF730FBB4FBF0F0BDE80D
:1013E0001040FEF763BB000070B5FFF726FB8608D0
:1013F000FFF723FB0749496900FB01F4FFF70EFBE8
:10140000451EFFF71AFB684332462146BDE870408F
:10141000FEF74FBB782100200020704770B51448BC
:10142000017801EB810100EB8104241DFFF705FB2E
:101430006188104E884211D2FFF7FFFA61880D1AB9
:10144000FFF7FBFA8208A188E06808442169284474
:101450002944FEF72EFBFFF7F0FA07E0A288E068C8
:1014600010448A082169FEF724FB6088F06170BD92
:10147000B82800207821002004480079000702D411
:10148000012000F00FB800F003B800007821002020
:101490000348416821F008014160407800F002B83B
:1014A0007821002002494870024951F82000004785
:1014B00078210020701B020010B50446FFF7E4FB02
:1014C0002046BDE81040FBF7B5BF70B50C000546DF
:1014D00002D10020FBF7BEFC15B90020FBF7BAFCD7
:1014E000207828702088000A68702068000CA87096
:1014F0002068000EE87020792871207A68712089B0
:10150000000AA871A068000CE87170BD034800795A
:10151000000701D4FDF7C4B8FFF7BABF7821002057
:101520002DE9F84F204C00256846D4E903B6FEF7B4
:1015300049FA8046FEF7C2FD0746A946B8F1000FFA
:1015400025D00023009ACC46E06819E007680146E0
:10155000974202D9BA1A026014E0C1F800C0D1F86B
:101560000C80D21BC8693B448A46B8F1000F07D0F3
:10157000F71827F07F47C1E90178CAF81C500D46DB
:101580000028E3D1E0602846FEF7F8FD04E0284695
:10159000FEF7F4FD00B917B15846FDF705F984F8D8
:1015A0000490BDE8F88F0000B02100200D4B10B56D
:1015B000D96831B102680C68A24204D8A21A0A6044
:1015C000C161D86010BD0B4603E00B46C969121B10
:1015D00021B10C689442F8D3A41A0C600260C16176
:1015E000D86110BDB02100202DE9F0411D4DEC68FF
:1015F000002C35D01C48002700682969B846401ADD
:1016000020F07F462068B04215D82246361A07449B
:10161000E469107C68B182F810806B6933B1D2E95B
:101620000501984728B1FBF715FC02E0D2E9051047
:101630008847002CE6D16978A878814206D1401C01
:10164000C0B2A870022801D185F802800548A978A7
:10165000183040F82170BDE8F0411420FBF7B2B813
:10166000BDE8F081B02100200415014010B5002331
:10167000174A05211846FBF739FC08B1FBF7EAFBCE
:10168000144A01211448FBF71FFC08B1FBF7E2FBE9
:101690001148124A0121001DFBF716FC08B1FBF7A7
:1016A000D9FB0D480E4A01210830FBF70DFC08B1AB
:1016B000FBF7D0FB08480B4A01210C30FBF704FC78
:1016C000002803D0BDE81040FBF7C4BB10BD0000EC
:1016D0006C220020F1D10100D81A0200D1FD0100D6
:1016E000A10D0200F90E0200064800210160064823
:1016F000828A8168895C828A521C828203480160E6
:10170000704700001C210040982800201C25004044
:101710001FB500218DF8080005488DF8001082687B
:1017200001928175D0E90012684690471FBD000004
:10173000982800202DE9FF413D4D4FF400712846C7
:10174000FEF7DFFF01273B4C4FF401780026F8B18C
:101750004FF492712846FEF7CFFFC8B1C5F8246157
:10176000C5F80883A07E00B96F6002208DF80000E4
:101770003148016801600391E07D8DF80800E06860
:101780000190E6752676D4E900126846904724E079
:1017900004212846FEF7B5FFF8B14FF484712846BE
:1017A000FEF7AAFFC8B1FFF72FFBE07D617E8842FC
:1017B00013D1227E3AB1607EE168E2752269E2606F
:1017C0002676667607E0A07E00B96F60C5F80883CC
:1017D000E675607EE168FFF731FB4FF48E712846B5
:1017E000FEF78AFF58B1A18AA07D814202D2FFF79D
:1017F0007BFF04E0C5F81C6108B1FFF789FF4FF4D7
:10180000A2712846FEF778FF00280FD0C5F8446182
:10181000A07E00B12F60E07D002807D0E675607ED5
:10182000E16804B0BDE8F041FFF708BBBDE8FF8107
:101830000020004098280020802400402DE9FF412E
:10184000324D4FF492712846FEF761FF304F314C14
:101850000026A8B1C5F8246102208DF800002C48AC
:10186000BC3801680160039138688DF80800E068B1
:101870000190E6752676D4E90012684690471EE08E
:101880004FF488712846FEF742FFC0B1C5F81061D9
:101890003868E17DC0B2814211D1227E5AB1E1683F
:1018A000D5F8003223F02003C5F80032E275226932
:1018B000E260267601E0E675E168FFF7BFFA4FF4D3
:1018C000A2712846FEF723FF48B1C5F84461E07DC8
:1018D00028B1E6753868E168C0B2FFF7AFFA4FF497
:1018E00090712846FEF713FF00280DD0C5F820613F
:1018F000A07D002808D006481030006804B0C0B2AF
:10190000BDE8F041FFF704BFBDE8FF8100200040C3
:101910003C250040982800200870000A48700220EA
:101920007047000001218140024842688A434260BA
:10193000704700006021002038B515494888A0F59F
:101940007F42FF3A23D04A78124C521CD2B24A70DE
:10195000237B93420AD3091D75DF002817D0A169A4
:10196000002914D001B0BDE83040084700254D7073
:10197000217C29B13B2176DF10B1A16901B18847F3
:101980006169002903D08DF800506846884738BD4A
:10199000F8200020D4260020EFF30580C005C00DFC
:1019A0000ED0103840B2002803DA00F00F000749CB
:1019B00000E00749405C4009022803D0062803D014
:1019C00002207047002070470120704714ED00E0AE
:1019D00000E400E042788378521CD2B2934200D1F6
:1019E00000220378934201D1002070470A704168B9
:1019F000407800EB400001EBC00070472DE9FC414E
:101A00001646DDE90854CDE900541F4680460222FF
:101A100000F00CF8002807D1CDE900543B46102215
:101A20003146404600F002F8BDE8FC812DE9FC5F3C
:101A30000026DDE90C4B994692468E468046278863
:101A4000354630E0D8F80400002200EB85006946F6
:101A50000068019001A865DF002830D19DF80000E2
:101A600050451FD10EB1002100E002212288084418
:101A70001118594522D846B9521C90B2208009F855
:101A800000E02088401C20800126218801A801EB6D
:101A90000902694665DF002811D120889DF80010F1
:101AA000084420806D1CB8F80000A842CADC56B17A
:101AB0002088C01B401E80B2FF2802D90C20BDE840
:101AC000FC9F09F807000020F9E7017911B9007BB4
:101AD000002800D001207047EC2100200C220020BB
:101AE0002C2200204C220020010000074425002069
:101AF00064250020902500200D0000000E0000004D
:101B00000F000000100000000D00030015E00100B0
:101B10000E00030015E001000F00030015E00100B6
:101B20001000030015E00100B426002023D1BCEA18
:101B30005F782315DEEF121200000000FFFFFFFFA9
:101B40006D0402002DFC010041FB0100FDFC0100C1
:101B500069040200F5FB01003DFB0100F9FC0100F6
:101B60006504020045FB010039FB0100F5FC0100A2
:101B7000C9130200E91302004113020079130200A5
:101B80004D13020079140200E5E9010091E901001A
:101B90000D15020059FD01002C2B00200300000050
:101BA000C01B0200802000206C0100000CC6010058
:101BB000E01B0200EC210020042A0000C8CA01003A
:101BC00042010323FFFF0C230D1801000F18010031
:101BD0000A18019490D00303EFFFFF041A01ED01EE
:040000050001C40131
:00000001FF
