:020000040007F3
:10A00000E0540020E5B50700EDB50700EFB5070007
:10A01000F1B50700F3B50700F5B507000000000033
:10A02000000000000000000000000000A1A40700E4
:10A03000F9B5070000000000FBB50700FDB50700FB
:10A04000FFB50700FFB50700FFB50700FFB5070024
:10A05000FFB50700FFB50700FFB50700FFB5070014
:10A06000FFB50700FFB50700FFB50700FFB5070004
:10A07000FFB50700FFB50700FFB50700FFB50700F4
:10A08000FFB5070067BE0700FFB50700FFB5070073
:10A090007BBE0700FFB507000DD80700FFB507001E
:10A0A000FFB50700FFB50700FFB50700FFB50700C4
:10A0B000FFB50700FFB5070000000000000000002A
:10A0C000FFB50700FFB50700FFB50700FFB50700A4
:10A0D000FFB50700FFB50700FFB50700000000004F
:10A0E0000000000000000000000000000000000070
:10A0F0000000000000000000000000000000000060
:10A10000000000000000000000000000000000004F
:10A11000000000000000000000000000000000003F
:10A4000000F002F800F03CF80AA090E8000C82444A
:10A410008344AAF10107DA4501D100F031F8AFF227
:10A42000090EBAE80F0013F0010F18BFFB1A43F032
:10A430000103184784370000A4370000103A24BFF6
:10A4400078C878C1FAD8520724BF30C830C144BF99
:10A4500004680C60704700000023002400250026DB
:10A46000103A28BF78C1FBD8520728BF30C148BF77
:10A470000B6070471FB503F054FB1FBD10B510BD36
:10A4800003F018FB1146FFF7F5FF00F036F903F073
:10A4900036FB03B4FFF7F2FF03BC03F03BFB000005
:10A4A0000648704502D1EFF3098101E0EFF308811E
:10A4B000886902380078024A10470000FDFFFFFF5C
:10A4C000E9A50700401E00BF00BF00BF00BF00BFDE
:10A4D00000BF00BF00BF00BF00BF00BF00BF00BF84
:10A4E00000BF00BF00BF00BF00BF00BF00BF00BF74
:10A4F00000BF00BF00BF00BF00BF00BF00BF00BF64
:10A5000000BF00BF00BF00BF00BF00BF00BF00BF53
:10A5100000BF00BF00BF00BF00BF00BF00BF00BF43
:10A5200000BF00BF00BF00BF00BF00BF00BF00BF33
:10A5300000BF00BF00BFC5D170470000401E00BF74
:10A5400000BF00BF00BF00BF00BF00BF00BF00BF13
:10A5500000BF00BF00BF00BF00BF00BF00BF00BF03
:10A5600000BF00BF00BF00BF00BF00BF00BF00BFF3
:10A5700000BF00BF00BF00BF00BF00BF00BF00BFE3
:10A5800000BF00BF00BF00BF00BF00BF00BF00BFD3
:10A5900000BF00BF00BF00BF00BF00BF00BF00BFC3
:10A5A00000BF00BF00BF00BF00BF00BF00BFC5D1DC
:10A5B00070470000056885F308884068FF2464B28E
:10A5C000EFF30585002D01D1A64600472546064636
:10A5D00021273FBAF0B40024002500260027F0B45C
:10A5E000F92040B20047000010B50C4610B1012020
:10A5F000086010BD216891B11E48421A814213D0F3
:10A600003C2A0ED23C303C315FF0010211F8013996
:10A6100000F801391346521C3C2BF7D904E00E20F8
:10A620000BE03C2203F0A5F900223C21114802F086
:10A6300071F81049891E08800020206010BD70B597
:10A6400004000BD000223C210A4802F063F8094DB7
:10A65000AD1E2988884203D00B2070BD0E2070BD2E
:10A660003C220449204603F084F92888401C2880B5
:10A67000002070BDA23400200A4601468D4801F03A
:10A680002FBA01F07AB930B58B498BB00A1D0DF1A4
:10A69000140C3CCAACE83C000968099120B105A83B
:10A6A00018DF08B101F028FA4FF4F42013DF08B1E5
:10A6B00001F022FA814B4822814909A803F07AF877
:10A6C00008B101F019FA01216A46084603F0ADF815
:10A6D00008B101F011FA01208DF80C00684603F072
:10A6E000BCF808B101F008FA764803F088F80028B1
:10A6F00001D001F001FA0BB030BD1CB57248016801
:10A700000026B12971D000251124142701222046EA
:10A71000009600231146019600F0A3F8641CBC4289
:10A72000F4D96A494FF4F0100860112000F0ADF838
:10A730004FF4FA64204601F0ABF8122000F0A5F8BF
:10A74000204601F0A5F8132000F09FF8204601F004
:10A750009FF8142000F099F8204601F099F8112094
:10A7600000F08EF8122000F08BF8132000F088F82B
:10A77000142000F085F84FF010204069B0F5F42F58
:10A7800002D0002001F0B8F94FF080500069B0F518
:10A79000805F02D0002001F0AFF94D4B4D4A0521FA
:10A7A000002001F06CFB08B101F0A6F90323CDE90C
:10A7B000006300221020114600F053F801F0FAFE69
:10A7C00001F03FFFA0B101F04BFF08B101F094F997
:10A7D00085F00100FFF757FF00F05DF801F05DFF25
:10A7E00060B101F089F909E0FFE7012506608BE718
:10A7F00085F00100FFF747FF00F04DF833480830BF
:10A800000068C0F3004058B1002028434FF4405581
:10A8100008D0132000F039F8204601F039F805E09F
:10A820000120F2E7A86801F004FE20B901F0D4FE8F
:10A8300008B101F061F9A86801F0FBFD28B101F051
:10A8400000FF10B9A86801F0D3FEBFF34F8F224874
:10A850000168224A01F4E06111430160BFF34F8FA8
:10A86000FEE730B541EA4201DDE9034541EA8301F3
:10A870001B4A41EA042141EA054142F8201030BD5B
:10A8800001218140114801607047012181400F483A
:10A89000001D016070470A4A10B548321421082093
:10A8A00001F076F9002803D0BDE8104001F024B98A
:10A8B00010BD0000EFBEADDE2CDB07000FD9070096
:10A8C000982E002083A607001C05004008050050B4
:10A8D00055C30700D02C00200CED00E00400FA0561
:10A8E000000700502DE9FC5F0026DDE90C4B99467E
:10A8F00092468E4680462788354630E0D8F80400D8
:10A90000002200EB850069460068019001A865DF20
:10A91000002830D19DF8000050451FD10EB1002114
:10A9200000E00221228808441118594522D846B96E
:10A93000521C90B2208009F800E02088401C208042
:10A940000126218801A801EB0902694665DF00287C
:10A9500011D120889DF80010084420806D1CB8F8A3
:10A960000000A842CADC56B12088C01B401E80B23D
:10A97000FF2802D90C20BDE8FC9F09F80700002041
:10A98000F9E72DE9FC411646DDE90854CDE900540C
:10A990001F4680460222FFF7A5FF002807D1CDE918
:10A9A00000543B46102231464046FFF79BFFBDE86E
:10A9B000FC812DE9FC5F0025168807461580406B59
:10A9C00014468946A8464FF00C0A11234FF0020B9B
:10A9D00098B101784846032E48D380F800B0228809
:10A9E000521C92B2228083542288521C92B222803E
:10A9F00009F802102088401C20803A6BDAB12088C8
:10AA0000494600F11205B54230D80B542088102376
:10AA1000401C80B220800B542088401C20800F20D6
:10AA20002388155C401ECD54238840B25B1C2380D4
:10AA30000028F5DA454697F82E0030B13346224615
:10AA4000494600F0EFF8050095D197F82D0030B198
:10AA500032462146484600F00FF905008BD1B87800
:10AA600018B32088C846001DB04201D9504682E77D
:10AA7000684679DF0028FAD12188032008F8010010
:10AA800020881921401C80B2208008F800102088FE
:10AA9000401C80B2208000EB0801BDF8000000F0EF
:10AAA000BCF80146208808442080F878B8B1228894
:10AAB00097F90310D31C4846B342D7D800F802B028
:10AAC00022880123521C92B2228083542288521C75
:10AAD00092B2228009F802102088401C20807868F9
:10AAE000B8B1218890F90020CB1C4846B342BDD8AC
:10AAF00000F801B021880A23491C89B221804354FF
:10AB00002188491C89B2218009F801202088401C35
:10AB10002080388950B1CDE900464B4606220221FB
:10AB200007F10800FFF72DFF0500A0D1388A50B1CA
:10AB3000CDE900464B460722032107F11000FFF73D
:10AB400020FF050093D1388B50B1CDE900464B462C
:10AB50001522142107F11800FFF713FF050086D115
:10AB6000386A30B133462246494600F002F9050002
:10AB7000DBD1786A30B133462246494600F03DF9D0
:10AB80000500D2D197F82C0038B133462246494609
:10AB9000384600F064F90500C7D1387838B133463B
:10ABA00022464946384600F096F80500BDD12846B1
:10ABB000E1E6F0B50C4693B01F210726ADF8001072
:10ABC000ADF80410002750B1C17849070DD56A4689
:10ABD00002A9FFF7EEFE002808D102AD02E0002531
:10ABE000ADF800706CB1E07810B1304613B0F0BD34
:10ABF00001AA0AA92046FFF7DCFE0028F6D10AAA1E
:10AC000002E00022ADF80470BDF80400C3B2BDF844
:10AC10000000C1B2284672DFE8E70870000A4870F9
:10AC20000220704730B51488E51C9D4201D90C20E4
:10AC300030BD02250D5513881C245B1C9BB213806C
:10AC4000CC5413885B1C9BB21380012807D00228C8
:10AC500007D0032807D0042807D0072030BD0020E4
:10AC600004E0012002E0CD5401E00320C854108824
:10AC7000401C1080002030BD7CB5054608880C467D
:10AC80000930904201D90C207CBD684671DF002854
:10AC9000FAD121880820685420881B21401C80B2EA
:10ACA000208029542088401C80B220802844DDF870
:10ACB00001100160BDF8051081802088801D80B2E0
:10ACC00020809DF8001001B1012129542088401CEA
:10ACD000208000207CBDF8B50E460178144605465C
:10ACE000012901D1687830B12088821C9A422DD880
:10ACF000012902D006E00720F8BD69780144891CCB
:10AD0000994223D8181A801E87B2ADF800702188A6
:10AD1000B01C084469467DDF0028EDD12878022860
:10AD200005D1BDF80010B94201D809210AE0082177
:10AD3000012805D16878B84202D8ADF8000001E0DA
:10AD4000ADF80070BDF80000FE2801D90C20F8BD58
:10AD50002288401CB0542088401C80B2208031548E
:10AD60002088401C2080BDF800100844208000206E
:10AD7000F8BD2DE9F04117880646B81D14460D466A
:10AD8000984202D90C20BDE8F081318807220629BB
:10AD90000AD34FF4486C4FF6FF73614501D99942CD
:10ADA00002D17088062801D21046ECE7604501D92F
:10ADB0009842F9D1994203D0984201D08142F3D808
:10ADC0000520E85520881221401C80B2208029549B
:10ADD0002088401C80B2208041193088FFF71DFF79
:10ADE0002188084480B2208041197088FFF715FF40
:10ADF0002188084420800020C5E770B51446828869
:10AE000005460E46921C2088911C0144994201D8A7
:10AE1000FE2A01D90C2070BD521C32542088FF211B
:10AE2000401C80B2208031542088401C80B2208099
:10AE300081192888FFF7F1FE2188084480B220801C
:10AE4000AA8842B1A96841B1304402F092FD20883D
:10AE5000A98808442080002070BD072070BD2DE91E
:10AE6000F0410746806A14468846B8B300252FE0B3
:10AE7000B96A05EB450001EB8006B088801CFE280E
:10AE800001D90C207FE72288401C08F802002088A6
:10AE90001622401C80B2208008F800202088401C28
:10AEA00080B2208000EB08013088FFF7B6FE2188D1
:10AEB000084480B22080B28842B1B16871B1404488
:10AEC00002F057FD2088B188084420806D1CEDB247
:10AED00097F82C00A842CBD8002054E7FFE70720C2
:10AEE00051E7000038B571494888A0F57F42FF3A24
:10AEF00023D04A786E4C521CD2B24A70237B9342C4
:10AF00000AD3091D75DF002817D0A169002914D0C4
:10AF100001B0BDE83040084700254D70217C29B1C3
:10AF20003B2176DF10B1A16901B188476169002931
:10AF300003D08DF800506846884738BD70B5054687
:10AF400001461C225A4802F059FD584C0026267032
:10AF5000286830B1016861604068A060201D7ADF18
:10AF600002E05248001D7BDF00280AD14FF6FF7037
:10AF700060806670BDE870404E4A00214E4800F087
:10AF8000C1BF70BD4C48006801F021B8F8B5474812
:10AF90000C3000F07EF8454D454C002630B161691B
:10AFA000B9B101208DF80000684611E0287820B181
:10AFB000616971B18DF80060F6E7687858B1A168F1
:10AFC0003D480022006800F0C7FF10B1A16901B13F
:10AFD00088472E70F8BD6168F2E770B5344C06887A
:10AFE00000253249E289102E14D0334B112E1BD08C
:10AFF000122E28D0502E16D130F8061F914212D1B1
:10B00000418902290FD1007B10F0010F10D0BDE85B
:10B010007040BBE783884B808369CB60C06908615F
:10B020004D70002AF3D070BD4FF6FF7048804D7010
:10B03000186800F0CCFF0028F5D0A1690029F2D0F3
:10B04000BDE8704008478268CA60C0680861DEE7F2
:10B05000F8B5164C016861604068A060201D7ADF79
:10B0600005000CD104F10C0000F013F8012640B1EA
:10B070000F48416919B18DF8006068468847284635
:10B08000F8BD0A492670091D608875DF054666709F
:10B09000F5E706494088091D0A88904204D349888B
:10B0A000884201D80120704700207047002C002002
:10B0B00050300020E5AE070040DB070030B585B01A
:10B0C00028B30388A3F57F44FF3C22D0FE4B1B78B6
:10B0D000FBB1FD4B10255B1C00241D7059709A704C
:10B0E00001250321ADF810100094019402940394FB
:10B0F000018AADF8001004A9CDE902138DF80250C1
:10B10000ADF8044000886946A6DF05B030BD0E20CA
:10B11000FBE70820F9E7F0B58BB001274FF0020EEE
:10B1200005468DF80CE08DF812700889ADF8140012
:10B130004889ADF8160001F10C000026089606902B
:10B14000ADF820E007A8ADF8226009900C46A98A66
:10B15000288808AAA5DF18B1E96AC9B1884717E0AD
:10B160009DF81C0010F0010F12D0ADF81060288877
:10B1700003A9A8DF002812D1217B04F10D000929C1
:10B1800042D2DFE801F0410E1C222527293F2B0087
:10B1900040F2FD10ADF81000288803A9A8DF0BB01D
:10B1A000F0BD8DF800600CE006221CE08DF8087000
:10B1B0000190AA6A6946284690470020EFE78DF87B
:10B1C00000706289022AF1D2EEE78DF800E0F0E724
:10B1D000032012E0042010E005200EE0608903281F
:10B1E00005D2032208212846FFF768FFD7E7B4F805
:10B1F0000D00ADF8040018B106208DF80000D8E766
:10B200000720FAE70920F8E70322ECE730B585B01C
:10B210000D46040039D0BDB36868A8B3AB4B4FF6F8
:10B22000FF7020800FCB0DF1040CACE80F0041F251
:10B230003050ADF800000DF1020101A863DF0028D5
:10B2400021D1221D69460120A0DF00281BD19DF8D5
:10B250000200A071204600F0D5F8002813D1204646
:10B2600000F072F900280ED12946204600F018F9A6
:10B27000002808D16868A062A86800B1E06292491D
:10B2800001200870002040E7FFE70E203DE73EB5B3
:10B2900000283CD000293AD0826A002A37D00A8898
:10B2A000102A23D0112A33D0502A21D0512A2ED14E
:10B2B00004460A4611F8060F022828D14888238A36
:10B2C000984224D1907B042821D006281FD005283D
:10B2D0001DD0891C2046FFF71EFF002817D0E16A09
:10B2E000002914D003B0BDE830400847898811E038
:10B2F000CA8803899A420AD108228DF800200A7C64
:10B3000012318DF808200191826A694690473EBD4E
:10B310004FF6FF7101803EBDF0B585B00A460500CD
:10B320002FD02888A0F57F41FF392CD066480078BF
:10B3300048B3654C1020641C012720700720607002
:10B34000A7700320ADF810000026E11C104600F0A5
:10B3500050F8BDF8101000960844ADF810000196A2
:10B3600002960396288AADF8000004A8CDE90204ED
:10B370008DF80270ADF8046028886946A6DF05B034
:10B38000F0BD0E20FBE70820F9E7F0B585B00A46CE
:10B3900005002AD02888A0F57F41FF3927D04A48E8
:10B3A000007820B3484C1120641C0127207000262F
:10B3B000ADF81070611C104600F01BF8BDF81010BD
:10B3C00000960844ADF81000019602960396288A6C
:10B3D000ADF8000004A8CDE902048DF80270ADF8C4
:10B3E000046028886946A6DFC9E70E20C7E7082061
:10B3F000C5E70870020A4A70020C8A70000EC87015
:10B400000420704730B58FB005461C21684602F015
:10B4100027FB00249DF80000019440F004008DF803
:10B4200000000394049405940694A8798DF83600DE
:10B4300041F23250ADF834000C949DF830001421E4
:10B4400020F0FF008DF830009DF8310020F00F0053
:10B45000401C20F0F00010308DF831009DF83200D3
:10B4600020F00600801C20F0180040F001008DF84C
:10B47000320007A802F0F4FA0DA807900CA8089073
:10B48000ADF824401420ADF82640ADF828000B9408
:10B49000A88805F1080307AA6946A2DF0FB030BDEE
:10B4A00070B58EB00E4605461C21684602F0D8FAEB
:10B4B0009DF80000002440F002008DF80000019487
:10B4C00003940494059403E0142C002044DB07004B
:10B4D0000694A8798DF8360041F23450ADF8340066
:10B4E0000C949DF83000142120F00F00401C20F037
:10B4F000F00010308DF830009DF8310020F0FF0092
:10B500008DF831009DF8320020F00600801C20F0FC
:10B51000180040F001008DF8320007A802F0A0FAF0
:10B520000DA807900CA808900220ADF82400ADF8F3
:10B530002640ADF828000B96A88805F1200307AA3D
:10B540006946A2DF0EB070BD30B58FB005461C2134
:10B55000684602F085FA00249DF80000019440F04E
:10B5600018008DF800000394049405940694A879BB
:10B570008DF8360041F23150ADF834000C949DF84E
:10B580003000142120F0FF008DF830009DF83100CC
:10B5900020F00F00401C20F0F00010308DF831003A
:10B5A0009DF8320020F00600801C20F0080040F0DA
:10B5B00011008DF8320007A802F052FA0DA807908A
:10B5C0000CA80890ADF824401720ADF82640ADF83F
:10B5D00028000B94A88805F1100307AA6946A2DF8A
:10B5E0005CE700000948804709480047FEE7FEE79E
:10B5F000FEE7FEE7FEE7FEE7FEE7FEE7FEE7FEE723
:10B6000004480549034A054B7047000029B6070066
:10B6100001A40700A0340020E0540020E034002002
:10B620008D498C480860704770B58C480023021D16
:10B630000178101D0124062907D115782D0704D1A2
:10B640000578C5F30315032D02D0062904D00FE0B9
:10B65000844E834D75670EE015782D0708D1057867
:10B66000C5F30315032D06D0042D04D0052D02D0FB
:10B67000062907D00EE07C4D2D687C4EC5F342357F
:10B68000356002E015782D0704D10578C5F3031560
:10B69000032D02D0062906D011E0754D2E6826F044
:10B6A00080762E600EE015782D0708D10578C5F359
:10B6B0000315032D06D0042D04D0052D02D0062934
:10B6C00007D00EE06B4D2B606B60684D2D1F2B601B
:10B6D00002E015782D0704D10578C5F30315032D75
:10B6E00002D0062905D00CE0604A032164321160C3
:10B6F0000AE015782D0704D10578C5F30315032D4D
:10B7000002D006290DD06AE05B4A052111605A4932
:10B7100078310C60584908310B603F21121D1160CF
:10B7200002E0117809075AD10078C0F30310052808
:10B7300055D152480068524908605048001D0068C1
:10B74000091D08604D4808300068091D08604B4815
:10B750000C300068091D0860484810300068091D59
:10B760000860464814300068091D086043481830D6
:10B77000006843492031086040481C300068091DBA
:10B7800008603E4820300068091D08603B482430AE
:10B790000068091D0860394828300068091D0860E4
:10B7A00036482C300068091D086034483030006885
:10B7B000334940310860314834300068091D086061
:10B7C0002E4838300068091D08602C483C3000685D
:10B7D000091D0860294840300068091D0860244898
:10B7E0007438016841F470010160BFF34F8FBFF3FB
:10B7F0006F8F4FF01021D1F80002002803DBD1F841
:10B800000402002821DA1F4A14601F480468002C33
:10B81000FCD01524C1F800420568002DFCD0C1F809
:10B82000044201680029FCD0136001680029FCD0A3
:10B83000BFF34F8F0E48F0380168144A01F4E061FD
:10B8400011430160BFF34F8FFEE7034901480860D1
:10B8500070BD00000090D0031C2C0020E00F00F011
:10B860000DF0ADBA00C00740440200103C05004096
:10B87000FCED00E00C0100401056004004040010F4
:10B8800020C5004004E5014000E401400400FA0541
:10B8900031B540F2E73404E0401E00902046FEF748
:10B8A00011FE00980028F7D138BD000000EB4002DF
:10B8B0008948002100EBC200032201718160C0E9C8
:10B8C00004218161C160704770B5834C0F202178DD
:10B8D00001EB410104EBC102121D80491578136987
:10B8E0004968012D0ED0032D0BD14FF08050006917
:10B8F00080B2B3FBF0F0084428DF002801D1012119
:10B90000A17070BD0803516856690D1A311892680C
:10B9100018441044B5F5805F02D2AA0829DFECE78D
:10B920004FF4806229DFE8E72DE9F0416A4C069E7A
:10B9300065780A2D1FD027783D44EDB20A2D01D33A
:10B940000A3DEDB205EB450504EBC5052871AA617A
:10B95000D1E90001C5E90401C5E90236A17800205A
:10B9600021B9FFF7B1FF112800D100206178491CEF
:10B970006170BDE8F0810420FBE770B5564C0646C7
:10B980000022A078012842D100232146A3700D781F
:10B99000022E05EB450001EBC00104D0032E36D189
:10B9A000091D0D202FE04D484668761C46608968C9
:10B9B000B1EB063F15D843606078401E6070681C8C
:10B9C000C0B220700A2801D30A38207005EB450068
:10B9D00004EBC001091D104600F06DF82846FFF782
:10B9E00065FF6078002812D0A07800280FD1FFF7FB
:10B9F0006BFF00280BD0112809D0217801EB410101
:10BA000004EBC101091DBDE8704000F054B870BDE1
:10BA100070B5324E0024304874602546047044707E
:10BA200084702846FFF742FF6D1C0A2DF9D32A497E
:10BA300034600020F431746041F82040401C032839
:10BA4000FAD3002070BD254B1A68032A09D00A607A
:10BA500021490068F43141F82200521C00201A608C
:10BA600070470420704706207047F8B507461D460A
:10BA700016460C46084600F018F858B1601900F058
:10BA800014F838B133462246394601200095FFF7B5
:10BA90004BFFF8BD1020F8BD08B50B46002201464B
:10BAA00003200092FFF740FF08BD800701D000206F
:10BAB00070470120704738B50C46074BE268F433F5
:10BAC000097853F8225062680092024604F10C0093
:10BAD0006369A84738BD00006C300020202C00208E
:10BAE0000EB5ADF80010CDE901206A46002144F200
:10BAF000010000F03DF80EBD0EB500210091CDE92A
:10BB000001106A4644F2010000F032F80EBD08B59B
:10BB100001238DF800309DF80030144B18605960F7
:10BB20009A606FF48041401807D001280FD1DA6085
:10BB3000D86800889861D86807E01A611869806839
:10BB4000586118690088986118694068D861186858
:10BB500058689868D868186958699869D86972B639
:10BB60009DF800000028FBD162B608BD6C310020B2
:10BB7000BFF34F8F04480168044A01F4E0611143A8
:10BB80000160BFF34F8FFEE70CED00E00400FA0503
:10BB900030B5CB0008339DB293074FF0000401D0BD
:10BBA000072030BD434B9A602A44DA605C701C70F9
:10BBB00058809980002030BD2DE9F84F3D4C8146DA
:10BBC000924660880E46814241D800274FF6FF78A2
:10BBD0008DF80070684600F0D6FB22786078A18866
:10BBE000884201DA401C00E00020C0B2904204D13B
:10BBF0009DF8000000F0E2FB27E06578607888425D
:10BC000001DA401C00E0002060709DF8000000F0A8
:10BC1000D5FB454519D0A068B9F1000F40F835A013
:10BC20000DD066B16188E068324605FB01004946E7
:10BC300001F09FFEA06800EBC500868002E000EBEB
:10BC4000C50087800020BDE8F88F0420FBE70920AD
:10BC5000F9E70EB505E000BF029ABDF804100098A0
:10BC6000904702AA01A9684600F003F80028F3D023
:10BC70000EBD70B50F4B054605201C785E78A642B8
:10BC800016D01C7818789E88B04201DA401C00E07B
:10BC9000002018705E88D86804FB06002860986849
:10BCA00000EBC4039B880B8050F834001060002028
:10BCB00070BD0000282C002070B50126F9487104E1
:10BCC00000250160F84C4810C4F84803C4F8080384
:10BCD00066602F20FEF732FCA660F44C2F20256111
:10BCE000FEF72CFCE57070BD2DE9F047DFF8BCA332
:10BCF000DAF80C009AF8004080469AF80460DAF806
:10BD00000890DAF810703AE009EBC4052A7833E0BD
:10BD100002EB42016B68521C03EBC101AB78D2B25B
:10BD2000934200D100220B78022B02D0032B23D1A7
:10BD30001FE0D1F804C00346014603E0614503D08B
:10BD40000B46C969C1B1F9E7B1B18B4205D1C069F0
:10BD500018B9D54F0126BE600027D1F800C0C969C7
:10BD6000D96149B10B6863440B6005E00174C06997
:10BD700000E000210028F9D169789142C8D1210062
:10BD8000A4F10104E4B2BFD1CAE903078AF8046050
:10BD9000404502D00120BDE8F0870020FBE72DE9F7
:10BDA000F0470546C148002680460778D0F80C9039
:10BDB0004CE000BFD8F8080000EBC70440E002D018
:10BDC0002846ED691EE02078616800EB4002401CC7
:10BDD000C0B201EBC2012070A278904200D126705F
:10BDE0000A784868012A2DD1027C5ABB8A684260D1
:10BDF000CA6882600A69C2604969816198F8041062
:10BE000001B146604268D8F81030DFF8A4C2D11AF8
:10BE100021F07F41614502D28268114406E0991AFF
:10BE2000826821F07F418A4202D9511A016000E004
:10BE300006604660012186600174C66100F059F910
:10BE4000002DBCD1207861788842BCD13800A7F1A0
:10BE50000107FFB2AED1D8F80C10494501D001203E
:10BE600099E7002097E793480021016441648164C9
:10BE7000C1640160416000F058B900F093B92DE948
:10BE8000F0478046994614460F4690074FF000064B
:10BE900034D1864D8CB3FFF70FFF0320C5F8149003
:10BEA000287004F11800002107EB4703C5F808408B
:10BEB00004EBC102491C167056709770506000EB7D
:10BEC000C3000329F4DBEE606E70AE70142000F046
:10BED000F9F80621142000F001F9142000F0CAF846
:10BEE0007549C1F800800621112000F0F7F872486A
:10BEF000001F0068286100204DE701E007204AE7A5
:10BF0000AE60FBE7694B9B6823B12AB120B10068A2
:10BF1000037C1BB1082070470720704741744261C1
:10BF200000207047EFF30580C005C00D0ED010381B
:10BF300040B2002803DA00F00F00604900E06049D9
:10BF4000405C4009022803D0062803D00220704735
:10BF500000207047012070472DE9F843DFF84C912D
:10BF60000D461746D9F80810044651B34CB3052DB9
:10BF700002D20720BDE8F883606910B3607C012815
:10BF800021D00026FFF7CEFFD9F80810804601EB3C
:10BF9000C800694600F049F9B8B10121017046496D
:10BFA0004460091F09680830E2C0D9F8081001EBA5
:10BFB000C8009DF800104170142000F067F80020C0
:10BFC000D8E70820D6E72E46DCE70420D2E7F8B50C
:10BFD000364E0446B168E1B1DCB16069C8B10027F2
:10BFE0002774FFF79FFF0546B068694600EBC50060
:10BFF00000F01BF978B1022101704460B0689DF82F
:10C00000001000EBC5004170142000F03FF83846E6
:10C01000F8BD0820F8BD0420F8BDF8B5234DA86888
:10C02000C0B1FFF77FFF0446A868694600EBC40073
:10C0300000F0FBF880B10321017000264660A8687B
:10C040009DF8001000EBC4004170142000F01EF8B1
:10C050003046F8BD0820F8BD0420F8BD1649091F78
:10C060000968016000207047401A20F07F4010608E
:10C070000020704700F01F020121914040094FF05D
:10C08000E02202EB8000C0F80011704700F01F02B0
:10C090000121914040094FF0E02202EB8000C0F8FE
:10C0A0000012704780E100E000100140382C0020B1
:10C0B000FFFF7F00001101400815014014ED00E072
:10C0C00000E400E000F01F020121914040094FF020
:10C0D000E02202EB8000C0F88012E2E74907090E77
:10C0E000002803DA00F00F008F4A00E08F4A8154E5
:10C0F000D7E78F4B10B5D96831B102680C68A242FE
:10C1000004D8A21A0A60C161D86010BD0B4603E0D2
:10C110000B46C969121B21B10C689442F8D3A41ACA
:10C120000C600260C161D86110BD2DE9F041804D05
:10C13000EC68002C34D07F48002700682969B84695
:10C14000401A20F07F462068B04215D82246361AA1
:10C150000744E469107C68B182F810806B6933B1E0
:10C16000D2E90501984728B1FFF7C6FC02E0D2E901
:10C1700005108847002CE6D16978A878814206D15D
:10C18000401CC0B2A870022801D185F8028068481E
:10C19000A978183040F82170BDE8F041142075E707
:10C1A000BDE8F0812DE9F84F614C00256846D4E9DF
:10C1B00003B600F04EF88046FFF796FD0746A94605
:10C1C000B8F1000F25D00023009ACC46E06819E0B2
:10C1D00007680146974202D9BA1A026014E0C1F812
:10C1E00000C0D1F80C80D21BC8693B448A46B8F124
:10C1F000000F07D0F71827F07F47C1E90178CAF888
:10C200001C500D460028E3D1E0602846FFF7C7FD2B
:10C2100004E02846FFF7C3FD00B917B1584600F007
:10C2200035F884F80490BDE8F88F42788378521C82
:10C23000D2B2934200D100220378934201D1002070
:10C240002FE70A704168407800EB400001EBC00026
:10C2500027E7374910B54A788C780023A24212D0DC
:10C26000521CD2B24A70022A00D14B70304A4B782D
:10C27000183252F8232002600869104420F07F40F1
:10C280000861012010BD0360002010BD2DE9F05FA2
:10C290002748C168F1B3DFF89CB00E688146DBF82F
:10C2A00000400769C078E11B21F07F45ED1CB0B963
:10C2B000DFF884804FF48030C8F84403C8F80403E2
:10C2C0001120FFF7FFFE1120FFF7D4FE4FF0010A07
:10C2D000C8F800A02F20FEF731F989F803A0B54275
:10C2E00000D23546134BE8193C3320F07F401860EC
:10C2F000DBF800105A46091B21F07F41001BC91CC6
:10C3000020F07F4081420DD9106818602F20FEF781
:10C3100015F900E003E0BDE8F05F1120B6E6BDE8E6
:10C32000F05FC9E4BDE8F09F14ED00E000E400E038
:10C33000382C0020041501400010014010B50446BF
:10C34000082902D00020FFF7D7FBD4E90010BDE890
:10C35000104008471CB5044ACDE900010821684691
:10C36000FFF72AFC1CBD00003DC3070072B61E4843
:10C370000168491C016070471B490868401E08603D
:10C3800000D162B6704730B5EFF3108172B6174A2C
:10C390009468012324B10370002900D162B630BD36
:10C3A0009360134B1D68134C254015601C605C683E
:10C3B00054605A175A6000220270EDE70B498A68F0
:10C3C000002A0FD000280DD1EFF3108072B60B6851
:10C3D000074A803A13604B68536000228A60002845
:10C3E00000D162B670470000582C00203034002085
:10C3F00080E100E0FC06FFBCBE480378012B03D1BE
:10C40000012901D102210170100001D0FFF774BB96
:10C41000704710B5B74C48DF08B1FFF76DFBFFF769
:10C4200018FC2078022803D0032801D00428F2D178
:10C4300010BDF8B50068401C11D00024684600F01B
:10C4400061F90098AC4D4FF4FA660178012907D0E4
:10C450004FF4801028603046FFF71AFA2046F8BDE6
:10C460004188002441B181684FF440500022806827
:10C4700000F050F9044605E04FF480202860304673
:10C48000FFF706FA00984088A04205D04FF400203C
:10C4900028603046FFF7FCF900984088A04201D19F
:10C4A0000124DBE70024D9E710B5044691481C219C
:10C4B000001DFFF7F1FA08B1FFF71EFB8D480023BE
:10C4C0001C222146001DFFF7D0FA002803D0BDE84A
:10C4D0001040FFF711BB10BD2DE9F84304460E468E
:10C4E00017461D466846DDF8208000F00BF914F071
:10C4F000FF024FEA14417F4C80484FF001034FF098
:10C50000FF0C10D0012A14D0032A23D00021022AC4
:10C510002DD0052A3FD0042A44D0062A01D1042078
:10C520002070BDE8F88341808560037080F804C006
:10C530000BE04180F11929448160A521017080F848
:10C5400004C0C0F81880C6600EE023706B48FFF787
:10C55000ABFFE6E700990A7802704A884280896852
:10C560008160AA210171C660C0E90475EDE7009AF7
:10C570001578A52D0AD0057055884580926882608F
:10C5800080F804C0C16001614161DEE741808160E3
:10C5900080F800C0F4E700F002FD08B1FFF7ACFA44
:10C5A0000320BDE74180816080F800C000990979CF
:10C5B0000171CBE70EB5524A07CA8DE80700FFF7B5
:10C5C00027FA002807D14B494FF4FE20091D486087
:10C5D0006846FFF738FA0EBD10B500F0A3F9002841
:10C5E00005D100F097FE0446FFF713FF204610BD6B
:10C5F00070B511DF08B1FFF77FFA4FF0E02200209D
:10C60000D2F800415FF0010505FA00F3234209D09A
:10C6100043B203F01F0605FA06F15B0902EB830340
:10C62000C3F88011401C2028EED34FF44054A0687A
:10C6300013DF08B1FFF760FAA068BDE8704000F0B2
:10C6400067B808B5684600F05DF800980178A5293C
:10C6500004D00079AA2801D0002008BD012008BD1F
:10C6600010B500F055FB18B900F02EFB002813D0D0
:10C670006420FFF70DF900F0C9FA08B1FFF73CFAA2
:10C6800000F046FB08B1FFF737FA00F0FBFA0400B0
:10C6900001D0FFF731FA204610BD00B5184987B028
:10C6A00014220C3101A801F0A9F905980DF1040C30
:10C6B0000090BCE80F00FFF70FFFFFF7AAFE07B0DE
:10C6C000002000BD38B50446684600F01BF800980D
:10C6D00001782170418861808168A16001792171B0
:10C6E000C168E16001692161416961618069A0619E
:10C6F00038BD00005C2C00200C0500508C3100205F
:10C7000054DB0700014901607047000000F007009A
:10C71000FDF750BF10B5044612B11088002211E099
:10C720004FF6FF70FAE7030A43EA0023A05C584083
:10C73000C0F30313584080EA003080B2C3B280EAED
:10C740004310521C8A42EED310BD000070B5F74C66
:10C750001E4615466078012902D0032914D107E04E
:10C76000052811D163697BB13246294604200AE0CD
:10C77000022809D1EE484068804703206070636951
:10C7800013B1324629469847280003D0BDE87040CF
:10C79000FFF7B2B970BD68B5E44E012535700525C7
:10C7A00065F307000094FFF797FE68BDDF4810B5FA
:10C7B000007808B1082010BDDE4C2068FFF707FCA8
:10C7C00008B1FFF799F900224FF470112068FFF7C4
:10C7D000C3FB040001D0FFF78FF9204610BDD349F9
:10C7E000D24810B52031016102214170C16820306A
:10C7F000FFF752F9002803D0BDE81040FFF77CB9DD
:10C8000010BDCA49C94810B51831016102214170F3
:10C810004FF440508068C0F5F420C0F30C01401A7A
:10C820004108C2481830FFF737F9002803D0BDE8A7
:10C830001040FFF761B910BD704700B5BD4987B022
:10C840001422091D01A801F0D9F805980DF1040C76
:10C850000090BCE80F00FFF73FFE07B000BDB449F1
:10C86000002090394A684FF4405189688A4207D9BC
:10C87000511A080B00030905090D01D000F580507D
:10C880007047012138B561F30700A849A84B898892
:10C890008C3B61F31F404FF440518C680ECB0094E9
:10C8A000FFF71AFE002038BD30B5A14C9F48903CE0
:10C8B00087B02030E168FFF7EFF808B1FFF71CF907
:10C8C0009A48E2681830002341680830FFF7CDF835
:10C8D000050014D1142101A801F0C2F800208DF840
:10C8E000040092480DF1040C8088ADF80600E06861
:10C8F000049005980090BCE80F00FFF7EDFD07B02D
:10C90000284630BD032161F3070008B58749884BED
:10C9100089888C3B61F31F400ECB0094FFF7DCFD50
:10C92000002008BDFEB5834E804C06F1180000259E
:10C9300007C88DE80700A570A58004F120016846AE
:10C94000FFF781F808B16570FEBD78494FF440509B
:10C95000203180684860216AA161C0F5F421C1F3EB
:10C960000C02891A00EB51007049734A1831486073
:10C9700000217048FFF7C6FA08B1FFF7BDF80022A2
:10C980004FF470113068FFF7E7FA08B1FFF7B4F819
:10C990000120A56060700020FEBD644948617047B9
:10C9A00070B542686248D2E90043D2E90212903879
:10C9B000C0E90212C0E900430078440701D58407AA
:10C9C00005D19C0703D18C0701D1940701D0062023
:10C9D00070BD564D0B441A44EA60B1F5A04F18D80B
:10C9E000534CC3074FF440510AD08868C0F5F42077
:10C9F00090420ED35148206051486060514813E086
:10CA00008968C1F5F421C1F30C03C91AB2EB510FC7
:10CA100001D90C2070BD4C4921604C4961608007F0
:10CA200001D54B4800E04B48A0606878012802D04F
:10CA30000826304670BDFFF7B9FE0600FAD121681E
:10CA4000E8688847F5E770B5050004D0287A8007C4
:10CA500003D0102070BD0E2070BD344C60780328C8
:10CA600003D0042801D0052801D0082070BD6868D3
:10CA7000E1688600A0683044884204D94FF0FF3056
:10CA8000A0600C2070BDFFF791FE0028FAD1A968C4
:10CA90003246A3682069FEF7E8FF0028F2D1A168BA
:10CAA0003144A160E2689142ECD0092070BD10B51C
:10CAB0001E4C0820A16801B110BD61780429FBD18A
:10CAC0001B48A178803800F06DF910B10021A170E9
:10CAD00010BD0521617010BD2DE9F041134C0746D2
:10CAE0006078032805D0042805D008252846BDE82D
:10CAF000F08104206070A06808B10820F7E7FFF714
:10CB000055FE0500F3D178688600A0788119802948
:10CB100001D90920EBE7064AB968803A1044324649
:10CB200000F027FFA0783044A070DFE7682C0020D9
:10CB30005832002074DB070097C70700DFC70700E3
:10CB40003BC8070083C8070003C8070039C80700AF
:10CB500005C90700A9C8070010B58F4C60780528E3
:10CB600013D1D4E9020188420FD106206070FFF78B
:10CB70001DFE002808D12069E168406800F051F9E5
:10CB8000002801D10721617010BD082010BD824826
:10CB900010B54078072801D0082010BD7F480068F4
:10CBA000FFF715FA08B1FEF7A7FF7D488068BDE8DA
:10CBB0001040004738B5062565F307000094FFF7DD
:10CBC0008BFC38BD2DE9F0411C4617460D46064644
:10CBD00000F0CDF800288AD0B5F5805F07D923464C
:10CBE000291B301B1A46FFF7EDFF00280DD13A46EE
:10CBF0002946304600F0C6F8002806D13A462946B4
:10CC00003046BDE8F04100F0B2B870E72DE9F041E0
:10CC100088B06846FFF756FD039800282BD0069A87
:10CC200000F580504FF48051904226D9A2F58050F3
:10CC300044081046039A00EB440687184FF440500E
:10CC40000D46806801EB440890420ED204F58050F6
:10CC50000422014600F096F800280CD1294604224F
:10CC6000084600F08FF8002805D1BA1B234641463C
:10CC70003046FFF7A7FF08B039E7039A069800F09F
:10CC800081F8F8E700B58BB004A8FFF71BFD089802
:10CC900000280CD0079860B107990A980844002131
:10CCA000CDE90010089880080290684618DF0BB0A4
:10CCB00000BD4FF440508068C0F5F421C1F30C0270
:10CCC000891A00EB5100EAE700B58BB004A8FFF722
:10CCD000F9FC08980028EAD0079870B107990A98DB
:10CCE0000844032100914FF4F421CDE90110089884
:10CCF00080080390684618DFD9E74FF440508068F9
:10CD0000C0F5F421C1F30C02891A00EB5100E8E7E9
:10CD100030B58FB002A8FFF7D5FC0598002817D0D2
:10CD2000089A00F580504FF48051904216D9A2F530
:10CD30008050430810464FF44054059AA468059D5E
:10CD4000024400EB430001EB4301AC4202D20E204F
:10CD50000FB030BD121AFFF735FFF9E70BAB032018
:10CD600007C3059880080E900BA818DFF0E71FB5E1
:10CD700003230093CDE9010190080390684618DF72
:10CD800004B010BD1FB501230093CDE90101900847
:10CD90000390684618DFF3E7682C002074DB070077
:10CDA0005832002070B500250C290ED34318018994
:10CDB000044600EB4101581A0A38C2B21F48022A41
:10CDC000027002D30A318B4201D2092070BD1C4887
:10CDD00000F0CFFD4FF010214FF6FF70B1F880202A
:10CDE000824202D02388934219D1B1F88210814245
:10CDF00002D06088884212D120894FF6FE724FF42B
:10CE00004053A8420BD904EB45014989914204D013
:10CE10009E896D1CB6B2B142F3D1002070BD0B20CB
:10CE200070BD10B50022FFF775FC054909888842DE
:10CE300001D00B2010BD002010BD0000902C002060
:10CE40006432002008280BD003DC38B106280FD14B
:10CE500008E00B280AD00C280AD105E00120704711
:10CE6000022070470320704704207047042901D036
:10CE7000062070470520704770B515460A460328FE
:10CE80001FD0042824D1FE4C39B1E088A0F57F41A1
:10CE9000FF391DD0132176DF0DE0284600F0E7FBB7
:10CEA00008B1FEF729FEA069A84211D10122032191
:10CEB000F448FEF703F900280AD0BDE87040FEF7F9
:10CEC0001BBE01211046FFF7BDFF02460121EFE71F
:10CED00070BD2DE9FF410546087A0E4681070AD04C
:10CEE000032211462846FEF7E9F8002801D0FEF794
:10CEF00003FEBDE8FF81E2490090143100F091FB90
:10CF0000010011D1DE4C7168009A606900F031FDBA
:10CF1000009800F0DFFB010006D1694604F114001F
:10CF200000F0E6FB010003D0284600F0B1FAE0E78C
:10CF3000042001900098800802906069039001A885
:10CF4000FFF781FD07000BD0092F10D0606900F0BA
:10CF50008EFB010002D0284600F09AFA3946E3E73A
:10CF6000307A2169084420616069A061C1E7307AA4
:10CF700021690144216160780028BAD06089401E8F
:10CF80000004000C6081B4D12846FEF7FEF908B118
:10CF9000FEF7B2FD20896081ABE7FEF7ADBD10B5AD
:10CFA000B74C01202070E088A0F57F41FF3905D003
:10CFB000132176DF50B1FEF79FFD07E0A07828B17E
:10CFC00074DF08B1FEF798FD0020A070FDF7DAFFCE
:10CFD00008B1FEF791FD002010BD70B504460D7834
:10CFE0000120A74A0A2D16D2DFE805F01F243A05D2
:10CFF0000D1650553D59FFF7AFFD0421FFF722FFF5
:10D000000246042123E0FFF7CAFF08B1FEF774FDD2
:10D01000FFF7BDFD28B970BDFFF7C1FF08B1FEF7EE
:10D020006BFDBDE87040FFF7C5BD10714868007822
:10D03000507170BD02201071486800780128F8D145
:10D04000FFF735FD0221FFF7FDFE024602212046D3
:10D05000FEF734F80028ECD0BDE87040FEF74CBD78
:10D060000320107170BD12792046012A06D0022AD1
:10D0700008D0032AF6D1BDE870402AE7BDE8704029
:10D0800000F019BABDE8704000F054BA50708888BA
:10D090001081508170BD00205070108170BD2046FD
:10D0A0001169FEF739F9D5E710B50446754890B017
:10D0B000382180798DF83A0041F23050ADF83800CF
:10D0C000684600F0CDFC02208DF8000000208DF8AD
:10D0D00002000120ADF808000EA803908DF803406F
:10D0E00000216846FDF765FD002801D0FEF704FD2C
:10D0F00010B010BD2DE9F043614C8BB0A078002832
:10D1000037D160481821183800F0AAFCA046E07812
:10D110005C4C0025183C4FF028090126A0B304F10F
:10D12000480700950195029510226946F81D039560
:10D1300000F0F3FB00B3F81DCDE9080709A804903F
:10D1400008A806908DF814608DF81C600420FFF785
:10D15000ABFF25700220207204A8E060A4F81090B4
:10D1600048486582183873DF08B1FEF7C5FC88F8B7
:10D1700002600BB0BDE8F0830520FFF795FF267035
:10D18000676025722582EBE7FFE70620FFF78CFF3B
:10D19000257065602572E1E730B5394C02880021C1
:10D1A000E588A7B0192A0AD01FDC112A3ED008DC76
:10D1B000022A69D0102A02D18088E080A17027B0AD
:10D1C00030BD3049303101F11804132A43D0142AFC
:10D1D000F5D1028A4B8D00259A4200D125460023C5
:10D1E000CA1D8088294686DF1BE0512A67D00EDCE5
:10D1F0001A2A7ED01B2AE2D1007A0028DFD1A17042
:10D20000E068401EE0604AD0FFF774FFD7E7522A7B
:10D210006FD0552AD3D180790028D0D11321284648
:10D2200076DF0028CBD0FEF767FCC8E78020ADF89A
:10D2300094003220E060012325AA05A92846AADF30
:10D2400008B1FEF759FC207808B9FFF753FF4FF6F5
:10D25000FF70E080B3E70B48C91D303002680992C7
:10D260008288ADF8282080798DF82A00102205A840
:10D2700000F07FFB1C22214614A800F07AFB04E09A
:10D28000942C00208832002015E005A8109014A8E6
:10D290000F900BABC44A852128467FDFC1E71422DB
:10D2A000C24905A800F0AAFB099805AC00900FCC74
:10D2B000FFF712F983E70021284667DFB1E781799C
:10D2C0000029A3D0807B042803D0062801D005289C
:10D2D0009CD102290BD001208DF804004FF4C170BD
:10D2E000ADF8080001A92846A8DF9AE701E002206E
:10D2F000F2E700F0A0F894E710B50446FDF76DFEE4
:10D300002146AB48FDF7C3FF2046BDE8104043E788
:10D31000FEF7F2BB70B5A44D88B01C3D00242C7004
:10D320002C71112000F082F8122000F07FF8A14843
:10D33000012671040160490001609F4800F058FA1D
:10D3400000286FD19D48FFF728FB00F045F9002821
:10D3500068D197483030FDF772F9002864D06846EC
:10D3600071DF08B1FEF7C8FB9DF801006946401C5B
:10D370008DF80100002070DF08B1FEF7BDFB9DF8BD
:10D3800008008FA120F00F00401C20F0F0001030AA
:10D390008DF80800072202A87CDF08B1FEF7ACFB7D
:10D3A00000940C20ADF8000018200194ADF80200A4
:10D3B000ADF804404FF4C870ADF8060068467ADF57
:10D3C00008B1FEF799FB08200094ADF800007E48F4
:10D3D00001907E48029069467548FDF717FF08B135
:10D3E000FEF78AFB1C21684600F03AFB40F6CD4070
:10D3F000CDE900404FF48040029003208DF80C00EE
:10D400007348ADF80E408DF81040CDE905406846F0
:10D41000FDF794FD08B1FEF76FFB00F0B8F8FFF7D9
:10D4200069FE002008B070BDEE70A8E7694A0321CC
:10D4300042F82010704770B55B4C4FF6FF751C3CEE
:10D44000E088A84201D1082070BDE178D9B15849DF
:10D45000012308226431A9DF0028F5D1022300222C
:10D460001146E088A9DF0028EED12A460C21E08889
:10D47000A7DFA0F54051023903D0082801D0891E4A
:10D48000E2D1002070BD00231A461946A9DF70BD05
:10D4900010B50A46044603211046FFF7D3FC0246A6
:10D4A00003212046FDF70AFE002803D0BDE8104006
:10D4B000FEF722BB10BD10B588B0044600200090D6
:10D4C0000190029003903848384A1C380C3A407951
:10D4D0008DF800001068926804906846CDE9050256
:10D4E000087A0C2806D003221DE000BFFEF704FBDB
:10D4F00008B010BD4868C278016862F31F610191ED
:10D50000C279416862F31F610291C17A806861F358
:10D510001F60039004A8FFF743FA0028E8D0012118
:10D52000FFF790FC024601212046FDF7C7FD0028C9
:10D53000DCD1DDE7FEB50446087A82070ED000F0A4
:10D540000302C2F104030022154604E04E6835547C
:10D55000401CC0B2521C9A42F8D3087201200090BD
:10D5600048680290087A800801906846FFF7B4FA8C
:10D5700000280BD00221FFF765FC0246022120465D
:10D58000FDF79CFD002801D0FEF7B6FAFEBD064867
:10D59000017821F07F01303121F0800101700721F5
:10D5A0004170102181707047B02C0020A4DB07006F
:10D5B0008832002008050050F9D2070079CE070014
:10D5C0004466755461726700DBCF070011D3070012
:10D5D0009BCF07000007005056480021564A0170B3
:10D5E00002F5907002600822C0E90121C16001616A
:10D5F00041618161084670470020704720B14D4964
:10D600000A781AB1042070470E20704701220A7070
:10D610004849491C016000207047464900200870B5
:10D62000704710B5E9B100220A60444A5368E3B17B
:10D63000202818D85B1E5360D068401CD060106949
:10D64000136800EBC00403EB84030B6001238340E9
:10D650009169401C194300F007009161106100209E
:10D6600010BD0E2010BD0C2010BD042010BDF0B563
:10D67000324A0646916859B355691020691A01F07B
:10D68000070117680B46012401EBC10C07EB8C0C5A
:10D69000B44506D1956904FA01F6754000209561FC
:10D6A00004E0491C01F007018D42EDD1491C956948
:10D6B00001F0070104FA03F31D420AD19368002B1D
:10D6C00007D05B1E936053685B1C53600B46F1E709
:10D6D0000420F0BD194920230A7C0968521E02F07B
:10D6E000070202EBC20203EB82028850002070475F
:10D6F00070B5D0B1C9B1114AD368C3B15B1ED36054
:10D7000093685B1C93605369156803EBC30405EBD6
:10D7100084060660202000EB84005B1C285808600B
:10D7200003F007005061002070BD0E2070BD042082
:10D7300070BD0000B52C0020F4320020143400200D
:10D74000FEF716BAF8B5674C207800282ED020696D
:10D7500028B10026E06820B1002526B110E001269E
:10D76000F8E70125F9E7684652DF052803D020B124
:10D77000FEF7C2F904E0012602E02169009888471B
:10D7800085B96088ADF800006946A06861DF0528AA
:10D7900003D020B1FEF7B0F904E0012502E0D4E99E
:10D7A00002018847002EDED0002DD6D0F8BD4D48AE
:10D7B0000078704730B409B18C0702D0072030BC24
:10D7C0007047484C0125A1606280AFF28B01636015
:10D7D00010DF0028F3D1257030BC162000F044B8CB
:10D7E00011DF08B1012100E000213E4A11707047AD
:10D7F00018B13C49C860002070470E20704718B12E
:10D8000038490861002070470E207047354810B530
:10D81000406830B18047002806D0BDE81040FEF7D0
:10D820006BB9BDE810408DE710BD70B50E460546DA
:10D8300014461421104600F013F901202080002125
:10D84000216121732672657205B1A072002070BD3E
:10D8500008B525490020009108BD1CB52249019159
:10D860000091694660DF1CBD10B50121202803DA54
:10D870001E4A8140114004E0402803DAA0F1200252
:10D88000914031B1002807DA194A00F00F01114424
:10D8900004E042F2010010BD164A811809784909D6
:10D8A000082914D299B1012911D004290FD00529D2
:10D8B0000DD011498C6800F01F0301229A404009E5
:10D8C00044B151F82030134341F8203008E042F2CF
:10D8D000020010BD4FF0E02101EB8000C0F80021F4
:10D8E000002010BDBC2C0020002C0020FC06FFBC3A
:10D8F00014ED00E000E400E03034002010B511B178
:10D900000020FEF7F9F8BDE81040FFF71BBFAFF2AB
:10D91000130200210846FEF74FB940EA010310B593
:10D920009B070FD1042A0DD310C808C9121F9C42AF
:10D93000F8D020BA19BA884201D9012010BD4FF0A1
:10D94000FF3010BD1AB1D30703D0521C07E00020EE
:10D9500010BD10F8013B11F8014B1B1B07D110F84B
:10D96000013B11F8014B1B1B01D1921EF1D118464E
:10D9700010BD032A40F2308010F0030C00F0158037
:10D9800011F8013BBCF1020F624498BF11F801CBC2
:10D9900000F8013B38BF11F8013BA2F1040298BF27
:10D9A00000F801CB38BF00F8013B11F0030300F091
:10D9B0002580083AC0F0088051F8043B083A51F835
:10D9C00004CBA0E80810F5E7121D5CBF51F8043B3A
:10D9D00040F8043BAFF30080D20724BF11F8013BAD
:10D9E00011F801CB48BF11F8012B24BF00F8013B0F
:10D9F00000F801CB48BF00F8012B704710B5203A62
:10DA0000C0F00B80B1E81850203AA0E81850B1E8F7
:10DA10001850A0E81850BFF4F5AF5FEA027C24BFAD
:10DA2000B1E81850A0E8185044BF18C918C0BDE8A4
:10DA300010405FEA827C24BF51F8043B40F8043B6D
:10DA400008BF7047D20728BF31F8023B48BF11F822
:10DA5000012B28BF20F8023B48BF00F8012B70477C
:10DA60004FF0000200B5134694469646203922BF77
:10DA7000A0E80C50A0E80C50B1F12001BFF4F7AFC2
:10DA8000090728BFA0E80C5048BF0CC05DF804EBA4
:10DA9000890028BF40F8042B08BF704748BF20F812
:10DAA000022B11F0804F18BF00F8012B7047704710
:10DAB00070477047754600F029F8AE460500694684
:10DAC000534620F00700854618B020B5FDF798FDB5
:10DAD000BDE820404FF000064FF000074FF000086F
:10DAE0004FF0000B21F00701AC46ACE8C009ACE8F0
:10DAF000C009ACE8C009ACE8C0098D4670470446CF
:10DB0000AFF300802046FCF7C4FC000000487047DB
:10DB10003C34002001491820ABBEFEE7260002007D
:10DB200070474FF04070E1EE100A704701000007A7
:10DB300002000000000000000000000000000000E3
:10DB40003030002023D1BCEA5F782315DEEF1212BB
:10DB500000000000F9C30700000000000000000002
:10DB600002000000000000000000000000000000B3
:10DB700000000000A83100200400000000000000A8
:10DB80000000000000000000000000004DC707007A
:10DB90000000000000000000030000000000000082
:10DBA0000000000005000000000000000000000070
:10DBB0000000000000000000D8DB0700002C00205F
:10DBC000D00000003CA40700A8DC0700D02C0020F7
:10DBD0001028000058A4070000000000000000000A
:10DBE0000000000000000000000000000000000035
:10DBF000000000000090D0030000000000000000C2
:10DC00000000000000000000000000000000000014
:10DC10000000000000000000000000000000000004
:10DC200000000000000000000000000000000000F4
:10DC300000000000000000000000000000000000E4
:10DC400000000000000000000000000000000000D4
:10DC500000000000000000000000000000000000C4
:10DC600000000000000000000000000000000000B4
:10DC70000000FFFF00000000320000000000000074
:10DC80000000000000000000000000000000000094
:10DC90000000000000000000000000000000000084
:08DCA00000000000000000007C
:020000041000EA
:0410140000A0070031
:020000041000EA
:0410180000E00700ED
:040000050007A4014B
:00000001FF
