:020000040007F3
:10A00000A8540020CDB50700D5B50700D7B5070087
:10A01000D9B50700DBB50700DDB50700000000007B
:10A02000000000000000000000000000A1A40700E4
:10A03000E1B5070000000000E3B50700E5B5070043
:10A04000E7B50700E7B50700E7B50700E7B5070084
:10A05000E7B50700E7B50700E7B50700E7B5070074
:10A06000E7B50700E7B50700E7B50700E7B5070064
:10A07000E7B50700E7B50700E7B50700E7B5070054
:10A08000E7B5070043BE0700E7B50700E7B50700DF
:10A0900057BE0700E7B50700EDD70700E7B5070093
:10A0A000E7B50700E7B50700E7B50700E7B5070024
:10A0B000E7B50700E7B5070000000000000000005A
:10A0C000E7B50700E7B50700E7B50700E7B5070004
:10A0D000E7B50700E7B50700E7B507000000000097
:10A0E0000000000000000000000000000000000070
:10A0F0000000000000000000000000000000000060
:10A10000000000000000000000000000000000004F
:10A11000000000000000000000000000000000003F
:10A4000000F002F800F03CF80AA090E8000C82444A
:10A410008344AAF10107DA4501D100F031F8AFF227
:10A42000090EBAE80F0013F0010F18BFFB1A43F032
:10A43000010318475C3700007C370000103A24BF46
:10A4400078C878C1FAD8520724BF30C830C144BF99
:10A4500004680C60704700000023002400250026DB
:10A46000103A28BF78C1FBD8520728BF30C148BF77
:10A470000B6070471FB503F044FB1FBD10B510BD46
:10A4800003F008FB1146FFF7F5FF00F036F903F083
:10A4900026FB03B4FFF7F2FF03BC03F02BFB000025
:10A4A0000648704502D1EFF3098101E0EFF308811E
:10A4B000886902380078024A10470000FDFFFFFF5C
:10A4C000E9A50700401E00BF00BF00BF00BF00BFDE
:10A4D00000BF00BF00BF00BF00BF00BF00BF00BF84
:10A4E00000BF00BF00BF00BF00BF00BF00BF00BF74
:10A4F00000BF00BF00BF00BF00BF00BF00BF00BF64
:10A5000000BF00BF00BF00BF00BF00BF00BF00BF53
:10A5100000BF00BF00BF00BF00BF00BF00BF00BF43
:10A5200000BF00BF00BF00BF00BF00BF00BF00BF33
:10A5300000BF00BF00BFC5D170470000401E00BF74
:10A5400000BF00BF00BF00BF00BF00BF00BF00BF13
:10A5500000BF00BF00BF00BF00BF00BF00BF00BF03
:10A5600000BF00BF00BF00BF00BF00BF00BF00BFF3
:10A5700000BF00BF00BF00BF00BF00BF00BF00BFE3
:10A5800000BF00BF00BF00BF00BF00BF00BF00BFD3
:10A5900000BF00BF00BF00BF00BF00BF00BF00BFC3
:10A5A00000BF00BF00BF00BF00BF00BF00BFC5D1DC
:10A5B00070470000056885F308884068FF2464B28E
:10A5C000EFF30585002D01D1A64600472546064636
:10A5D00021273FBAF0B40024002500260027F0B45C
:10A5E000F92040B20047000010B50C4610B1012020
:10A5F000086010BD216891B11E48421A814213D0F3
:10A600003C2A0ED23C303C315FF0010211F8013996
:10A6100000F801391346521C3C2BF7D904E00E20F8
:10A620000BE03C2203F095F900223C21114802F096
:10A6300041F81049891E08800020206010BD70B5C7
:10A6400004000BD000223C210A4802F033F8094DE7
:10A65000AD1E2988884203D00B2070BD0E2070BD2E
:10A660003C220449204603F074F92888401C2880C5
:10A67000002070BD6A3400200A460146874801F078
:10A680001DBA01F06EB930B585498BB00A1D0DF1C8
:10A69000140C3CCAACE83C000968099120B105A83B
:10A6A00018DF08B101F016FA4FF4F42013DF08B1F7
:10A6B00001F010FA7B4B48227B4909A803F06AF8A5
:10A6C00008B101F007FA01216A46084603F09DF837
:10A6D00008B101F0FFF901208DF80C00684603F085
:10A6E000ACF808B101F0F6F9704803F078F80028EA
:10A6F00001D001F0EFF90BB030BD1CB56C4E3068E5
:10A70000B12865D00024112000F0AAF8122000F032
:10A71000A7F8132000F0A4F8142000F0A1F84FF4DB
:10A72000FA65284601F0A8F8112000F0A3F82846A1
:10A7300001F0A2F8122000F09DF8284601F09CF8E4
:10A74000132000F097F8284601F096F8142000F046
:10A7500091F8284601F090F8002504B135604FF0DB
:10A7600010204069B0F5F42F02D0002001F0B2F9BA
:10A770004FF080500069B0F5805F02D0002001F0FA
:10A78000A9F94C4B4C4A0521002001F066FB08B1A9
:10A7900001F0A0F90323CDE9005300221020114657
:10A7A00000F04FF801F0D8FE01F01DFF90B101F06C
:10A7B00029FF08B101F08EF984F00100FFF763FF73
:10A7C00000F05EF801F03BFF50B101F083F907E0C3
:10A7D000012498E784F00100FFF755FF00F050F8DE
:10A7E00036480068C0F3004028B1002020434FF4F1
:10A7F000405406D101E00120F8E7A06801F007FE0F
:10A8000020B901F0BCFE08B101F064F9A06801F0C4
:10A81000FEFD50B101F0E7FE38B928494FF4801031
:10A82000091F0860A06801F0B6FEBFF34F8F2448EF
:10A830000168244A01F4E06111430160BFF34F8FC6
:10A84000FEE730B541EA4201DDE9034541EA830113
:10A850001D4A41EA042141EA054142F8201030BD79
:10A860001CB5002100910B46012201911146FFF712
:10A87000E8FF1CBD01218140104808380160704785
:10A88000094A10B548321421082001F06FF9002858
:10A8900003D0BDE8104001F01DB910BDEFBEADDE24
:10A8A0000CDB0700EFD80700982E002083A60700D6
:10A8B0001C05004031C30700D02C002010050050BB
:10A8C0000CED00E00400FA05000700502DE9FC5FE4
:10A8D0000026DDE90C4B994692468E468046278835
:10A8E000354630E0D8F80400002200EB85006946C8
:10A8F0000068019001A865DF002830D19DF80000B4
:10A9000050451FD10EB1002100E0022122880844E9
:10A910001118594522D846B9521C90B2208009F826
:10A9200000E02088401C20800126218801A801EB3E
:10A930000902694665DF002811D120889DF80010C2
:10A94000084420806D1CB8F80000A842CADC56B14B
:10A950002088C01B401E80B2FF2802D90C20BDE811
:10A96000FC9F09F807000020F9E72DE9FC41164695
:10A97000DDE90854CDE900541F4680460222FFF766
:10A98000A5FF002807D1CDE900543B4610223146EF
:10A990004046FFF79BFFBDE8FC812DE9FC5F0025E9
:10A9A000168807461580406B14468946A8464FF026
:10A9B0000C0A11234FF0020B98B101784846032E80
:10A9C00048D380F800B02288521C92B2228083546F
:10A9D0002288521C92B2228009F802102088401C62
:10A9E00020803A6BDAB12088494600F11205B54261
:10A9F00030D80B5420881023401C80B220800B5488
:10AA00002088401C20800F202388155C401ECD54D8
:10AA1000238840B25B1C23800028F5DA454697F86E
:10AA20002E0030B133462246494600F0EFF80500CB
:10AA300095D197F82D0030B132462146484600F0B6
:10AA40000FF905008BD1B87818B32088C846001DCF
:10AA5000B04201D9504682E7684679DF0028FAD132
:10AA60002188032008F8010020881921401C80B2A9
:10AA7000208008F800102088401C80B2208000EB65
:10AA80000801BDF8000000F0BCF801462088084429
:10AA90002080F878B8B1228897F90310D31C484673
:10AAA000B342D7D800F802B022880123521C92B2D8
:10AAB000228083542288521C92B2228009F802100C
:10AAC0002088401C20807868B8B1218890F9002047
:10AAD000CB1C4846B342BDD800F801B021880A23F8
:10AAE000491C89B2218043542188491C89B22180A4
:10AAF00009F801202088401C2080388950B1CDE918
:10AB000000464B460622022107F10800FFF72DFF01
:10AB10000500A0D1388A50B1CDE900464B46072246
:10AB2000032107F11000FFF720FF050093D1388BB8
:10AB300050B1CDE900464B461522142107F118000B
:10AB4000FFF713FF050086D1386A30B1334622463D
:10AB5000494600F002F90500DBD1786A30B133468E
:10AB60002246494600F03DF90500D2D197F82C0065
:10AB700038B1334622464946384600F064F90500AC
:10AB8000C7D1387838B1334622464946384600F0B6
:10AB900096F80500BDD12846E1E6F0B50C4693B025
:10ABA0001F210726ADF80010ADF80410002750B1A2
:10ABB000C17849070DD56A4602A9FFF7EEFE0028C5
:10ABC00008D102AD02E00025ADF800706CB1E0786C
:10ABD00010B1304613B0F0BD01AA0AA92046FFF714
:10ABE000DCFE0028F6D10AAA02E00022ADF80470CB
:10ABF000BDF80400C3B2BDF80000C1B2284672DF40
:10AC0000E8E70870000A48700220704730B51488E1
:10AC1000E51C9D4201D90C2030BD02250D5513883D
:10AC20001C245B1C9BB21380CC5413885B1C9BB20E
:10AC30001380012807D0022807D0032807D0042852
:10AC400007D0072030BD002004E0012002E0CD54F1
:10AC500001E00320C8541088401C1080002030BD43
:10AC60007CB5054608880C460930904201D90C2075
:10AC70007CBD684671DF0028FAD12188082068541D
:10AC800020881B21401C80B2208029542088401C31
:10AC900080B220802844DDF801100160BDF8051065
:10ACA00081802088801D80B220809DF8001001B135
:10ACB000012129542088401C208000207CBDF8B54B
:10ACC0000E46017814460546012901D1687830B155
:10ACD0002088821C9A422DD8012902D006E0072044
:10ACE000F8BD69780144891C994223D8181A801E3E
:10ACF00087B2ADF800702188B01C084469467DDF3A
:10AD00000028EDD12878022805D1BDF80010B942FD
:10AD100001D809210AE00821012805D16878B84244
:10AD200002D8ADF8000001E0ADF80070BDF80000F9
:10AD3000FE2801D90C20F8BD2288401CB054208880
:10AD4000401C80B2208031542088401C2080BDF8F7
:10AD50000010084420800020F8BD2DE9F04117883C
:10AD60000646B81D14460D46984202D90C20BDE88F
:10AD7000F0813188072206290AD34FF4486C4FF638
:10AD8000FF73614501D9994202D17088062801D22A
:10AD90001046ECE7604501D99842F9D1994203D0B9
:10ADA000984201D08142F3D80520E855208812212D
:10ADB000401C80B2208029542088401C80B2208012
:10ADC00041193088FFF71DFF2188084480B2208098
:10ADD00041197088FFF715FF218808442080002062
:10ADE000C5E770B51446828805460E46921C208839
:10ADF000911C0144994201D8FE2A01D90C2070BD52
:10AE0000521C32542088FF21401C80B220803154D3
:10AE10002088401C80B2208081192888FFF7F1FE2D
:10AE20002188084480B22080AA8842B1A96841B133
:10AE3000304402F08EFD2088A9880844208000203C
:10AE400070BD072070BD2DE9F0410746806A1446A9
:10AE50008846B8B300252FE0B96A05EB450001EB41
:10AE60008006B088801CFE2801D90C207FE722884C
:10AE7000401C08F8020020881622401C80B2208066
:10AE800008F800202088401C80B2208000EB0801D8
:10AE90003088FFF7B6FE2188084480B22080B2884F
:10AEA00042B1B16871B1404402F053FD2088B188CD
:10AEB000084420806D1CEDB297F82C00A842CBD836
:10AEC000002054E7FFE7072051E7000038B571493B
:10AED0004888A0F57F42FF3A23D04A786E4C521C36
:10AEE000D2B24A70237B93420AD3091D75DF002832
:10AEF00017D0A169002914D001B0BDE8304008473F
:10AF000000254D70217C29B13B2176DF10B1A1696C
:10AF100001B188476169002903D08DF80050684667
:10AF2000884738BD70B5054601461C225A4802F0D4
:10AF300055FD584C00262670286830B101686160C4
:10AF40004068A060201D7ADF02E05248001D7BDFD0
:10AF500000280AD14FF6FF7060806670BDE870402F
:10AF60004E4A00214E4800F0BBBF70BD4C480068FF
:10AF700001F01BB8F8B547480C3000F07EF8454D9D
:10AF8000454C002630B16169B9B101208DF800004F
:10AF9000684611E0287820B1616971B18DF80060D0
:10AFA000F6E7687858B1A1683D480022006800F0D3
:10AFB000C1FF10B1A16901B188472E70F8BD616869
:10AFC000F2E770B5344C068800253249E289102E2C
:10AFD00014D0334B112E1BD0122E28D0502E16D148
:10AFE00030F8061F914212D1418902290FD1007B0E
:10AFF00010F0010F10D0BDE87040BBE783884B8094
:10B000008369CB60C06908614D70002AF3D070BDC0
:10B010004FF6FF7048804D70186800F0C6FF00289A
:10B02000F5D0A1690029F2D0BDE8704008478268D8
:10B03000CA60C0680861DEE7F8B5164C0168616057
:10B040004068A060201D7ADF05000CD104F10C00DF
:10B0500000F013F8012640B10F48416919B18DF88D
:10B060000060684688472846F8BD0A492670091DD1
:10B07000608875DF05466670F5E706494088091D5A
:10B080000A88904204D34988884201D80120704739
:10B0900000207047002C002050300020CDAE07006B
:10B0A00020DB070030B585B028B30388A3F57F44C3
:10B0B000FF3C22D0FE4B1B78FBB1FD4B10255B1CE7
:10B0C00000241D7059709A7001250321ADF81010ED
:10B0D0000094019402940394018AADF8001004A92D
:10B0E000CDE902138DF80250ADF80440008869469E
:10B0F000A6DF05B030BD0E20FBE70820F9E7F0B56C
:10B100008BB001274FF0020E05468DF80CE08DF84C
:10B1100012700889ADF814004889ADF8160001F1E5
:10B120000C00002608960690ADF820E007A8ADF8C0
:10B13000226009900C46A98A288808AAA5DF18B1C0
:10B14000E96AC9B1884717E09DF81C0010F0010FAB
:10B1500012D0ADF81060288803A9A8DF002812D10A
:10B16000217B04F10D00092942D2DFE801F0410EF4
:10B170001C222527293F2B0040F2FD10ADF81000BE
:10B18000288803A9A8DF0BB0F0BD8DF800600CE0A3
:10B1900006221CE08DF808700190AA6A69462846CC
:10B1A00090470020EFE78DF800706289022AF1D203
:10B1B000EEE78DF800E0F0E7032012E0042010E055
:10B1C00005200EE06089032805D2032208212846C5
:10B1D000FFF768FFD7E7B4F80D00ADF8040018B129
:10B1E00006208DF80000D8E70720FAE70920F8E7E5
:10B1F0000322ECE730B585B00D46040039D0BDB36D
:10B200006868A8B3AB4B4FF6FF7020800FCB0DF1F1
:10B21000040CACE80F0041F23050ADF800000DF125
:10B22000020101A863DF002821D1221D6946012007
:10B23000A0DF00281BD19DF80200A071204600F07D
:10B24000D5F8002813D1204600F072F900280ED15D
:10B250002946204600F018F9002808D16868A06245
:10B26000A86800B1E062924901200870002040E720
:10B27000FFE70E203DE73EB500283CD000293AD03C
:10B28000826A002A37D00A88102A23D0112A33D0A4
:10B29000502A21D0512A2ED104460A4611F8060F11
:10B2A000022828D14888238A984224D1907B0428F8
:10B2B00021D006281FD005281DD0891C2046FFF765
:10B2C0001EFF002817D0E16A002914D003B0BDE8A2
:10B2D00030400847898811E0CA8803899A420AD118
:10B2E00008228DF800200A7C12318DF80820019187
:10B2F000826A694690473EBD4FF6FF7101803EBDB0
:10B30000F0B585B00A4605002FD02888A0F57F410A
:10B31000FF392CD06648007848B3654C1020641C77
:10B320000127207007206070A7700320ADF810007F
:10B330000026E11C104600F050F8BDF810100096F1
:10B340000844ADF81000019602960396288AADF8DD
:10B35000000004A8CDE902048DF80270ADF8046085
:10B3600028886946A6DF05B0F0BD0E20FBE708205F
:10B37000F9E7F0B585B00A4605002AD02888A0F57F
:10B380007F41FF3927D04A48007820B3484C11202C
:10B39000641C012720700026ADF81070611C104657
:10B3A00000F01BF8BDF8101000960844ADF810002E
:10B3B000019602960396288AADF8000004A8CDE90C
:10B3C00002048DF80270ADF8046028886946A6DF93
:10B3D000C9E70E20C7E70820C5E70870020A4A70CF
:10B3E000020C8A70000EC8700420704730B58FB010
:10B3F00005461C21684602F023FB00249DF800004E
:10B40000019440F004008DF8000003940494059426
:10B410000694A8798DF8360041F23250ADF8340028
:10B420000C949DF83000142120F0FF008DF83000BE
:10B430009DF8310020F00F00401C20F0F00010308B
:10B440008DF831009DF8320020F00600801C20F0BD
:10B45000180040F001008DF8320007A802F0F0FA61
:10B460000DA807900CA80890ADF824401420ADF862
:10B470002640ADF828000B94A88805F1080307AA18
:10B480006946A2DF0FB030BD70B58EB00E460546DE
:10B490001C21684602F0D4FA9DF80000002440F018
:10B4A00002008DF80000019403940494059403E0D5
:10B4B000142C002024DB07000694A8798DF83600B0
:10B4C00041F23450ADF834000C949DF83000142152
:10B4D00020F00F00401C20F0F00010308DF83000FC
:10B4E0009DF8310020F0FF008DF831009DF832000A
:10B4F00020F00600801C20F0180040F001008DF8BC
:10B50000320007A802F09CFA0DA807900CA808903A
:10B510000220ADF82400ADF82640ADF828000B96C7
:10B52000A88805F1200307AA6946A2DF0EB070BD06
:10B5300030B58FB005461C21684602F081FA002420
:10B540009DF80000019440F018008DF8000003946D
:10B55000049405940694A8798DF8360041F2315090
:10B56000ADF834000C949DF83000142120F0FF0059
:10B570008DF830009DF8310020F00F00401C20F0C5
:10B58000F00010308DF831009DF8320020F00600F8
:10B59000801C20F0080040F011008DF8320007A850
:10B5A00002F04EFA0DA807900CA80890ADF82440C0
:10B5B0001720ADF82640ADF828000B94A88805F1B7
:10B5C000100307AA6946A2DF5CE70000094880472C
:10B5D00009480047FEE7FEE7FEE7FEE7FEE7FEE775
:10B5E000FEE7FEE7FEE7FEE704480549034A054B90
:10B5F0007047000011B6070001A40700683400205E
:10B60000A8540020A83400208D498C480860704759
:10B6100070B58C480023021D0178101D01240629F5
:10B6200007D115782D0704D10578C5F30315032D2F
:10B6300002D0062904D00FE0844E834D75670EE0DA
:10B6400015782D0708D10578C5F30315032D06D00D
:10B65000042D04D0052D02D0062907D00EE07C4D24
:10B660002D687C4EC5F34235356002E015782D0714
:10B6700004D10578C5F30315032D02D0062906D0A1
:10B6800011E0754D2E6826F080762E600EE015785C
:10B690002D0708D10578C5F30315032D06D0042D19
:10B6A00004D0052D02D0062907D00EE06B4D2B608B
:10B6B0006B60684D2D1F2B6002E015782D0704D1BB
:10B6C0000578C5F30315032D02D0062905D00CE03B
:10B6D000604A0321643211600AE015782D0704D115
:10B6E0000578C5F30315032D02D006290DD06AE0B5
:10B6F0005B4A052111605A4978310C60584908317C
:10B700000B603F21121D116002E0117809075AD128
:10B710000078C0F30310052855D1524800685249FB
:10B7200008605048001D0068091D08604D48083039
:10B730000068091D08604B480C300068091D08604E
:10B74000484810300068091D0860464814300068F9
:10B75000091D0860434818300068434920310860DB
:10B7600040481C300068091D08603E4820300068D1
:10B77000091D08603B4824300068091D08603948ED
:10B7800028300068091D086036482C300068091D03
:10B79000086034483030006833494031086031482F
:10B7A00034300068091D08602E4838300068091DD3
:10B7B00008602C483C300068091D0860294840306A
:10B7C0000068091D086024487438016841F470015C
:10B7D0000160BFF34F8FBFF36F8F4FF01021D1F88F
:10B7E0000002002803DBD1F80402002821DA1F4AF6
:10B7F00014601F480468002CFCD01524C1F80042D6
:10B800000568002DFCD0C1F8044201680029FCD075
:10B81000136001680029FCD0BFF34F8F0E48F03849
:10B820000168144A01F4E06111430160BFF34F8FD6
:10B83000FEE703490148086070BD00000090D00396
:10B840001C2C0020E00F00F00DF0ADBA00C0074046
:10B85000440200103C050040FCED00E00C010040FB
:10B86000105600400404001020C5004004E50140CB
:10B8700000E401400400FA0531B540F2E73404E089
:10B88000401E00902046FEF71DFE00980028F7D1CC
:10B8900038BD000000EB80028648002100EB8200EA
:10B8A00001220171C180C0E903214161018170471A
:10B8B00070B5804C0F20217801EB810104EB8102EF
:10B8C000121D7D491578D3684988012D0ED0032DAE
:10B8D0000BD14FF08050006980B2B3FBF0F0084408
:10B8E00028DF002801D10121A17070BD0803518813
:10B8F00016690D1A3118928818441044B5F5805F06
:10B9000002D2AA0829DFECE74FF4806229DFE8E7DA
:10B910002DE9F041674C069E65780A2D1FD02778E7
:10B920003D44EDB20A2D01D30A3DEDB205EB85058C
:10B9300004EB850528716A61D1E90001C5E90301BD
:10B94000EB802E81A178002021B9FFF7B1FF1128EB
:10B9500000D100206178491C6170BDE8F0810420AD
:10B96000FBE770B5534C06460022A078012843D16E
:10B9700000232146A3700D78022E05EB850001EB14
:10B98000800104D0032E37D1091D0D2030E04A4834
:10B990004688761CB6B24680C988B1EB063F15D8FA
:10B9A00043806078401E6070681CC0B220700A2816
:10B9B00001D30A38207005EB850004EB8001091DD6
:10B9C000104600F067F82846FFF764FF607800280B
:10B9D00012D0A07800280FD1FFF76AFF00280BD003
:10B9E000112809D0217801EB810104EB8101091DA7
:10B9F000BDE8704000F04EB870BD70B52E4E00240A
:10BA00002C48748025460470447084702846FFF7E3
:10BA100041FF6D1C0A2DF9D327483480001D748026
:10BA20000460002070BD244B1A88012A08D00A60E7
:10BA3000191D006841F82200521C1A80002070472E
:10BA40000420704706207047F8B507461D46164685
:10BA50000C46084600F018F858B1601900F014F8C8
:10BA600038B133462246394601200095FFF750FF92
:10BA7000F8BD1020F8BD08B50B4600220146032092
:10BA80000092FFF745FF08BD800701D000207047F6
:10BA90000120704738B50C46074BA2681B1D09787A
:10BAA00053F8225062880092024604F1080023698C
:10BAB000A84738BD6C300020202C00200EB5ADF812
:10BAC0000010CDE901206A46002144F2010000F097
:10BAD0003DF80EBD0EB500210091CDE901106A467A
:10BAE00044F2010000F032F80EBD08B501238DF8D4
:10BAF00000309DF80030144B186059609A606FF464
:10BB00008041401807D001280FD1DA60D86800883A
:10BB10009861D86807E01A611869806858611869E7
:10BB20000088986118694068D861186858689868F2
:10BB3000D868186958699869D86972B69DF8000084
:10BB40000028FBD162B608BD38310020BFF34F8F0B
:10BB500004480168044A01F4E06111430160BFF345
:10BB60004F8FFEE70CED00E00400FA0530B5CB0086
:10BB700008339DB293074FF0000401D0072030BD79
:10BB8000434B9A602A44DA605C701C70588099803C
:10BB9000002030BD2DE9F84F3D4C8146924660882B
:10BBA0000E46814241D800274FF6FF788DF800708D
:10BBB000684600F0D6FB22786078A188884201DAD6
:10BBC000401C00E00020C0B2904204D19DF800006B
:10BBD00000F0E2FB27E065786078884201DA401CDB
:10BBE00000E0002060709DF8000000F0D5FB4545A6
:10BBF00019D0A068B9F1000F40F835A00DD066B19A
:10BC00006188E068324605FB0100494601F0A1FE6B
:10BC1000A06800EBC500868002E000EBC5008780CD
:10BC20000020BDE8F88F0420FBE70920F9E70EB5F6
:10BC300005E000BF029ABDF804100098904702AAE0
:10BC400001A9684600F003F80028F3D00EBD70B5D6
:10BC50000F4B054605201C785E78A64216D01C784E
:10BC600018789E88B04201DA401C00E0002018706D
:10BC70005E88D86804FB06002860986800EBC4035F
:10BC80009B880B8050F834001060002070BD0000CD
:10BC9000282C002070B50126F948710400250160A8
:10BCA000F84C4810C4F84803C4F8080366602F2015
:10BCB000FEF744FCA660F44C2F202561FEF73EFC05
:10BCC000E57070BD2DE9F047DFF8BCA3DAF80C0091
:10BCD0009AF8004080469AF80460DAF80890DAF89A
:10BCE00010703AE009EBC4052A7833E002EB420118
:10BCF0006B68521C03EBC101AB78D2B2934200D106
:10BD000000220B78022B02D0032B23D11FE0D1F8A5
:10BD100004C00346014603E0614503D00B46C969F0
:10BD2000C1B1F9E7B1B18B4205D1C06918B9D54F9E
:10BD30000126BE600027D1F800C0C969D96149B1A8
:10BD40000B6863440B6005E00174C06900E00021EA
:10BD50000028F9D169789142C8D12100A4F10104E9
:10BD6000E4B2BFD1CAE903078AF80460404502D0B3
:10BD70000120BDE8F0870020FBE72DE9F0470546EC
:10BD8000C148002680460778D0F80C904CE000BFF0
:10BD9000D8F8080000EBC70440E002D02846ED695F
:10BDA0001EE02078616800EB4002401CC0B201EB4D
:10BDB000C2012070A278904200D126700A784868AB
:10BDC000012A2DD1027C5ABB8A684260CA6882600F
:10BDD0000A69C2604969816198F8041001B146603E
:10BDE0004268D8F81030DFF8A4C2D11A21F07F41A0
:10BDF000614502D28268114406E0991A826821F0F6
:10BE00007F418A4202D9511A016000E00660466013
:10BE1000012186600174C66100F059F9002DBCD182
:10BE2000207861788842BCD13800A7F10107FFB2C1
:10BE3000AED1D8F80C10494501D0012099E7002077
:10BE400097E793480021016441648164C164016003
:10BE5000416000F058B900F093B92DE9F0478046F1
:10BE6000994614460F4690074FF0000634D1864D90
:10BE70008CB3FFF70FFF0320C5F81490287004F16E
:10BE80001800002107EB4703C5F8084004EBC10286
:10BE9000491C167056709770506000EBC300032960
:10BEA000F4DBEE606E70AE70142000F0F9F806213D
:10BEB000142000F001F9142000F0CAF87549C1F807
:10BEC00000800621112000F0F7F87248001F00687A
:10BED000286100204DE701E007204AE7AE60FBE75C
:10BEE000694B9B6823B12AB120B10068037C1BB168
:10BEF0000820704707207047417442610020704756
:10BF0000EFF30580C005C00D0ED0103840B20028F8
:10BF100003DA00F00F00604900E06049405C40092E
:10BF2000022803D0062803D0022070470020704763
:10BF3000012070472DE9F843DFF84C910D46174674
:10BF4000D9F80810044651B34CB3052D02D207208E
:10BF5000BDE8F883606910B3607C012821D0002619
:10BF6000FFF7CEFFD9F80810804601EBC8006946FC
:10BF700000F049F9B8B10121017046494460091F38
:10BF800009680830E2C0D9F8081001EBC8009DF834
:10BF900000104170142000F067F80020D8E7082056
:10BFA000D6E72E46DCE70420D2E7F8B5364E044645
:10BFB000B168E1B1DCB16069C8B100272774FFF74F
:10BFC0009FFF0546B068694600EBC50000F01BF90D
:10BFD00078B1022101704460B0689DF8001000EB58
:10BFE000C5004170142000F03FF83846F8BD082025
:10BFF000F8BD0420F8BDF8B5234DA868C0B1FFF71F
:10C000007FFF0446A868694600EBC40000F0FBF817
:10C0100080B10321017000264660A8689DF80010D9
:10C0200000EBC4004170142000F01EF83046F8BD4B
:10C030000820F8BD0420F8BD1649091F09680160F1
:10C0400000207047401A20F07F40106000207047A9
:10C0500000F01F020121914040094FF0E02202EB65
:10C060008000C0F80011704700F01F0201219140CC
:10C0700040094FF0E02202EB8000C0F80012704748
:10C0800080E100E000100140382C0020FFFF7F001D
:10C09000001101400815014014ED00E000E400E04B
:10C0A00000F01F020121914040094FF0E02202EB15
:10C0B0008000C0F88012E2E74907090E002803DA81
:10C0C00000F00F008F4A00E08F4A8154D7E78F4B72
:10C0D00010B5D96831B102680C68A24204D8A21A1E
:10C0E0000A60C161D86010BD0B4603E00B46C96908
:10C0F000121B21B10C689442F8D3A41A0C600260A0
:10C10000C161D86110BD2DE9F041804DEC68002C73
:10C1100034D07F48002700682969B846401A20F0CB
:10C120007F462068B04215D82246361A0744E46993
:10C13000107C68B182F810806B6933B1D2E90501D7
:10C14000984728B1FFF7C6FC02E0D2E905108847FE
:10C15000002CE6D16978A878814206D1401CC0B293
:10C16000A870022801D185F802806848A9781830A3
:10C1700040F82170BDE8F041142075E7BDE8F0817A
:10C180002DE9F84F614C00256846D4E903B600F06C
:10C190004EF88046FFF796FD0746A946B8F1000F16
:10C1A00025D00023009ACC46E06819E007680146D4
:10C1B000974202D9BA1A026014E0C1F800C0D1F85F
:10C1C0000C80D21BC8693B448A46B8F1000F07D0E7
:10C1D000F71827F07F47C1E90178CAF81C500D46CF
:10C1E0000028E3D1E0602846FFF7C7FD04E02846B9
:10C1F000FFF7C3FD00B917B1584600F035F884F8D1
:10C200000490BDE8F88F42788378521CD2B29342F2
:10C2100000D100220378934201D100202FE70A7059
:10C220004168407800EB400001EBC00027E7374948
:10C2300010B54A788C780023A24212D0521CD2B298
:10C240004A70022A00D14B70304A4B78183252F8AB
:10C25000232002600869104420F07F40086101201B
:10C2600010BD0360002010BD2DE9F05F2748C168B4
:10C27000F1B3DFF89CB00E688146DBF80040076937
:10C28000C078E11B21F07F45ED1CB0B9DFF8848058
:10C290004FF48030C8F84403C8F804031120FFF7B6
:10C2A000FFFE1120FFF7D4FE4FF0010AC8F800A0EE
:10C2B0002F20FEF743F989F803A0B54200D2354696
:10C2C000134BE8193C3320F07F401860DBF8001076
:10C2D0005A46091B21F07F41001BC91C20F07F40FA
:10C2E00081420DD9106818602F20FEF727F900E071
:10C2F00003E0BDE8F05F1120B6E6BDE8F05FC9E4F9
:10C30000BDE8F09F14ED00E000E400E0382C0020D0
:10C31000041501400010014010B50446082902D060
:10C320000020FFF7D7FBD4E90010BDE81040084714
:10C330001CB5044ACDE9000108216846FFF72AFC34
:10C340001CBD000019C3070072B61E480168491CD5
:10C35000016070471B490868401E086000D162B642
:10C36000704730B5EFF3108172B6174A9468012315
:10C3700024B10370002900D162B630BD9360134B25
:10C380001D68134C254015601C605C6854605A178A
:10C390005A6000220270EDE70B498A68002A0FD02C
:10C3A00000280DD1EFF3108072B60B68074A803A6F
:10C3B00013604B68536000228A60002800D162B687
:10C3C00070470000582C0020FC33002080E100E082
:10C3D000FC06FFBCB0480378012B03D1012901D131
:10C3E00002210170100001D0FFF774BB704710B537
:10C3F000A94C48DF08B1FFF76DFBFFF718FC207868
:10C40000022803D0032801D00428F2D110BD38B58A
:10C410000068401C18D00024684600F043F90098DA
:10C42000017801290FD1418851B181684FF4405002
:10C430000022806800F03EF900994988814201D1CC
:10C44000012400E00024204638BD10B5044692487F
:10C450001C21001DFFF70FFB08B1FFF73BFB8E48C7
:10C4600000231C222146001DFFF7EEFA002803D00E
:10C47000BDE81040FFF72EBB10BD2DE9F843044680
:10C480000E4617461D466846DDF8208000F00AF982
:10C4900014F0FF024FEA14417F4C80484FF0010333
:10C4A0004FF0FF0C10D0012A14D0032A23D0002112
:10C4B000022A2DD0052A40D0042A45D0062A01D1CF
:10C4C00004202070BDE8F88341808560037080F807
:10C4D00004C00BE04180F11929448160A52101705D
:10C4E00080F804C0C0F81880C6600EE023706B4866
:10C4F000FFF7ABFFE6E700990A7802704A884280AE
:10C5000089688160AA210171C660C0E90475EDE700
:10C51000009A1578A52D0BD0057055884580926836
:10C52000C0F8082080F804C0C16001614161DDE706
:10C530004180816080F800C0F4E700F006FD08B19A
:10C54000FFF7C8FA0320BCE74180816080F800C093
:10C55000009909790171CAE71CB55149D1E9000177
:10C56000CDE90001FFF749FA002807D14A494FF405
:10C57000FE20091D48606846FFF755FA1CBD10B53E
:10C5800000F0A5F9002805D100F0AFFE0446FFF742
:10C590002EFF204610BD70B511DF08B1FFF79AFAE3
:10C5A0004FF0E0220020D2F80041012505FA00F307
:10C5B000234209D043B203F01F0605FA06F15B09D6
:10C5C00002EB8303C3F88011401C2028EED34FF404
:10C5D0004054A06813DF08B1FFF77CFAA068BDE8FB
:10C5E000704000F065B808B5684600F05BF8009848
:10C5F0000178A52904D00079AA2801D0002008BD1F
:10C60000012008BD10B500F059FB18B900F032FB4D
:10C61000002813D06420FFF72FF900F0CDFA08B1FD
:10C62000FFF758FA00F04AFB08B1FFF753FA00F0A1
:10C63000FFFA040001D0FFF74DFA204610BD00B507
:10C64000174987B01422083101A801F0C7F90598ED
:10C650000DF1040C0090BCE80F00FFF70EFFFFF790
:10C66000C6FE07B0002000BD38B50446684600F09D
:10C6700019F8009801782170418861808168A16073
:10C6800001792171C168E1600169216141696161DC
:10C690008069A06138BD00005C2C0020583100206A
:10C6A00034DB0700014901607047000000F007001B
:10C6B000FDF780BF10B5044612B11088002211E0CA
:10C6C0004FF6FF70FAE7030A43EA0023A05C5840E4
:10C6D000C0F30313584080EA003080B2C3B280EA4E
:10C6E0004310521C8A42EED310BD000070B5FA4CC4
:10C6F0001E4615466078012902D0032914D107E0AF
:10C70000052811D163697BB13246294604200AE02D
:10C71000022809D1F14840688047032060706369AE
:10C7200013B1324629469847280003D0BDE870402F
:10C73000FFF7D0B970BD68B5E74E01253570052506
:10C7400065F307000094FFF798FE68BDE24810B556
:10C75000007808B1082010BDE14C2068FFF725FCE7
:10C7600008B1FFF7B7F900224FF470112068FFF706
:10C77000E1FB040001D0FFF7ADF9204610BDD6491A
:10C78000D54810B52031016102214170808981B204
:10C79000D1482030FFF76FF9002803D0BDE81040E2
:10C7A000FFF798B910BDCC49CB4810B518310161DD
:10C7B000022141704FF440508068C0F5F420C0F36E
:10C7C0000C01401AC0F34F01C3481830FFF753F96A
:10C7D000002803D0BDE81040FFF77CB910BD7047BA
:10C7E00000B5BF4987B014220C3101A801F0F6F85A
:10C7F00005980DF1040C0090BCE80F00FFF73DFE1A
:10C8000007B000BDB549002090394A684FF4405147
:10C8100089688A4207D9511A080B00030905090DD6
:10C8200001D000F580507047012138B561F3070051
:10C83000A949AA4B89888C3B61F31F404FF44051B2
:10C840008C680ECB0094FFF718FE002038BD30B581
:10C85000A24C87B0903CA08981B29F482030FFF75E
:10C860000AF908B1FFF736F9A089002382B29A4885
:10C87000183041680830FFF7E7F8050014D114219B
:10C8800001A801F0DDF800208DF8040092480DF1B8
:10C89000040C8088ADF80600E068049005980090CC
:10C8A000BCE80F00FFF7E9FD07B0284630BD0321C3
:10C8B00061F3070008B58849884B89888C3B61F390
:10C8C0001F400ECB0094FFF7D8FD002008BD7CB5BB
:10C8D000834E814C0025D6E90101CDE90001A57008
:10C8E000A58004F120016846FFF79DF808B1657046
:10C8F0007CBD79494FF44050203180684860216AFE
:10C90000A161C0F5F421C1F30C02891A00EB5100BA
:10C910007149744A1831486000217148FFF7E0FA04
:10C9200008B1FFF7D7F800224FF470113068FFF715
:10C9300001FB08B1FFF7CEF80120A5606070002070
:10C940007CBD65494861704770B542686348D2E96B
:10C950000043D2E902129038C0E90212C0E9004354
:10C960000078440701D5840705D19C0703D18C07C3
:10C9700001D1940701D0062070BD574D0B441A44D5
:10C98000EA60B1F5A04F18D8544CC3074FF440519A
:10C990000AD08868C0F5F42090420ED35248206037
:10C9A00052486060524813E08968C1F5F421C1F330
:10C9B0000C03C91AB2EB510F01D90C2070BD4D49BF
:10C9C00021604D496160800701D54C4800E04C482A
:10C9D000A0606878012802D00826304670BDFFF7B5
:10C9E000B5FE0600FAD12168E8688847F5E770B51A
:10C9F000050004D0287A800703D0102070BD0E20D7
:10CA000070BD354C6078032803D0042801D0052878
:10CA100001D0082070BD6868E1688600A0683044D5
:10CA2000884204D94FF0FF30A0600C2070BDFFF7A2
:10CA30008DFE0028FAD12089B2B283B2A96820699C
:10CA4000FFF702F80028F1D1A1683144A160E26843
:10CA50009142EBD0092070BD10B51F4C0820A16891
:10CA600001B110BD61780429FBD11C48A178803840
:10CA700000F06EF910B10021A17010BD05216170A8
:10CA800010BD2DE9F041144C07466078032805D00D
:10CA9000042805D008252846BDE8F08104206070F0
:10CAA000A06808B10820F7E7FFF750FE0500F3D1B2
:10CAB00078688600A0788119802901D90920EBE7E0
:10CAC000064AB968803A1044324600F042FFA07826
:10CAD0003044A070DFE70000682C002024320020E2
:10CAE00050DB070037C707007FC70700E1C7070013
:10CAF00029C80700A7C70700DFC70700AFC807009E
:10CB00004FC8070010B58F4C6078052813D1D4E9C1
:10CB1000020188420FD106206070FFF717FE00283F
:10CB200008D12069E168406800F051F9002801D17E
:10CB30000721617010BD082010BD824810B54078F3
:10CB4000072801D0082010BD7F480068FFF72DFAA4
:10CB500008B1FEF7BFFF7D488068BDE81040004780
:10CB600038B5062565F307000094FFF786FC38BD4D
:10CB70002DE9F0411C4617460D46064600F0CDF85B
:10CB8000002889D0B5F5805F07D92346291B301BC3
:10CB90001A46FFF7EDFF00280DD13A4629463046E8
:10CBA00000F0C6F8002806D13A4629463046BDE8CE
:10CBB000F04100F0B2B86FE72DE9F04188B0684667
:10CBC000FFF752FD039800282BD0069A00F58050FD
:10CBD0004FF48051904226D9A2F580504408104667
:10CBE000039A00EB440687184FF440500D468068C6
:10CBF00001EB440890420ED204F580500422014615
:10CC000000F096F800280CD129460422084600F0CE
:10CC10008FF8002805D1BA1B234641463046FFF75E
:10CC2000A7FF08B038E7039A069800F081F8F8E704
:10CC300000B58BB004A8FFF717FD089800280CD0AA
:10CC4000079860B107990A9808440021CDE90010BF
:10CC5000089880080290684618DF0BB000BD4FF4BA
:10CC600040508068C0F5F421C1F30C02891A00EB32
:10CC70005100EAE700B58BB004A8FFF7F5FC08986F
:10CC80000028EAD0079870B107990A980844032150
:10CC900000914FF4F421CDE9011008988008039029
:10CCA000684618DFD9E74FF440508068C0F5F4219A
:10CCB000C1F30C02891A00EB5100E8E730B58FB0E0
:10CCC00002A8FFF7D1FC0598002817D0089A00F5B4
:10CCD00080504FF48051904216D9A2F580504308FD
:10CCE00010464FF44054059AA468059D024400EB99
:10CCF000430001EB4301AC4202D20E200FB030BD25
:10CD0000121AFFF735FFF9E70BAB032007C30598AD
:10CD100080080E900BA818DFF0E71FB503230093DF
:10CD2000CDE9010190080390684618DF04B010BDFA
:10CD30001FB501230093CDE90101900803906846D7
:10CD400018DFF3E7682C002050DB070024320020B6
:10CD500070B500250C290ED343180189044600EB59
:10CD60004101581A0A38C2B21F48022A027002D37F
:10CD70000A318B4201D2092070BD1C4800F0E9FD48
:10CD80004FF010214FF6FF70B1F88020824202D0A0
:10CD90002388934219D1B1F88210814202D0608871
:10CDA000884212D120894FF6FE724FF44053A842B8
:10CDB0000BD904EB45014989914204D09E896D1C31
:10CDC000B6B2B142F3D1002070BD0B2070BD10B5DA
:10CDD0000022FFF76FFC05490988884201D00B202B
:10CDE00010BD002010BD0000902C0020303200202B
:10CDF00008280BD003DC38B106280FD108E00B2837
:10CE00000AD00C280AD105E00120704702207047A3
:10CE10000320704704207047042901D00620704782
:10CE20000520704770B515460A4603281FD0042810
:10CE300024D1FD4C39B1E088A0F57F41FF391DD0E8
:10CE4000132176DF0DE0284600F001FC08B1FEF763
:10CE500041FEA069A84211D101220321F348FEF747
:10CE600021F900280AD0BDE87040FEF733BE012149
:10CE70001046FFF7BDFF02460121EFE770BD2DE927
:10CE8000FF410546087A0E4681070AD00322114663
:10CE90002846FEF707F9002801D0FEF71BFEBDE883
:10CEA000FF81E1490090143100F0ABFB010011D18A
:10CEB000DD4C7168009A606900F04BFD009800F04D
:10CEC000F9FB010006D1694604F1140000F000FCF2
:10CED000010003D0284600F0CCFAE0E704200190DE
:10CEE0000098800802906069039001A8FFF77FFD19
:10CEF00007000BD0092F10D0606900F0A8FB0100DB
:10CF000002D0284600F0B5FA3946E3E7307A2169C5
:10CF1000084420616069A061C1E7307A2169014459
:10CF2000216160780028BAD06089401E0004000C9E
:10CF30006081B4D12846FEF71CFA08B1FEF7CAFD9D
:10CF400020896081ABE7FEF7C5BD10B5B64C012066
:10CF50002070E088A0F57F41FF3905D0132176DFEE
:10CF600068B1FEF7B7FD0AE0A07840B174DF08B100
:10CF7000FEF7B0FD112000F04AFA0020A070FDF786
:10CF8000F5FF08B1FEF7A6FD002010BD70B5044600
:10CF90000D780120A44A0A2D16D2DFE805F01F24DF
:10CFA0003A050D1650553D59FFF7ACFD0421FFF72A
:10CFB0001FFF0246042123E0FFF7C7FF08B1FEF779
:10CFC00089FDFFF7BAFD28B970BDFFF7BEFF08B1B4
:10CFD000FEF780FDBDE87040FFF7C2BD10714868E4
:10CFE0000078507170BD02201071486800780128E7
:10CFF000F8D1FFF731FD0221FFF7FAFE02460221C8
:10D000002046FEF74FF80028ECD0BDE87040FEF750
:10D0100061BD0320107170BD12792046012A06D02F
:10D02000022A08D0032AF6D1BDE8704027E7BDE800
:10D03000704000F031BABDE8704000F06BBA50703B
:10D0400088881081508170BD00205070108170BDA3
:10D0500020461169FEF754F9D5E710B50446734828
:10D0600090B0382180798DF83A0041F23050ADF817
:10D070003800684600F0E4FC02208DF80000002033
:10D080008DF802000120ADF808000EA803908DF87D
:10D09000034000216846FDF780FD002801D0FEF71F
:10D0A00019FD10B010BD2DE9F0435F4C8BB0A07896
:10D0B00000283CD15D481821183800F0C1FCA0467A
:10D0C000E0785A4C0025183C4FF02809012688B317
:10D0D00004F1480700950195029510226946F81D54
:10D0E000039500F00AFC30B3F81DCDE9080709A844
:10D0F000049008A806908DF814608DF81C60042038
:10D10000FFF7ABFF25700220207204A8C4F80C00C2
:10D11000A4F8109045486582183873DF08B1FEF70F
:10D12000D9FC43494FF40030086088F802600BB026
:10D13000BDE8F08307E00520FFF78FFF26706760EA
:10D1400025722582E6E70620FFF787FF25706560D8
:10D150002572DDE7F0B5344C054600880027012232
:10D16000E688A7B0192810D025DC112844D00EDCA1
:10D1700002287CD0102808D12D4980030860112096
:10D1800000F045F9A888E080A77027B0F0BD2749D6
:10D19000303101F1180413284CD01428F5D1288A15
:10D1A0004A8D0026904200D126460023CA1DA88839
:10D1B000314686DF1BE051286AD00EDC1A287DD06C
:10D1C0001B28E2D1287A0028DFD1A770E068401E32
:10D1D000E0604DD0FFF767FFD7E7522873D055289E
:10D1E000D3D1A8790028D0D11321304676DF00288A
:10D1F000CBD0FEF76FFCC8E78020ADF8940032205A
:10D20000E060122000F003F9012325AA01A9E088BB
:10D21000AADF08B1FEF75EFC207808B9FFF743FFEC
:10D220004FF6FF70E080B0E7942C002054320020CD
:10D230000C050050D448C91D026805928288ADF8DB
:10D24000182080798DF81A00102201A800F081FBC7
:10D250001C22214610A800F07CFB01A80C9010A80D
:10D260000B9007ABC94A852130467FDFBFE70BE053
:10D270001422C74901A800F0B1FB059801AC009049
:10D280000FCCFFF7FAF880E70021304667DFAEE702
:10D29000A9790029A0D0A87B042803D0062801D0B2
:10D2A000052899D102290AD08DF884204FF4C17045
:10D2B000ADF8880021A93046A8DF98E703E00220F6
:10D2C0008DF88400F2E700F0A7F890E710B5044667
:10D2D000FDF777FEAC4821463038FDF7CCFF2046FD
:10D2E000BDE8104036E7FEF7F5BB30B5A74D87B077
:10D2F0001C3D00242C702C71112000F083F81220AA
:10D3000000F080F8112000F082F8122000F07FF881
:10D31000A04800F05DFA00286FD19F48FFF711FB8D
:10D3200000F04AF9002868D19748FDF788F90028ED
:10D3300065D0684671DF08B1FEF7CCFB9DF80100AF
:10D340006946401C8DF80100002070DF08B1FEF72F
:10D35000C1FB9DF8080091A120F00F00401C20F0B7
:10D36000F00010308DF80800072202A87CDF08B119
:10D37000FEF7B0FB00940C20ADF8000018200194DB
:10D38000ADF80200ADF804404FF4C870ADF80600E7
:10D3900068467ADF08B1FEF79DFB08200094ADF8DF
:10D3A00000008048019080480290774869463038F4
:10D3B000FDF720FF08B1FEF78DFB1C21684600F049
:10D3C0003FFB40F6CD40CDE900404FF48040029055
:10D3D00003208DF80C007548ADF80E408DF8104014
:10D3E000CDE905406846FDF79DFD08B1FEF772FBEB
:10D3F00000F0BDF8FFF757FE002007B030BD012058
:10D40000E870A6E76A4A032142F82010704701211C
:10D41000814068480160704770B55C4C4FF6FF75FD
:10D420001C3CE088A84201D1082070BDE178D9B148
:10D430005549012308223431A9DF0028F5D1022300
:10D4400000221146E088A9DF0028EED12A460C21EF
:10D45000E088A7DFA0F54051023903D0082801D0A9
:10D46000891EE2D1002070BD00231A461946A9DFAB
:10D4700070BD10B50A46044603211046FFF7B8FCFC
:10D48000024603212046FDF70DFE002803D0BDE82B
:10D490001040FEF71FBB10BD10B588B00446002039
:10D4A00000900190029003903848394A1C380C3A99
:10D4B00040798DF800001068926804906846CDE9C4
:10D4C0000502087A0C2805D003221CE0FEF702FBB7
:10D4D00008B010BD4868C278016862F31F6101910D
:10D4E000C279416862F31F610291C17A806861F379
:10D4F0001F60039004A8FFF727FA0028E8D0012155
:10D50000FFF776FC024601212046FDF7CBFD0028FF
:10D51000DCD1DDE7FEB50446087A82070ED000F0C4
:10D520000302C2F104030022154604E04E6835549C
:10D53000401CC0B2521C9A42F8D3087201200090DD
:10D5400048680290087A800801906846FFF799FAC7
:10D5500000280BD00221FFF74BFC02460221204697
:10D56000FDF7A0FD002801D0FEF7B4FAFEBD074884
:10D57000017821F07F01303121F080010170072115
:10D58000417010218170704784320020B02C00203F
:10D590007CDB0700CDD2070025CE0700446675541A
:10D5A000617267008DCF0700E7D2070047CF070001
:10D5B000000700500805005056480021564A0170E7
:10D5C00002F5907002600822C0E90121C16001618A
:10D5D00041618161084670470020704720B14D4984
:10D5E0000A781AB1042070470E20704701220A7091
:10D5F0004849491C016000207047464900200870D6
:10D60000704710B5E9B100220A60444A5368E3B19B
:10D61000202818D85B1E5360D068401CD060106969
:10D62000136800EBC00403EB84030B600123834009
:10D630009169401C194300F00700916110610020BE
:10D6400010BD0E2010BD0C2010BD042010BDF0B583
:10D65000324A0646916859B355691020691A01F09B
:10D66000070117680B46012401EBC10C07EB8C0C7A
:10D67000B44506D1956904FA01F67540002095611C
:10D6800004E0491C01F007018D42EDD1491C956968
:10D6900001F0070104FA03F31D420AD19368002B3D
:10D6A00007D05B1E936053685B1C53600B46F1E729
:10D6B0000420F0BD194920230A7C0968521E02F09B
:10D6C000070202EBC20203EB82028850002070477F
:10D6D00070B5D0B1C9B1114AD368C3B15B1ED36074
:10D6E00093685B1C93605369156803EBC30405EBF7
:10D6F00084060660202000EB84005B1C285808602C
:10D7000003F007005061002070BD0E2070BD0420A2
:10D7100070BD0000B52C0020C0320020E033002096
:10D72000FEF714BAF8B5674C207800282ED020698F
:10D7300028B10026E06820B1002526B110E00126BE
:10D74000F8E70125F9E7684652DF052803D020B144
:10D75000FEF7C0F904E0012602E02169009888473D
:10D7600085B96088ADF800006946A06861DF0528CA
:10D7700003D020B1FEF7AEF904E0012502E0D4E9C0
:10D7800002018847002EDED0002DD6D0F8BD4D48CE
:10D790000078704730B409B18C0702D0072030BC44
:10D7A0007047484C0125A1606280AFF28B01636035
:10D7B00010DF0028F3D1257030BC162000F044B8EB
:10D7C00011DF08B1012100E000213E4A11707047CD
:10D7D00018B13C49C860002070470E20704718B14E
:10D7E00038490861002070470E207047354810B551
:10D7F000406830B18047002806D0BDE81040FEF7F1
:10D8000069B9BDE810408DE710BD70B50E460546FC
:10D8100014461421104600F013F901202080002145
:10D82000216121732672657205B1A072002070BD5E
:10D8300008B525490020009108BD1CB52249019179
:10D840000091694660DF1CBD10B50121202803DA74
:10D850001E4A8140114004E0402803DAA0F1200272
:10D86000914031B1002807DA194A00F00F01114444
:10D8700004E042F2010010BD164A811809784909F6
:10D88000082914D299B1012911D004290FD00529F2
:10D890000DD011498C6800F01F0301229A40400905
:10D8A00044B151F82030134341F8203008E042F2EF
:10D8B000020010BD4FF0E02101EB8000C0F8002114
:10D8C000002010BDBC2C0020002C0020FC06FFBC5A
:10D8D00014ED00E000E400E0FC33002010B511B1CD
:10D8E0000020FEF7F7F8BDE81040FFF71BBFAFF2CE
:10D8F000130200210846FEF74DB940EA010310B5B6
:10D900009B070FD1042A0DD310C808C9121F9C42CF
:10D91000F8D020BA19BA884201D9012010BD4FF0C1
:10D92000FF3010BD1AB1D30703D0521C07E000200E
:10D9300010BD10F8013B11F8014B1B1B07D110F86B
:10D94000013B11F8014B1B1B01D1921EF1D118466E
:10D9500010BD032A40F2308010F0030C00F0158057
:10D9600011F8013BBCF1020F624498BF11F801CBE2
:10D9700000F8013B38BF11F8013BA2F1040298BF47
:10D9800000F801CB38BF00F8013B11F0030300F0B1
:10D990002580083AC0F0088051F8043B083A51F855
:10D9A00004CBA0E80810F5E7121D5CBF51F8043B5A
:10D9B00040F8043BAFF30080D20724BF11F8013BCD
:10D9C00011F801CB48BF11F8012B24BF00F8013B2F
:10D9D00000F801CB48BF00F8012B704710B5203A82
:10D9E000C0F00B80B1E81850203AA0E81850B1E818
:10D9F0001850A0E81850BFF4F5AF5FEA027C24BFCE
:10DA0000B1E81850A0E8185044BF18C918C0BDE8C4
:10DA100010405FEA827C24BF51F8043B40F8043B8D
:10DA200008BF7047D20728BF31F8023B48BF11F842
:10DA3000012B28BF20F8023B48BF00F8012B70479C
:10DA40004FF0000200B5134694469646203922BF97
:10DA5000A0E80C50A0E80C50B1F12001BFF4F7AFE2
:10DA6000090728BFA0E80C5048BF0CC05DF804EBC4
:10DA7000890028BF40F8042B08BF704748BF20F832
:10DA8000022B11F0804F18BF00F8012B7047704730
:10DA900070477047754600F029F8AE4605006946A4
:10DAA000534620F00700854618B020B5FDF79CFDD1
:10DAB000BDE820404FF000064FF000074FF000088F
:10DAC0004FF0000B21F00701AC46ACE8C009ACE810
:10DAD000C009ACE8C009ACE8C0098D4670470446EF
:10DAE000AFF300802046FCF7D4FC000000487047EC
:10DAF0000834002001491820ABBEFEE726000200D2
:10DB000070474FF04070E1EE100A704701000007C7
:10DB10000200000000000000000000000000000003
:10DB20003030002023D1BCEA5F782315DEEF1212DB
:10DB300000000000D5C30700000000000200000044
:10DB400000000000000000000000000000000000D5
:10DB500074310020EDC60700000000000400000042
:10DB600000000000000000000000000000000000B5
:10DB7000030000000000000000000000050000009D
:10DB80000000000000000000000000000000000095
:10DB9000B0DB0700002C0020D00000003CA40700F0
:10DBA00080DC0700D02C0020D827000058A40700F4
:10DBB0000000000000000000000000000000000065
:10DBC0000000000000000000000000000090D003F2
:10DBD0000000000000000000000000000000000045
:10DBE0000000000000000000000000000000000035
:10DBF0000000000000000000000000000000000025
:10DC00000000000000000000000000000000000014
:10DC10000000000000000000000000000000000004
:10DC200000000000000000000000000000000000F4
:10DC300000000000000000000000000000000000E4
:10DC400000000000000000000000FFFF00000000D6
:10DC50003200000000000000000000000000000092
:10DC600000000000000000000000000000000000B4
:10DC700000000000000000000000000000000000A4
:020000041000EA
:0410140000A0070031
:020000041000EA
:0410180000E00700ED
:040000050007A4014B
:00000001FF
