:020000040001F9
:10C00000F84300208DC4010095C4010097C40100CD
:10C0100099C401009BC401009DC401000000000000
:10C020000000000000000000000000009FC40100AC
:10C03000A1C4010000000000A3C40100A5C40100C8
:10C04000A7C40100A7C4010079C90100A7C4010069
:10C05000A7C40100A7C401001DC50100A7C40100B9
:10C06000A7C40100A7C40100A7C40100A7C4010020
:10C07000A7C40100A7C40100A7C40100A7C4010010
:10C08000A7C40100D1C60100A7C40100A7C40100D4
:10C09000E9C60100A7C40100EDC60100A7C4010064
:10C0A000A7C40100A7C40100A7C40100A7C40100E0
:10C0B000A7C40100A7C401000000000000000000A8
:10C0C000A7C40100A7C40100A7C40100A7C40100C0
:10C0D000A7C40100A7C40100A7C40100000000001C
:10C0E0000000000000000000000000000000000050
:10C0F0000000000000000000000000000000000040
:10C10000000000000000000000000000000000002F
:10C11000000000000000000000000000000000001F
:10C40000DFF80CD000F078F8004800479DD8010014
:10C41000F8430020401E00BF00BF00BF00BF00BFA8
:10C4200000BF00BF00BF00BF00BF00BF00BF00BF14
:10C4300000BF00BF00BF00BF00BF00BF00BF00BF04
:10C4400000BF00BF00BF00BF00BF00BF00BF00BFF4
:10C4500000BF00BF00BF00BF00BF00BF00BF00BFE4
:10C4600000BF00BF00BF00BF00BF00BF00BF00BFD4
:10C4700000BF00BF00BF00BF00BF00BF00BF00BFC4
:10C4800000BF00BF00BFC5D170470000064880470D
:10C4900006480047FEE7FEE7FEE7FEE7FEE7FEE7A9
:10C4A000FEE7FEE7FEE7FEE711C7010001C4010059
:10C4B00040EA01039B0703D009E008C9121F08C026
:10C4C000042AFAD203E011F8013B00F8013B521EA6
:10C4D000F9D27047D2B201E000F8012B491EFBD21D
:10C4E00070470022F6E710B513460A46044619467F
:10C4F000FFF7F0FF204610BD064C074D06E0E06850
:10C5000040F0010394E8070098471034AC42F6D39A
:10C51000FFF77AFF24E6010044E601002DE9FC5F05
:10C520000025DFF83091A8464FF4807601242F468D
:10C53000304601F03BFC38B1D9F80403204203D067
:10C54000304601F029FC2543361D64007F1CB6B23D
:10C55000082FEDD34FF4BE74204601F027FC38B10C
:10C56000204601F019FC3C4845F00045D0F8008019
:10C570003A4E15F0FF0F13D0012700242F420BD0A5
:10C58000374800EB840108680968C0F3042056F8B6
:10C590002420C1F3014190477F00641C082CEDD397
:10C5A000002D54DA4FF0000A4FF0FF3900273D46C6
:10C5B000701910F8501F90F9000021F0C004401CC1
:10C5C00037D0012000FA04FB1BEA090F31D088099B
:10C5D0000090204600F07CFE56F82000019020B12B
:10C5E00000995846032904D005E00098032820D17B
:10C5F00058464AEA000A1B4951F824101BEA080F62
:10C60000C1F3014102D0022902D012E0032910D166
:10C610000098032807D1022917D00221204601F0F3
:10C62000ADFB7F1CFFB2019818B1DDE90012204676
:10C6300090476D1C042DBBD3002F08D0064800681E
:10C64000404504D08046D146B0E70321E6E7BDE887
:10C65000FC9F0000006000401005005054230020A3
:10C66000106500400007005000F01F0201219140BA
:10C6700040094FF0E02202EB8000C0F880127047C2
:10C6800000F01F020121914040094FF0E02202EB2F
:10C690008000C0F80011704700F01F020121914096
:10C6A00040094FF0E02202EB8000C0F80012704712
:10C6B0004907090E002803DA00F00F00024A00E0E3
:10C6C000024A81547047000014ED00E000E400E0ED
:10C6D00004480021016441648164C16401604160D7
:10C6E00001F064BD0011014001F0FCBC074810B529
:10C6F000406830B18047002807D0BDE8104000F006
:10C70000E9BABDE8104000F031BF10BDD8200020CC
:10C7100070B58A480023021D0178101D01240629E6
:10C7200007D115782D0704D10578C5F30315032D1E
:10C7300002D0062904D00FE0824E814D75670EE0CD
:10C7400015782D0708D10578C5F30315032D06D0FC
:10C75000042D04D0052D02D0062907D00EE07A4D15
:10C760002D687A4EC5F34235356002E015782D0705
:10C7700004D10578C5F30315032D02D0062906D090
:10C7800011E0734D2E6826F080762E600EE015784D
:10C790002D0708D10578C5F30315032D06D0042D08
:10C7A00004D0052D02D0062907D00EE0694D2B607C
:10C7B0006B60664D2D1F2B6002E015782D0704D1AC
:10C7C0000578C5F30315032D02D0062905D00CE02A
:10C7D0005E4A0321643211600AE015782D0704D106
:10C7E0000578C5F30315032D02D006290DD06AE0A4
:10C7F000594A05211160584978310C605649083171
:10C800000B603F21121D116002E0117809075AD117
:10C810000078C0F30310052855D1504800685049EE
:10C8200008604E48001D0068091D08604B4808302C
:10C830000068091D086049480C300068091D08603F
:10C84000464810300068091D0860444814300068EC
:10C85000091D0860414818300068414920310860CE
:10C860003E481C300068091D08603C4820300068C4
:10C87000091D0860394824300068091D08603748E0
:10C8800028300068091D086034482C300068091DF4
:10C8900008603248303000683149403108602F4824
:10C8A00034300068091D08602C4838300068091DC4
:10C8B00008602A483C300068091D0860274840305D
:10C8C0000068091D086022487438016841F470014D
:10C8D0000160BFF34F8FBFF36F8F4FF01021D1F87E
:10C8E0000002002803DBD1F80402002821DA1D4AE7
:10C8F00014601D480468002CFCD01524C1F80042C7
:10C900000568002DFCD0C1F8044201680029FCD064
:10C91000136001680029FCD0BFF34F8F0C48F0383A
:10C920000168124A01F4E06111430160BFF34F8FC7
:10C93000FEE710490E48086070BD0000E00F00F0EF
:10C940000DF0ADBA00C00740440200103C050040A5
:10C95000FCED00E00C010040105600400404001003
:10C9600020C5004004E5014000E401400400FA0550
:10C970000090D0038C2000200348007F08B101F014
:10C9800001BD01F07BBC0000AC23002002E008C820
:10C99000121F08C1002AFAD170477047002001E039
:10C9A00001C1121F002AFBD170472DE9FC5F002551
:10C9B000168807461580406B14468946A8464FF0F6
:10C9C0000C0A11234FF0020B98B101784846032E50
:10C9D00048D380F800B02288521C92B2228083543F
:10C9E0002288521C92B2228009F802102088401C32
:10C9F00020803A6BDAB12088494600F11205B54231
:10CA000030D80B5420881023401C80B220800B5457
:10CA10002088401C20800F202388155C401ECD54A8
:10CA2000238840B25B1C23800028F5DA454697F83E
:10CA30002E0030B133462246494600F0DDFD0500A8
:10CA400011D197F82D0030B132462146484600F00A
:10CA5000AFFA050007D1B87820B32088C846001D7A
:10CA6000B04202D95046BDE8FC9F684679DF0028F5
:10CA7000F9D12188032008F8010020881921401CE1
:10CA800080B2208008F800102088401C80B22080EE
:10CA900000EB0801BDF8000001F0E2FC014620882F
:10CAA00008442080F878B8B1228897F90310D31C85
:10CAB0004846B342D6D800F802B022880123521C5F
:10CAC00092B2228083542288521C92B2228009F8AA
:10CAD00002102088401C20807868B8B1218890F925
:10CAE0000020CB1C4846B342BCD800F801B02188D6
:10CAF0000A23491C89B2218043542188491C89B2E8
:10CB0000218009F801202088401C2080388950B1FC
:10CB1000CDE900464B460622022107F1080001F04C
:10CB200007FD05009FD1388A50B1CDE900464B463C
:10CB30000722032107F1100001F0FAFC050092D151
:10CB4000388B50B1CDE900464B461522142107F130
:10CB5000180001F0EDFC050085D1386A30B133468C
:10CB60002246494600F012FC0500DBD1786A30B15C
:10CB700033462246494600F047FF0500D2D197F8D8
:10CB80002C0038B1334622464946384601F022FA95
:10CB90000500C7D1387838B1334622464946384671
:10CBA00000F064FF0500BDD128465CE710B586B0F3
:10CBB00018216846FFF795FC00244020ADF81000CE
:10CBC0008DF8004001948DF80840ADF81240684699
:10CBD00073DF08B100F07EF803494FF400300860BD
:10CBE000081F046006B010BD0C05005070B500248D
:10CBF000084D05E0686810F8340000F0A3FF641CDD
:10CC000028788442F6D304480068BDE8704000F0FC
:10CC100005B90000A42000201CE6010070B5002426
:10CC2000064D06E06868012110F8340000F0AEFF00
:10CC3000641C28788442F5D3002070BDA420002015
:10CC4000F8B515460C460646052A01D20720F8BD60
:10CC500001F078F818B901F04BF80028F7D1114924
:10CC600000204E600C70C1E902500F4D08610DE0CC
:10CC700006EBC4006968009181788DF80110007896
:10CC80000A4A694600F0D2FF0028E0D12000A4F152
:10CC90000104E4B2ECD1BDE8F840054A00210248A5
:10CCA00000F024B8A42000201CE6010015D50100E6
:10CCB00075D40100BFF34F8F04480168044A01F4A2
:10CCC000E06111430160BFF34F8FFEE70CED00E020
:10CCD0000400FA050EB500210091CDE901106A4665
:10CCE00044F20100FFF7E6FF0EBD0000074B9B6812
:10CCF00023B12AB120B10068037C1BB10820704722
:10CD0000072070474174426100207047B82000201E
:10CD10002DE9F0478046994614460F4690074FF09C
:10CD2000000634D11C4D8CB301F0BEF80320C5F8C9
:10CD30001490287004F11800002107EB4703AC6041
:10CD400004EBC102491C167056709770506000EBDE
:10CD5000C3000329F4DBEE606E70AE701420FFF7A1
:10CD600083FC06211420FFF7A3FC1420FFF788FCA6
:10CD70000A49C1F8008006211120FFF799FC0748F5
:10CD8000001F006828610020BDE8F08701E007204F
:10CD9000FAE7AE60FBE70000B8200020081501406C
:10CDA0002DE9F843DFF86C900D461746D9F80810C6
:10CDB000044649B344B3052D02D20720BDE8F883E9
:10CDC000606908B3607C012820D0002601F07EFB5A
:10CDD000D9F80810804601EBC800694601F094FBC1
:10CDE000B0B1012101700C49446009680830E2C00B
:10CDF000D9F8081001EBC8009DF80010417014200C
:10CE0000FFF74AFC0020D9E70820D7E72E46DDE7E8
:10CE10000420D3E7B820002004150140F8B5124ED5
:10CE20000446B168E1B1DCB16069C8B1002727747C
:10CE300001F04CFB0546B068694600EBC50001F007
:10CE400063FB78B1022101704460B0689DF8001066
:10CE500000EBC50041701420FFF71EFC3846F8BDFA
:10CE60000820F8BD0420F8BDB8200020F0B50C461D
:10CE700093B01F210726ADF80010ADF8041000276D
:10CE800050B1C17849070DD56A4602A9FFF78DFD5B
:10CE9000002808D102AD02E00025ADF800706CB1A9
:10CEA000E07810B1304613B0F0BD01AA0AA92046BF
:10CEB000FFF77BFD0028F6D10AAA02E00022ADF8B8
:10CEC0000470BDF80400C3B2BDF80000C1B228462A
:10CED00072DFE8E770B5054601461C220F48FFF7F0
:10CEE000E7FA0F4C00262670286830B101686160AF
:10CEF0004068A060201D7ADF02E00948001D7BDF4A
:10CF000000280AD14FF6FF7060806670BDE870405F
:10CF1000044A00210448FFF7E9BE70BD3823002011
:10CF2000902000206DE4010008E6010070B51E4C61
:10CF3000068800251B49E289102E15D01B4B112EA7
:10CF40001CD0122E29D0502E17D130F8061F914236
:10CF500013D14189022910D1007B10F0010F11D0AB
:10CF6000BDE8704000F058BA83884B808369CB607D
:10CF7000C06908614D70002AF2D070BD4FF6FF7095
:10CF800048804D701868FFF749FF0028F5D0A16967
:10CF90000029F2D0BDE8704008478268CA60C068C6
:10CFA0000861DDE7902000203823002008E601001A
:10CFB0007CB5054608880C460930904201D90C2002
:10CFC0007CBD684671DF0028FAD1218808206854AA
:10CFD00020881B21401C80B2208029542088401CBE
:10CFE00080B220802844DDF801100160BDF80510F2
:10CFF00081802088801D80B220809DF8001001B1C2
:10D00000012129542088401C208000207CBD000084
:10D0100010B5044600F0E2FE2046FFF787FF2146E8
:10D02000BDE81040014800F031B80000FC220020AB
:10D0300030B5044685B04FF6FF70A082124B0868E9
:10D040000D46A0610FCB8DE80F0004F11201684678
:10D0500063DF002816D1A07C8DF8120041F2235026
:10D06000ADF81000224604A90120A0DF002809D154
:10D070002946204600F07AF8002803D129462046A8
:10D0800000F0E4FA05B030BD0CE601000A88102A71
:10D0900010D0112A10D0502A11D131F8062F438810
:10D0A0009A420CD14A89012A09D18269002A06D004
:10D0B000097B1047898801E04FF6FF718182704734
:10D0C00003B585B0012100220092ADF81010019245
:10D0D000029203928DF802104189ADF8001006A962
:10D0E000039104A90291808A6946A6DF07B000BDBA
:10D0F00000B51A4889B000234068079048221849B3
:10D1000007A800F0D5FF08B1FFF7E4FD6A4601214A
:10D11000002000F0B7FF08B1FFF7DCFD114800F078
:10D120000BFF08B1FFF7D6FD684600F0A1FF08B17C
:10D13000FFF7D0FD05A871DF08B1FFF7CBFD05A90A
:10D14000002070DF08B1FFF7C5FD074800F086FF3B
:10D15000002801D0FFF7BEFD09B000BD00E60100C8
:10D16000B4220020E81F002011D0010030B58FB09C
:10D170000024054607949DF81C001C2120F00F0098
:10D18000401C20F0F00010308DF81C009DF81D00B0
:10D1900020F00F00401C20F0F00010308DF81D0032
:10D1A0009DF81E0020F00600801C8DF81E006846C9
:10D1B000FFF797F99DF80000019440F012008DF8F8
:10D1C000000007A8CDE9044003940694A87C8DF8DC
:10D1D0003A0041F22450ADF838000D949DF8340027
:10D1E000142120F00F00401C20F0F00010308DF8CA
:10D1F00034009DF8350020F0FF008DF835009DF8D3
:10D20000360020F00600801C20F019008DF8360052
:10D2100008A8FFF766F90EA808900DA8099001204C
:10D22000ADF82800ADF82A40ADF82C000C94288801
:10D2300005F10A0308AA6946A2DF0FB030BD00005D
:10D2400010B50D280AD10848FFF73AFF002809D089
:10D25000A0F54051023905D0082803D0BDE81040A0
:10D26000FFF738BD10BD0000FC22002005494FF03B
:10D27000FF32082841F8202002D3084480F84820D3
:10D280007047000054230020F0B54FF0FF3512B175
:10D290000023082601E008230C260C4C05E000BF03
:10D2A00054F823707F1C04D05B1CB342F8D328468B
:10D2B000F0BD26185DB286F8305044F82310002ADD
:10D2C000F5D1E11881F84800F1E70000542300206F
:10D2D0000249084490F930007047000054230020B0
:10D2E0002DE9F05F2648C168F1B3DFF898B00E6809
:10D2F0008146DBF800400769C078E11B21F07F45DB
:10D30000ED1CB0B9DFF880804FF48030C8F84403DA
:10D31000C8F804031120FFF7A7F91120FFF7B0F9AF
:10D320004FF0010AC8F800A02F20FFF773F889F822
:10D3300003A0B54200D23546124BE8193C3320F029
:10D340007F401860DBF800105A46091B21F07F412E
:10D35000001BC91C20F07F4081420FD91068186063
:10D360002F20FFF757F800E004E0BDE8F05F112040
:10D37000FFF792B9BDE8F05F00F096BDBDE8F09F01
:10D38000B820002004150140001001402DE9F041B3
:10D3900017880646B81D14460D46984202D90C203F
:10D3A000BDE8F0813188072206290AD34FF4486C82
:10D3B0004FF6FF73614501D9994202D17088062862
:10D3C00001D21046ECE7604501D99842F9D1994263
:10D3D00003D0984201D08142F3D80520E855208837
:10D3E0001221401C80B2208029542088401C80B229
:10D3F00020804119308801F033F82188084480B238
:10D4000020804119708801F02BF821880844208081
:10D410000020C5E7FFF75EBCF8B5134800F0DEF862
:10D42000114D0026114C0C3D30B16169B9B101209C
:10D430008DF80000684611E0287820B1616971B16B
:10D440008DF80060F6E7687858B1A16808480022B6
:10D450000068FFF7A5FC10B1A16901B188472E70E3
:10D46000F8BD6168F2E700009C200020382300200E
:10D4700008E601002DE9F04100260125144C22E0C8
:10D480006068226900EBC607387805FA00F111429E
:10D4900017D08A43226100F021FC02463878E36805
:10D4A00005FA00F1194002FA00F3994209D179789E
:10D4B000012901D0012100E0002151407A6802B128
:10D4C0009047761CF6B220788642D9D3BDE8F08129
:10D4D000A42000200E4910B54A788C780023A2427F
:10D4E00012D0521CD2B24A70022A00D14B70084AA4
:10D4F0004B78183252F8232002600869104420F05B
:10D500007F400861012010BD0360002010BD0000B5
:10D51000B82000202DE9F041124E07460125BD40FC
:10D520003068FFF77BFC002805D10F4C20692842AA
:10D5300003D0A8432061BDE8F081384600F0CEFB5F
:10D540000028E06801D0284300E0A843E06020699B
:10D5500028432061A1683068BDE8F0410022FFF750
:10D560001FBC00001CE60100A4200020F8B51A4CE6
:10D57000207800282ED0206928B10026E06820B14C
:10D58000002526B110E00126F8E70125F9E76846F5
:10D5900052DF052803D020B1FFF79CFB04E00126F1
:10D5A00002E021690098884785B96088ADF80000DD
:10D5B0006946A06861DF052803D020B1FFF78AFB28
:10D5C00004E0012502E0D4E902018847002EDED004
:10D5D000002DD6D0F8BD0000D82000200549408895
:10D5E0000A88904204D34988884201D801207047B4
:10D5F000002070479420002030B51488E51C9D421F
:10D6000001D90C2030BD02250D5513881C245B1C4C
:10D610009BB21380CC5413885B1C9BB213800128EF
:10D6200007D0022807D0032807D0042807D00720F6
:10D6300030BD002004E0012002E0CD5401E00320D1
:10D64000C8541088401C1080002030BD30B58FB009
:10D6500005461C216846FEF744FF00249DF80000A3
:10D66000019440F00A008DF800000394049405949E
:10D670000694A87C8DF8360041F22550ADF83400B0
:10D680000C949DF83000142120F00F00401C20F075
:10D69000F00010308DF830009DF8310020F00F00C0
:10D6A000401C20F0F00010308DF831009DF8320061
:10D6B00020F00600801C20F019008DF8320007A829
:10D6C000FEF70FFF0DA807900CA808900120ADF8F9
:10D6D0002400ADF82640ADF828000B942888AB1C38
:10D6E00007AA6946A2DF0FB030BD000010B5064B97
:10D6F00000204FF400221C1F11B11A60206010BDE1
:10D700002260186010BD00000C0500502DE9F047A4
:10D71000DFF8B0A0DAF80C009AF8004080469AF8DA
:10D720000460DAF80890DAF810703AE009EBC40502
:10D730002A7833E002EB42016B68521C03EBC10113
:10D74000AB78D2B2934200D100220B78022B02D0E8
:10D75000032B23D11FE0D1F804C00346014603E0A8
:10D76000614503D00B46C969C1B1F9E7B1B18B423C
:10D7700005D1C06918B9144F0126BE600027D1F841
:10D7800000C0C969D96149B10B6863440B6005E009
:10D790000174C06900E000210028F9D16978914244
:10D7A000C8D12100A4F10104E4B2BFD1CAE9030742
:10D7B0008AF80460404502D00120BDE8F0870020CF
:10D7C000FBE70000B8200020001001402DE9F047E1
:10D7D00005463048002680460778D0F80C904BE08C
:10D7E000D8F8080000EBC70440E002D02846ED69F5
:10D7F0001EE02078616800EB4002401CC0B201EBE3
:10D80000C2012070A278904200D126700A78486840
:10D81000012A2DD1027C5ABB8A684260CA688260A4
:10D820000A69C2604969816198F8041001B14660D3
:10D830004268D8F81030DFF860C0D11A21F07F417B
:10D84000614502D28268114406E0991A826821F08B
:10D850007F418A4202D9511A016000E006604660A9
:10D86000012186600174C66100F082FC002DBCD1EC
:10D87000207861788842BCD13800A7F10107FFB257
:10D88000AED1D8F80C10494502D00120BDE8F08790
:10D890000020FBE7B8200020FFFF7F0000200125CB
:10D8A0004C499EB0032600BF05FA00F212F4602F27
:10D8B00001D041F82060401C2028F5D346494FF4A0
:10D8C000602008600024081D04602346434A0521A7
:10D8D0002046FFF71DFA08B1FFF7FCF940F2666237
:10D8E00001213F48FFF7ACF908B1FFF7F3F9FFF763
:10D8F000FFFB9DF808003BA120F00F00401C20F02A
:10D90000F00010308DF808000D2202A87CDF08B16D
:10D91000FFF7E0F900945020ADF80000A02001943A
:10D92000ADF80200ADF804404FF4C870ADF8060041
:10D9300068467ADF08B1FFF7CDF92E4800906946B6
:10D940002D48FFF775FB08B1FFF7C4F92B483821C4
:10D9500000681C902848807C8DF872006846FEF7AD
:10D96000C0FD02208DF800008DF8025006208DF8D1
:10D97000030038210EA8FEF7B4FD1CA81390ADF8E3
:10D9800048500EA96846FFF771FA08B1FFF7A2F9EF
:10D990001C216846FEF7A5FD4FF42020CDE900408C
:10D9A000801002901648059016488DF80C6006907D
:10D9B000ADF80E408DF810406846FFF78BFA08B1BD
:10D9C000FFF788F9FFF7F2F848DF0028FCD0FFF7EF
:10D9D00081F9F9E70007005008050050EC2000200D
:10D9E000842000204E6F726469635F426C696E6BC5
:10D9F00079000000EDD60100FC22002000E60100C5
:10DA00005DDE010015D4010070B51446828805461C
:10DA10000E46921C2088911C0144994201D8FE2A8E
:10DA200001D90C2070BD521C32542088FF21401CAB
:10DA300080B2208031542088401C80B2208081191F
:10DA4000288800F00DFD2188084480B22080AA8833
:10DA500042B1A96841B13044FEF72AFD2088A98867
:10DA600008442080002070BD072070BDF8B50E4628
:10DA7000017814460546012901D1687830B1208823
:10DA8000821C9A422DD8012902D006E00720F8BD59
:10DA900069780144891C994223D8181A801E87B2DC
:10DAA000ADF800702188B01C084469467DDF00286D
:10DAB000EDD12878022805D1BDF80010B94201D86F
:10DAC00009210AE00821012805D16878B84202D866
:10DAD000ADF8000001E0ADF80070BDF80000FE28D0
:10DAE00001D90C20F8BD2288401CB0542088401C6D
:10DAF00080B2208031542088401C2080BDF8001066
:10DB0000084420800020F8BD4907090E002804DAE7
:10DB10000A4B00F00F021A4401E0094BC2181170C1
:10DB200000F01F020121914042094FF0E02000EB7C
:10DB30008200C0F88012C0F80011704714ED00E0B8
:10DB400000E400E010B5044600F096F928B1204644
:10DB5000BDE81040002100F011B9204600F098F90E
:10DB600000280DD02046FFF7B3FB064901EB8001EA
:10DB70000A6822F001020A60012181400248016026
:10DB800010BD000010650040086300402DE9F04121
:10DB90000F46804600F070F90125204E00284046CF
:10DBA00018D0FFF795FB304490F84800800903280F
:10DBB00002D001280CD005E01948006805FA08F5E4
:10DBC000284205D003214046BDE8F04100F0D6B818
:10DBD0000221F8E700F05CF900281DD04046FFF76D
:10DBE00077FB04460F494FF4807001EB840100EB92
:10DBF00084000A6880B242F001020A6000F0CCF8AA
:10DC0000002F09D04046FFF763FB56F8200000289C
:10DC100002D00548A5400560BDE8F08154230020EE
:10DC20001005005010650040046300402DE9FC41E0
:10DC3000DFF89880044608EB0400002790F93000D4
:10DC40001346C0170E46401C01D008273AE0F27870
:10DC500019462046FFF718FB0546401C31D0B07826
:10DC600038B11B4800EB8400016821F0020101601B
:10DC700007E000217378204600910A46019100F0E8
:10DC80006BF8F078A0B11348317800EB850002689A
:10DC9000114B1A4002604FF4F8524FF4403302EA3D
:10DCA000042203EA01410A4301680A43026009E0D1
:10DCB00008EB0500327810F8481F41EA8211017024
:10DCC00000E004273846BDE8FC8100005423002012
:10DCD0000007005010650040FFE0FCFF03490968A1
:10DCE000C14011F0010000D0012070471005005024
:10DCF00070B5124D95F8540008B1082070BD002091
:10DD0000411E2A18401CC0B282F830102028F8D3D7
:10DD100000242046FFF7AAFA641CE4B20C2CF8D3C6
:10DD200006210846FFF7F0FE05494FF00040086065
:10DD3000012085F85400002070BD0000542300200D
:10DD400004630040034890F85400002800D00120EC
:10DD5000704700005423002030B541EA4201DDE95C
:10DD6000034541EA8301044A41EA042141EA0541AD
:10DD700042F8201030BD000000070050054A02EBB9
:10DD80008000026822F440320260026842EA0141E7
:10DD90000160704700070050034908B5084400219E
:10DDA00001600068009008BD0060004002494058D2
:10DDB000012800D000207047006000404058002833
:10DDC00000D001207047D0F80403084000D00120A3
:10DDD00070474058002800D00120704770B51D4999
:10DDE000068800220B1F1C4C4FF48025102E0CD0EF
:10DDF000112E15D02046132E00881FD0522E27D169
:10DE000000231A461946A9DF1CE00D601A604FF482
:10DE100000351D600A6080882080FEF7FFFE11E05B
:10DE20001D600A604FF6FF702080FEF7DFFE08B12C
:10DE3000FEF750FFBDE87040FEF7B8BE00231A465B
:10DE400085217FDF002803D0BDE87040FEF742BF88
:10DE500070BD00000C0500508020002000780028D4
:10DE600007D104483B21008876DF002801D0FEF767
:10DE700031BF7047802000200449084490F93000E9
:10DE8000082801DB01207047002070475423002040
:10DE90000449084490F93000082801D20120704755
:10DEA000002070475423002070B501260A487104F1
:10DEB00000250160094C4810C4F84803C4F8080361
:10DEC00066602F20FEF7A6FAA660054C2F2025617C
:10DED000FEF7A0FAE57070BD80E100E0001001409F
:10DEE000B8200020094810B50949C47D0023094A1B
:10DEF000C1F808313CB11168437EC268D154417EFB
:10DF0000491C417610BD106810BD0000AC230020F4
:10DF100000200040182500401FB501228DF80800A0
:10DF200004488DF800200191D0E90012684690471E
:10DF30001FBD0000AC23002008B50249002000915D
:10DF400008BD00008020002010B50121202803DA40
:10DF50001C4A8140114004E0402803DAA0F120026D
:10DF6000914031B1002807DA174A00F00F0111443F
:10DF700004E042F2010010BD144A811809784909F1
:10DF8000082914D299B1012911D004290FD00529EB
:10DF90000DD00F498C6800F01F0301229A40400900
:10DFA00044B151F82030134341F8203008E042F2E8
:10DFB000020010BD4FF0E02101EB8000C0F800210D
:10DFC000002010BDFC06FFBC14ED00E000E400E002
:10DFD000EC2300202DE9F0410746806A144688466C
:10DFE000C8B3002531E000BFB96A05EB450001EB7D
:10DFF0008006B088801CFE2802D90C20BDE8F08184
:10E000002288401C08F8020020881622401C80B29A
:10E01000208008F800202088401C80B2208000EB7F
:10E020000801308800F01CFA2188084480B2208062
:10E03000B28842B1B16871B14044FEF739FA208824
:10E04000B188084420806D1CEDB297F82C00A842DE
:10E05000CAD80020D2E7FFE70720CFE718B103496D
:10E06000C860002070470E2070470000D8200020B4
:10E070001CB5034901910091694660DF1CBD000099
:10E080008020002070B50E46054614461421104627
:10E09000FEF727FA012020800021216121732672DA
:10E0A000657205B1A072002070BDFEF703BE0000CE
:10E0B00030B409B18C0702D0072030BC7047074C40
:10E0C0000125A16062800649636010DF0028F4D159
:10E0D000257030BC1620FFF737BF0000D820002085
:10E0E000ABE001002DE9F84F204C00256846D4E94B
:10E0F00003B6FFF7EFF98046FFF708FB0746A9468E
:10E10000B8F1000F25D00023009ACC46E06819E052
:10E1100007680146974202D9BA1A026014E0C1F8B2
:10E1200000C0D1F80C80D21BC8693B448A46B8F1C4
:10E13000000F07D0F71827F07F47C1E90178CAF828
:10E140001C500D460028E3D1E0602846FFF73EFB57
:10E1500004E02846FFF73AFB00B917B15846FFF72D
:10E16000BFF884F80490BDE8F88F0000B8200020C4
:10E170000D4B10B5D96831B102680C68A24204D8C1
:10E18000A21A0A60C161D86010BD0B4603E00B46BD
:10E19000C969121B21B10C689442F8D3A41A0C600F
:10E1A0000260C161D86110BDB82000202DE9F041A6
:10E1B0001D4DEC68002C35D01C48002700682969EB
:10E1C000B846401A20F07F462068B04215D8224653
:10E1D000361A0744E469107C68B182F810806B69D4
:10E1E00033B1D2E90501984728B1FEF773FD02E08B
:10E1F000D2E905108847002CE6D16978A8788142D9
:10E2000006D1401CC0B2A870022801D185F8028056
:10E210000548A978183040F82170BDE8F041142075
:10E22000FEF73ABABDE8F081B8200020041501409D
:10E230000648002101600648828A8168895C828ADA
:10E24000521C828203480160704700001C2100407C
:10E25000AC2300201C2500401FB500218DF80800CC
:10E2600005488DF80010826801928175D0E900128E
:10E27000684690471FBD0000AC2300202DE9FF41F8
:10E280003D4D4FF400712846FFF79DFD01273B4CA3
:10E290004FF401780026F8B14FF492712846FFF749
:10E2A0008DFDC8B1C5F82461C5F80883A07E00B90A
:10E2B0006F6002208DF80000314801680160039111
:10E2C000E07D8DF80800E0680190E6752676D4E9D7
:10E2D00000126846904724E004212846FFF773FDAA
:10E2E000F8B14FF484712846FFF768FDC8B1FFF715
:10E2F000F9FDE07D617E884213D1227E3AB1607ED5
:10E30000E168E2752269E2602676667607E0A07E23
:10E3100000B96F60C5F80883E675607EE168FFF7B5
:10E32000FBFD4FF48E712846FFF748FD58B1A18AD6
:10E33000A07D814202D2FFF77BFF04E0C5F81C619B
:10E3400008B1FFF789FF4FF4A2712846FFF736FDA9
:10E3500000280FD0C5F84461A07E00B12F60E07D99
:10E36000002807D0E675607EE16804B0BDE8F041A2
:10E37000FFF7D2BDBDE8FF8100200040AC230020A4
:10E38000802400402DE9FF41324D4FF49271284620
:10E39000FFF71FFD304F314C0026A8B1C5F82461AE
:10E3A00002208DF800002C48BC3801680160039100
:10E3B00038688DF80800E0680190E6752676D4E9A3
:10E3C0000012684690471EE04FF488712846FFF718
:10E3D00000FDC0B1C5F810613868E17DC0B281426E
:10E3E00011D1227E5AB1E168D5F8003223F0200322
:10E3F000C5F80032E2752269E260267601E0E67532
:10E40000E168FFF789FD4FF4A2712846FFF7E1FCB0
:10E4100048B1C5F84461E07D28B1E6753868E16827
:10E42000C0B2FFF779FD4FF490712846FFF7D1FC99
:10E4300000280DD0C5F82061A07D002808D006482E
:10E440001030006804B0C0B2BDE8F041FFF704BF6F
:10E45000BDE8FF81002000403C250040AC230020A7
:10E460000870000A487002207047000038B515494E
:10E470004888A0F57F42FF3A23D04A78124C521CBC
:10E48000D2B24A70237B93420AD3091D75DF00285C
:10E4900017D0A169002914D001B0BDE83040084769
:10E4A00000254D70217C29B13B2176DF10B1A16997
:10E4B00001B188476169002903D08DF80050684692
:10E4C000884738BD9020002038230020EFF30580D6
:10E4D000C005C00D0ED0103840B2002803DA00F09D
:10E4E0000F00074900E00749405C4009022803D0BB
:10E4F000062803D002207047002070470120704793
:10E5000014ED00E000E400E042788378521CD2B2BF
:10E51000934200D100220378934201D1002070473A
:10E520000A704168407800EB400001EBC000704782
:10E530002DE9FC411646DDE90854CDE900541F469B
:10E540008046022200F00CF8002807D1CDE90054E3
:10E550003B4610223146404600F002F8BDE8FC81FF
:10E560002DE9FC5F0026DDE90C4B994692468E466C
:10E5700080462788354630E0D8F80400002200EBBA
:10E58000850069460068019001A865DF002830D148
:10E590009DF8000050451FD10EB1002100E002217E
:10E5A000228808441118594522D846B9521C90B205
:10E5B000208009F800E02088401C20800126218866
:10E5C00001A801EB0902694665DF002811D1208806
:10E5D0009DF80010084420806D1CB8F80000A84287
:10E5E000CADC56B12088C01B401E80B2FF2802D969
:10E5F0000C20BDE8FC9F09F807000020F9E70000A7
:10E6000023150000010000071823002023D1BCEAD5
:10E610005F782315DEEF121200000000CC230020EB
:10E620000300000044E60100802000206C00000090
:10E630008CC90100B0E60100EC2000200C23000092
:10E640009CC90100FFFF00000D00030041D2010042
:10E650000090D00300000000000000000000000057
:10E6600000000000000000000000000000000000AA
:10E67000000000000000000000000000000000009A
:10E68000000000000000000000000000000000008A
:10E69000000000000000000000000000000000007A
:10E6A000000000000000000000000000000000006A
:040000050001C40131
:00000001FF
