:020000040001F9
:10C00000384900208DC4010095C4010097C4010087
:10C0100099C401009BC401009DC401000000000000
:10C020000000000000000000000000009FC40100AC
:10C03000A1C4010000000000A3C40100A5C40100C8
:10C04000A7C40100A7C4010091CE0100A7C401004C
:10C05000A7C40100A7C4010035CA0100A7C401009C
:10C06000A7C40100A7C40100A7C40100A7C4010020
:10C07000A7C40100A7C40100A7C40100A7C4010010
:10C08000A7C40100E9CB0100A7C40100A7C40100B7
:10C0900001CC0100A7C4010005CC0100A7C4010028
:10C0A000A7C40100A7C40100A7C40100A7C40100E0
:10C0B000A7C40100A7C401000000000000000000A8
:10C0C000A7C40100A7C40100A7C40100A7C40100C0
:10C0D000A7C40100A7C40100A7C40100000000001C
:10C0E0000000000000000000000000000000000050
:10C0F0000000000000000000000000000000000040
:10C10000000000000000000000000000000000002F
:10C11000000000000000000000000000000000001F
:10C40000DFF80CD000F074FA0048004755F0010046
:10C4100038490020401E00BF00BF00BF00BF00BF62
:10C4200000BF00BF00BF00BF00BF00BF00BF00BF14
:10C4300000BF00BF00BF00BF00BF00BF00BF00BF04
:10C4400000BF00BF00BF00BF00BF00BF00BF00BFF4
:10C4500000BF00BF00BF00BF00BF00BF00BF00BFE4
:10C4600000BF00BF00BF00BF00BF00BF00BF00BFD4
:10C4700000BF00BF00BF00BF00BF00BF00BF00BFC4
:10C4800000BF00BF00BFC5D170470000064880470D
:10C4900006480047FEE7FEE7FEE7FEE7FEE7FEE7A9
:10C4A000FEE7FEE7FEE7FEE729CC010001C401003C
:10C4B00040EA01039B0703D009E008C9121F08C026
:10C4C000042AFAD203E011F8013B00F8013B521EA6
:10C4D000F9D27047D2B201E000F8012B491EFBD21D
:10C4E00070470022F6E710B513460A46044619467F
:10C4F000FFF7F0FF204610BD30B50B460146002087
:10C500002022012409E021FA02F59D4205D303FA15
:10C5100002F5491B04FA02F52844151EA2F1010296
:10C52000F1DC30BD2DE9F05F0546002092469B46C8
:10C5300088460646814640241BE028464146474639
:10C54000224600F0F6F953465A46C01A914110D3DC
:10C5500011461846224600F0DDF92D1A67EB010856
:10C560004F4622460120002100F0D4F917EB0009C4
:10C570004E41201EA4F10104DFDC484631462A4624
:10C580004346BDE8F09F2DE9FE4F804681EA030057
:10C59000C00F0C46009021F0004123F00045B8EB9D
:10C5A0000200A94105D24046214690461C460B4652
:10C5B000024623F00040104304D14046214603B018
:10C5C000BDE8F08F270DC7F30A00C3F30A510290AC
:10C5D000401A0190402866DAC3F3130040F4801B30
:10C5E0000098924620B10023D2EB030A63EB0B0BB9
:10C5F00001985946C0F14002504600F08BF90646BA
:10C600000D4650465946019A00F0A3F910EB080078
:10C610006141002487EA115284EAE7731A433BD050
:10C62000009A3AB3019A012A4FEA075210DC001B24
:10C6300061EB02014FF0004202EA0752CDE90042ED
:10C64000001C41F5801132462B4600F0A1F9B6E7F7
:10C65000001B61EB0201001C41F5801300185B41D7
:10C660002018A2F5001747EB030140EAD570B61970
:10C670006D4111E06D084FEA360645EAC0754FEA94
:10C680000752001B61EB0201001C41F580114908B3
:10C690004FEA30000019514132462B4603B0BDE845
:10C6A000F04F00F068B90098012240000023D0EB61
:10C6B000020263EBE073009821464FEAE074B8EBA6
:10C6C000000061EB0401E9E783F000435BE781F0E0
:10C6D000004158E72DE9FE4F81EA030404F00044CD
:10C6E00021F0004100944FF0000B23F0004350EA8A
:10C6F000010402D052EA030404D10020014603B031
:10C70000BDE8F08FC3F30A54C1F30A552C44A4F2D8
:10C71000F3340194A0FB0254C1F3130141F48011DE
:10C72000C3F3130343F4801301FB024400FB034EE5
:10C73000840A970A44EA815447EA8357A4FB0768AE
:10C7400002958D0A05FB07854FEA932C04FB0C54D8
:10C750002705029D4FEA065847EA1637B5EB08054C
:10C760006EEB070C870E920E47EA811742EA83129E
:10C77000A7FB0201B6EB0B0164EB00042B0D43EAAF
:10C780000C335E1844EB1C50DA465146E7FB0201BD
:10C79000C5F313044FEA0B3343EA14534FEA043250
:10C7A000019C43EA0603A4F10C040294009CCDE929
:10C7B00000B400F0EDF8A2E72DE9F04D81EA0304A2
:10C7C00004F0004B21F0004514464FF0000A23F01E
:10C7D000004150EA050220D054EA01021DD0C5F301
:10C7E0000A570246C5F31303C1F31300C1F30A56F7
:10C7F00040F4801543F48013A7EB0608101BD646BF
:10C8000008F2FD3873EB050002D308F1010801E0DE
:10C8100092185B41B8F1000F03DA00200146BDE831
:10C82000F08D00204FF48011064684460EE0171B61
:10C8300073EB050705D3121B63EB050306434CEAB4
:10C84000010C49084FEA300092185B4150EA010799
:10C85000EDD152EA030012D082EA040083EA050116
:10C86000084303D100224FF0004308E0101BAB4106
:10C8700002D20122002302E06FF0010253101AEBF2
:10C8800006004CEB085110EB0A0041EB0B01BDE830
:10C89000F04D00F070B8C1F30A52C1F3130140F239
:10C8A000FF3341F480119A4202DA002001467047BA
:10C8B00040F233439A42A2F2334202DC524200F089
:10C8C00038B800F027B8000030B5002904DB4FF07D
:10C8D0000044404264EB0101002B04DB4FF00044B4
:10C8E000524264EB0303994208BF904230BD0000FE
:10C8F000064C074D06E0E06840F0010394E80700AD
:10C9000098471034AC42F6D3FFF77EFD7005020065
:10C9100090050200202A04DB203A00FA02F10020F0
:10C9200070479140C2F1200320FA03F3194390406D
:10C930007047202A04DB203A21FA02F000217047D8
:10C9400021FA02F3D040C2F1200291400843194677
:10C950007047202A06DBCB17203A41FA02F043EA5F
:10C96000E07306E041FA02F3D040C2F120029140A8
:10C9700008431946704710B5002B08DA401C41F1F6
:10C98000000192185B411A4301D120F0010010BD53
:10C990002DE9F04D92469B4611B1B1FA81F202E0C9
:10C9A000B0FA80F220329046FFF7B4FF04460F46FB
:10C9B00040EA0A0041EA0B0153465A46084303D1B4
:10C9C00020463946BDE8F08D114653EA010015D0E6
:10C9D000C8F140025046FFF7ACFF05460E465046F0
:10C9E00059464246FFF796FF084301D0012000E078
:10C9F0000020054346EAE0762C4337430A984FEA85
:10CA00004453A0EB08004FEAD4240A304FF0000250
:10CA100044EA47544FEAD72502D500200146D1E722
:10CA2000010510196941DDE9084500196941BDE8B2
:10CA3000F04DA0E72DE9FC5F0025DFF83091A84616
:10CA40004FF4807601242F46304602F079FF38B14A
:10CA5000D9F80403204203D0304602F067FF254393
:10CA6000361D64007F1CB6B2082FEDD34FF4BE74A0
:10CA7000204602F065FF38B1204602F057FF3C48DF
:10CA800045F00045D0F800803A4E15F0FF0F13D066
:10CA9000012700242F420BD0374800EB840108689F
:10CAA0000968C0F3042056F82420C1F301419047DF
:10CAB0007F00641C082CEDD3002D54DA4FF0000ADF
:10CAC0004FF0FF3900273D46701910F8501F90F9BC
:10CAD000000021F0C004401C37D0012000FA04FB04
:10CAE0001BEA090F31D088090090204601F0FEFFB3
:10CAF00056F82000019020B100995846032904D02F
:10CB000005E00098032820D158464AEA000A1B494C
:10CB100051F824101BEA080FC1F3014102D0022989
:10CB200002D012E0032910D10098032807D102296E
:10CB300017D00221204602F0EBFE7F1CFFB20198C5
:10CB400018B1DDE90012204690476D1C042DBBD3BF
:10CB5000002F08D006480068404504D08046D146E2
:10CB6000B0E70321E6E7BDE8FC9F0000006000405D
:10CB70001005005064270020106500400007005099
:10CB800000F01F020121914040094FF0E02202EB2A
:10CB90008000C0F88012704700F01F020121914010
:10CBA00040094FF0E02202EB8000C0F8001170470E
:10CBB00000F01F020121914040094FF0E02202EBFA
:10CBC0008000C0F8001270474907090E002803DAF8
:10CBD00000F00F00024A00E0024A81547047000052
:10CBE00014ED00E000E400E0044800210164416429
:10CBF0008164C1640160416003F064B900110140C7
:10CC000003F0FCB8074810B5406830B180470028F1
:10CC100007D0BDE8104000F03FBFBDE8104002F073
:10CC2000D7B810BD4421002070B58A480023021DEA
:10CC30000178101D0124062907D115782D0704D18C
:10CC40000578C5F30315032D02D0062904D00FE0A3
:10CC5000824E814D75670EE015782D0708D1057855
:10CC6000C5F30315032D06D0042D04D0052D02D0E5
:10CC7000062907D00EE07A4D2D687A4EC5F342356D
:10CC8000356002E015782D0704D10578C5F303154A
:10CC9000032D02D0062906D011E0734D2E6826F030
:10CCA00080762E600EE015782D0708D10578C5F343
:10CCB0000315032D06D0042D04D0052D02D006291E
:10CCC00007D00EE0694D2B606B60664D2D1F2B6009
:10CCD00002E015782D0704D10578C5F30315032D5F
:10CCE00002D0062905D00CE05E4A032164321160AF
:10CCF0000AE015782D0704D10578C5F30315032D37
:10CD000002D006290DD06AE0594A05211160584920
:10CD100078310C60564908310B603F21121D1160BB
:10CD200002E0117809075AD10078C0F303100528F2
:10CD300055D150480068504908604E48001D0068B1
:10CD4000091D08604B4808300068091D0860494803
:10CD50000C300068091D0860464810300068091D45
:10CD60000860444814300068091D086041481830C4
:10CD700000684149203108603E481C300068091DA8
:10CD800008603C4820300068091D0860394824309C
:10CD90000068091D0860374828300068091D0860D0
:10CDA00034482C300068091D086032483030006873
:10CDB0003149403108602F4834300068091D08604F
:10CDC0002C4838300068091D08602A483C3000684B
:10CDD000091D0860274840300068091D0860224886
:10CDE0007438016841F470010160BFF34F8FBFF3E5
:10CDF0006F8F4FF01021D1F80002002803DBD1F82B
:10CE00000402002821DA1D4A14601D480468002C21
:10CE1000FCD01524C1F800420568002DFCD0C1F8F3
:10CE2000044201680029FCD0136001680029FCD08D
:10CE3000BFF34F8F0C48F0380168124A01F4E061EB
:10CE400011430160BFF34F8FFEE710490E480860A1
:10CE500070BD0000E00F00F00DF0ADBA00C007405B
:10CE6000440200103C050040FCED00E00C010040D5
:10CE7000105600400404001020C5004004E50140A5
:10CE800000E401400400FA050090D003A82000202F
:10CE90000348007F08B103F0D3B903F04DB9000097
:10CEA000BC2700200FB4054B10B503A9044A029813
:10CEB00000F0C6F810BC5DF814FB000057ED01004F
:10CEC0004021002002E008C8121F08C1002AFAD140
:10CED00070477047002001E001C1121F002AFBD1FA
:10CEE000704700002DE9FF5FDDE90220010DDDF84C
:10CEF00038B0024310D10F9801244CA2012808D069
:10CF0000002100980F9BC0E90021C0E90243BDE861
:10CF1000FF9F6FEA0B01F4E7A1F2FF3144F61050D6
:10CF200041430D140F9801280ED0A5EB0B00401CB7
:10CF30004FF000043E4EDFF8FC90B0F1000AA0462E
:10CF400005DACAF1000717E0CBF10000F0E7074669
:10CF500012E0F80707D02246334640464946FFF71D
:10CF6000B9FB804689462246334610461946FFF7EC
:10CF7000B1FB04460E467F10002FEAD1DDE9020125
:10CF8000BAF1000F42464B4602DAFFF7A3FB01E07D
:10CF9000FFF712FC04460E460022274BFFF794FCD5
:10CFA00003D84FF0FF30014607E00022234B204614
:10CFB0003146FFF7E8FAFFF76EFC102409E0002C79
:10CFC0000ADB0A220023FFF7ADFA019B30321A5523
:10CFD000641E50EA0102F2D1641C019AC4F11103EB
:10CFE00014440F9A012A09D00122084301D15B455C
:10CFF0000FDD4FF0000205F101050DE0084303D1FC
:10D00000A3EB0B056D1E09E000204FF0110B0F90F4
:10D0100088E701DA00226D1E002A83D000980F995C
:10D02000C0E90231C0E9004571E7000030000000AE
:10D03000000024400000F03F0000F0430000E03F0B
:10D040002DE9FF4F95B09B4689460646002512E222
:10D05000252878D10024761CF94A27460121059419
:10D060003378203B01FA03F0104202D00443761CCF
:10D07000F6E730782A2811D06FF02F033078A0F12E
:10D080003002092A16D8059A44F0020402EB820203
:10D0900003EB42021044761C0590EFE759F8042B8D
:10D0A0000592002A03DA504244F40054059044F0FB
:10D0B0000204761C30782E2816D116F8010F44F0A1
:10D0C00004042A280DD06FF02F023078A0F130032D
:10D0D000092B09D807EB870302EB4303C718761C1B
:10D0E000F3E759F8047B761C30786C280FD006DC07
:10D0F0004C2817D068280DD06A2814D104E0742871
:10D1000010D07A280FD10DE044F400140AE044F462
:10D11000801401E044F440147278824202D1761CFB
:10D1200004F58014761C307866280BD013DC582860
:10D1300077D009DC002875D04528F6D04628F4D0F1
:10D1400047281AD19FE118E0632835D0642879D0A8
:10D15000652812D197E1702873D008DC6728F1D0D8
:10D1600069286FD06E280DD06F2806D1B5E07328DE
:10D170002CD0752875D0782874D05A4617999047C6
:10D180006D1C76E1C4F30250022809D003280DD0AB
:10D19000D9F8001004280DD00D6009F1040968E1E8
:10D1A000D9F80010EA17C1E90052F6E7D9F80010E3
:10D1B0000D80F2E70D70F0E719F8041B8DF80010F0
:10D1C00000208DF80100EA46012003E059F804AB85
:10D1D0004FF0FF3061074FF0000102D40DE008F17D
:10D1E00001018846B9420FDA8045F8DB1AF80810C9
:10D1F0000029F4D108E008F1010188468142FADBF8
:10D200001AF808100029F6D105985B46A0EB08072C
:10D2100021463846179A00F09EFA284400EB08058C
:10D2200007E04DE02BE10DE01AF8010B5A46179983
:10D230009047B8F10108F7D25B4621463846179A65
:10D2400014E142E00A220092C4F302524FF0000AB5
:10D25000022A08D059F804CB032A4FEAEC710AD00D
:10D260000DE029E02AE009F1070121F00702F2E8C8
:10D2700002C1914609E00FFA8CFC4FEAEC71042AD6
:10D2800003D14FFA8CFC4FEAEC71002907DA0A4609
:10D290000021DCF1000C61EB02012D2202E02205ED
:10D2A00004D52B228DF80420012203E0E20701D0EF
:10D2B0002022F7E7904653E00A2102E010220DE019
:10D2C00010214FF0000A00910BE010224FF0000AED
:10D2D00044F004040827009203E008224FF0000AFB
:10D2E0000092C4F30252022A05D059F804CB00215F
:10D2F000032A08D009E009F1070121F00702F2E84A
:10D3000002C1914605E01FFA8CFC042A01D10CF001
:10D31000FF0C4FF00008220722D5702827D0009B71
:10D3200083F0100353EA0A0309D15CEA010206D034
:10D3300030228DF804208DF8050002229046009BD3
:10D3400083F0080353EA0A030AD15CEA010201D11F
:10D35000620705D530228DF804204FF001087F1EAA
:10D36000582809D037A003900EA8029013E040225D
:10D370008DF804200122E1E737A0F4E75346604628
:10D38000009AFFF7CFF884460398825C0298A0F1D8
:10D390000100029002705CEA0100EFD1029806A938
:10D3A000A1EB000000F1200A600702D524F48034CC
:10D3B00000E00127574502DDA7EB0A0000E000204E
:10D3C00000EB0A01009005984144A0EB0100059094
:10D3D000E00306D45B462146179A059800F0BBF996
:10D3E0000544002706E001A85A46C05D17999047FA
:10D3F0006D1C7F1C4745F6DBE0030CD55B462146E0
:10D40000179A059800F0A7F9054404E030205A4621
:10D41000179990476D1C0099481E00900029F5DC73
:10D4200008E0029802995A460078491C029117991F
:10D4300090476D1CBAF10001AAF1010AF1DC6BE121
:10D4400009280100303132333435363738396162DA
:10D45000636465660000000030313233343536379E
:10D4600038394142434445460000000000F060F96D
:10D47000054406F10106307800287FF4E9AD19B0C3
:10D480002846BDE8F08F620700D4062709F107029D
:10D4900022F0070CFCE80223E14603F000485FEAB3
:10D4A000080C02D00FF27C2C0DE05FEA045C02D580
:10D4B0000FF2742C07E05FEAC47C02D00FF26C2CF0
:10D4C00001E0AFF2700C4FF0FF3823F00043CDF8CD
:10D4D00050C065280CD006DC452809D046281DD050
:10D4E00047283ED13EE0662818D0672839D139E078
:10D4F0000021112F01DB112000E0781CCDE9000193
:10D5000006A90EA8FFF7EEFCDDE90F010E9A0391C4
:10D510000021009207F1010A04914EE04FF0004013
:10D520000097CDE9011006A90EA8FFF7DBFCDDE9A5
:10D530000F0203920E9B11990022DDF80CA00093BC
:10D54000049219B907F1010100EB010AB7EB0A00D7
:10D5500004D4C0F1FF3007F1010A0490AAEB0700E0
:10D56000019046E0012F00DA01270021112F01DD93
:10D57000112000E03846CDE9000106A90EA8FFF70A
:10D58000B1FCDDE90F010E9A039100210491009294
:10D59000BA4621070CD40399514500DA8A46BAF1FC
:10D5A000010F05DD009AAAF10101515C302908D074
:10D5B000B84202DA10F1040F06DA0121CDE90110B8
:10D5C00017E0AAF10101E9E7002805DC049901440C
:10D5D0000491AAEB000102E0411C514500DD8A469E
:10D5E0000499A0EB010000F1010001904FF0004010
:10D5F0000290200704D40198504501DBCDF8048047
:10D6000000208DF84F0002980DF14F07B0F1004F48
:10D6100025D02B200E9002984FF0020800280CDA3B
:10D62000404202902D200E9007E00A210298FEF75A
:10D6300063FF3031029007F8011DB8F10001A8F135
:10D640000108F2DC02980028EFD1791E0E980870CC
:10D65000307800F0200040F0450007F8020D12A8D5
:10D66000A0EB070000F107081498007800B1012032
:10D6700000EB0A01019801EBE07105984144A0EB31
:10D680000100A0F101000590E00306D45B462146AD
:10D69000179A059800F05FF805441498007820B1B7
:10D6A0005A461799904705F10105E00323D55B46DB
:10D6B0002146179A059800F04EF805441BE004989F
:10D6C000002807DBDDE90301884203DD0098405CA8
:10D6D000179901E0179930205A46904704986D1C1D
:10D6E000401C04900198401E019004D12E205A46FF
:10D6F000179990476D1CBAF10001AAF1010ADEDC0E
:10D7000005E017F8010B5A46179990476D1CB8F1C0
:10D710000001A8F10108F4DC5B462146179A059840
:10D72000A4E600002D0000002B00000020000000F7
:10D730002DE9F041044600251E461746880405D40D
:10D7400006E039462020B04705F10105641EF8D5F2
:10D750002846BDE8F0812DE9F041044600251E462B
:10D760009046C80301D5302700E02027880405D55E
:10D7700006E041463846B04705F10105641EF8D57C
:10D780002846BDE8F0812DE9FC5F00251688074694
:10D790001580406B14468946A8464FF00C0A1123A9
:10D7A0004FF0020B98B101784846032E48D380F819
:10D7B00000B02288521C92B2228083542288521CCC
:10D7C00092B2228009F802102088401C20803A6B17
:10D7D000DAB12088494600F11205B54230D80B5421
:10D7E00020881023401C80B220800B542088401CCD
:10D7F00020800F202388155C401ECD54238840B222
:10D800005B1C23800028F5DA454697F82E0030B1DE
:10D8100033462246494601F021FB050011D197F815
:10D820002D0030B132462146484600F087FD050004
:10D8300007D1B87820B32088C846001DB04202D96D
:10D840005046BDE8FC9F684679DF0028F9D1218861
:10D85000032008F8010020881921401C80B2208094
:10D8600008F800102088401C80B2208000EB0801DE
:10D87000BDF8000002F052FD0146208808442080D7
:10D88000F878B8B1228897F90310D31C4846B34200
:10D89000D6D800F802B022880123521C92B222800E
:10D8A00083542288521C92B2228009F802102088E8
:10D8B000401C20807868B8B1218890F90020CB1CEA
:10D8C0004846B342BCD800F801B021880A23491C5D
:10D8D00089B2218043542188491C89B2218009F8EA
:10D8E00001202088401C2080388950B1CDE90046B5
:10D8F0004B460622022107F1080002F077FD0500E1
:10D900009FD1388A50B1CDE900464B46072203210A
:10D9100007F1100002F06AFD050092D1388B50B17A
:10D92000CDE900464B461522142107F1180002F0FC
:10D930005DFD050085D1386A30B13346224649463F
:10D9400001F032F90500DBD1786A30B13346224666
:10D95000494601F057FC0500D2D197F82C0038B1A8
:10D96000334622464946384602F0ACF90500C7D195
:10D97000387838B1334622464946384601F074FCBF
:10D980000500BDD128465CE710B501220221002028
:10D9900000F0C0FE08B1072810D1072202210120A3
:10D9A00000F0B8FE08B1072808D100210A22084675
:10D9B00000F0B0FE08B1072800D1002010BD000023
:10D9C000064800684FF40021044A8143121D11608B
:10D9D000111D00F40020086070470000040500508D
:10D9E00070B50024064D06E06868012110F8340087
:10D9F00001F0A6FC641C28788442F5D3002070BD99
:10DA00000C210020F8B515460C460646052A01D221
:10DA10000720F8BD01F070FD18B901F043FD0028A2
:10DA2000F7D1114900204E600C70C1E902500F4D32
:10DA300008610DE006EBC4006968009181788DF8FB
:10DA4000011000780A4A694601F0CAFC0028E0D1BA
:10DA50002000A4F10104E4B2ECD1BDE8F840054A8D
:10DA60000021024800F04CB80C210020680502009B
:10DA700079ED010091EC0100BFF34F8F044801687C
:10DA8000044A01F4E06111430160BFF34F8FFEE7E8
:10DA90000CED00E00400FA050EB500210091CDE97F
:10DAA00001106A4644F20100FFF7E6FF0EBD10B513
:10DAB0008268C3689A1A03D001F03AF9002010BDB9
:10DAC000052010BD29B112B1531E134203D0092005
:10DAD00070470E2070470160838000218160C16023
:10DAE0000846704710B58268C3689A1A83889A42BC
:10DAF00003D801F027F9002010BD042010BD00005C
:10DB0000074B9B6823B12AB120B10068037C1BB18D
:10DB10000820704707207047417442610020704719
:10DB2000202100202DE9F0478046994614460F46F3
:10DB300090074FF0000634D11C4D8CB301F0B2FFBA
:10DB40000320C5F81490287004F11800002107EB99
:10DB50004703AC6004EBC102491C16705670977005
:10DB6000506000EBC3000329F4DBEE606E70AE7012
:10DB70001420FFF705F806211420FFF725F81420DC
:10DB8000FFF70AF80A49C1F8008006211120FFF7C3
:10DB90001BF80748001F006828610020BDE8F087D7
:10DBA00001E00720FAE7AE60FBE70000202100203B
:10DBB000081501402DE9F843DFF86C900D46174633
:10DBC000D9F80810044649B344B3052D02D2072002
:10DBD000BDE8F883606908B3607C012820D0002686
:10DBE00002F0D2FBD9F80810804601EBC800694664
:10DBF00002F0E8FBB0B1012101700C4944600968F2
:10DC00000830E2C0D9F8081001EBC8009DF80010F8
:10DC100041701420FEF7CCFF0020D9E70820D7E799
:10DC20002E46DDE70420D3E7202100200415014023
:10DC3000F8B5124E0446B168E1B1DCB16069C8B113
:10DC40000027277402F0A0FB0546B068694600EB88
:10DC5000C50002F0B7FB78B1022101704460B068E2
:10DC60009DF8001000EBC50041701420FEF7A0FFE6
:10DC70003846F8BD0820F8BD0420F8BD202100205A
:10DC800010B5044609488168C2688088511A8142EB
:10DC900006D10121064801F083FC08B1052010BD22
:10DCA0002146BDE810400148FFF701BF442700208E
:10DCB000E120002070B50446234888B01E460D00C0
:10DCC000426035D0A888296882B22048FFF7FAFE62
:10DCD00000282ED1A889A96882B21C481030FFF70D
:10DCE000F1FE002825D1202219496846FEF7E0FB05
:10DCF000A0680690207900B101208DF814008DF8FD
:10DD00001C60607900B10E208DF81500E07802905B
:10DD1000A078039020780190607800900D496846C3
:10DD200001F0F4FB002804D19DF81D0018B104E0B7
:10DD3000072008B070BD01F079FC03480121401CA8
:10DD400001F02EFCF5E70000E02000204427002031
:10DD5000280502009100020010B501460948FFF7AE
:10DD6000C1FE04000CD101F093FD48B906490548F5
:10DD7000FFF79DFE20B90121034801F0FFFC044696
:10DD8000204610BD54270020E02000202DE9F0415E
:10DD9000044600781E4F012505FA00F0386020681F
:10DDA00001F0ABFD0021606801F09EFD19481A4B9F
:10DDB000DFF8648090F81CC01748174E1C3308F138
:10DDC00008086430D4F818C0311D08F10402C3F803
:10DDD00000C0637D94F814C043EA0C030360D4E9E7
:10DDE000000308601360207D01280ED10021A06887
:10DDF00001F07AFD207B85403D60E06801F07DFD0B
:10DE0000D4E902103060C8F80010BDE8F0810000CD
:10DE100008050050BC27002008250040F0B50C463E
:10DE200093B01F210726ADF80010ADF804100027AD
:10DE300050B1C17849070DD56A4602A9FFF7A3FC86
:10DE4000002808D102AD02E00025ADF800706CB1E9
:10DE5000E07810B1304613B0F0BD01AA0AA92046FF
:10DE6000FFF791FC0028F6D10AAA02E00022ADF8E3
:10DE70000470BDF80400C3B2BDF80000C1B228466A
:10DE800072DFE8E770B50D4604991646040040D0ED
:10DE9000F6B3414800224271C0E9033124223146E1
:10DEA0003E48FEF705FB00F0BBF83C493431A1F1D8
:10DEB000100001602031816038215C38FEF711FBD1
:10DEC0003648217838380170A1788170E178C170C6
:10DED00061784170D4E90412C0E90412D4E9021255
:10DEE000C0E90212D4E90612C0E90612616AD1B192
:10DEF00000F1AC0100F1B80241628A60636A1B88DC
:10DF00000B80616A436A898899800021436A07E02F
:10DF1000FFE70E2070BD666AB668765C5654491CF1
:10DF20009E888E42F7D8A16AD9B11C4AAC32A2F1C0
:10DF30000C018A608162A36A9B888B80A16A836AD4
:10DF4000098819800021836A04E0A66AB668765CB5
:10DF50005654491C9E888E42F7D894F82C1080F8AD
:10DF60002C10216A49B10C4914310162226A52888D
:10DF70004A80216A026A09881180616821B10649D4
:10DF8000891D4160616841602946BDE870400348D1
:10DF90003838FFF743BF0000AC2000203C260020AB
:10DFA00010B502881D4C102A18D00021112A1BD050
:10DFB0001B2A18D1007A002815D16079012820D0B9
:10DFC000022824D0032824D004280CD12171E2682F
:10DFD0000846002A07D0BDE810401047817D01297E
:10DFE00001D18088208110BD61708088218988429C
:10DFF000F9D1012006E021690029F4D0BDE81040E4
:10E000000847022000F03CF80028F4D110BD03209E
:10E01000F8E7032020710420F4E70000AC20002082
:10E02000024800218161818381777047AC20002004
:10E03000114810B5007801281BD1104C6078C0B988
:10E04000607910B174DF002814D10B490120607091
:10E0500038390620C870084800213838FFF7DEFE3E
:10E06000002807D1607900F00BF810B1216901B1E7
:10E070008847002010BD00003C260020AC20002076
:10E080002DE9F04F744C87B00026607106A8069603
:10E0900001F0F6FC0127082801D030B903E006A8FA
:10E0A00000F060FE18B9069808B12770C0E0FFF7CD
:10E0B000B7FF6A4DDFF8A0814FF0020A687808F1D7
:10E0C00018084FF0030B10B16079012806D0A8782A
:10E0D00058B16079012801D002281FD1E16819B137
:10E0E000E7700820884700E0E6706079012806D1D3
:10E0F000687840B108F1010001F0A0FC18B1607926
:10E10000022802D00AE084F805A0A87820B108F11E
:10E11000010001F093FC08B984F805B0287B4FF0AA
:10E12000040920B96079032801D184F80590287E7C
:10E1300020B96079042801D166712671E16841B186
:10E140006079032801D0042803D1287808B16078C9
:10E15000C0B1A67018216846FEF7C3F98DF80060BB
:10E1600001968DF808600396607901280ED0022888
:10E1700016D03A4E2436A6F15C0703281DD0042899
:10E180004CD13AE0A77007208847E3E7ADF812606A
:10E19000CDF804808DF80070ADF8106027713FE075
:10E1A000CDF804808DF800702889ADF81200A88899
:10E1B000ADF8100084F804A032E0A88AADF812008F
:10E1C000288AADF810002548243002F076F918B1FD
:10E1D000287808B1607810B184F804B01EE01F48B8
:10E1E0008DF808A0039687F8039000213838FFF7D0
:10E1F00015FE00281DD105202BE0A88BADF81000DE
:10E20000288CADF812001548243002F056F918B1E8
:10E21000287808B1607878B184F80490607918B1F2
:10E22000684673DF002804D1E16809B12079884786
:10E23000002007B0BDE8F08F08488DF808A00396CD
:10E2400087F8039000213838FFF7E8FD0028F0D167
:10E2500006202071E2E70000AC2000203C260020D0
:10E2600070B5054601461C220F48FEF721F90F4CF8
:10E2700000262670286830B1016861604068A0609F
:10E28000201D7ADF02E00948001D7BDF00280AD14B
:10E290004FF6FF7060806670BDE87040044A002150
:10E2A0000448FFF72DBC70BD28270020CC2000209B
:10E2B000290302001405020070B51E4C06880025D3
:10E2C0001B49E289102E15D01B4B112E1CD0122E8B
:10E2D00029D0502E17D130F8061F914213D1418911
:10E2E000022910D1007B10F0010F11D0BDE8704061
:10E2F00000F0A0BC83884B808369CB60C069086153
:10E300004D70002AF2D070BD4FF6FF7048804D70FE
:10E310001868FFF78DFC0028F5D0A1690029F2D01C
:10E32000BDE8704008478268CA60C0680861DDE7E0
:10E33000CC20002028270020140502007CB50546CB
:10E3400008880C460930904201D90C207CBD6846F3
:10E3500071DF0028FAD121880820685420881B2109
:10E36000401C80B2208029542088401C80B220802C
:10E370002844DDF801100160BDF805108180208877
:10E38000801D80B220809DF8001001B10121295428
:10E390002088401C208000207CBD000010B5044671
:10E3A000FFF78AFF2146074800F040F8204601F0B9
:10E3B00005FB2046FFF7F4FD2046BDE8104000F0C5
:10E3C000DFB800007C25002030B5174B0D46040057
:10E3D0000FCB85B08DE80F0023D015B34FF6FF703B
:10E3E000A0822868A0610020A0752146684663DFEE
:10E3F000002814D120788DF812000120ADF810000B
:10E40000A21C04A9A0DF002809D12946204601F05A
:10E4100081FB002803D12946204601F0A9FD05B063
:10E4200030BD0E20FBE700001805020000281ED0BA
:10E4300000291CD00A88102A14D0112A14D0502A7E
:10E4400015D131F8062F038A9A4202D14B89022B4B
:10E450000ED083889A420AD18369002B07D04A895B
:10E460000C311847898801E04FF6FF7181827047AF
:10E47000097B11F0010100D001218175704707B5BA
:10E4800084B068B1828AA2F57F43FF3B0AD0827DC7
:10E4900042B1BDF81820142A06D9072007B000BDE4
:10E4A0000E20FBE70820F9E7002200920192029279
:10E4B00003928289039106A90291ADF800200121FF
:10E4C0008DF80210808A6946A6DFE7E700B5154897
:10E4D00087B00023006805904822134905A801F081
:10E4E00073FC08B1FFF7D8FA6A460121002001F059
:10E4F00055FC08B1FFF7D0FA0C4801F095FB08B1C4
:10E50000FFF7CAFA684601F03FFC08B1FFF7C4FA0A
:10E51000074801F02FFC002801D0FFF7BDFA07B033
:10E5200000BD0000C804020058210020E81F0020A0
:10E530009DE301007CB5114E0C004FF000053060EA
:10E5400015D06946002000F0B1F8002815D101A9C6
:10E55000012000F0ABF800280FD19DF8041009B19C
:10E56000022003E09DF8001001B10B2020707068BC
:10E5700010B9FFF709FA054628467CBDA020002007
:10E5800010B51A4C0188606810290ED011292BD1C2
:10E59000401E606028D1FFF7F7F9002824D02168D9
:10E5A000002921D0BDE810400847D0B90021012240
:10E5B000084600F0AFF808B107280FD10722022162
:10E5C000012000F0A7F808B1072807D10422022192
:10E5D000002000F09FF820B1072802D0216801B187
:10E5E00088476068401C606010BD0000A0200020CB
:10E5F00010B5032000F024FA08B1062800D100204D
:10E6000010BD00002DE9F04707460024244802E031
:10E61000641C042C41D250F82420BA42F8D1042CB6
:10E620003BD21F48DFF87C901F4E0C38A9F114082C
:10E6300041B301290FD002292FD104EB440030440B
:10E640004578002D29D0D8F81010002925D028466B
:10E65000BDE8F047084704EB4401755C0E4471784F
:10E6600061B1D8F804100F4A01EB81014900133A57
:10E670008068FFF79FFA08B988F80170B17809F847
:10E680000410DEE78068FFF7D3FA04EB440131445D
:10E6900019F804008D78A842D3D0BDE8F0870000B7
:10E6A000E40402009C200020D825002004280CD27D
:10E6B000074A1268074B13F8203001209840904316
:10E6C00000D001200870002070470020FAE7000009
:10E6D00010050050E404020010B5042807D00728F4
:10E6E00010D00A2812D1BDE8104001F02FBB084815
:10E6F0001321408876DF07E0002807D0BDE81040EE
:10E70000FFF7CAB9FFF794FC0828F5D110BD000047
:10E710008020002070B50023042810D20D4D00EB9E
:10E720004004012A02D101290CD00022094E00EB3D
:10E730004000304461B1012906D0022906D00723E8
:10E74000184670BD0D30C2B22A55F9E74270F7E79E
:10E750008270F5E7D8250020044A01460020127A8D
:10E76000D20702D0084600F055B870478820002034
:10E7700070B50E462149054600200A61C1E90165D0
:10E78000A9071BD50024012211462046FFF7C2FF2E
:10E79000641C042C02D20028F5D00FE070B9720876
:10E7A00004211748FFF72EF940B9FFF719F928B9E6
:10E7B0001348144A00211438FFF7A2F9E9070AD0D8
:10E7C000114A4FF4F01111600F4B00221B1D1A600B
:10E7D0000D4A1032116000280FD109480B4A002160
:10E7E0001C38FFF78DF9002807D1BDE870400448B8
:10E7F0000121074A1838FFF783B970BD882000202F
:10E80000F404020081EA010008050050B1EE0100A5
:10E81000C1D901002DE9F84F874FDFF818A24FF456
:10E82000E018F968064628EA010800910020796896
:10E830000AF10404251DDFF804C24FF400324FF43E
:10E84000802B01EB810E8146182E16D2DFE806F0F0
:10E850000C17173B4E5F738588918891EDA3A3A396
:10E86000A3A3CDD4DBE4EDED009A4FF4F011914376
:10E870002160C5F8009087F80090BDE8F88FC4F8D3
:10E8800000804846C5F80090DAF8003083F4F013B1
:10E890009B0309D522602860022E02D14FF4E1606B
:10E8A0000AE04FF47A6007E02A602060022E01D16E
:10E8B000C82001E04FF4C8706422B0FBF2F041437D
:10E8C0003E7000225FE0C4F800804846C5F8009022
:10E8D000DAF8003083F4F0139B0304D5226028603B
:10E8E0004FF44870E8E72A602060E1E7C4F8008050
:10E8F0004846C5F80090DAF8003083F4F0139B0323
:10E9000002D522602860CCE72A602060D2E7C4F8F4
:10E9100000804846C5F80090DAF8003083F4F01320
:10E920009B0302D52260286001E02A6020603E70CF
:10E930004FEA410126E0C4F800804846C5F800903F
:10E94000DAF8003083F4F0139B0302D522602860CC
:10E9500001E02A6020603E7014E0C4F800804EE0C0
:10E96000DAF800002BEA0002226000F48020286020
:10E9700008E0DAF800002BEA0001216000F48020B2
:10E98000286071460022DCF80000BDE8F84FFFF770
:10E9900011B921602EE0E046DCF80400FFF748F9E9
:10E9A000D6F1110100D040B1F96801F4F0112160F5
:10E9B000C5F80090C7F80C905FE74FF40022FA60AA
:10E9C00001290BD9C82041436420B1FBF0F17868DC
:10E9D00000224143D8F80400FFF7ECF8F96801F48D
:10E9E000F0112960C4F8009047E74FF4F01121605E
:10E9F000C5F800903E7040E74FF4E01121604946B1
:10EA0000C5F8009006E04FF4D01121604946C5F8E2
:10EA100000905A462A60BCE74FF4C0112160494675
:10EA2000C5F800904FF4C022F4E74FF4F0112960CC
:10EA30004946AEE70405005088200020D8040200B3
:10EA4000F0B50D4D0D4E00214FF0010C55F8212071
:10EA500006EB82031C680CFA01F2024201D0032784
:10EA600000E0002724F4403242EA07421A60491CC1
:10EA70000429EBD30020F0BDE4040200000700509D
:10EA800000780221FFF7BEBD05494FF0FF3208288C
:10EA900041F8202002D3084480F848207047000045
:10EAA00064270020F0B54FF0FF3512B1002308268F
:10EAB00001E008230C260C4C05E000BF54F823703D
:10EAC0007F1C04D05B1CB342F8D32846F0BD261847
:10EAD0005DB286F8305044F82310002AF5D1E118D1
:10EAE00081F84800F1E7000064270020024908444B
:10EAF00090F9300070470000642700202DE9F05F96
:10EB00002648C168F1B3DFF898B00E688146DBF89B
:10EB100000400769C078E11B21F07F45ED1CB0B9CA
:10EB2000DFF880804FF48030C8F84403C8F804034D
:10EB30001120FEF725F81120FEF72EF84FF0010AFC
:10EB4000C8F800A02F20FDF765FC89F803A0B542A6
:10EB500000D23546124BE8193C3320F07F40186054
:10EB6000DBF800105A46091B21F07F41001BC91C2D
:10EB700020F07F4081420FD9106818602F20FDF7E8
:10EB800049FC00E004E0BDE8F05F1120FEF710B89A
:10EB9000BDE8F05F00F086BFBDE8F09F20210020B7
:10EBA00004150140001001402DE9F0411788064688
:10EBB000B81D14460D46984202D90C20BDE8F081DC
:10EBC0003188072206290AD34FF4486C4FF6FF73A9
:10EBD000614501D9994202D17088062801D21046B8
:10EBE000ECE7604501D99842F9D1994203D09842A7
:10EBF00001D08142F3D80520E85520881221401C1D
:10EC000080B2208029542088401C80B22080411985
:10EC1000308801F083FB2188084480B220804119AC
:10EC2000708801F07BFB2188084420800020C5E724
:10EC3000FEF732BFF8B5134800F002F9114D002677
:10EC4000114C0C3D30B16169B9B101208DF8000063
:10EC5000684611E0287820B1616971B18DF80060D3
:10EC6000F6E7687858B1A168084800220068FEF706
:10EC7000A1FF10B1A16901B188472E70F8BD61688C
:10EC8000F2E70000D8200020282700201405020009
:10EC90002DE9F04100260125144C22E0606822692C
:10ECA00000EBC607387805FA00F1114217D08A4305
:10ECB000226100F0EDFB02463878E36805FA00F1C6
:10ECC000194002FA00F3994209D17978012901D05B
:10ECD000012100E0002151407A6802B19047761C82
:10ECE000F6B220788642D9D3BDE8F0810C2100200D
:10ECF0000E4910B54A788C780023A24212D0521CDB
:10ED0000D2B24A70022A00D14B70084A4B781832AE
:10ED100052F8232002600869104420F07F40086107
:10ED2000012010BD0360002010BD00002021002044
:10ED3000826883881A4003689A5C0A708168491C5B
:10ED400081607047C26883881A4003689954C1681B
:10ED5000491CC160704710B50446C0B2FEF7FCFF05
:10ED6000204610BD20B10349496D01600020704765
:10ED700003207047D42800202DE9F041124E0746A9
:10ED80000125BD403068FEF753FF002805D10F4C28
:10ED90002069284203D0A8432061BDE8F0813846AD
:10EDA00000F076FB0028E06801D0284300E0A8438B
:10EDB000E060206928432061A1683068BDE8F04127
:10EDC0000022FEF7F7BE0000680502000C210020BB
:10EDD000F8B51A4C207800282ED0206928B10026DA
:10EDE000E06820B1002526B110E00126F8E70125F2
:10EDF000F9E7684652DF052803D020B1FEF74CFE44
:10EE000004E0012602E021690098884785B96088FE
:10EE1000ADF800006946A06861DF052803D020B185
:10EE2000FEF73AFE04E0012502E0D4E9020188473A
:10EE3000002EDED0002DD6D0F8BD000044210020E9
:10EE4000054940880A88904204D34988884201D8FD
:10EE50000120704700207047D020002030B5148872
:10EE6000E51C9D4201D90C2030BD02250D551388AB
:10EE70001C245B1C9BB21380CC5413885B1C9BB27C
:10EE80001380012807D0022807D0032807D00428C0
:10EE900007D0072030BD002004E0012002E0CD545F
:10EEA00001E00320C8541088401C1080002030BDB1
:10EEB0000348017AC90702D00078FFF7ABBC70475E
:10EEC000882000202DE9F047DFF8B0A0DAF80C0028
:10EED0009AF8004080469AF80460DAF80890DAF868
:10EEE00010703AE009EBC4052A7833E002EB4201E6
:10EEF0006B68521C03EBC101AB78D2B2934200D1D4
:10EF000000220B78022B02D0032B23D11FE0D1F873
:10EF100004C00346014603E0614503D00B46C969BE
:10EF2000C1B1F9E7B1B18B4205D1C06918B9144F2D
:10EF30000126BE600027D1F800C0C969D96149B176
:10EF40000B6863440B6005E00174C06900E00021B8
:10EF50000028F9D169789142C8D12100A4F10104B7
:10EF6000E4B2BFD1CAE903078AF80460404502D081
:10EF70000120BDE8F0870020FBE7000020210020F1
:10EF8000001001402DE9F047054630480026804634
:10EF90000778D0F80C904BE0D8F8080000EBC704D5
:10EFA00040E002D02846ED691EE02078616800EB61
:10EFB0004002401CC0B201EBC2012070A278904216
:10EFC00000D126700A784868012A2DD1027C5ABBEC
:10EFD0008A684260CA6882600A69C2604969816160
:10EFE00098F8041001B146604268D8F81030DFF894
:10EFF00060C0D11A21F07F41614502D2826811447C
:10F0000006E0991A826821F07F418A4202D9511A9A
:10F01000016000E006604660012186600174C661FF
:10F0200000F032FF002DBCD1207861788842BCD13D
:10F030003800A7F10107FFB2AED1D8F80C1049454E
:10F0400002D00120BDE8F0870020FBE7202100204E
:10F05000FFFF7F000023A6B0574A05211846FEF7A0
:10F0600061FD08B1FEF718FD544A04AB07CA07C397
:10F070005348009053494FF48070CDE9010103904B
:10F080000623514A694604A8FEF714FE08B1FEF7AC
:10F0900003FD4E4A40F6CD410320FFF769FB08B15E
:10F0A000FEF7FAFC01A90020FFF744FA08B1FEF7C9
:10F0B000F3FCFFF70BFA9DF80C0045A120F00F00C0
:10F0C000401C20F0F00010308DF80C000B2203A83B
:10F0D0007CDF08B1FEF7E0FC002400941020ADF8BE
:10F0E00000003C200194ADF80200ADF804404FF45C
:10F0F000C870ADF8060068467ADF08B1FEF7CCFCB0
:10F100003648009069463648FFF75EF908B1FEF7C9
:10F11000C3FC382101A8FDF7E4F902208DF80400B2
:10F120008DF8064005208DF8070038210FA8FDF75F
:10F13000D8F92C4801251490ADF84C5024211DA875
:10F14000FDF7CFF940202190B42022908DF8805017
:10F15000254B1DAA0FA9009401A8FEF793FE08B144
:10F16000FEF79AFC1C216846FDF7BBF94FF42030EE
:10F17000CDE900404FF47020029003208DF80C0080
:10F180001A4805901A480690ADF80E408DF81040C8
:10F190006846FFF765F808B1FEF77EFC15A0FDF79D
:10F1A00081FE0320FEF76CFF00E048DF0028FCD062
:10F1B000FEF772FCF9E70000B4230020CC04020043
:10F1C000B4210020B422002035000200D9E601005D
:10F1D0004E6F726469635F554152540071F90100CA
:10F1E0007C2500208420002097F9010021FA0100ED
:10F1F00031EC01000D0A5541525420537461727470
:10F20000210D0A0070B51446828805460E46921CF0
:10F210002088911C0144994201D8FE2A01D90C2072
:10F2200070BD521C32542088FF21401C80B22080C7
:10F2300031542088401C80B220808119288801F038
:10F240006DF82188084480B22080AA8842B1A9685C
:10F2500041B13044FDF72CF92088A988084420806A
:10F26000002070BD072070BDF8B50E460178144629
:10F270000546012901D1687830B12088821C9A4264
:10F280002DD8012902D006E00720F8BD6978014495
:10F29000891C994223D8181A801E87B2ADF80070D5
:10F2A0002188B01C084469467DDF0028EDD128780C
:10F2B000022805D1BDF80010B94201D809210AE0A1
:10F2C0000821012805D16878B84202D8ADF80000BD
:10F2D00001E0ADF80070BDF80000FE2801D90C2057
:10F2E000F8BD2288401CB0542088401C80B2208089
:10F2F00031542088401C2080BDF800100844208034
:10F300000020F8BD4907090E002804DA0A4B00F076
:10F310000F021A4401E0094BC218117000F01F02DD
:10F320000121914042094FF0E02000EB8200C0F83B
:10F330008012C0F80011704714ED00E000E400E016
:10F340002DE9F0410F46804600F082FB0125204E5A
:10F350000028404618D0FFF7C9FB304490F8480019
:10F360008009032802D001280CD005E01948006864
:10F3700005FA08F5284205D003214046BDE8F041D2
:10F3800000F0C6BA0221F8E700F06EFB00281DD09D
:10F390004046FFF7ABFB04460F494FF4807001EB8A
:10F3A000840100EB84000A6880B242F001020A6026
:10F3B00000F0BCFA002F09D04046FFF797FB56F843
:10F3C0002000002802D00548A5400560BDE8F08176
:10F3D00064270020100500501065004004630040C1
:10F3E0002DE9FC41DFF89880044608EB0400002773
:10F3F00090F930001346C0170E46401C01D0082774
:10F400003AE0F27819462046FFF74CFB0546401CCF
:10F4100031D0B07838B11B4800EB8400016821F08E
:10F420000201016007E000217378204600910A463E
:10F43000019100F035FAF078A0B11348317800EB73
:10F4400085000268114B1A4002604FF4F8524FF4E5
:10F45000403302EA042203EA01410A4301680A43F5
:10F46000026009E008EB0500327810F8481F41EA15
:10F470008211017000E004273846BDE8FC810000DD
:10F48000642700200007005010650040FFE0FCFFEB
:10F4900003490968C14011F0010000D00120704704
:10F4A0001005005070B5124D95F8540008B10820B1
:10F4B00070BD0020411E2A18401CC0B282F83010D6
:10F4C0002028F8D300242046FFF7DEFA641CE4B2BB
:10F4D0000C2CF8D306210846FFF714FF05494FF01E
:10F4E00000400860012085F85400002070BD000035
:10F4F0006427002004630040034890F8540000286B
:10F5000000D0012070470000642700202DE9F04161
:10F510001D4D06460F46E87E10B10820BDE8F0817B
:10F5200006B91A4E707F28773046FEF72FFC6F60C1
:10F530003069286016480024B7B1317F2A7F4AB16C
:10F5400000F588700460046144614463114AC0F8A6
:10F55000F42106E0C0F81C41C0F844410E4AC0F84E
:10F5600004230220FFF7CEFE297F0C4809B10821B1
:10F5700000E004210160EC752C76AC750120E87682
:10F58000AC760020CAE70000BC2700204805020036
:10F59000002000401003020080000200002500400F
:10F5A0002DE9F0411F4B1C7F3CB14FF40052B2EBF0
:10F5B000104F02D01020BDE8F081D3F804C0002223
:10F5C000194D4FF404764FF40177BCF1000F05D0CC
:10F5D00014B1C5F8086301E0C5F8087393F817E0A3
:10F5E000BEF1000F10D01A7E52B1BCF1000F05D051
:10F5F00014B1C5F8046301E0C5F804731120DAE71B
:10F6000018610122197604E0D9750025D8605D766D
:10F610001D761CB1BDE8F04100F066B8BDE8F041D0
:10F6200000F014B8BC2700200020004010B5064CA4
:10F63000207F002806D1A07E002803D100F0E8FA40
:10F640000120A07610BD0000BC2700202DE9F05F4E
:10F65000234DA87E104301D100F0DAFA214C6868EE
:10F6600030B14FF40170C4F804030020BDE8F09FEE
:10F670004FF000094FF4A27AC4F844914FF4927B02
:10F68000A8465946204600F063F905464FF48471B8
:10F69000204600F05DF907465146204600F058F933
:10F6A000064647EA06012943EBD055EA060007D192
:10F6B00000F016FA98F8171098F819008142E0D86F
:10F6C00088F817900DB10320D0E70EB10F20CDE7D9
:10F6D00098F81A10012009B12060C6E76060C4E7FD
:10F6E000BC270020002000402DE9F05F204C0026C0
:10F6F0004FF48873C4F810614FF4A275C4F84461E4
:10F700001C4F3860381D01608AB1D4F8000240F007
:10F710002000C4F80002DFF86080D8F8040048B187
:10F720004FF40470C4F804030020BDE8F09F0120EA
:10F730002060F0E79A46A9464FF4927B5146204656
:10F7400000F011F905464946204600F00CF907463D
:10F750005946204600F007F93D430543EED088F8AE
:10F76000176008B10320E0E7002FDDD00F20DCE7B1
:10F770000020004034250040BC2700202DE9F04740
:10F78000204C0246207F38B14FF40050B0EB124FAE
:10F7900002D01020BDE8F08700F07AF808B11120FF
:10F7A000F8E7A1750023A260A382207F28B3164D3D
:10F7B00000264FF490709846C5F820314FF4AC7392
:10F7C000C5F85881114F3A603A1D11600121A960B6
:10F7D000616881B9824699465146284600F0C3F8CF
:10F7E00007464946284600F0BEF80743F4D000B16A
:10F7F0000F2684F816803046CCE7BDE8F04700F0CD
:10F8000007B80000BC27002000200040442500402D
:10F810002DE9F05F1C4F00254FF48E7A2E46C7F875
:10F820001C514FF00108C7F8088000F08DFB174C01
:10F83000B815616879B123E05F465146484600F04B
:10F8400087F810B9A08AB842F7D1A08AB84204D08C
:10F8500000F07AFB01E08346B946A08AA17D884288
:10F86000EAD3A08A584501D10F2508E04F465146FA
:10F87000384600F06DF80028F9D0C7F80C80A6755E
:10F880002846BDE8F09F000000200040BC27002073
:10F890000248807D002800D001207047BC2700204E
:10F8A00030B541EA4201DDE9034541EA8301044AFA
:10F8B00041EA042141EA054142F8201030BD000030
:10F8C0000007005030B541EA4201DDE9034541EA55
:10F8D0008301044A41EA042141EA054142F820102B
:10F8E00030BD0000000700501CB500220B460092FE
:10F8F00011460192FFF7E6FF1CBD1CB500210091E7
:10F900000B46012201911146FFF7DCFF1CBD0000F0
:10F91000054A02EB8000026822F44032026002686D
:10F9200042EA01410160704700070050034908B5F1
:10F930000844002101600068009008BD006000409C
:10F9400002494058012800D0002070470060004064
:10F950004058002800D001207047D0F80403084028
:10F9600000D0012070474058002800D00120704787
:10F9700070B516460D46002405E0285DFEF7ECF94B
:10F980000028FAD1641CB442F7D30A20FEF7E4F948
:10F990000028FAD170BD10B550B103280CD1022057
:10F9A000FEF7DAFE002807D0BDE81040FEF774B875
:10F9B000BDE8104000F0CAB910BD000070B5018864
:10F9C000164D0446102911D0112917D028461329A5
:10F9D00040881DD052291AD100231A461946A9DFA2
:10F9E000002814D0BDE87040FEF756B80720FEF797
:10F9F000B3FE08B1FEF750F8A08807E00020FEF73C
:10FA0000ABFE08B1FEF748F84FF6FF70688070BD96
:10FA100000231A4685217FDFE2E7000080200020D6
:10FA20000078002807D104483B21408876DF002871
:10FA300001D0FEF731B87047802000200021425CE1
:10FA40000AB101207047491C0629F8D300207047ED
:10FA50000449084490F93000082801DB0120704770
:10FA600000207047642700200449084490F93000C2
:10FA7000082801D201207047002070476427002029
:10FA800006490979490701D40820704720B1044983
:10FA900049780160002070470E207047E820002060
:10FAA000DC27002070B501260A487104002501609A
:10FAB000094C4810C4F84803C4F8080366602F20B6
:10FAC000FCF7A8FCA660054C2F202561FCF7A2FCE2
:10FAD000E57070BD80E100E00010014020210020B1
:10FAE000094810B50949C47D0023094AC1F8083105
:10FAF0003CB11168437EC268D154417E491C4176B5
:10FB000010BD106810BD0000BC2700200020004080
:10FB10001825004030B58FB00024054607949DF8A5
:10FB20001C001C2120F00F00401C20F0F0001030C1
:10FB30008DF81C009DF81D0020F00F00401C20F0E7
:10FB4000F00010308DF81D009DF81E0020F006001A
:10FB5000801C8DF81E006846FCF7C3FC9DF8000071
:10FB6000019440F010008DF8000007A8CDE9044092
:10FB70000394069428788DF83A000320ADF83800F5
:10FB80000D949DF83400142120F00F00401C20F04B
:10FB9000F00010308DF834009DF8350020F00F0093
:10FBA000401C20F0F00010308DF835009DF8360034
:10FBB00020F00600801C20F0180040F001008DF8B5
:10FBC000360008A8FCF78DFC0EA808900DA8099037
:10FBD0000120ADF828001420ADF82A40ADF82C0023
:10FBE000688805F10C0308AA6946A2DF0FB030BD92
:10FBF0001FB501228DF8080004488DF800200191FE
:10FC0000D0E90012684690471FBD0000BC270020C5
:10FC100004480021C0F82411C0F808110121016036
:10FC2000704700000020004008B502490020009104
:10FC300008BD00008020002010B50121202803DA33
:10FC40001C4A8140114004E0402803DAA0F1200260
:10FC5000914031B1002807DA174A00F00F01114432
:10FC600004E042F2010010BD144A811809784909E4
:10FC7000082914D299B1012911D004290FD00529DE
:10FC80000DD00F498C6800F01F0301229A404009F3
:10FC900044B151F82030134341F8203008E042F2DB
:10FCA000020010BD4FF0E02101EB8000C0F8002100
:10FCB000002010BDFC06FFBC14ED00E000E400E0F5
:10FCC0002C2900202DE9F0410746806A1446884619
:10FCD000C8B3002531E000BFB96A05EB450001EB70
:10FCE0008006B088801CFE2802D90C20BDE8F08177
:10FCF0002288401C08F8020020881622401C80B28E
:10FD0000208008F800202088401C80B2208000EB72
:10FD10000801308800F002FB2188084480B220806E
:10FD2000B28842B1B16871B14044FCF7C1FB208890
:10FD3000B188084420806D1CEDB297F82C00A842D1
:10FD4000CAD80020D2E7FFE70720CFE710B5002090
:10FD5000FEF702FD08B1FDF79FFEFEF749FC08B172
:10FD6000FDF79AFE3CDF002803D0BDE81040FDF708
:10FD700093BE10BD18B10349C860002070470E2023
:10FD800070470000442100201CB5034901910091F7
:10FD9000694660DF1CBD00008020002070B50E4663
:10FDA0000546144614211046FCF79BFB01202080D9
:10FDB0000021216121732672657205B1A0720020B5
:10FDC00070BDFDF759BE000030B409B18C0702D0F8
:10FDD000072030BC7047074C0125A16062800649AE
:10FDE000636010DF0028F4D1257030BC1620FFF7C7
:10FDF00023BF000044210020C3FD01002DE9F84F7E
:10FE0000204C00256846D4E903B6FEF771FF804612
:10FE1000FFF758F80746A946B8F1000F25D0002390
:10FE2000009ACC46E06819E007680146974202D97B
:10FE3000BA1A026014E0C1F800C0D1F80C80D21BDD
:10FE4000C8693B448A46B8F1000F07D0F71827F07D
:10FE50007F47C1E90178CAF81C500D460028E3D15C
:10FE6000E0602846FFF78EF804E02846FFF78AF89E
:10FE700000B917B15846FEF741FE84F80490BDE87A
:10FE8000F88F0000202100200D4B10B5D96831B14A
:10FE900002680C68A24204D8A21A0A60C161D86044
:10FEA00010BD0B4603E00B46C969121B21B10C685B
:10FEB0009442F8D3A41A0C600260C161D86110BDED
:10FEC000202100202DE9F0411D4DEC68002C35D09B
:10FED0001C48002700682969B846401A20F07F4670
:10FEE0002068B04215D82246361A0744E469107CCF
:10FEF00068B182F810806B6933B1D2E90501984787
:10FF000028B1FDF7C9FD02E0D2E905108847002CB1
:10FF1000E6D16978A878814206D1401CC0B2A870A9
:10FF2000022801D185F802800548A978183040F8E8
:10FF30002170BDE8F0411420FCF73ABEBDE8F08125
:10FF400020210020041501400648002101600648D8
:10FF5000828A8168895C828A521C8282034801609D
:10FF6000704700001C210040BC2700201C250040D9
:10FF700030B58FB005461C216846FCF7B2FA002464
:10FF80009DF80000019440F00C008DF800000394EF
:10FF900004940594069428788DF836000220ADF874
:10FFA00034000C949DF83000142120F00F00401C08
:10FFB00020F0F00010308DF830009DF8310020F076
:10FFC0000F00401C20F0F00010308DF831009DF83B
:10FFD000320020F00600801C20F0180040F00100E4
:10FFE0008DF8320007A8FCF77CFA0DA807900CA842
:10FFF00008900120ADF824001420ADF82640ADF89B
:020000040002F8
:10000000280068882B1D07AA6946A2DF0FB030BD03
:100010001FB500218DF8080005488DF80010826892
:1000200001928175D0E90012684690471FBD00001B
:10003000BC27002070B5017841B1012901D0022907
:1000400021D14068BDE87040FDF726BD0F4C0E4D34
:1000500020782844FDF714FE2078401CC2B2A8186E
:10006000227010F8010C0A2801D0142A0BD306497B
:1000700001F57770FEF703FA082802D008B1FDF702
:100080000BFD0020207070BDA021002080200020EA
:100090007CB50178264D012909D002292CD00029F0
:1000A00029D129462348FDF702FD80B334E040689A
:1000B000017820481038FDF715FD1E4C103C20B18A
:1000C00001218DF80010019007E0A068E168081A8E
:1000D000012805D100208DF800006968684688472E
:1000E000A068E168081AA188884204D81048012154
:1000F000401CFFF755FA7CBD02218DF80010C06846
:1001000001900B480121401CFFF74AFA0CE0FFE781
:1001100001210748FFF732FB06488168C068401A92
:10012000E9D103208DF800006968684688477CBDE6
:10013000E0200020542700202DE9FF413D4D4FF4E1
:1001400000712846FFF709FC01273B4C4FF401786A
:100150000026F8B14FF492712846FFF7F9FBC8B1B9
:10016000C5F82461C5F80883A07E00B96F6002203D
:100170008DF800003148016801600391E07D8DF841
:100180000800E0680190E6752676D4E9001268461A
:10019000904724E004212846FFF7DFFBF8B14FF435
:1001A00084712846FFF7D4FBC8B1FFF799FCE07DC6
:1001B000617E884213D1227E3AB1607EE168E275A9
:1001C0002269E2602676667607E0A07E00B96F605D
:1001D000C5F80883E675607EE168FFF709FD4FF416
:1001E0008E712846FFF7B4FB58B1A18AA07D8142E9
:1001F00002D2FFF7A9FE04E0C5F81C6108B1FFF7C1
:1002000007FF4FF4A2712846FFF7A2FB00280FD08A
:10021000C5F84461A07E00B12F60E07D002807D0C2
:10022000E675607EE16804B0BDE8F041FFF7E0BC30
:10023000BDE8FF8100200040BC2700208024004052
:100240002DE9FF41324D4FF492712846FFF78BFBA9
:10025000304F314C0026A8B1C5F8246102208DF83A
:1002600000002C48BC3801680160039138688DF8A3
:100270000800E0680190E6752676D4E90012684629
:1002800090471EE04FF488712846FFF76CFBC0B121
:10029000C5F810613868E17DC0B2814211D1227E7B
:1002A0005AB1E168D5F8003223F02003C5F80032D6
:1002B000E2752269E260267601E0E675E168FFF703
:1002C00097FC4FF4A2712846FFF74DFB48B1C5F8E3
:1002D0004461E07D28B1E6753868E168C0B2FFF797
:1002E00087FC4FF490712846FFF73DFB00280DD0A6
:1002F000C5F82061A07D002808D0064810300068AD
:1003000004B0C0B2BDE8F041FFF782BEBDE8FF8196
:10031000002000403C250040BC2700200870000A57
:10032000487002207047000038B515494888A0F58C
:100330007F42FF3A23D04A78124C521CD2B24A7004
:10034000237B93420AD3091D75DF002817D0A169CA
:10035000002914D001B0BDE83040084700254D7099
:10036000217C29B13B2176DF10B1A16901B1884719
:100370006169002903D08DF800506846884738BD70
:10038000CC20002028270020EFF30580C005C00DF9
:100390000ED0103840B2002803DA00F00F000749F1
:1003A00000E00749405C4009022803D0062803D03A
:1003B00002207047002070470120704714ED00E0D4
:1003C00000E400E042788378521CD2B2934200D11C
:1003D00000220378934201D1002070470A704168DF
:1003E000407800EB400001EBC00070472DE9FC4174
:1003F0001646DDE90854CDE900541F468046022226
:1004000000F00CF8002807D1CDE900543B4610223B
:100410003146404600F002F8BDE8FC812DE9FC5F62
:100420000026DDE90C4B994692468E468046278889
:10043000354630E0D8F80400002200EB850069461C
:100440000068019001A865DF002830D19DF8000008
:1004500050451FD10EB1002100E00221228808443E
:100460001118594522D846B9521C90B2208009F87B
:1004700000E02088401C20800126218801A801EB93
:100480000902694665DF002811D120889DF8001017
:10049000084420806D1CB8F80000A842CADC56B1A0
:1004A0002088C01B401E80B2FF2802D90C20BDE866
:1004B000FC9F09F807000020F9E7017911B9007BDA
:1004C000002800D00120704701000007080605073A
:1004D0000100000000E0D70198250020B825002089
:1004E000E42500200D0000000E0000000F000000B9
:1004F000100000000D00030005E601000E000300DF
:1005000005E601000F00030005E6010010000300EE
:1005100005E60100082700209ECADC240EE5A9E0BC
:1005200093F3A3B50000406E060000000800000031
:1005300007000000050000000000000000000000AF
:100540000000D601060000000600000008000000C0
:10055000070000000500000000000000000000008F
:100560000000D60106000000B428002003000000AF
:100570009005020080200020D8000000C4CE0100B9
:100580006806020058210020E0270000D4CE0100B8
:100590000000FFFF0100020000000000000000005A
:1005A000000000000000000000000000000000004B
:1005B00000000000000000000090D00300000000D8
:1005C00000000000FFFF000000000000000000002D
:1005D000000000000000000000000000000000001B
:1005E000000000000000000000000000000000000B
:1005F00000000000000000000000000000000000FB
:1006000000000000000000000000000000000000EA
:1006100000000000000000000000000000000000DA
:1006200000000000000000000000000000000000CA
:1006300000000000000000000000000000000000BA
:1006400000000000000000000000000000000000AA
:10065000000000000000000000000000000000009A
:08066000000000000000000092
:040000050001C40131
:00000001FF
