:020000040001F9
:10C000006873002081C5010089C501008BC501004E
:10C010008DC501008FC5010091C501000000000021
:10C0200000000000000000000000000093C50100B7
:10C0300095C501000000000097C5010099C50100E9
:10C040009BC501009BC5010019CD010065CA010017
:10C0500075CA01009BC5010041C601009BC50100D6
:10C060009BC501009BC501009BC501009BC501004C
:10C070009BC501009BC501009BC501009BC501003C
:10C080009BC5010089C701009BC501009BC501003C
:10C0900085CA01009BC5010089CA01009BC501003A
:10C0A0009BC501009BC501009BC501009BC501000C
:10C0B0009BC501009BC501000000000000000000BE
:10C0C0009BC501009BC501009BC501009BC50100EC
:10C0D0009BC501009BC501009BC50100000000003D
:10C0E0000000000000000000000000000000000050
:10C0F0000000000000000000000000000000000040
:10C10000000000000000000000000000000000002F
:10C11000000000000000000000000000000000001F
:10C40000DFF810D000F00AF9004800473DEE0100C7
:10C41000AFF3008068730020401E00BF00BF00BF64
:10C4200000BF00BF00BF00BF00BF00BF00BF00BF14
:10C4300000BF00BF00BF00BF00BF00BF00BF00BF04
:10C4400000BF00BF00BF00BF00BF00BF00BF00BFF4
:10C4500000BF00BF00BF00BF00BF00BF00BF00BFE4
:10C4600000BF00BF00BF00BF00BF00BF00BF00BFD4
:10C4700000BF00BF00BF00BF00BF00BF00BF00BFC4
:10C4800000BF00BF00BF00BF00BFC5D170470000A4
:10C49000401E00BF00BF00BF00BF00BF00BF00BF05
:10C4A00000BF00BF00BF00BF00BF00BF00BF00BF94
:10C4B00000BF00BF00BF00BF00BF00BF00BF00BF84
:10C4C00000BF00BF00BF00BF00BF00BF00BF00BF74
:10C4D00000BF00BF00BF00BF00BF00BF00BF00BF64
:10C4E00000BF00BF00BF00BF00BF00BF00BF00BF54
:10C4F00000BF00BF00BF00BF00BF00BF00BF00BF44
:10C5000000BFC5D170470000401E00BF00BF00BF84
:10C5100000BF00BF00BF00BF00BF00BF00BF00BF23
:10C5200000BF00BF00BF00BF00BF00BF00BF00BF13
:10C5300000BF00BF00BF00BF00BF00BF00BF00BF03
:10C5400000BF00BF00BF00BF00BF00BF00BF00BFF3
:10C5500000BF00BF00BF00BF00BF00BF00BF00BFE3
:10C5600000BF00BF00BF00BF00BF00BF00BF00BFD3
:10C5700000BF00BF00BF00BF00BFC5D170470000B3
:10C580000648804706480047FEE7FEE7FEE7FEE76D
:10C59000FEE7FEE7FEE7FEE7FEE7FEE7ADCA0100C5
:10C5A00001C4010010B5431A934209D283188818B8
:10C5B00003E010F8011D03F8011D521EF9D210BD51
:10C5C00040EA01039B0703D009E008C9121F08C015
:10C5D000042AFAD203E011F8013B00F8013B521E95
:10C5E000F9D210BDD2B201E000F8012B491EFBD2F6
:10C5F00070470022F6E710B513460A46044619466E
:10C60000FFF7F0FF204610BD034611F8012B00F89C
:10C61000012B002AF9D1184670470000064C074D3F
:10C6200006E0E06840F0010394E807009847103402
:10C63000AC42F6D3FFF7E8FE2C0702004C070200DD
:10C640002DE9FC5F0025DFF83491A8464FF4807691
:10C6500001242F46304602F0BFFE38B1D9F804035A
:10C66000204203D0304602F0ADFE2543361D640063
:10C670007F1CB6B2082FEDD34FF4BE74204602F0F3
:10C68000ABFE38B1204602F09DFE3D4845F0004526
:10C69000D0F800803B4E15F0FF0F14D00127002486
:10C6A0002F420CD009EB8401D1F81005D1F81015F8
:10C6B000C0F3042056F82420C1F3014190477F00C5
:10C6C000641C082CECD3002D56DA00200190401E8B
:10C6D0004CE0701910F8501F90F9000021F0C004D0
:10C6E000401C38D0012000FA04FA1AEA090F32D0AF
:10C6F0004FEA911B204601F0EFFE56F82000009013
:10C7000010B9BBF1030F26D15146BBF1030F02D183
:10C71000019808430190A00000F1A040D0F8000764
:10C720001AEA080FC0F3014002D0022802D012E03A
:10C73000032810D1BBF1030F07D102281AD0022120
:10C74000204602F029FE7F1CFFB2009818B1009A23
:10C750005946204690476D1C042DBAD3002F0BD0AC
:10C7600007480068404507D0804601980027814669
:10C770003D46AEE70321E3E7BDE8FC9F00600040D3
:10C78000100500504824002007480021C0F840113F
:10C79000C0F84411C0F84811C0F84C11C0F800119D
:10C7A000C0F8041103F054B9001001402DE9F0471E
:10C7B000114F0446DDF8209038781D46164688460D
:10C7C00008B900F0B3FA7869A04211D90A4904EB1C
:10C7D000440001EBC00134B1C1F84880C1E91365E0
:10C7E0000020886548650020C1F85C90BDE8F087AE
:10C7F0004FF0FF30FAE70000F03200202DE9F0475B
:10C80000114F0446DDF8209038781D4616468846BC
:10C8100008B900F08BFA3869A04211D90A4904EB33
:10C82000440001EBC00134B1C1F81880C1E90765CB
:10C830000020886248620020C1F82C90BDE8F08793
:10C840004FF0FF30FAE70000F032002070B5074BE0
:10C850000646144618780D4608B900F067FA2246D5
:10C8600029463046BDE8704000F002B8F0320020A2
:10C8700070B50E46144900EB400001EBC0051446AC
:10C88000E86A183520B101280FD0022805D113E03D
:10C89000284600F07FFAA04201D2002411E022468F
:10C8A0003146284600F09CFB0BE0284600F072FA67
:10C8B000A042F4D20446F2E73146284600F063FB7A
:10C8C0000446204670BD0000F03200202DE9F04102
:10C8D00098B0064607A8029040200025CDE9030540
:10C8E000CDE9055690460C4614F8011B002973D07B
:10C8F000252908D002A800F027FB05980028F3DAC4
:10C9000018B0BDE8F08100200122217823291ED033
:10C910002B2919D02D2902D0302908D102E040F06E
:10C92000010001E040F00200641C002AEDD1002269
:10C930002178A1F130030A2B0CD202EB820201EB29
:10C940004202303A641CF3E740F00400ECE740F0A8
:10C950000800E9E70023CFB22E2F0BD114F8011FF6
:10C96000A1F130070A2F05D203EB830301EB430348
:10C97000303BF3E76C290DD068290BD0702954D0D7
:10C980000BDC252916D0582931D063290CD0642915
:10C9900013D114E014F8011BECE7732934D0752986
:10C9A0001BD0782909D122E0D8F80000011DC8F871
:10C9B0000010017802A800F0C7FA641C9DE7D8F8BF
:10C9C00000100F1DC8F800700968CDE900200A2288
:10C9D00002A800F0EBF9F0E733E0D8F800100F1DE3
:10C9E000C8F800700968CDE900200A2208E0D8F8EC
:10C9F00000100F1DC8F800700968CDE90020102252
:10CA000002A800F037FAD8E7D8F80000011DC8F8EE
:10CA10000010076817F8011B0029CED002A800F00B
:10CA200093FA05980028F5DAC7E7D8F80000011D49
:10CA3000C8F8001001680820CDE90005034610225F
:10CA4000DEE7059800287FF75BAF049820B1024627
:10CA500007A93046FFF7FAFEDDE904100844059007
:10CA60004EE700000149024802F05AB81C2A002093
:10CA70000030004002494FF0402002F051B8000061
:10CA8000442A002002F080BF074810B5406830B14A
:10CA90008047002807D0BDE8104000F019BCBDE871
:10CAA000104002F005B810BD2420002070B58D485C
:10CAB0000023021D0178101D0124062907D11578D5
:10CAC0002D0704D10578C5F30315032D02D00629DF
:10CAD00004D00FE0854E844D75670EE015782D0764
:10CAE00008D10578C5F30315032D06D0042D04D015
:10CAF000052D02D0062909D010E04FF08055D5F859
:10CB000044527B4EC5F34235356002E015782D075F
:10CB100004D10578C5F30315032D02D0062906D0EC
:10CB200011E0744D2E6826F080762E600EE01578A8
:10CB30002D0708D10578C5F30315032D06D0042D64
:10CB400004D0052D02D006290AD011E04FF080450F
:10CB5000C5F80C31C5F81031654D2D1F2B6002E072
:10CB600015782D0704D10578C5F30315032D02D0E0
:10CB7000062905D00CE05E4A0321643211600AE008
:10CB800015782D0704D10578C5F30315032D02D0C0
:10CB900006290DD06AE0584A0521116056497831BE
:10CBA0000C60554908310B603F21121D116002E0F5
:10CBB000117809075AD10078C0F30310052855D120
:10CBC0004E4800684E4908604C48001D0068091D29
:10CBD00008604A4808300068091D086047480C3062
:10CBE0000068091D0860454810300068091D08608C
:10CBF000424814300068091D086040481830006839
:10CC00003F49203108603D481C300068091D08601C
:10CC10003A4820300068091D086038482430006810
:10CC2000091D0860354828300068091D0860334830
:10CC30002C300068091D08603048303000683049E9
:10CC4000403108602D4834300068091D08602B48C9
:10CC500038300068091D086028483C300068091D0C
:10CC60000860264840300068091D08602148743873
:10CC7000016841F470010160BFF34F8FBFF36F8F04
:10CC80004FF01021D1F80002002803DBD1F8040294
:10CC9000002822DA1B4A14601B480468002CFCD0D0
:10CCA0001524C1F800420568002DFCD0C1F80442EB
:10CCB00001680029FCD0136001680029FCD0BFF393
:10CCC0004F8F0C48F0380168104A01F4E0611143BD
:10CCD0000160BFF34F8F00BFFDE70E490C480860AD
:10CCE00070BD0000E00F00F00DF0ADBA00C00740CD
:10CCF0003C050040FCED00E010560040040400102C
:10CD000020C5004004E5014000E401400400FA05AC
:10CD10000090D003382000200348007F08B103F0C2
:10CD20001DBA03F097B90000A024002010B5124CE2
:10CD300002202061606111A0A061A4F58260E06121
:10CD40004FF4806020620020A06260620BA1A164A9
:10CD5000E062A4F11001E16410212165A065606525
:10CD6000E06509A1E01DFFF74FFC08A12046FFF791
:10CD70004BFC2020A07110BDF03200205465726D74
:10CD8000696E616C000000005254540053454747DF
:10CD9000455200000269C1688A4203D88068401A7F
:10CDA000104400E0501A401E704700002DE9FC5F5F
:10CDB0000E008146DDE90C47C6F100009846934617
:10CDC000824600D40846012503E000BF90FBFBF03B
:10CDD0006D1C5845FADAA84500D9454624B1002E05
:10CDE00001DB780700D5641EB80702D5B8F1000F43
:10CDF0000FD0F8070DD164B1A5420AD220214846D0
:10CE0000641E00F0A1F8D9F80C000028F3DABDE8A0
:10CE1000FC9FD9F80C000028F9DB002E02DA5646F8
:10CE20002D2102E0780707D52B21484600F08CF829
:10CE3000D9F80C000028EADB07F0030002280FD124
:10CE4000B8F1000F0CD15CB1A54209D2302148469F
:10CE5000641E00F079F8D9F80C000028F3DAD6E760
:10CE6000CDE9004743465A463146484600F002F8AD
:10CE7000CDE700002DE9F84F8246DDE90A4B012697
:10CE8000984691460D460846374602E0B0FBF9F059
:10CE90007F1C4845FAD2B84500D947465FEACB70B7
:10CEA00017D1B4B15FEA8B7002D5B8F1000F02D090
:10CEB000202000900BE03020FBE75046641E0099D4
:10CEC00000F042F8DAF80C00002838DB0CB1A74279
:10CED000F3D3DAF80C00002831DB00BFB8F1010F02
:10CEE00002D9A8F1010803E0B5FBF6F0484502D3EA
:10CEF00006FB09F6F2E7DFF84C8000BFB5FBF6F061
:10CF000000FB165518F80010504600F01DF8DAF82E
:10CF10000C00002803DBB6FBF9F6002EEED15FEA29
:10CF2000CB700CD0002C0AD0A74208D2202150464A
:10CF3000641E00F009F8DAF80C000028F2DABDE807
:10CF4000F88F00001C07020010B50446D4E9013038
:10CF5000421C934205D323681954A260E068401C28
:10CF6000E060D4E90102824209D121682069FFF71B
:10CF70006DFCA168884203D04FF0FF30E06010BD27
:10CF80000020A06010BD2DE9F047C468174689460F
:10CF900006464FF000083069A04201D9051B02E0A7
:10CFA000B168201A0D1AB0686D1E001BA84200D887
:10CFB0000546BD4200D33D4670682A462044494696
:10CFC000FFF7F0FAB0687F1B2C44A844A944A042A4
:10CFD00000D10024F460002FDDD14046BDE8F08789
:10CFE0002DE9F041C6680446174688468068851BCF
:10CFF0006068BD4206D93044FFF7D4FAF019E0600A
:10D00000BDE8F0812A463044FFF7CCFA7E1B08EBDE
:10D01000050132466068FFF7C5FAE660F0E70028D0
:10D0200009DB00F01F02012191404009800000F15E
:10D03000E020C0F880127047002809DB00F01F02D2
:10D04000012191404009800000F1E020C0F800116A
:10D050007047002809DB00F01F02012191404009C0
:10D06000800000F1E020C0F8001270474907090E67
:10D07000002804DB00F1E02080F80014704700F085
:10D080000F0000F1E02080F8141D704702E008C88E
:10D09000121F08C1002AFAD170477047002001E032
:10D0A00001C1121F002AFBD170472DE9FC5F00254A
:10D0B000168807461580406B14468946A8464FF0EF
:10D0C0000C0A11234FF0020B98B101784846032E49
:10D0D00048D380F800B02288521C92B22280835438
:10D0E0002288521C92B2228009F802102088401C2B
:10D0F00020803A6BDAB12088494600F11205B5422A
:10D1000030D80B5420881023401C80B220800B5450
:10D110002088401C20800F202388155C401ECD54A1
:10D12000238840B25B1C23800028F5DA454697F837
:10D130002E0030B133462246494601F05BFD050022
:10D1400011D197F82D0030B132462146484600F003
:10D15000F7FB050007D1B87820B32088C846001D2A
:10D16000B04202D95046BDE8FC9F684679DF0028EE
:10D17000F9D12188032008F8010020881921401CDA
:10D1800080B2208008F800102088401C80B22080E7
:10D1900000EB0801BDF8000003F04CF801462088C0
:10D1A00008442080F878B8B1228897F90310D31C7E
:10D1B0004846B342D6D800F802B022880123521C58
:10D1C00092B2228083542288521C92B2228009F8A3
:10D1D00002102088401C20807868B8B1218890F91E
:10D1E0000020CB1C4846B342BCD800F801B02188CF
:10D1F0000A23491C89B2218043542188491C89B2E1
:10D20000218009F801202088401C2080388950B1F5
:10D21000CDE900464B460622022107F1080003F043
:10D22000D4F905009FD1388A50B1CDE900464B466C
:10D230000722032107F1100003F0C7F9050092D17E
:10D24000388B50B1CDE900464B461522142107F129
:10D25000180003F0BAF9050085D1386A30B13346B9
:10D260002246494601F014FA0500DBD1786A30B154
:10D2700033462246494601F047FF0500D2D197F8D0
:10D280002C0038B1334622464946384602F074FA3B
:10D290000500C7D1387838B133462246494638466A
:10D2A00001F06EFF0500BDD128465CE7BFF34F8F4C
:10D2B00005480168054A01F4E06111430160BFF3CC
:10D2C0004F8F00BFFDE700000CED00E00400FA0501
:10D2D0000EB500210091CDE901106A4644F201002B
:10D2E000FFF7E4FF0EBD0000084B9B6823B12AB195
:10D2F00020B10068037C1BB10820704707207047ED
:10D300000023037441744261184670476020002076
:10D310002DE9F0478046994614460F4690074FF096
:10D32000000634D11C4D8CB302F0E2F80320C5F89E
:10D330001490287004F11800002107EB4703AC603B
:10D3400004EBC102491C167056709770506000EBD8
:10D35000C3000329F4DBEE606E70AE701420FFF79B
:10D360005EFE06211420FFF781FE1420FFF764FE05
:10D370000A49C1F8008006211120FFF777FE07480F
:10D38000001F006828610020BDE8F08701E0072049
:10D39000FAE7AE60FBE700006020002008150140BE
:10D3A0002DE9F843DFF870900D461746D9F80810BC
:10D3B000044651B34CB3052D02D20720BDE8F883D3
:10D3C000606910B3607C012821D0002603F0CAF800
:10D3D000D9F80810804601EBC800694603F0E1F86F
:10D3E000B8B1012100F8041B0C4910C0096880E89D
:10D3F000E200D9F8081001EBC8009DF80010417058
:10D400001420FFF726FE0020D8E70820D6E72E4696
:10D41000DCE70420D2E70000602000200415014072
:10D42000F8B5124E0446B168E1B1DCB16069C8B12B
:10D430000027277403F096F80546B068694600EBAC
:10D44000C50003F0AEF878B1022101704460B06805
:10D450009DF8001000EBC50041701420FFF7F9FDA6
:10D460003846F8BD0820F8BD0420F8BD6020002033
:10D47000F0B50C4693B01F210726ADF80010ADF8AB
:10D480000410002750B1C17849070DD56A4602A99A
:10D49000FFF70BFE002808D102AD02E00025ADF831
:10D4A00000706CB1E07810B1304613B0F0BD01AA45
:10D4B0000AA92046FFF7F9FD0028F6D10AAA02E0E2
:10D4C0000022ADF80470BDF80400C3B2BDF800003E
:10D4D000C1B2284672DFE8E770B50D4604991646DA
:10D4E000040040D0F6B3414800224271C0E9033144
:10D4F000242231463E48FFF755F800F0BBF83C497E
:10D500003431A1F1100001602031816038215C3894
:10D51000FFF76FF83648217838380170A1788170AC
:10D52000E178C17061784170D4E90412C0E9041255
:10D53000D4E90212C0E90212D4E90612C0E90612C7
:10D54000616AD1B100F1AC0100F1B80241628A60B8
:10D55000636A1B880B80616A436A8988998000210D
:10D56000436A07E0FFE70E2070BD666AB668765C26
:10D570005654491C9E888E42F7D8A16AD9B11C4ADC
:10D58000AC32A2F10C018A608162A36A9B888B8015
:10D59000A16A836A098819800021836A04E0A66A67
:10D5A000B668765C5654491C9E888E42F7D894F82B
:10D5B0002C1080F82C10216A49B10C4914310162F9
:10D5C000226A52884A80216A026A09881180616849
:10D5D00021B10649891D4160616841602946BDE865
:10D5E000704003483838FFF743BF0000F01F0020A9
:10D5F0003423002010B502881D4C102A18D00021B9
:10D60000112A1BD01B2A18D1007A002815D1607965
:10D61000012820D0022824D0032824D004280CD1AB
:10D620002171E2680846002A07D0BDE81040104783
:10D63000817D012901D18088208110BD61708088A1
:10D6400021898842F9D1012006E021690029F4D01E
:10D65000BDE810400847022000F014F80028F4D17B
:10D6600010BD0320F8E7032020710420F4E7000038
:10D67000F01F00200248002181618183817770477B
:10D68000F01F00202DE9F04F744C87B00026607128
:10D6900006A8069601F012FF0127082801D030B92C
:10D6A00003E006A801F076F918B9069808B12770CA
:10D6B000C0E0FFF7DFFF6A4DDFF8A0814FF0020AFC
:10D6C000687808F118084FF0030B10B16079012851
:10D6D00006D0A87858B16079012801D002281FD15E
:10D6E000E16819B1E7700820884700E0E6706079CA
:10D6F000012806D1687840B108F1010001F0A4FECC
:10D7000018B16079022802D00AE084F805A0A87850
:10D7100020B108F1010001F097FE08B984F805B0C6
:10D72000287B4FF0040920B96079032801D184F8DF
:10D730000590287E20B96079042801D16671267190
:10D74000E16841B16079032801D0042803D1287829
:10D7500008B16078C0B1A67018216846FEF749FF8D
:10D760008DF8006001968DF80860039660790128B5
:10D770000ED0022816D03A4E2436A6F15C070328B4
:10D780001DD004284CD13AE0A77007208847E3E772
:10D79000ADF81260CDF804808DF80070ADF810601F
:10D7A00027713FE0CDF804808DF800702889ADF82E
:10D7B0001200A888ADF8100084F804A032E0A88A0E
:10D7C000ADF81200288AADF810002548243002F088
:10D7D00063FF18B1287808B1607810B184F804B0FC
:10D7E0001EE01F488DF808A0039687F803900021DB
:10D7F0003838FFF73DFE00281DD105202BE0A88B0F
:10D80000ADF81000288CADF812001548243002F055
:10D8100043FF18B1287808B1607878B184F8049093
:10D82000607918B1684673DF002804D1E16809B156
:10D8300020798847002007B0BDE8F08F08488DF8B0
:10D8400008A0039687F8039000213838FFF710FEF0
:10D850000028F0D106202071E2E70000F01F002030
:10D860003423002070B5054601461C220F48FEF700
:10D8700099FE0F4C00262670286830B1016861605F
:10D880004068A060201D7ADF02E00948001D7BDFB0
:10D8900000280AD14FF6FF7060806670BDE87040C6
:10D8A000044A00210448FFF71FBD70BD202400205A
:10D8B0001020002005050200EC06020070B51E4C89
:10D8C000068800251B49E289102E15D01B4B112E0E
:10D8D0001CD0122E29D0502E17D130F8061F91429D
:10D8E00013D14189022910D1007B10F0010F11D012
:10D8F000BDE8704000F012BF83884B808369CB6025
:10D90000C06908614D70002AF2D070BD4FF6FF70FB
:10D9100048804D701868FFF783FD0028F5D0A16995
:10D920000029F2D0BDE8704008478268CA60C0682C
:10D930000861DDE71020002020240020EC06020012
:10D940007CB5054608880C460930904201D90C2068
:10D950007CBD684671DF0028FAD121880820685410
:10D9600020881B21401C80B2208029542088401C24
:10D9700080B220802844DDF801100160BDF8051058
:10D9800081802088801D80B220809DF8001001B128
:10D99000012129542088401C208000207CBD0000EB
:10D9A00010B50446FFF78AFF2146134800F05AF8E5
:10D9B00021881248102906D0112906D0132908D031
:10D9C000522914D10BE0A18801E04FF6FF710180CC
:10D9D0000DE000231A46852100887FDF04E0002344
:10D9E0001A4619460088A9DF08B1FFF771FC2046E6
:10D9F000BDE81040FFF7FEBD9C220020E81F00207C
:10DA000030B5174B0D4604000FCB85B08DE80F00E5
:10DA100024D01DB34FF6FF70A0822868A0610020BB
:10DA2000A0752146684663DF002815D120788DF85F
:10DA300012000420ADF81000A21C04A90120A0DFF0
:10DA4000002809D12946204601F08CFD002803D189
:10DA50002946204602F09AFA05B030BD0E20FBE7B9
:10DA6000DC06020000281ED000291CD00A88102ADB
:10DA700014D0112A14D0502A15D131F8062F038959
:10DA80009A4202D14B89022B0ED083899A420AD145
:10DA90008369002B07D04A890C311847898801E037
:10DAA0004FF6FF7181827047097B11F0010100D0B0
:10DAB00001218175704707B584B068B1828AA2F5EB
:10DAC0007F43FF3B0AD0827D42B1BDF81820142A63
:10DAD00006D9072007B000BD0E20FBE70820F9E7B4
:10DAE000002200920192029203928288039106A979
:10DAF0000291ADF8002001218DF80210808A69465C
:10DB0000A6DFE7E700B5154887B000230068059059
:10DB10004822134905A801F011FF08B1FFF7D8FB0F
:10DB20006A460121002001F0F3FE08B1FFF7D0FBA7
:10DB30000C4801F095FD08B1FFF7CAFB684601F0FB
:10DB400069FE08B1FFF7C4FB074801F059FE002841
:10DB500001D0FFF7BDFB07B000BD0000A806020022
:10DB60008C200020E81F0020A1D901002DE9FF41F1
:10DB7000154C82B000261D469046074626700120AF
:10DB80000346009003AA3946104801F0DDFB08B1B6
:10DB9000FFF79EFB20BF20780028FBD040BF2670F7
:10DBA000EBB242463946094801F0BCFB051E01D0E4
:10DBB000FFF78EFB20BF20780028FBD040BF06B0C7
:10DBC00068B2BDE8F0810000EE1F0020B40602003C
:10DBD0002DE9F04186B00D4680461C4617461421BB
:10DBE00001A8FEF706FD661C142E04D96FF0030091
:10DBF00006B0BDE8F0818DF80450224639460DF19B
:10DC00000500FEF7CFFC0A4D002028700090F3B20B
:10DC100001AA4146074801F097FB041E01D0FFF717
:10DC200057FB20BF28780028FBD040BF60B2DFE759
:10DC3000EE1F0020B406020001F0F0BA2DE9F04119
:10DC40002C4C074686B0682060700025A5702A48D5
:10DC500020622A48E0612A4860628846204600F037
:10DC6000EEF906003CD027A1002001F0DBF8304699
:10DC7000FFF72EFB67710320A0710220E0711121D4
:10DC8000217184F80D800421A173E07315202073A5
:10DC9000184800F02BFB040027D01FA1002001F042
:10DCA000C1F82046FFF714FB2049124AD1E90001D0
:10DCB000CDE904018DF800508DF80150ADF8045005
:10DCC0008DF80250ADF80650ADF80850694604A82A
:10DCD00000F0B0FBFF2001F0A1FA06B0BDE8F08132
:10DCE00013A1002001F09EF8C4E717A1002001F065
:10DCF00099F8D9E7B8220020D1DB01006DDB0100E3
:10DD000039DC0100626D6931363020696E6974203A
:10DD10006661696C0A000000626D6931363020630B
:10DD20006F6E666967206661696C0A00AC06020066
:10DD3000626D6931363020696E6974207375636372
:10DD40006573730A00000000626D6931363020632C
:10DD50006F6E66696720737563636573730A00008D
:10DD60002DE9FF414FF000050E4607461400ADF8BF
:10DD70000450ADF808508DF80C500DD0A06958B182
:10DD8000016849B1C07950B13146384600F014FD00
:10DD900004B02846BDE8F0814FF0FF35F8E71346A0
:10DDA000324602A901A800F0FFFD0BE0214601A8C0
:10DDB00000F0D0FBA06903AA01A9037A38460094B9
:10DDC00002F05EFABDF80400BDF808108842EDD3F9
:10DDD0009DF80C003070A169BDF804004881D7E7B8
:10DDE0002DE9FF414FF000050E4607461400ADF83F
:10DDF0000450ADF808508DF80C500CD0A0690168A3
:10DE000049B1C07950B13146384600F039FD04B00F
:10DE10002846BDE8F0814FF0FF35F8E7134632465B
:10DE200002A901A800F0FAFD0BE0214601A800F0CC
:10DE300091FBA06903AA01A9037A3846009402F075
:10DE4000C1FABDF80400BDF808108842EDD39DF872
:10DE50000C003070A169BDF804008881D7E700008C
:10DE60000D4910B5A1F12C02916188800121D020CB
:10DE700000F060F9040008D008A1002000F0D2FFF3
:10DE80002046BDE81040FFF723BABDE8104008A1C6
:10DE9000002000F0C7BF0000E42200206669666F22
:10DEA00020656E61626C65206661696C0A00000025
:10DEB0006669666F20656E61626C650A000000002D
:10DEC00038B504004FF0000025D0A1690A6812B3EC
:10DED0004881A169234602228881A169C881A1697C
:10DEE0000861A16908752220694600F06DF89DF867
:10DEF0000110002801F007018DF80110BDF8001095
:10DF00000BD1A2699088884200D99180A269937947
:10DF1000022B03D008E04FF0FF3038BD19318142A9
:10DF200002D8908819309080A069234682880168C1
:10DF300001B02420BDE8304000F046B87CB504466E
:10DF40000D46084601F065FA10B14FF0FF3138E098
:10DF50002B4607226946712000F036F801469DF8ED
:10DF6000000020709DF8010060709DF80200A07014
:10DF70009DF806009DF80320800300B240EA82105D
:10DF8000C21700EB92608011A0809DF806009DF8FA
:10DF900004208008800300B240EA8210C21700EB20
:10DFA00092608011E0809DF806009DF80520000930
:10DFB000800300B240EA8210C21700EB9260801129
:10DFC000208108467CBD00002DE9F047814693F88A
:10DFD0002A001646304487B21D468A46384601F06C
:10DFE0005DF8804600244DB1D5F81CC0BCF1000F8F
:10DFF00004D036B1A878012806D007E04FF0FF30F2
:10E000000CE06FF00B0009E049F0800968783B46AE
:10E0100042464946E04778B16FF001000446404669
:10E0200000F090FC2046BDE8F08700BF18F80420FF
:10E030000AF80420641CA4B2B442F7D3EEE7F8B5A2
:10E040000446032501F0E5F9A1780026012906D050
:10E0500084F82A60002822D1012904D00BE0012293
:10E0600084F82A20F6E72346012269467F20FFF73D
:10E07000ABFF002813D1267005E023460122194684
:10E080000020FFF7A1FF6D1EEDB202D32178D12948
:10E09000F3D110B92078D12802D06FF00200F8BD7A
:10E0A000FF20E070204600F08EF9F8BD70B50C46F8
:10E0B000054601F04BFD21462846BDE87040FFF7BC
:10E0C000BDBD00002DE9F05F194C8346DDE90A76FD
:10E0D000A0699846914680888A46002826D000F09C
:10E0E000DDFF0546A06905602046FFF7E9FE30B177
:10E0F000FFF7EEF82846BDE8F05F00F023BC0C4ABD
:10E1000051465846FFF72CFE08B1FFF7E1F8084AE0
:10E1100041464846FFF764FE08B1FFF7D9F8A06909
:10E1200000693860A069007D3070E3E7BDE8F09FCA
:10E13000B8220020F8B50F464FF0000114008DF80A
:10E1400000104FF0470600F0FE052ED013460122C6
:10E1500069463046FFF738FF002825D135B19DF8D4
:10E160000000012F24D0A8438DF80000234601228F
:10E170006946304600F075F8002815D12346012283
:10E1800069463046FFF720FF00280DD19DF80010AA
:10E19000A36901F01002DA71A36901F0E00201F055
:10E1A00002011A72A2699171F8BD4FF0FF30F8BDFB
:10E1B0002843D9E7F8B5040015D0606A98B100206B
:10E1C0008DF8000020796FF00305A0F110010229FD
:10E1D00028D8217A88421AD02146684601F03EF9B3
:10E1E000060003D011E04FF0FF30F8BD23460122B6
:10E1F000211D7E2000F035F80646207A102802D135
:10E20000616A05208847217921723000EDD1207B99
:10E210000026142808D0152806D0172804D02E462A
:10E220003046F8BD2846F8BD217C8842F8D0234608
:10E23000012204F10C017E2000F013F80646207C38
:10E24000142802D0172803D008E05120616A04E0A6
:10E25000207B152802D1616A0A208847207B207420
:10E26000DEE72DE9F0474FF000051C00904606461A
:10E2700089462F460BD0D4F820C0BCF1000F06D041
:10E28000B8F1000F06D0A078012806D007E04FF0C3
:10E29000FF3528E06FF00B0525E006F07F06207AB9
:10E2A000112802D0207C152818D10A4660784346F0
:10E2B0003146E0470546616A0120884710E0256A3B
:10E2C00009EB0702607801233146A847761C054612
:10E2D000616AF6B2012088477F1CFFB24745EED342
:10E2E0000DB16FF001052846BDE8F08738B5040090
:10E2F0005DD0606A00285AD0002521466846009506
:10E3000000F0F2F8002851D123460122694640204E
:10E31000FFF7A7FF002849D161796172E179E172C5
:10E320002346012241200DF10101FFF79AFF002849
:10E330003CD1A179A17221466846009500F01BF9F5
:10E34000002833D12346012269464220FFF789FF86
:10E3500000282BD1617B6174E17BE17423460122AB
:10E3600043200DF10101FFF77CFF00281ED1A17BA6
:10E370002046A174FFF71EFF002817D123468DF811
:10E380000050012269460220FFF71EFE9DF8001092
:10E39000C1F343018DF8001001290BD002290CD0E4
:10E3A00003290DD0072901D16FF0080038BD4FF0C7
:10E3B000FF3038BD6FF0050038BD6FF0060038BD86
:10E3C0006FF0070038BD38B504004FF0B6008DF887
:10E3D00000000DD0606A58B12346012269467E20B4
:10E3E000FFF73FFF0546616A012088471DB11FE026
:10E3F0004FF0FF351CE0A078012807D12346012209
:10E4000069467F20FFF7E0FD050011D10220E07191
:10E4100008216171102222710322A271E0736173DD
:10E42000142020730020A0736068A060E068206161
:10E43000284638BD2DE9FC4105460F4616461046D4
:10E4400000F0E7FF4FF0FF3410B12046BDE8FC813B
:10E45000304600F0DEFF0028F7D13346012201A943
:10E460007720FFF7B1FD78B969799DF8040033464C
:10E4700061F3C7102979012261F386108DF8040039
:10E4800001A97720FFF7EDFE0028DFD133460122F6
:10E4900069466920FFF798FD2A789DF8001000284A
:10E4A00062F386116A7862F30511AA7862F3830138
:10E4B000EA7862F301018DF80010C7D133460122DA
:10E4C00069466920FFF7CDFE0028BFD131463846A6
:10E4D00001F000FBBAE700000249084490F930005F
:10E4E000704700004824002070B50D460B460446D6
:10E4F000014602224020FFF767FD002829D16979F3
:10E50000001F0F2925D86A7A914206D0227801F09F
:10E510000F0122F00F0211432170E979022918D866
:10E52000EA7A914203D0217821F070012170A97913
:10E530000022641C0C290AD8A87A814208D02078CD
:10E5400001F00F0120F00F000143217000E00246AE
:10E55000104670BD10B58B6902889988941C8C4256
:10E5600008D21B689C5C802C04D11A445278002A83
:10E5700000D1018010BD70B50D460B460446014622
:10E5800002224220FFF720FD00282AD1697B001FCC
:10E590000D2926D86A7C914206D0227801F00F011D
:10E5A00022F00F0211432170E97B022919D8227849
:10E5B000302322F0300203EA0111114304F8011B59
:10E5C000A97B002204290AD8A87C814208D020789F
:10E5D00001F0070120F007000143217000E002462E
:10E5E000104670BD2DE9F05F2648C168F1B3DFF831
:10E5F00098B00E688146DBF800400769C078E11BDF
:10E6000021F07F45ED1CB0B9DFF880804FF48030F9
:10E61000C8F84403C8F804031120FEF700FD1120D8
:10E62000FEF70AFD4FF0010AC8F800A02F20FDF701
:10E630006BFF89F803A0B54200D23546124BE819AA
:10E640003C3320F07F401860DBF800105A46091B6D
:10E6500021F07F41001B20F07F40C91C81420FD96F
:10E66000106818602F20FDF74FFF00E004E0BDE8C0
:10E67000F05F1120FEF7EDBCBDE8F05F00F038BFA1
:10E68000BDE8F09F6020002004150140001001400B
:10E690002DE9F04117880646B81D14460D469842EC
:10E6A00002D90C20BDE8F0813188072206290AD35F
:10E6B0004FF4486C4FF6FF73614501D9994202D17E
:10E6C0007088062801D21046ECE7604501D99842CF
:10E6D000F9D1994203D0984201D08142F3D8052064
:10E6E000E85520881221401C80B2208029542088BF
:10E6F000401C80B220804119308801F09BFD2188A8
:10E70000084480B220804119708801F093FD21886F
:10E71000084420800020C5E7FEF7DABDF8B51348AD
:10E7200000F05AFA114D0026114C0C3D30B16169D0
:10E73000B9B101208DF80000684611E0287820B1B9
:10E74000616971B18DF80060F6E7687858B1A16829
:10E75000084800220068FEF723FE10B1A16901B14C
:10E7600088472E70F8BD6168F2E700001C20002089
:10E7700020240020EC0602000E4910B54A788C785F
:10E780000023A24212D0521CD2B24A70022A00D1F7
:10E790004B70084A4B78183252F8232002600869FF
:10E7A000104420F07F400861012010BD036000206C
:10E7B00010BD000060200020FEB5064600208DF848
:10E7C0000800906914460D464089ADF8040049E000
:10E7D0001268525C491C02F0FC03ADF80410882B4F
:10E7E00023D00CDC482B30D004DC402B28D0442B29
:10E7F00033D120E0802B2ED0842B2ED10BE0942B14
:10E8000009D004DC8C2B06D0902B26D10AE0982B63
:10E810000ED09C2B21D102AA01A93046009401F010
:10E820002FFD1AE02246082111E0224606210EE0C3
:10E8300022460E210BE0214601A801F040FE0CE02B
:10E84000214601A801F050FE07E02246012101A85F
:10E8500000F08CFC01E0ADF8040028789DF8081069
:10E86000884205D0A269BDF8041090888842AFD8CC
:10E870009DF808002870A169BDF804004881FEBD1C
:10E88000FEB5064600208DF80800906914460D4636
:10E890008089ADF8040046E01268525C491C02F021
:10E8A000FC03ADF80410882B19D00CDC482B2DD0BC
:10E8B00004DC402B25D0442B30D11DE0802B2BD005
:10E8C000842B2BD112E0942B13D004DC8C2B06D09C
:10E8D000902B23D10DE0982B01D09C2B1ED102AAA6
:10E8E00001A93046009401F06DFD17E02246062193
:10E8F0000EE0224608210BE0214601A801F0DFFDD1
:10E900000CE0214601A801F0EFFD07E022460121BD
:10E9100001A800F02BFC01E0ADF8040028789DF878
:10E920000810884205D0A269BDF80410908888427A
:10E93000B2D89DF808002870A169BDF8040088814C
:10E94000FEBD000010B5002821D0114B0022001F91
:10E95000196803E0814203D80A4649680029F9D1C1
:10E9600052B11368841A9C4204D1006818441060A4
:10E97000104602E0506000E0186039B102680B1ADE
:10E98000934203D10B681A4402604968416010BD8C
:10E990008420002020B10349496D016000207047A8
:10E9A000032070476C2A002030B59C69648904807C
:10E9B0009D692C7A402C0ED0C02C10D0602C12D027
:10E9C000E02C15D0AA88028098690A888088824243
:10E9D00000D9088030BD107800EB400006E01078C8
:10E9E00000EB400007E01078C0EBC000400003E0FF
:10E9F000107800EB800080000880E5E738B5044619
:10EA00000B46012269461B20FFF7DEFA002804D1DD
:10EA10009DF80010C1F3C001217038BD30B59C696C
:10EA2000A48904809D692C7A802C0ED0C02C10D033
:10EA3000A02C12D0E02C15D0AA88028098690A88F0
:10EA40008088824200D9088030BD107800EB4000F9
:10EA500006E0107800EB400007E01078C0EBC00043
:10EA6000400003E0107800EB800080000880E5E7BC
:10EA700070B50E46154607A1002000F0D3F900241A
:10EA800005E0325D09A1002000F0CCF9641CAC4225
:10EA9000F7D370BD7265637620626C65206C656E1D
:10EAA0006774683A2025640A0000000025640000AD
:10EAB000F8B51A4C207800282ED0206928B10026FD
:10EAC000E06820B1002526B110E00126F8E7012515
:10EAD000F9E7684652DF052803D020B1FEF7F8FBBE
:10EAE00004E0012602E021690098884785B9608822
:10EAF000ADF800006946A06861DF052803D020B1A9
:10EB0000FEF7E6FB04E0012502E0D4E902018847B4
:10EB1000002EDED0002DD6D0F8BD0000242000202D
:10EB20007FB50C46054691F8211094F82000CDE9F8
:10EB3000000104F12602D11E2846E36901F016F90E
:10EB4000002823D194F8230008BB207B022801D0A1
:10EB500003281CD12269E169914218D16269E261FE
:10EB6000E37B84F82030217E0328C1F3401184F830
:10EB7000211006D004B029462046BDE8704001F0BF
:10EB8000A3B800912946204601F069F97FBD04F140
:10EB90000C0001AB07C883E8070094F823000021AC
:10EBA00068B1D5F8C404C5F8C404820701D50120B2
:10EBB00002E0400705D502208DF8000001E08DF845
:10EBC000001084F82410207E4007DFD4D4E900210F
:10EBD000684690477FBD0000054940880A889042FA
:10EBE00004D34988884201D801207047002070472B
:10EBF0001420002030B51488E51C9D4201D90C205A
:10EC000030BD02250D5513881C245B1C9BB213805C
:10EC1000CC5413885B1C9BB21380012807D00228B8
:10EC200007D0032807D0042807D0072030BD0020D4
:10EC300004E0012002E0CD5401E00320C854108814
:10EC4000401C1080002030BD2DE9F047DFF8ACA05B
:10EC5000DAF80C009AF8004080469AF80460DAF876
:10EC60000890DAF810703AE009EBC4052A7833E02E
:10EC700002EB42016B68521C03EBC101AB78D2B2CC
:10EC8000934200D100220B78022B02D0032B23D118
:10EC90001FE0D1F804C00346014603E0614503D0FC
:10ECA0000B46C969C1B1F9E7B1B18B4205D1C06961
:10ECB00018B9134F0126BE600027D1F800C0C969FA
:10ECC000D96149B10B6863440B6005E00174C06908
:10ECD00000E000210028F9D169789142C8D1641E72
:10ECE000E4B2C1D2CAE903078AF80460404502D001
:10ECF0000120BDE8F0870020FBE700006020002035
:10ED0000001001402DE9F04705462F4800268046B7
:10ED10000778D0F80C904BE0D8F8080000EBC70457
:10ED200040E002D02846ED691EE02078616800EBE3
:10ED30004002401CC0B201EBC2012070A278904298
:10ED400000D126700A784868012A2DD1027C5ABB6E
:10ED50008A684260CA6882600A69C26049698161E2
:10ED600098F8041001B146604268D8F81030DFF816
:10ED70005CC0D11A21F07F41614502D28268114402
:10ED800006E0991A826821F07F418A4202D9511A1D
:10ED9000016000E006604660012186600174C66182
:10EDA00000F038FE002DBCD1207861788842BCD1BB
:10EDB0007F1EFFB2B0D2D8F80C10494502D0012016
:10EDC000BDE8F0870020FBE760200020FFFF7F0008
:10EDD00038B50D4C207808B1002038BD0125AB02B4
:10EDE0000A4A0BA100200095FDF708FD38B9002064
:10EDF0001023094A09A10090FDF7D8FC08B10820AA
:10EE000038BD2570E8E7000080200020CF2A0020D0
:10EE10004E6F726D616C0000CF2E0020496E7075D0
:10EE2000740000000FB408B504A900916A46039964
:10EE3000FDF74CFD01B05DF814FB0000ACB04FF0E5
:10EE4000260B8DF880B08DF87CB04FF4E47000F0A4
:10EE500025F981469DF87C0000EB4000800000F021
:10EE60001DF9054600237F4A05211846FEF750FA92
:10EE700008B1FEF72DFAFEF745FE9DF80C007AA1C9
:10EE800020F00F00401C20F0F00010308DF80C0036
:10EE90000C2203A87CDF08B1FEF71AFA00240094C4
:10EEA0001020ADF800003C200194ADF80200ADF850
:10EEB00004404FF4C870ADF8060068467ADF08B128
:10EEC000FEF706FA6C48009069466C48FEF798FD1C
:10EED00008B1FEF7FDF9382101A8FDF78AFB0220F1
:10EEE0008DF804008DF8064006208DF807003821C3
:10EEF0000FA8FDF77EFB624801261490ADF84C6028
:10EF0000242121A8FDF775FB8DF890604020CDE904
:10EF100025045C4B21AA0FA901A80094FEF7DCFA96
:10EF200008B1FEF7D5F91C216846FDF762FB4FF4E6
:10EF30002031CDE900414FF47021534802910590F2
:10EF4000032152488DF80C100690A246ADF80E40F1
:10EF50008DF810406846FEF785FC08B1FEF7B8F959
:10EF60000320FEF78FFB08B1FEF7B2F948A100209D
:10EF7000FFF758FF06210846FFF798F84FF4806026
:10EF8000FEF76EFF4FF4BE7000F048F93C48801E5B
:10EF90000188A1F57F40FF38F4D08DF87CB02BA913
:10EFA0002AA8CDE9000100248DF880B01FAB2A46C5
:10EFB00020A94846FFF786F89DF880009DF87C1050
:10EFC000884201D2024600E00A46002ADAD088428E
:10EFD00000D30846401E86B240E000BF04EB440068
:10EFE00009EB800339F8201035F8207005EB80001C
:10EFF0005A88B0F802C09B888088CDF800A04FEAFC
:10F0000011288DF800808DF80110110A8DF802107A
:10F01000CDF804A0190A8DF804108DF80530390ACE
:10F020008DF80610CDF808A04FEA1C218DF80810C5
:10F030008DF809C0010A8DF80A10CDF80CA08DF8E2
:10F0400003208DF80B008DF807708DF80CA00D22B1
:10F0500069460A48FEF72FFD641CE4B2B44291D21F
:10F06000BCE70000D42000204E6F726469635F47E4
:10F070006C6173730000000071EA01009C220020A3
:10F08000EA1F00202BF401002DF4010019E7010014
:10F09000626C6520696E69740A000000F0B50B307F
:10F0A000154D20F007010024144A0FE003688B423D
:10F0B0000BD38B4205D95E1A43184768C3E9006732
:10F0C00000E04368136002C004E0021D10680028DD
:10F0D000ECD12046002802D1286808B10020F0BDFC
:10F0E000064A07481060074A121A22F00702C0E9D0
:10F0F000002401202860D7E78820002084200020F9
:10F100006C3300206853002070B5144682880E4688
:10F1100005462088111D0144921C994201D8FE2AFF
:10F1200001D90C2070BD521C32542088FF21401C94
:10F1300080B2208031542088401C80B22080811908
:10F14000288801F077F82188084480B22080AA88B6
:10F1500042B1A96841B13044FDF724FA2088A9885A
:10F1600008442080002070BD072070BD926903888C
:10F1700092881944914201D90280704701807047FA
:10F18000F8B50E46017814460546012901D1687884
:10F1900030B12088821C9A422DD8012902D006E085
:10F1A0000720F8BD69780144891C994223D8181AB0
:10F1B000801E87B2ADF800702188B01C08446946F3
:10F1C0007DDF0028EDD12878022805D1BDF8001098
:10F1D000B94201D809210AE00821012805D168783F
:10F1E000B84202D8ADF8000001E0ADF80070BDF8FB
:10F1F0000000FE2801D90C20F8BD2288401CB05424
:10F200002088401C80B2208031542088401C2080FF
:10F21000BDF80010084420800020F8BD31B540F250
:10F22000E73404E0401E00902046FDF7F5F8009812
:10F230000028F7D138BD49070B0E00F01F0201214D
:10F2400091404209920002F1E022002804DB00F123
:10F25000E02080F8003405E000F00F0000F1E0202D
:10F2600080F8143D01DBC2F8801201DBC2F8001106
:10F27000704700000179064A01EB8101006802EB4A
:10F28000C1010522C0F80025022081F82200704744
:10F290001C2A002070B5064600790D461F4C00EB75
:10F2A000800104EBC10494F8221009B1082070BD5C
:10F2B00015B91B4901EB00150020C4E90023A0602B
:10F2C00084F8250084F824002946304600F056FCD6
:10F2D000296840F20C60890001F1A041C1F80007E3
:10F2E0006968890001F1A041C1F80007D5E9001261
:10F2F0003068C0F80815C0F80C25A968C0F82415B6
:10F30000206828B13068297B000B40B2FFF793FFDB
:10F31000012084F82200002070BD00001C2A00207B
:10F32000F00602003EB5074D2C6AAD6A00948DF8D8
:10F330000110019202958DF802300022694600F01A
:10F3400015F83EBDF00602003EB500250095069C6E
:10F350008DF8011002958DF8023001920CB1202237
:10F3600000E00022694600F001F83EBD30B40379A8
:10F37000084C03EB830304EBC304930702D030BCB7
:10F3800006207047006813460A460146204630BCF6
:10F3900000F0A3BD1C2A0020800000F5E06000F111
:10F3A000A040026822F440320260026842EA014151
:10F3B00001607047012181400148016070470000F1
:10F3C00008050050034908B50844002101600068A1
:10F3D000009008BD0060004002494058012800D05C
:10F3E00000207047006000404058002800D00120F5
:10F3F00070474058002800D001207047D0F804031F
:10F40000084000D0012070474058002800D001205B
:10F41000704738B1C16929B1016A19B1406A08B1B0
:10F42000002070474FF0FF30704770470078002889
:10F4300007D104483B21008876DF002801D0FDF782
:10F4400047BF7047E81F00200021425C0AB101203D
:10F450007047491C0629F8D30020704738B5044688
:10F4600000200D468DF800000B4601222146402069
:10F47000FEF7AAFD00280FD1297912290DD0217895
:10F480000A0609D521F0800020702B460122214672
:10F490005FF04000FEF7E5FE38BD20782B4640F0D7
:10F4A00080002070012221464020FEF7DAFE00286D
:10F4B000F2D102222B4669465820EBE7064909792A
:10F4C000490701D40820704720B1044949780160F8
:10F4D000002070470E2070473C200020C0240020F0
:10F4E0004FF08050D0F80C01800200F100507047BE
:10F4F00070B5012670044FF0E0210025C1F88001AD
:10F50000BFF34F8FBFF36F8F084C4010C4F8480310
:10F51000C4F8080366602F20FCF7F6FFA660044CD1
:10F520002F202561FCF7F0FFE57070BD0010014051
:10F530006020002009480A490022C37DC1F8082143
:10F5400043B1D1F81815437EC268D154417E491C9D
:10F5500041767047D1F8180570470000A0240020BC
:10F560000020004030B58FB00024054607949DF878
:10F570001C001C2120F00F00401C20F0F000103077
:10F580008DF81C009DF81D0020F00F00401C20F09D
:10F59000F00010308DF81D009DF81E0020F00600D0
:10F5A000801C8DF81E006846FDF723F89DF80000CA
:10F5B000019440F010008DF8000007A8CDE9044048
:10F5C0000394069428788DF83A000520ADF83800A9
:10F5D0000D949DF83400142120F00F00401C20F001
:10F5E000F00010308DF834009DF8350020F00F0049
:10F5F000401C20F0F00010308DF835009DF83600EA
:10F6000020F00600801C20F0180040F001008DF86A
:10F61000360008A8FCF7EDFF0EA808900DA8099089
:10F620000120ADF828001420ADF82A40ADF82C00D8
:10F6300068882B1D08AA6946A2DF0FB030BD000004
:10F640001FB501228DF8080004488DF800200191B3
:10F65000D0E90012684690471FBD0000A02400209A
:10F6600038B5044609480090A0420DD0FFF738FF96
:10F670000546234606A10020009AFFF7D3FB2A1B6C
:10F6800010A10020FFF7CEFB002038BDE81F0020AE
:10F6900052414D2053544152542041444452203051
:10F6A0007825782073686F756C64206265206164CA
:10F6B0006A757374656420746F20307825780D0A3C
:10F6C0000000000052414D2053495A452073686F95
:10F6D000756C642062652061646A7573746564206A
:10F6E000746F2030782578200D0A000010B50121B4
:10F6F000202803DA1E4A8140114004E0402803DA42
:10F70000A0F12002914031B1002807DB00F1E02197
:10F7100091F8001408E042F2010010BD00F00F0162
:10F7200001F1E02191F8141D4909082914D299B179
:10F73000012911D004290FD005290DD00D4B9C684B
:10F7400000F01F0101228A40410944B153F8210011
:10F75000104343F8210009E042F2020010BD0028E6
:10F7600004DB880000F1E020C0F80021002010BD7B
:10F77000FC06FFBC3C2400202DE9F0410746806ACE
:10F7800014468846C8B3002531E000BFB96A05EBCE
:10F79000450001EB8006B088801CFE2802D90C20B1
:10F7A000BDE8F0812288401C08F80200208816225B
:10F7B000401C80B2208008F800202088401C80B2C5
:10F7C000208000EB0801308800F034FD21880844D7
:10F7D00080B22080B28842B1B16871B14044FCF778
:10F7E000E1FE2088B188084420806D1CEDB297F8B6
:10F7F0002C00A842CAD80020D2E7FFE70720CFE7B5
:10F8000018B10349C860002070470E2070470000FF
:10F81000242000207CB50446134801900246009045
:10F8200012A10020FFF7FEFA6946204660DF044679
:10F83000DDE9000188420ED0FFF752FE054614A113
:10F840000020009AFFF7EEFA009820A12A1A002063
:10F85000FFF7E8FA06E02CB1224626A10020FFF7C8
:10F86000E1FAFEE720467CBDE81F002073645F627A
:10F870006C655F656E61626C653A2052414D205344
:10F880005441525420617420307825780D0A0000CC
:10F8900073645F626C655F656E61626C653A20617E
:10F8A00070705F72616D5F626173652073686F7500
:10F8B0006C642062652061646A7573746564207489
:10F8C0006F20307825780D0A0000000072616D20ED
:10F8D00073697A652073686F756C64206265206156
:10F8E000646A757374656420746F2030782578209D
:10F8F0000D0A000073645F626C655F656E61626C27
:10F90000653A206572726F7220307825780D0A0092
:10F9100070B50E460546144614211046FCF769FEE4
:10F92000012020800021216121732672657205B1BA
:10F93000A072002070BDFDF7B9BC00002DE9F041B8
:10F940001D4616460C460746FFF742FA0CB1A007C3
:10F9500002D00720BDE8F0812046094C4FF0010E8F
:10F960000849A06066803846656010DF0028F1D144
:10F9700084F800E0BDE8F0411620FFF7B7BE0000B4
:10F980002420002037F901002DE9F84F204C0025F4
:10F990006846D4E903B6FEF7EFFE8046FFF754F958
:10F9A0000746A946B8F1000F25D00023009ACC469F
:10F9B000E06819E007680146974202D9BA1A026066
:10F9C00014E0C1F800C0D1F80C80D21BC8693B44D8
:10F9D0008A46B8F1000F07D0F71827F07F47C1E932
:10F9E0000178CAF81C500D460028E3D1E060284693
:10F9F000FFF788F904E02846FFF784F900B917B14A
:10FA00005846FEF7EFFD84F80490BDE8F88F00003B
:10FA1000602000200D4B10B5D96831B102680C6828
:10FA2000A24204D8A21A0A60C161D86010BD0B4678
:10FA300003E00B46C969121B21B10C689442F8D34C
:10FA4000A41A0C600260C161D86110BD6020002062
:10FA50002DE9F0411D4DEC68002C35D01C480027E5
:10FA600000682969B846401A20F07F462068B042F5
:10FA700015D82246361A0744E469107C68B182F82A
:10FA800010806B6933B1D2E90501984728B1FDF7C1
:10FA90001FFC02E0D2E905108847002CE6D1697806
:10FAA000A878814206D1401CC0B2A870022801D1BA
:10FAB00085F802800548A978183040F82170BDE823
:10FAC000F0411420FDF7C5BABDE8F08160200020A8
:10FAD0000415014070B588B0064603200D468DF828
:10FAE00018000B460024012206A97E20FEF7B9FB70
:10FAF00000281CD129466846FEF780FF60B99DF8B2
:10FB0000000001281BD0696A1920884729466846E9
:10FB1000FEF774FF641CE4B29DF80010012901D0C7
:10FB20000B2CF0D308B9012903D06FF00A0008B0FC
:10FB300070BD29463046FEF701FA0028F7D12B4662
:10FB4000142201A90C20FEF73FFAF0E71FB5094B7C
:10FB50000FCB8DE80F0007480023074A6946183885
:10FB6000FFF798FB08B1FDF7B3FB02481838FFF721
:10FB700081FB1FBDCC0602002DFC01002DE9F041E8
:10FB80000C46096840F20C60890001F1A041C1F8FF
:10FB900000076168890001F1A041C1F800072068F1
:10FBA000FFF708FC6068FFF705FC216840F20D6074
:10FBB000890001F1A041C1F800076168890001F1E5
:10FBC000A041C1F800070420FCF762FCDFF8588070
:10FBD00000250126A8F104072079D8F80010C140BB
:10FBE00011F0010F02D0002D1BD00FE0207806FA93
:10FBF00000F038600420FCF74BFC2068FFF7DAFBCC
:10FC00000420FCF745FC6D1C092DE5DB20798640BE
:10FC10003E600420FCF73CFC6068BDE8F041FFF763
:10FC2000C9BBBDE8F081000010050050017839B172
:10FC300001290DD002290AD106A10020FFF7F2B850
:10FC40000279124901200AB1012A00D108707047D7
:10FC50000FA1F2E7204572726F72206576656E74AF
:10FC60003A204E41434B2072656365697665642096
:10FC700061667465722073656E64696E67206120C9
:10FC80006461746120627974652E0A00EE1F0020A1
:10FC90004572726F72206576656E743A204E4143EC
:10FCA0004B20726563656976656420616674657270
:10FCB0002073656E64696E67207468652061646492
:10FCC000726573732E0A00002DE9FC5F002705465C
:10FCD0001E4693460C463846C1F80471C1F824719B
:10FCE000C1F81C71C1F8087185F8267085F8237079
:10FCF000012B0FD05FF00101C4F800120121216235
:10FD00002160296841B140F28620A860A868C4F843
:10FD1000040314E00221EFE7804605F1260A05F10D
:10FD20002309CDE900685B4652464946204600F06B
:10FD30001DF80028F5D195F8230000B103273846B7
:10FD4000BDE8FC9F30B51C78039D944206D2095D46
:10FD5000C0F81C151878401C187005E0012115B179
:10FD6000C161002030BD4161012030BD2DE9FF4F50
:10FD700081B004460878DDF8389092460F46012895
:10FD800003D09AF800204A4501D1012600E0002660
:10FD90004FF49271002530B1C4F82451C4F81C51BD
:10FDA000C4F808514CE08B462046FFF71DFB4FF08E
:10FDB000010820BB4FF48E712046FFF715FB88B178
:10FDC000C4F81C5159462046FFF70EFBB8B90F98EE
:10FDD000009053464A4620460499FFF7B3FF002897
:10FDE00038D02DE04FF484712046FFF7FDFA38B388
:10FDF000C4F8085159462046FFF7F6FA30B1C4F866
:10FE00002451C4F8148087F8008019E09AF8003073
:10FE10004846049A5146834212D2D4F81875D754F2
:10FE20000A78411E521CD2B28AF800208A4203D1BD
:10FE30000220C4F8000201E04A4501D0C4F8208045
:10FE40005EB14FF482712046FFF7CEFA28B1C4F8B4
:10FE50000451002005B0BDE8F08F0120FAE72DE93C
:10FE6000FC5F00260C9F984692460C460546C1F85A
:10FE70000461C1F82461C1F81C61C1F80861C1F8CE
:10FE8000006285F8266080F823600120086288609F
:10FE900005F126039B464246514620460097FFF750
:10FEA00051FF286830B140F28620A860A868C4F8E5
:10FEB00004030FE005F12309CDE9008753465A46B4
:10FEC00049462046FFF752FF0028F5D195F8230058
:10FED00000B103263046BDE8FC9FF8B504464FF05C
:10FEE000FF30C1F8080394F8240020B1A068C1F8DD
:10FEF00004031120F8BD43F38000401C84F8240063
:10FF0000180701D50620F8BDA36192E8610004F14D
:10FF10000C0787E86100907884F820005068E06161
:10FF20005078C1F888051078002501280ED008B94E
:10FF3000980601D5012000E0002084F821000090FF
:10FF4000937852682046FFF78AFF06E084F8215034
:10FF5000937852682046FFF7B7FE21680029D2D176
:10FF600084F82450F8BD0000064A0020C2F81C01A5
:10FF70000548838A8168C95C838A5B1C8382C2F8D6
:10FF80001C15704700200040A024002030B58FB021
:10FF900005461C216846FCF72CFB00249DF8000058
:10FFA000019440F00C008DF8000003940494059433
:10FFB000069428788DF836000620ADF834000C94AD
:10FFC0009DF83000142120F00F00401C20F0F000BC
:10FFD00010308DF830009DF8310020F00F00401CEB
:10FFE00020F0F00010308DF831009DF8320020F044
:10FFF0000600801C20F0180040F001008DF832004F
:020000040002F8
:1000000007A8FCF7F6FA0DA807900CA808900120A5
:10001000ADF824001420ADF82640ADF8280068881B
:1000200005F10C0307AA6946A2DF0FB030BD00003E
:100030001FB500218DF8080005488DF80010826872
:1000400001928175D0E90012684690471FBD0000FB
:10005000A02400202DE9FF413E4D4FF400712846B9
:10006000FFF7CCF901273C4C4FF40178002600B390
:100070004FF492712846FFF7BCF9D0B1C5F824615E
:10008000C5F80883A07E00B96F6002208DF80000DB
:10009000D5F88004C5F880040390E07D8DF8080051
:1000A000E0680190E6752676D4E90012684690472C
:1000B00024E004212846FFF7A1F9F8B14FF4847138
:1000C0002846FFF796F9C8B1FFF734FAE07D617E64
:1000D000884213D1227E3AB1607EE168E2752269DE
:1000E000E2602676667607E0A07E00B96F60C5F80C
:1000F0000883E675607EE168FFF7A2FA4FF48E711F
:100100002846FFF776F958B1A18AA07D814202D234
:10011000FFF72AFF04E0C5F81C6108B1FFF788FF6C
:100120004FF4A2712846FFF764F900280FD0C5F8F4
:100130004461A07E00B12F60E07D002807D0E67505
:10014000607EE16804B0BDE8F041FFF779BABDE830
:10015000FF81000000200040A02400207FB5334C28
:100160004FF492712046FFF74FF9314D0026B0B1A0
:10017000C4F8246102208DF80000D4F88004C4F88B
:1001800080040390D4F83C058DF80800E8680190DD
:10019000EE752E76D5E90012684690471FE04FF4C1
:1001A00088712046FFF730F9C8B1C4F81061D4F85F
:1001B0003C05E97DC0B2814211D12A7E5AB1E9687D
:1001C000D4F8003223F02003C4F80032EA752A691B
:1001D000EA602E7601E0EE75E968FFF731FA4FF438
:1001E000A2712046FFF710F950B1C4F84461E87DD0
:1001F00030B1EE75D4F83C05E968C0B2FFF720FADB
:100200004FF490712046FFF7FFF800280CD0C4F897
:100210002061A87D002807D0D4F84C0504B0C0B2F6
:10022000BDE87040FFF704BF7FBD00000020004024
:10023000A02400200870000A48700220704710B502
:1002400093691C68635C491C89B2645C491C43EA7D
:1002500004230380936989B21C68635C491C89B2DA
:10026000645C491C43EA04234380926989B21368A1
:100270005A5C491C89B2595C42EA0121818010BD57
:1002800070B51546049A0C46902B70D010DC802B6C
:1002900070D006DC202B6AD0402B20D0602B1DD1E3
:1002A00040E0842B1BD0882B64D08C2B16D126E009
:1002B000A02B62D006DC942B34D0982B5DD09C2BE5
:1002C0000CD103E0C02B1AD0E02B07D19369218811
:1002D0009B8801F114069E4237D9238070BD936933
:1002E00021889B888E1D9E42F7D82B7803EB430311
:1002F00000EB8300FFF7A3FF2088801D30E09369A7
:1003000021889B8801F10C069E42E6D82B78891D36
:1003100003EB430389B200EB8300FFF790FF2088D3
:100320000C301DE0936921889B8801F10E069E42E6
:10033000D3D82B78083103EB430389B200EB830059
:10034000FFF77DFF20880E300AE02B780E3103EB9B
:10035000430389B200EB8300FFF771FF208814305C
:1003600020802878401C287070BD00E002E02088C2
:10037000083004E02088801D01E020880E300880CD
:10038000F2E710B593691C68635C491C89B2645C30
:10039000491C43EA04230380936989B21C68635CA7
:1003A000491C89B2645C491C43EA04234380926976
:1003B00089B213685A5C491C89B2595C42EA01212E
:1003C000818010BD70B51546049A0C46902B56D00E
:1003D00010DC802B2FD006DC202B50D0402B6AD095
:1003E000602B57D148E0842B65D0882B23D08C2BF1
:1003F00050D130E0A02B45D006DC942B3CD0982B7C
:1004000040D09C2B46D103E0C02B24D0E02B41D11F
:10041000936921889B8801F114069E4239D82B7874
:10042000083103EB430389B200EB8300FFF7A9FF18
:10043000208814303AE0936921889B888E1D9E4263
:1004400027D82B7803EB430300EB8300FFF799FFDA
:100450002088801D2AE0936921889B8801F10C0681
:100460009E4216D82B7803EB430300EB8300FFF783
:1004700088FF20880C3019E020880E301DE020888D
:1004800008301AE0936921889B8801F10E069E428C
:1004900001D9238070BD2B78083103EB430389B267
:1004A00000EB8300FFF76DFF20880E302080287856
:1004B000401C287070BD2088801D088070BD30B53C
:1004C0008B6902889988D41C8C420BD81C68A518AB
:1004D000A25CA9786D78090441EA052111431961EC
:1004E0000188C91C018030BD896902888B889A42C5
:1004F00001D3038070470B689A5C0A750188491C18
:100500000180704738B515494888A0F57F42FF3A09
:1005100023D04A78124C521CD2B24A70237B9342A9
:100520000AD3091D75DF002817D0A169002914D04E
:1005300001B0BDE83040084700254D70217C29B14D
:100540003B2176DF10B1A16901B1884761690029BB
:1005500003D08DF800506846884738BD1020002031
:1005600020240020EFF30580C005C00D13D0103803
:1005700040B2002804DB00F1E02090F8000405E020
:1005800000F00F0000F1E02090F8140D400902285F
:1005900003D0062803D002207047002070470120B6
:1005A000704742788378521CD2B2934200D1002225
:1005B0000378934201D1002070470A704168407867
:1005C00000EB400001EBC00070472DE9FC411646EE
:1005D000DDE90854CDE900541F468046022200F0B0
:1005E0000CF8002807D1CDE900543B4610223146D3
:1005F000404600F002F8BDE8FC812DE9FC5F0026D2
:10060000DDE90C4B994692468E4680462788354652
:1006100030E0D8F80400002200EB8500694600684D
:10062000019001A865DF002830D19DF800005045F9
:100630001FD10EB1002100E00221228808441118C8
:10064000594522D846B9521C90B2208009F800E0E2
:100650002088401C20800126218801A801EB090286
:10066000694665DF002811D120889DF800100844F4
:1006700020806D1CB8F80000A842CADC56B1208862
:10068000C01B401E80B2FF2802D90C20BDE8FC9F91
:1006900009F807000020F9E7017911B9007B00286B
:1006A00000D0012070470000010000070103030291
:1006B000010100000040004001000000040401109E
:1006C0002040800201080802040000000E00000023
:1006D0001E00000000006806020000009ECADC2424
:1006E0000EE5A9E093F3A3B50000406E00240020BE
:1006F000000000000100000000009801060000005A
:100700000000000001000000000098010600000049
:100710000100000000000000000000003031323312
:100720003435363738394142434445464C07020098
:10073000E81F0020A40000008CD00100F007020098
:100740008C200020DC5200009CD00100FFFF040040
:10075000020000000000000000000000FFFF000099
:100760000000000000000000000000000000000089
:100770000000000000000000000000000000000079
:100780000000000000000000000000000000000069
:100790000000000000000000000000000090D003F6
:1007A0000000000000000000000000000000000049
:1007B0000000000000000000000000000000000039
:1007C0000000000000000000000000000000000029
:1007D0000000000000000000000000000000000019
:1007E0000000000000000000000000000000000009
:040000050001C40131
:00000001FF
